{
  "contractName": "Migrations",
  "abi": [
    {
      "inputs": [],
      "stateMutability": "nonpayable",
      "type": "constructor"
    },
    {
      "inputs": [
        {
          "internalType": "uint256",
          "name": "completed",
          "type": "uint256"
        }
      ],
      "name": "setCompleted",
      "outputs": [],
      "stateMutability": "nonpayable",
      "type": "function"
    },
    {
      "inputs": [],
      "name": "getLastCompletedMigration",
      "outputs": [
        {
          "internalType": "uint256",
          "name": "",
          "type": "uint256"
        }
      ],
      "stateMutability": "view",
      "type": "function"
    }
  ],
  "bytecode": "0x60808060405234610027575f80546001600160a01b03191633179055610187908161002c8239f35b5f80fdfe6080806040526004361015610012575f80fd5b5f90813560e01c90816317921d5714610131575063fdacd57614610034575f80fd5b3461012e57602036600319011261012e578054600435906001600160a01b031633036100d55760015481111561006a5760015580f35b60405162461bcd60e51b815260206004820152603c60248201527f4d6967726174696f6e206d7573742062652067726561746572207468616e207460448201527f6865206c61737420636f6d706c65746564206d6967726174696f6e2e000000006064820152608490fd5b60405162461bcd60e51b815260206004820152602b60248201527f4f6e6c7920746865206f776e65722063616e2073657420636f6d706c6574656460448201526a1036b4b3b930ba34b7b71760a91b6064820152608490fd5b80fd5b90503461014d578160031936011261014d576020906001548152f35b5080fdfea2646970667358221220de13338bad64c308bc0f3cebb4c55618d040f722e128c9e038652b0877a1711764736f6c63430008150033",
  "immutableReferences": {},
  "source": "// SPDX-License-Identifier: MIT\r\npragma solidity ^0.8.0;\r\n\r\ncontract Migrations {\r\n    address private owner;\r\n    uint private last_completed_migration;\r\n\r\n    constructor() {\r\n        owner = msg.sender;\r\n    }\r\n\r\n    function setCompleted(uint completed) public {\r\n        require(msg.sender == owner, \"Only the owner can set completed migration.\");\r\n        require(completed > last_completed_migration, \"Migration must be greater than the last completed migration.\");\r\n        \r\n        last_completed_migration = completed;\r\n    }\r\n\r\n    function getLastCompletedMigration() public view returns (uint) {\r\n        return last_completed_migration;\r\n    }\r\n}\r\n",
  "sourcePath": "C:\\Users\\Shashwat Chaturvedi\\OneDrive - iiit-b\\college\\projects\\delance\\truffle_project(3)\\contracts\\Migrations.sol",
  "compiler": {
    "name": "solc",
    "version": "0.8.21+commit.d9974bed.Emscripten.clang"
  },
  "schemaVersion": "3.4.16",
  "updatedAt": "2024-11-02T06:47:19.198Z",
  "devdoc": {
    "kind": "dev",
    "methods": {},
    "version": 1
  },
  "userdoc": {
    "kind": "user",
    "methods": {},
    "version": 1
  }
}