{
  "contractName": "RequestManager",
  "abi": [
    {
      "inputs": [
        {
          "internalType": "address",
          "name": "_projectsContract",
          "type": "address"
        }
      ],
      "stateMutability": "nonpayable",
      "type": "constructor"
    },
    {
      "anonymous": false,
      "inputs": [
        {
          "indexed": false,
          "internalType": "uint256",
          "name": "projectId",
          "type": "uint256"
        },
        {
          "indexed": false,
          "internalType": "uint256",
          "name": "milestoneId",
          "type": "uint256"
        },
        {
          "indexed": false,
          "internalType": "uint256",
          "name": "updatedRating",
          "type": "uint256"
        }
      ],
      "name": "MilestoneAccepted",
      "type": "event"
    },
    {
      "anonymous": false,
      "inputs": [
        {
          "indexed": false,
          "internalType": "uint256",
          "name": "requestId",
          "type": "uint256"
        },
        {
          "indexed": false,
          "internalType": "uint256",
          "name": "milestoneId",
          "type": "uint256"
        },
        {
          "indexed": false,
          "internalType": "string",
          "name": "cid",
          "type": "string"
        }
      ],
      "name": "MilestoneReviewRequestSent",
      "type": "event"
    },
    {
      "anonymous": false,
      "inputs": [
        {
          "indexed": false,
          "internalType": "uint256",
          "name": "_reviewRequestId",
          "type": "uint256"
        }
      ],
      "name": "RejectionReasonAccepted",
      "type": "event"
    },
    {
      "anonymous": false,
      "inputs": [
        {
          "indexed": false,
          "internalType": "uint256",
          "name": "requestId",
          "type": "uint256"
        },
        {
          "indexed": false,
          "internalType": "address",
          "name": "freelancer",
          "type": "address"
        },
        {
          "indexed": false,
          "internalType": "address",
          "name": "escrowContract",
          "type": "address"
        }
      ],
      "name": "RequestAccepted",
      "type": "event"
    },
    {
      "anonymous": false,
      "inputs": [
        {
          "indexed": false,
          "internalType": "uint256",
          "name": "requestId",
          "type": "uint256"
        },
        {
          "indexed": false,
          "internalType": "address",
          "name": "freelancer",
          "type": "address"
        }
      ],
      "name": "RequestRejected",
      "type": "event"
    },
    {
      "anonymous": false,
      "inputs": [
        {
          "indexed": false,
          "internalType": "uint256",
          "name": "requestId",
          "type": "uint256"
        },
        {
          "indexed": false,
          "internalType": "uint256",
          "name": "projectId",
          "type": "uint256"
        },
        {
          "indexed": false,
          "internalType": "address",
          "name": "freelancer",
          "type": "address"
        }
      ],
      "name": "RequestSent",
      "type": "event"
    },
    {
      "inputs": [],
      "name": "milestoneReviewRequestCount",
      "outputs": [
        {
          "internalType": "uint256",
          "name": "",
          "type": "uint256"
        }
      ],
      "stateMutability": "view",
      "type": "function"
    },
    {
      "inputs": [
        {
          "internalType": "uint256",
          "name": "",
          "type": "uint256"
        }
      ],
      "name": "milestoneReviewRequests",
      "outputs": [
        {
          "internalType": "uint256",
          "name": "id",
          "type": "uint256"
        },
        {
          "internalType": "uint256",
          "name": "milestoneId",
          "type": "uint256"
        },
        {
          "internalType": "address",
          "name": "freelancer",
          "type": "address"
        },
        {
          "internalType": "string",
          "name": "cid",
          "type": "string"
        },
        {
          "internalType": "bool",
          "name": "reviewed",
          "type": "bool"
        }
      ],
      "stateMutability": "view",
      "type": "function"
    },
    {
      "inputs": [],
      "name": "projectsContract",
      "outputs": [
        {
          "internalType": "contract Projects",
          "name": "",
          "type": "address"
        }
      ],
      "stateMutability": "view",
      "type": "function"
    },
    {
      "inputs": [],
      "name": "requestCount",
      "outputs": [
        {
          "internalType": "uint256",
          "name": "",
          "type": "uint256"
        }
      ],
      "stateMutability": "view",
      "type": "function"
    },
    {
      "inputs": [
        {
          "internalType": "uint256",
          "name": "",
          "type": "uint256"
        }
      ],
      "name": "requests",
      "outputs": [
        {
          "internalType": "uint256",
          "name": "projectId",
          "type": "uint256"
        },
        {
          "internalType": "address",
          "name": "freelancer",
          "type": "address"
        },
        {
          "internalType": "uint256",
          "name": "freelancerRating",
          "type": "uint256"
        },
        {
          "internalType": "enum RequestManager.RequestStatus",
          "name": "status",
          "type": "uint8"
        },
        {
          "internalType": "contract Escrow",
          "name": "escrowContract",
          "type": "address"
        }
      ],
      "stateMutability": "view",
      "type": "function"
    },
    {
      "inputs": [
        {
          "internalType": "uint256",
          "name": "_projectId",
          "type": "uint256"
        },
        {
          "internalType": "uint256",
          "name": "_freelancerRating",
          "type": "uint256"
        }
      ],
      "name": "sendRequest",
      "outputs": [],
      "stateMutability": "nonpayable",
      "type": "function"
    },
    {
      "inputs": [
        {
          "internalType": "uint256",
          "name": "_requestId",
          "type": "uint256"
        }
      ],
      "name": "acceptRequest",
      "outputs": [],
      "stateMutability": "payable",
      "type": "function"
    },
    {
      "inputs": [
        {
          "internalType": "uint256",
          "name": "_requestId",
          "type": "uint256"
        },
        {
          "internalType": "string",
          "name": "_reason",
          "type": "string"
        }
      ],
      "name": "rejectRequest",
      "outputs": [
        {
          "internalType": "string",
          "name": "",
          "type": "string"
        }
      ],
      "stateMutability": "nonpayable",
      "type": "function"
    },
    {
      "inputs": [
        {
          "internalType": "uint256",
          "name": "_requestId",
          "type": "uint256"
        }
      ],
      "name": "getRequest",
      "outputs": [
        {
          "components": [
            {
              "internalType": "uint256",
              "name": "projectId",
              "type": "uint256"
            },
            {
              "internalType": "address",
              "name": "freelancer",
              "type": "address"
            },
            {
              "internalType": "uint256",
              "name": "freelancerRating",
              "type": "uint256"
            },
            {
              "internalType": "enum RequestManager.RequestStatus",
              "name": "status",
              "type": "uint8"
            },
            {
              "internalType": "contract Escrow",
              "name": "escrowContract",
              "type": "address"
            }
          ],
          "internalType": "struct RequestManager.Request",
          "name": "",
          "type": "tuple"
        }
      ],
      "stateMutability": "view",
      "type": "function"
    },
    {
      "inputs": [],
      "name": "viewAllRequests",
      "outputs": [
        {
          "internalType": "uint256[]",
          "name": "requestIds",
          "type": "uint256[]"
        },
        {
          "internalType": "uint256[]",
          "name": "projectIds",
          "type": "uint256[]"
        },
        {
          "internalType": "address[]",
          "name": "freelancers",
          "type": "address[]"
        },
        {
          "internalType": "uint256[]",
          "name": "freelancerRatings",
          "type": "uint256[]"
        },
        {
          "internalType": "enum RequestManager.RequestStatus[]",
          "name": "statuses",
          "type": "uint8[]"
        },
        {
          "internalType": "address[]",
          "name": "escrowContracts",
          "type": "address[]"
        }
      ],
      "stateMutability": "view",
      "type": "function"
    },
    {
      "inputs": [],
      "name": "viewRequestsByEmployer",
      "outputs": [
        {
          "internalType": "uint256[]",
          "name": "requestIds",
          "type": "uint256[]"
        },
        {
          "internalType": "uint256[]",
          "name": "projectIds",
          "type": "uint256[]"
        },
        {
          "internalType": "address[]",
          "name": "freelancers",
          "type": "address[]"
        },
        {
          "internalType": "uint256[]",
          "name": "freelancerRatings",
          "type": "uint256[]"
        },
        {
          "internalType": "enum RequestManager.RequestStatus[]",
          "name": "statuses",
          "type": "uint8[]"
        },
        {
          "internalType": "address[]",
          "name": "escrowContracts",
          "type": "address[]"
        }
      ],
      "stateMutability": "view",
      "type": "function"
    },
    {
      "inputs": [
        {
          "internalType": "uint256",
          "name": "_reviewRequestId",
          "type": "uint256"
        },
        {
          "internalType": "uint256",
          "name": "_projId",
          "type": "uint256"
        }
      ],
      "name": "acceptMilestoneReviewRequest",
      "outputs": [],
      "stateMutability": "payable",
      "type": "function"
    },
    {
      "inputs": [
        {
          "internalType": "uint256",
          "name": "_reviewRequestId",
          "type": "uint256"
        },
        {
          "internalType": "string",
          "name": "_reason",
          "type": "string"
        }
      ],
      "name": "rejectMilestoneReviewRequest",
      "outputs": [
        {
          "internalType": "string",
          "name": "",
          "type": "string"
        }
      ],
      "stateMutability": "view",
      "type": "function"
    },
    {
      "inputs": [
        {
          "internalType": "uint256",
          "name": "_reviewRequestId",
          "type": "uint256"
        }
      ],
      "name": "acceptRejectionReason",
      "outputs": [],
      "stateMutability": "nonpayable",
      "type": "function"
    },
    {
      "inputs": [
        {
          "internalType": "address",
          "name": "freelancer",
          "type": "address"
        }
      ],
      "name": "viewAcceptedProjectsByFreelancer",
      "outputs": [
        {
          "internalType": "uint256[]",
          "name": "ids",
          "type": "uint256[]"
        },
        {
          "internalType": "string[]",
          "name": "names",
          "type": "string[]"
        },
        {
          "internalType": "string[]",
          "name": "descriptions",
          "type": "string[]"
        },
        {
          "internalType": "uint256[]",
          "name": "rewards",
          "type": "uint256[]"
        },
        {
          "internalType": "enum Projects.Status[]",
          "name": "statuses",
          "type": "uint8[]"
        },
        {
          "internalType": "address[]",
          "name": "employers",
          "type": "address[]"
        }
      ],
      "stateMutability": "view",
      "type": "function"
    }
  ],
  "bytecode": "0x60803461007357601f61278838819003918201601f19168301916001600160401b038311848410176100775780849260209460405283398101031261007357516001600160a01b03811690819003610073575f80546001600160a01b0319169190911790556040516126fc908161008c8239f35b5f80fd5b634e487b7160e01b5f52604160045260245ffdfe610140604052600436101562000013575f80fd5b5f61010052610100513560e01c80630a5505dd1462001a3557806313e4324814620017bb5780631a79631514620010a657806331eb2af4146200100b5780634ba1f0981462000d8b5780634bd335b81462000d5c5780634d758c29146200094c5780635badbe4c146200092a57806381d12c5814620008b757806394e150291462000895578063a7080a18146200074a578063a817229a146200061c578063b3db5c941462000351578063bb6866e114620001ea5763c58343ef14620000d7575f80fd5b34620001e357602080600319360112620001e35760a090600435604051620000ff8162001d92565b610100518152610100518382015261010051604082015261010051606082015260806101005191015280610100515260018252600180841b03906200015282600160406101005120015416151562001ee4565b6101005152600182526040610100512091620001da60405193620001768562001d92565b805485528360018201541690838601918252600360028201549160408801928352015493856060880193620001af60ff88168662001ed7565b8160808a019760081c1687526040519851895251169087015251604086015251606085019062001c2b565b51166080820152f35b6101005180fd5b34620001e357602080600319360112620001e357600435610100515260038152604061010051208054600191828101549060018060a01b036002820154166003820191604051926101005196815490610100515081811c9281831692831562000346575b8b851084146200032c578488528b93908115620003085750600114620002be575b50505050600460ff916200028c85620002b2979899038662001dae565b015416936040519687968752860152604085015260a0606085015260a084019062001b91565b90151560808301520390f35b909291985061010051528761010051209161010051925b828410620002f4575050508301909501946004876200028c856200026f565b80548785018b0152928901928101620002d5565b60ff19168489015250505090151560051b84010195506004876200028c856200026f565b634e487b7160e01b61010051526022600452602461010051fd5b93607f16936200024e565b34620001e357620003623662001cfb565b811515806200059b575b156200056157610100805154604051631e1e7e5960e31b81526004810185905291516001600160a01b039492918290602490829088165afa9081156200055357610100519162000523575b506002811015620004ce57600103620004e857620003d760025462001eb4565b91826002556003604051620003ec8162001d92565b8381526020810192338452604082019081526060820193610100518552608083019661010051885261010051526001602052604061010051209251835587600184019151166bffffffffffffffffffffffff60a01b825416179055516002820155019051906003821015620004ce57805493516001600160a81b031990941660ff909216919091179290931660081b610100600160a81b0316919091179091557fe697eb68c0228bd7d4e553246a2a86e8402d0895e45092ef8ae87b4cfd29f01690606090600254906040519182526020820152336040820152a16101005180f35b634e487b7160e01b61010051526021600452602461010051fd5b60405162461bcd60e51b8152602060048201526013602482015272283937b532b1ba1034b9903737ba1037b832b760691b6044820152606490fd5b6200054691503d8061010051833e6200053d818362001dae565b81019062001e36565b50935050505084620003b7565b6040513d61010051823e3d90fd5b60405162461bcd60e51b8152602060048201526012602482015271125b9d985b1a59081c1c9bda9958dd08125160721b6044820152606490fd5b506101005154604051631b7dd69360e11b815290602090829060049082906001600160a01b03165afa90811562000553576101005191620005e1575b508211156200036c565b90506020813d821162000613575b81620005fe6020938362001dae565b810103126200060f575183620005d7565b5f80fd5b3d9150620005ef565b34620001e3576020366003190112620001e35760043580610100515260036020526040610100512060018060a01b036002820154163303620006e9576004019081549060ff8216620006a4577f25fa961293610a63a633d14b93d5aa91df30ab4131e3e197fbb148988f45f2fa92600160209360ff1916179055604051908152a16101005180f35b60405162461bcd60e51b815260206004820152601f60248201527f526576696577207265717565737420616c7265616479207265766965776564006044820152606490fd5b60405162461bcd60e51b815260206004820152603360248201527f4f6e6c792074686520667265656c616e6365722063616e2061636365707420746044820152723432903932b532b1ba34b7b7103932b0b9b7b760691b6064820152608490fd5b34620001e35761010051366003190112620001e357600280546200076e8162001f84565b620007798262001f84565b92620007858362001f84565b620007908462001f84565b6200079b8562001f84565b91620007a78662001f84565b93600190815b88811115620007d157505050620007cd9495506040519687968762001c4d565b0390f35b8061010051528260205260406101005120905f1981018181116200087b576200086e62000875938362000805848e62001fbc565b528d620008158483549262001fbc565b52868101546001600160a01b0391600391831662000834868c62001fbc565b528781015462000845868d62001fbc565b5201546200086260ff82166200085c868e62001fbc565b62001ed7565b60081c16918a62001fbc565b5262001eb4565b620007ad565b634e487b7160e01b61010051526011600452602461010051fd5b34620001e35761010051366003190112620001e3576020600454604051908152f35b34620001e3576020366003190112620001e3576004356101005152600160205260a060406101005120805490600180841b039081600182015416906003600282015491015491604051948552602085015260408401526200091f6060840160ff831662001c2b565b60081c166080820152f35b34620001e35761010051366003190112620001e3576020600254604051908152f35b34620001e3576020366003190112620001e3576004356001600160a01b0381168103620001e357600254620009818162001f84565b916200098d82620020d6565b906200099983620020d6565b60e052620009a78362001f84565b60c052620009b58362001f84565b60a052620009c38362001f84565b608052610100519260015b8181111562000bcb57505050620009e58262001f84565b91620009f181620020d6565b620009fc82620020d6565b9062000a088362001f84565b9262000a148162001f84565b9462000a208262001f84565b97610100515b83811062000ae3575050505062000a85929162000a6762000a769262000a586040519860c08a5260c08a019062001bb8565b9088820360208a015262001d12565b90868203604088015262001d12565b90848203606086015262001bb8565b82810360808401526020808351928381520192019061010051905b80821062000abe578480620007cd868983820360a085015262001bed565b9091928351906002821015620004ce5760208160019382935201940192019062000aa0565b62000aef818362001fbc565b5162000afc828b62001fbc565b5262000b09818462001fbc565b5162000b16828762001fbc565b5262000b23818662001fbc565b5062000b328160e05162001fbc565b5162000b3f828862001fbc565b5262000b4c818762001fbc565b5062000b5b8160c05162001fbc565b5162000b68828962001fbc565b5262000b778160a05162001fbc565b51906002821015620004ce5762000b9e62000bc59262000b98838c62001fbc565b62002127565b6080516001600160a01b039062000bb790839062001fbc565b51166200086e828d62001fbc565b62000a26565b806101005152600160205260406101005120600360ff818301541690811015620004ce576001148062000d42575b62000c11575b5062000c0b9062001eb4565b620009ce565b909460018060a01b0361010051541691549160405192631e1e7e5960e31b845260048401528260248161010051935afa90811562000553578762000d009262000c0b94610100516101005161010051906101005192876101005195610100519762000d08575b5062000c899062000cdf979862001fbc565b5262000c96878d62001fbc565b5262000ca3868c62001fbc565b5062000cb28660e05162001fbc565b5262000cc18560e05162001fbc565b5062000cd08560c05162001fbc565b5262000b988460a05162001fbc565b62000ced8260805162001fbc565b6001600160a01b03909116905262001eb4565b949062000bff565b925093505062000cdf945062000c89935062000d3391503d8061010051833e6200053d818362001dae565b97509590949193919062000c77565b5060018101546001600160a01b0385811691161462000bf9565b34620001e35761010051366003190112620001e35761010051546040516001600160a01b039091168152602090f35b602080600319360112620001e357600435806101005152600182526040610100512090600182019160018060a01b03908184541662000dcc81151562001ee4565b600382019160ff8354166003811015620004ce5762000fcd578361010051541690549060405191631e1e7e5960e31b835260048301528160248161010051935afa91821562000553578461010051936101005193610100519162000f9d575b50169182330362000f47576002811015620004ce5760010362000f0b576040519161059290818401908482106001600160401b0383111762000ef157604093859362002135853982528a820152030191f0948515620005535781546001600160a81b031916610100600160a81b03600897881b1617600117918290559354604080519485529083169484019490945290931c909216908201527fac8064fea85b95641f19e230ba9da498102d474473fe4b103466cb224daf5e0190606090a16101005180f35b634e487b7160e01b61010051526041600452602461010051fd5b60405162461bcd60e51b8152600481018990526014602482015273283937b532b1ba1036bab9ba1031329037b832b760611b6044820152606490fd5b60405162461bcd60e51b8152600481018a9052602860248201527f4f6e6c792074686520656d706c6f7965722063616e2061636365707420746865604482015267081c995c5d595cdd60c21b6064820152608490fd5b9194505062000fbc9192503d8061010051833e6200053d818362001dae565b959450959250905093928a62000e2b565b60405162461bcd60e51b815260048101889052601660248201527552657175657374206973206e6f742070656e64696e6760501b6044820152606490fd5b34620001e3576200101c3662001b1d565b90916101005152600360205260ff6004604061010051200154166200106257620007cd916200104d91369162001f31565b60405191829160208352602083019062001b91565b606460405162461bcd60e51b815260206004820152602060248201527f526576696577207265717565737420616c72656164792070726f6365737365646044820152fd5b620010b13662001cfb565b906101005152600360205260406101005120600481015460ff81166200177657600182015461010080515460405163010b152760e61b81526004810187905291516001600160a01b03909116959082602481895afa94851562000553576101005161012081905295869384918291829182919062001594575b5061010051998a805b825181101562001581578a6200114a828562001fbc565b511462001162576200115c9062001eb4565b62001133565b620011aa969798999a9b9c50809594819350620011a292506200119b826200119b966200119b8260019d6200119b826101205162001fbc565b5062001fbc565b519862001fbc565b505b156200153c5760405195631e1e7e5960e31b87528260048801528660248161010051935afa9485156200055357610100519687968791906200150c575b50336001600160a01b0390911603620014b75760ff19166001176004828101919091556002909101546101005154604051633a766ddf60e01b81526001600160a01b0392831693810184905297929392911690602088602481855afa978815620005535761010051986200147c575b5060649004846005026005810486036200087b57811562001462570487018097116200087b576101f480881162001459575b50803b15620001e3576040519063018f728360e21b825283600483015287602483015281604481610100519361010051905af18015620005535762001447575b50610100516002549092839290835b838110620013e6575b5050505015620013a1576101005152600160205260018060a01b03600360406101005120015460081c16803b15620001e3576040519163cd0c15bf60e01b8352600483015281602481610100519361010051905af18015620005535762001382575b7f27d841e82fb3b2469e89e27c70f2ec8597324e08569a13460e4dd8a1a3c0b10c606084868560405192835260208301526040820152a16101005180f35b620013909092919262001d6a565b61010051620001e357908362001344565b60405162461bcd60e51b815260206004820152601c60248201527f4173736f6369617465642072657175657374206e6f7420666f756e64000000006044820152606490fd5b806101005152600160205260406101005120828482541491826200142f575b50506200141d57620014179062001eb4565b620012d9565b945050505050600186808080620012e2565b600101546001600160a01b0316149050828c62001405565b620014529062001d6a565b86620012ca565b9650876200128a565b634e487b7160e01b61010051526012600452602461010051fd5b9097506020813d602011620014ae575b816200149b6020938362001dae565b81010312620001e3575196606462001258565b3d91506200148c565b60405162461bcd60e51b815260206004820152602760248201527f4f6e6c792074686520656d706c6f7965722063616e20616363657074206d696c6044820152666573746f6e657360c81b6064820152608490fd5b919650506200152b9196503d8061010051833e6200053d818362001dae565b9994925050969150959688620011e9565b60405162461bcd60e51b815260206004820152601860248201527f4d696c6573746f6e6520646f6573206e6f7420657869737400000000000000006044820152606490fd5b5098999a959697505050505050620011ac565b96505050505094503d948561010051843e620015b1868462001dae565b610100838781010312620001e35782516001600160401b038111620001e357620015e19087850190850162001fe5565b9260208101516001600160401b038111620001e357620016079088830190830162001fe5565b5060408101516001600160401b038111620001e3576200162d908883019083016200204c565b9660608201516001600160401b038111620001e35762001653908284019084016200204c565b9160808101516001600160401b038111620001e357620016799083830190830162001fe5565b9260a08201516001600160401b038111620001e3576200169f9084840190840162001fe5565b9260c0830151926001600160401b038411620001e357818101601f858301011215620001e3578381015193620016d58562001f6c565b94620016e5604051968762001dae565b808652602086019184840160208360051b838701010111620001e35791602083850101925b60208360051b8287010101841062001755575050505060e08101516001600160401b038111620001e3576200174392820191016200204c565b96996101205292919095918b6200112a565b8351918215158303620001e35760208181948293520194019391506200170a565b60405162461bcd60e51b815260206004820152601f60248201527f526576696577207265717565737420616c7265616479206163636570746564006044820152606490fd5b34620001e35761010051366003190112620001e3576101005160025481546001600160a01b0316919060015b818111156200198e5750620017fc8262001f84565b90620018088362001f84565b92620018148162001f84565b6200181f8262001f84565b90620018366200182f8462001f84565b9362001f84565b936101005160015b828111156200185f57505050620007cd949596506040519687968762001c4d565b8061010051526001602052604061010051205460405190631e1e7e5960e31b825260048201528a8160248161010051935afa9081156200055357610100519162001967575b506001600160a01b03163314620018c7575b620018c19062001eb4565b6200183e565b906200195e620018c191836101005152600160205260038a85620018f384604061010051209362001fbc565b52805462001902848f62001fbc565b5260018101546001600160a01b03166200191d848a62001fbc565b5260028101546200192f848b62001fbc565b5201546200194660ff82166200085c848c62001fbc565b60081c6001600160a01b03166200086e828b62001fbc565b919050620018b6565b6200198191503d8061010051833e6200053d818362001dae565b9450505050508b620018a4565b8061010051526001602052604061010051205460405190631e1e7e5960e31b825260048201526101005181602481885afa9081156200055357610100519162001a0e575b506001600160a01b03163314620019f5575b620019ef9062001eb4565b620017e7565b9162001a05620019ef9162001eb4565b929050620019e4565b62001a2891503d8061010051833e6200053d818362001dae565b94505050505085620019d2565b34620001e35762001a463662001b1d565b9082610100515260016020526040610100512091600360018060a01b036001850154169362001a7785151562001ee4565b01805460ff81166003811015620004ce5762001ad857620007cd956200104d957f490ad67e4c8b3b9c1d11dfcd7f02e155190b8f6feff3a9d9e9df3721f0f74e5793600260409460ff191617905582519182526020820152a1369162001f31565b60405162461bcd60e51b815260206004820152601960248201527f5265717565737420616c72656164792070726f636573736564000000000000006044820152606490fd5b60406003198201126200060f57600435916024356001600160401b03928382116200060f57806023830112156200060f5781600401359384116200060f57602484830101116200060f576024019190565b5f5b83811062001b805750505f910152565b818101518382015260200162001b70565b9060209162001bac8151809281855285808601910162001b6e565b601f01601f1916010190565b9081518082526020808093019301915f5b82811062001bd8575050505090565b83518552938101939281019260010162001bc9565b9081518082526020808093019301915f5b82811062001c0d575050505090565b83516001600160a01b03168552938101939281019260010162001bfe565b90600382101562001c395752565b634e487b7160e01b5f52602160045260245ffd5b9262001c929062001c8362001c7362001ca1959a99979460c0885260c088019062001bb8565b60209a8782038c89015262001bb8565b90858203604087015262001bed565b90838203606085015262001bb8565b81810360808301528580855192838152019401905f5b81811062001cda5750505062001cd793945060a081840391015262001bed565b90565b90919487808262001cef6001948a5162001c2b565b01960192910162001cb7565b60409060031901126200060f576004359060243590565b90815180825260208092019182818360051b85019501935f915b84831062001d3d5750505050505090565b909192939495848062001d5983856001950387528a5162001b91565b980193019301919493929062001d2c565b6001600160401b03811162001d7e57604052565b634e487b7160e01b5f52604160045260245ffd5b60a081019081106001600160401b0382111762001d7e57604052565b90601f801991011681019081106001600160401b0382111762001d7e57604052565b6001600160401b03811162001d7e57601f01601f191660200190565b81601f820112156200060f57805162001e058162001dd0565b9262001e15604051948562001dae565b818452602082840101116200060f5762001cd7916020808501910162001b6e565b60c0818303126200060f5780519260208201516001600160401b03908181116200060f578462001e6891850162001dec565b9360408401519182116200060f5762001e8391840162001dec565b91606081015191608082015160028110156200060f5760a092909201516001600160a01b03811681036200060f5790565b5f19811462001ec35760010190565b634e487b7160e01b5f52601160045260245ffd5b600382101562001c395752565b1562001eec57565b60405162461bcd60e51b815260206004820152601d60248201527f4e6f20726571756573742065786973747320666f7220746869732049440000006044820152606490fd5b92919262001f3f8262001dd0565b9162001f4f604051938462001dae565b8294818452818301116200060f578281602093845f960137010152565b6001600160401b03811162001d7e5760051b60200190565b9062001f908262001f6c565b62001f9f604051918262001dae565b828152809262001fb2601f199162001f6c565b0190602036910137565b805182101562001fd15760209160051b010190565b634e487b7160e01b5f52603260045260245ffd5b9080601f830112156200060f57815190602091620020038162001f6c565b9362002013604051958662001dae565b818552838086019260051b8201019283116200060f578301905b8282106200203c575050505090565b815181529083019083016200202d565b81601f820112156200060f57805191602091620020698462001f6c565b9362002079604051958662001dae565b808552838086019160051b830101928084116200060f57848301915b848310620020a65750505050505090565b82516001600160401b0381116200060f578691620020ca8484809489010162001dec565b81520192019162002095565b90620020e28262001f6c565b620020f1604051918262001dae565b828152809262002104601f199162001f6c565b01905f5b8281106200211557505050565b80606060208093850101520162002108565b600282101562001c39575256fe6080601f61059238819003918201601f19168301916001600160401b0383118484101761008f57808492604094855283398101031261008b5761004d6020610046836100a3565b92016100a3565b5f80546001600160a01b039384166001600160a01b03199182161790915560018054929093169116179055346002556040516104da90816100b88239f35b5f80fd5b634e487b7160e01b5f52604160045260245ffd5b51906001600160a01b038216820361008b5756fe60406080815260049081361015610014575f80fd5b5f91823560e01c806345ad1a2e14610329578063590e1ae31461025957806369d89575146101fa578063a37dda2c146101d2578063aa8c217c146101b3578063ae200e79146101865763cd0c15bf1461006b575f80fd5b3461018257602036600319011261018257600254908035821561013f57808302908382040361012c57606490049182116100d85750825483918291829182916001600160a01b03168282156100cf575bf1156100c5575080f35b51903d90823e3d90fd5b506108fc6100bb565b608490602084519162461bcd60e51b8352820152602860248201527f4d696c6573746f6e65207061796d656e74206578636565647320657363726f776044820152672062616c616e636560c01b6064820152fd5b634e487b7160e01b855260118252602485fd5b835162461bcd60e51b8152602081840152601c60248201527f496e73756666696369656e742066756e647320696e20657363726f77000000006044820152606490fd5b8280fd5b5050346101af57816003193601126101af5760015490516001600160a01b039091168152602090f35b5080fd5b5050346101af57816003193601126101af576020906002549051908152f35b5050346101af57816003193601126101af57905490516001600160a01b039091168152602090f35b5050346101af57816003193601126101af578180808060018060a01b036102268160015416331461040a565b600254908115906102378215610462565b835416908390610250575bf1156100c557508060025580f35b506108fc610242565b503461018257826003193601126101825782546001600160a01b0316338190036102d55760025491821561029d575083808093819382f1156100c557508060025580f35b606490602085519162461bcd60e51b83528201526012602482015271139bc8199d5b991cc81d1bc81c99599d5b9960721b6044820152fd5b506020608492519162461bcd60e51b8352820152602860248201527f4f6e6c792074686520667265656c616e6365722063616e20726571756573742060448201526718481c99599d5b9960c21b6064820152fd5b50346101825760203660031901126101825780359160018060a01b036103548160015416331461040a565b600254610362811515610462565b84116103b9578480808681948254168282156103b0575bf1156103a75750600254918203918211610394575060025580f35b634e487b7160e01b835260119052602482fd5b513d84823e3d90fd5b506108fc610379565b815162461bcd60e51b8152602081850152602560248201527f5265647563656420616d6f756e74206578636565647320657363726f772062616044820152646c616e636560d81b6064820152608490fd5b1561041157565b60405162461bcd60e51b815260206004820152602360248201527f4f6e6c792074686520656d706c6f7965722063616e2072656c656173652066756044820152626e647360e81b6064820152608490fd5b1561046957565b60405162461bcd60e51b81526020600482015260136024820152724e6f2066756e647320746f2072656c6561736560681b6044820152606490fdfea264697066735822122017615ecc43ff183f9b2254f53c7e9ce019638bfcc730ad53557f93fc1b1f0a3a64736f6c63430008150033a26469706673582212200962c6900d4d0fe307dbc724be1a6e057909e51b286a595eda899eb886e45ad564736f6c63430008150033",
  "immutableReferences": {},
  "source": "// SPDX-License-Identifier: MIT\r\npragma solidity ^0.8.0;\r\n\r\nimport \"./Projects.sol\";\r\n\r\ncontract Escrow {\r\n    address public freelancer;\r\n    address public employer;\r\n    uint public amount;\r\n\r\n    constructor(address _freelancer, address _employer) payable {\r\n        freelancer = _freelancer;\r\n        employer = _employer;\r\n        amount = msg.value; // Set the amount to the value sent during the contract creation\r\n    }\r\n\r\n    function releaseFunds() external {\r\n        require(msg.sender == employer, \"Only the employer can release funds\");\r\n        require(amount > 0, \"No funds to release\");\r\n        payable(freelancer).transfer(amount);\r\n        amount = 0; // Set amount to 0 after release\r\n    }\r\n\r\n    function refund() external {\r\n        require(msg.sender == freelancer, \"Only the freelancer can request a refund\");\r\n        require(amount > 0, \"No funds to refund\");\r\n        payable(freelancer).transfer(amount);\r\n        amount = 0; // Set amount to 0 after refund\r\n    }\r\n\r\n    function releaseReducedFunds(uint _reducedAmount) external {\r\n        require(msg.sender == employer, \"Only the employer can release funds\");\r\n        require(amount > 0, \"No funds to release\");\r\n        require(_reducedAmount <= amount, \"Reduced amount exceeds escrow balance\");\r\n\r\n        payable(freelancer).transfer(_reducedAmount);\r\n        amount -= _reducedAmount; // Deduct the paid amount from the total escrow balance\r\n    }\r\n\r\n    function releaseMilestonePayment(uint milestonePercentage) external {\r\n        require(amount > 0, \"Insufficient funds in escrow\");\r\n\r\n        uint milestonePayment = (amount * milestonePercentage) / 100;\r\n        require(milestonePayment <= amount, \"Milestone payment exceeds escrow balance\");\r\n\r\n        payable(freelancer).transfer(milestonePayment);\r\n        // amount -= milestonePayment;\r\n    }\r\n}\r\n\r\ncontract RequestManager {\r\n    Projects public projectsContract;\r\n\r\n    enum RequestStatus { Pending, Accepted, Rejected }\r\n\r\n    struct Request {\r\n        uint projectId;\r\n        address freelancer;\r\n        uint freelancerRating;\r\n        RequestStatus status;\r\n        Escrow escrowContract;\r\n    }\r\n\r\n    struct MilestoneReviewRequest {\r\n        uint id;\r\n        uint milestoneId;\r\n        address freelancer;\r\n        string cid;\r\n        bool reviewed;\r\n    }\r\n\r\n    // Store all requests in a single mapping\r\n    mapping(uint => Request) public requests;\r\n    uint public requestCount; // To keep track of the total number of requests\r\n\r\n    mapping(uint => MilestoneReviewRequest) public milestoneReviewRequests;\r\n    uint public milestoneReviewRequestCount;\r\n\r\n    event RequestSent(uint requestId, uint projectId, address freelancer);\r\n    event RequestAccepted(uint requestId, address freelancer, address escrowContract);\r\n    event RequestRejected(uint requestId, address freelancer);\r\n    event MilestoneReviewRequestSent(uint requestId, uint milestoneId, string cid);\r\n    event MilestoneAccepted(uint projectId, uint milestoneId, uint updatedRating);\r\n    event RejectionReasonAccepted(uint _reviewRequestId);\r\n\r\n    constructor(address _projectsContract) {\r\n        projectsContract = Projects(_projectsContract);\r\n    }\r\n\r\n    function sendRequest(uint _projectId, uint _freelancerRating) public {\r\n        require(_projectId > 0 && _projectId <= projectsContract.projectCount(), \"Invalid project ID\");\r\n        (,, , , Projects.Status status, ) = projectsContract.getProject(_projectId);\r\n        require(status == Projects.Status.Open, \"Project is not open\");\r\n\r\n        // Create a new request\r\n        requestCount++; // Increment request count to create a unique ID\r\n        requests[requestCount] = Request({\r\n            projectId: _projectId,\r\n            freelancer: msg.sender,\r\n            freelancerRating: _freelancerRating,\r\n            status: RequestStatus.Pending,\r\n            escrowContract: Escrow(address(0))\r\n        });\r\n\r\n        emit RequestSent(requestCount, _projectId, msg.sender);\r\n    }\r\n\r\n    function acceptRequest(uint _requestId) public payable {\r\n        Request storage request = requests[_requestId];\r\n        require(request.freelancer != address(0), \"No request exists for this ID\");\r\n        require(request.status == RequestStatus.Pending, \"Request is not pending\");\r\n\r\n        // Fetch project details\r\n        (,, , uint projectReward, Projects.Status status, address employer) = projectsContract.getProject(request.projectId);\r\n        require(msg.sender == employer, \"Only the employer can accept the request\");\r\n        require(status == Projects.Status.Open, \"Project must be open\");\r\n\r\n        // Create new escrow contract instance with freelancer and employer details\r\n        request.escrowContract = new Escrow{value: projectReward}(request.freelancer, employer);\r\n\r\n        request.status = RequestStatus.Accepted;\r\n        emit RequestAccepted(_requestId, request.freelancer, address(request.escrowContract));\r\n    }\r\n\r\n    function rejectRequest(uint _requestId, string calldata _reason) public returns (string memory) {\r\n        Request storage request = requests[_requestId];\r\n        require(request.freelancer != address(0), \"No request exists for this ID\");\r\n        require(request.status == RequestStatus.Pending, \"Request already processed\");\r\n\r\n        request.status = RequestStatus.Rejected;\r\n        emit RequestRejected(_requestId, request.freelancer);\r\n\r\n        return _reason; // Return the reason for rejection\r\n    }\r\n\r\n    \r\n\r\n    function getRequest(uint _requestId) public view returns (Request memory) {\r\n        require(requests[_requestId].freelancer != address(0), \"No request exists for this ID\");\r\n        return requests[_requestId];\r\n    }\r\n\r\n    // New function to view all requests\r\n    function viewAllRequests() public view returns (\r\n        uint[] memory requestIds,\r\n        uint[] memory projectIds,\r\n        address[] memory freelancers,\r\n        uint[] memory freelancerRatings,\r\n        RequestStatus[] memory statuses,\r\n        address[] memory escrowContracts\r\n    ) {\r\n        uint count = requestCount;\r\n\r\n        // Initialize arrays based on the total request count\r\n        requestIds = new uint[](count);\r\n        projectIds = new uint[](count);\r\n        freelancers = new address[](count);\r\n        freelancerRatings = new uint[](count);\r\n        statuses = new RequestStatus[](count);\r\n        escrowContracts = new address[](count);\r\n\r\n        // Populate the arrays with request details\r\n        for (uint i = 1; i <= requestCount; i++) {\r\n            Request storage request = requests[i];\r\n            requestIds[i - 1] = i;\r\n            projectIds[i - 1] = request.projectId;\r\n            freelancers[i - 1] = request.freelancer;\r\n            freelancerRatings[i - 1] = request.freelancerRating;\r\n            statuses[i - 1] = request.status;\r\n            escrowContracts[i - 1] = address(request.escrowContract);\r\n        }\r\n\r\n        return (requestIds, projectIds, freelancers, freelancerRatings, statuses, escrowContracts);\r\n    }\r\n\r\n\r\n    // function acceptMilestone(uint _milestoneId, uint _actualDaysTaken, uint _delayPenalty, uint _requestId) public payable {\r\n    //     Request memory request = getRequest(_requestId); // Retrieve the request using requestId\r\n\r\n    //     // Ensure projectId is valid\r\n    //     require(request.projectId > 0 && request.projectId <= projectsContract.projectCount(), \"Project does not exist\");\r\n\r\n    //     // Retrieve the project details using the getProject function\r\n    //     (, , , uint reward, , address employer) = projectsContract.getProject(request.projectId);\r\n    //     require(msg.sender == employer, \"Only the employer can accept milestones\");\r\n\r\n    //     // Ensure milestoneId is valid\r\n    //     (\r\n    //         uint[] memory ids,\r\n    //         uint[] memory projectIds,\r\n    //         string[] memory names,\r\n    //         string[] memory descriptions,\r\n    //         uint[] memory daycounts,\r\n    //         uint[] memory percentages,\r\n    //         bool[] memory completions,\r\n    //         string[] memory proofFileHashes\r\n    //     ) = projectsContract.getMilestones(request.projectId);\r\n\r\n    //     // Check if the milestone exists and is within bounds\r\n    //     require(_milestoneId > 0 && _milestoneId <= ids.length, \"Milestone does not exist\");\r\n        \r\n    //     // Fetch milestone data by using _milestoneId as an index\r\n    //     uint milestoneIndex = _milestoneId - 1;\r\n    //     require(!completions[milestoneIndex], \"Milestone already completed\");\r\n    //     require(bytes(proofFileHashes[milestoneIndex]).length > 0, \"Proof file not uploaded\");\r\n\r\n    //     // Mark the milestone as completed\r\n    //     projectsContract.completeMilestone(request.projectId, _milestoneId);\r\n\r\n    //     // Calculate and update freelancer rating based on the provided formula\r\n    //     uint currentRating = projectsContract.getFreelancerRating(request.freelancer);\r\n    //     uint rewardWeight = (percentages[milestoneIndex] * reward) / 100;\r\n    //     int ratingChange = int((5 * 100 * rewardWeight * daycounts[milestoneIndex]) / (reward * _actualDaysTaken));\r\n\r\n    //     // Cap the increment at +0.2 if positive\r\n    //     if (ratingChange > 20) {\r\n    //         ratingChange = 20;\r\n    //     }\r\n\r\n    //     uint newRating = uint(int(currentRating) + ratingChange);\r\n\r\n    //     // Ensure new rating doesn't exceed 5.0 (500 basis points)\r\n    //     if (newRating > 500) {\r\n    //         newRating = 500;\r\n    //     }\r\n\r\n    //     // Update the freelancer's rating\r\n    //     projectsContract.setFreelancerRating(request.freelancer, newRating);\r\n\r\n    //     // Release milestone payment from the escrow with the specified penalty\r\n    //     uint milestonePercentage = percentages[milestoneIndex];\r\n    //     request.escrowContract.releaseMilestonePayment(milestonePercentage, _delayPenalty);\r\n\r\n    //     emit MilestoneAccepted(request.projectId, _milestoneId, newRating);\r\n    // }\r\n\r\n\r\n    function viewRequestsByEmployer() public view returns (\r\n            uint[] memory requestIds,\r\n            uint[] memory projectIds,\r\n            address[] memory freelancers,\r\n            uint[] memory freelancerRatings,\r\n            RequestStatus[] memory statuses,\r\n            address[] memory escrowContracts\r\n        ) {\r\n            uint count = 0;\r\n\r\n            // Count requests that belong to projects owned by the employer\r\n            for (uint i = 1; i <= requestCount; i++) {\r\n                uint projectId = requests[i].projectId;\r\n                (, , , , , address employer) = projectsContract.getProject(projectId);\r\n                if (employer == msg.sender) {\r\n                    count++;\r\n                }\r\n            }\r\n\r\n            // Initialize arrays based on the count of matching requests\r\n            requestIds = new uint[](count);\r\n            projectIds = new uint[](count);\r\n            freelancers = new address[](count);\r\n            freelancerRatings = new uint[](count);\r\n            statuses = new RequestStatus[](count);\r\n            escrowContracts = new address[](count);\r\n\r\n            uint index = 0;\r\n\r\n            // Populate the arrays with matching request details\r\n            for (uint i = 1; i <= requestCount; i++) {\r\n                uint projectId = requests[i].projectId;\r\n                (, , , , , address employer) = projectsContract.getProject(projectId);\r\n                if (employer == msg.sender) {\r\n                    Request storage request = requests[i];\r\n                    requestIds[index] = i;\r\n                    projectIds[index] = request.projectId;\r\n                    freelancers[index] = request.freelancer;\r\n                    freelancerRatings[index] = request.freelancerRating;\r\n                    statuses[index] = request.status;\r\n                    escrowContracts[index] = address(request.escrowContract);\r\n                    index++;\r\n                }\r\n            }\r\n\r\n            return (requestIds, projectIds, freelancers, freelancerRatings, statuses, escrowContracts);\r\n    }\r\n\r\n\r\nfunction acceptMilestoneReviewRequest(uint _reviewRequestId, uint _projId) public payable {\r\n    // Fetch the  request using the ID\r\n    MilestoneReviewRequest storage reviewRequest = milestoneReviewRequests[_reviewRequestId];\r\n    require(!reviewRequest.reviewed, \"Review request already accepted\");\r\n\r\n    // Get the milestone ID from the  request\r\n    uint milestoneId = reviewRequest.milestoneId;\r\n\r\n    // Retrieve the associated milestones for the project\r\n    (\r\n        uint[] memory ids,\r\n        uint[] memory projectIds,\r\n        string[] memory names,\r\n        string[] memory descriptions,\r\n        uint[] memory daycounts,\r\n        uint[] memory percentages,\r\n        bool[] memory completions,\r\n        string[] memory proofFileHashes\r\n    ) = projectsContract.getMilestones(_projId);\r\n\r\n    // Initialize variables to store the milestone data once we find it\r\n    bool milestoneFound = false;\r\n    string memory milestoneName;\r\n    string memory milestoneDescription;\r\n    uint milestoneDaycount;\r\n    uint milestonePercentage;\r\n    bool milestoneCompleted;\r\n    string memory milestoneProofFileHash;\r\n\r\n    // Search for the milestone with the specified milestoneId\r\n    for (uint i = 0; i < ids.length; i++) {\r\n        if (ids[i] == milestoneId) {\r\n            milestoneFound = true;\r\n            milestoneName = names[i];\r\n            milestoneDescription = descriptions[i];\r\n            milestoneDaycount = daycounts[i];\r\n            milestonePercentage = percentages[i];\r\n            milestoneCompleted = completions[i];\r\n            milestoneProofFileHash = proofFileHashes[i];\r\n            break;\r\n        }\r\n    }\r\n\r\n    require(milestoneFound, \"Milestone does not exist\");\r\n\r\n    // Use getProject to retrieve the project details\r\n    (\r\n        uint projId,\r\n        string memory projName,\r\n        string memory projDescription,\r\n        uint projReward,\r\n        Projects.Status projStatus,\r\n        address projEmployer\r\n    ) = projectsContract.getProject(_projId);\r\n\r\n    // Verify that the sender is the employer of the project\r\n    require(projEmployer == msg.sender, \"Only the employer can accept milestones\");\r\n\r\n    // Mark the review request as accepted\r\n    reviewRequest.reviewed = true;\r\n\r\n    // Get freelancer's address from the request\r\n    address freelancer = reviewRequest.freelancer;\r\n\r\n    // Update freelancer rating based on the milestone percentage\r\n    uint currentRating = projectsContract.getFreelancerRating(freelancer);\r\n    uint rewardWeight = projReward / 100;\r\n    uint newRating = currentRating + (5 * milestonePercentage / rewardWeight);\r\n\r\n    // Ensure the new rating does not exceed 500\r\n    if (newRating > 500) {\r\n        newRating = 500;\r\n    }\r\n\r\n    // Set the new rating for the freelancer\r\n    projectsContract.setFreelancerRating(freelancer, newRating);\r\n\r\n    // Find the request with the matching projectId and freelancer\r\n    uint requestIndex;\r\n    bool foundRequest = false;\r\n\r\n    for (uint i = 0; i < requestCount; i++) {\r\n        if (requests[i].projectId == _projId && requests[i].freelancer == freelancer) {\r\n            requestIndex = i;\r\n            foundRequest = true;\r\n            break;\r\n        }\r\n    }\r\n    require(foundRequest, \"Associated request not found\");\r\n\r\n    // Release the milestone payment from escrow using the found request\r\n    requests[requestIndex].escrowContract.releaseMilestonePayment(milestonePercentage);\r\n\r\n    // Emit an event to record the milestone acceptance\r\n    emit MilestoneAccepted(projId, milestoneId, newRating);\r\n}\r\n\r\n\r\n\r\n\r\n    function rejectMilestoneReviewRequest(uint _reviewRequestId, string calldata _reason) view  public returns (string memory) {\r\n        MilestoneReviewRequest storage reviewRequest = milestoneReviewRequests[_reviewRequestId];\r\n        require(!reviewRequest.reviewed, \"Review request already processed\");\r\n        return _reason;\r\n    }\r\n\r\n    function acceptRejectionReason(uint _reviewRequestId) public {\r\n        // Fetch the request using the ID\r\n        MilestoneReviewRequest storage reviewRequest = milestoneReviewRequests[_reviewRequestId];\r\n        \r\n        // Check if the request exists and if it is not already reviewed\r\n        require(reviewRequest.freelancer == msg.sender, \"Only the freelancer can accept the rejection reason\");\r\n        require(!reviewRequest.reviewed, \"Review request already reviewed\");\r\n\r\n        // Accept the rejection reason and mark the request as reviewed\r\n        reviewRequest.reviewed = true;\r\n\r\n        // Emit an event for this action (optional)\r\n        emit RejectionReasonAccepted(_reviewRequestId);\r\n    }\r\n\r\n\r\n    function viewAcceptedProjectsByFreelancer(address freelancer) public view returns (\r\n        uint[] memory ids, \r\n        string[] memory names, \r\n        string[] memory descriptions, \r\n        uint[] memory rewards, \r\n        Projects.Status[] memory statuses, // Change here to use Projects.Status\r\n        address[] memory employers\r\n    ) {\r\n        // Temporary storage for matched projects\r\n        uint[] memory tempIds = new uint[](requestCount); \r\n        string[] memory tempNames = new string[](requestCount);\r\n        string[] memory tempDescriptions = new string[](requestCount);\r\n        uint[] memory tempRewards = new uint[](requestCount);\r\n        Projects.Status[] memory tempStatuses = new Projects.Status[](requestCount); // Change here to use Projects.Status\r\n        address[] memory tempEmployers = new address[](requestCount);\r\n\r\n        uint matchCount = 0; // Count of matched projects\r\n\r\n        for (uint i = 1; i <= requestCount; i++) {\r\n            Request storage req = requests[i];\r\n            if (req.status == RequestStatus.Accepted && req.freelancer == freelancer) {\r\n                // Unpack the return values from getProject\r\n                (uint id, string memory name, string memory description, uint reward, Projects.Status status, address employer) = \r\n                    projectsContract.getProject(req.projectId); // Call the function\r\n                \r\n                // Assign the unpacked values to temporary storage\r\n                tempIds[matchCount] = id;\r\n                tempNames[matchCount] = name;\r\n                tempDescriptions[matchCount] = description;\r\n                tempRewards[matchCount] = reward;\r\n                tempStatuses[matchCount] = status;\r\n                tempEmployers[matchCount] = employer;\r\n                matchCount++;\r\n            }\r\n        }\r\n\r\n        // Create memory arrays of the exact size of matches found\r\n        ids = new uint[](matchCount);\r\n        names = new string[](matchCount);\r\n        descriptions = new string[](matchCount);\r\n        rewards = new uint[](matchCount);\r\n        statuses = new Projects.Status[](matchCount); // Change here to use Projects.Status\r\n        employers = new address[](matchCount);\r\n\r\n        for (uint j = 0; j < matchCount; j++) {\r\n            ids[j] = tempIds[j];\r\n            names[j] = tempNames[j];\r\n            descriptions[j] = tempDescriptions[j];\r\n            rewards[j] = tempRewards[j];\r\n            statuses[j] = tempStatuses[j];\r\n            employers[j] = tempEmployers[j];\r\n        }\r\n\r\n        return (ids, names, descriptions, rewards, statuses, employers);\r\n    }\r\n\r\n\r\n\r\n\r\n}\r\n",
  "sourcePath": "C:\\Users\\Shashwat Chaturvedi\\OneDrive - iiit-b\\college\\projects\\delance\\truffle_project(3)\\contracts\\RequestManager.sol",
  "compiler": {
    "name": "solc",
    "version": "0.8.21+commit.d9974bed.Emscripten.clang"
  },
  "schemaVersion": "3.4.16",
  "updatedAt": "2024-11-02T06:47:19.225Z",
  "devdoc": {
    "kind": "dev",
    "methods": {},
    "version": 1
  },
  "userdoc": {
    "kind": "user",
    "methods": {},
    "version": 1
  }
}