{
  "contractName": "KlerosIntegration",
  "abi": [
    {
      "inputs": [
        {
          "internalType": "address",
          "name": "_arbitrator",
          "type": "address"
        }
      ],
      "stateMutability": "nonpayable",
      "type": "constructor"
    },
    {
      "anonymous": false,
      "inputs": [
        {
          "indexed": true,
          "internalType": "uint256",
          "name": "disputeId",
          "type": "uint256"
        },
        {
          "indexed": true,
          "internalType": "address",
          "name": "partyA",
          "type": "address"
        },
        {
          "indexed": true,
          "internalType": "address",
          "name": "partyB",
          "type": "address"
        }
      ],
      "name": "DisputeCreated",
      "type": "event"
    },
    {
      "anonymous": false,
      "inputs": [
        {
          "indexed": true,
          "internalType": "uint256",
          "name": "disputeId",
          "type": "uint256"
        }
      ],
      "name": "DisputeRaised",
      "type": "event"
    },
    {
      "anonymous": false,
      "inputs": [
        {
          "indexed": true,
          "internalType": "uint256",
          "name": "disputeId",
          "type": "uint256"
        }
      ],
      "name": "DisputeResolved",
      "type": "event"
    },
    {
      "inputs": [],
      "name": "arbitrator",
      "outputs": [
        {
          "internalType": "address",
          "name": "",
          "type": "address"
        }
      ],
      "stateMutability": "view",
      "type": "function",
      "constant": true
    },
    {
      "inputs": [],
      "name": "disputeCount",
      "outputs": [
        {
          "internalType": "uint256",
          "name": "",
          "type": "uint256"
        }
      ],
      "stateMutability": "view",
      "type": "function",
      "constant": true
    },
    {
      "inputs": [
        {
          "internalType": "uint256",
          "name": "",
          "type": "uint256"
        }
      ],
      "name": "disputes",
      "outputs": [
        {
          "internalType": "address",
          "name": "partyA",
          "type": "address"
        },
        {
          "internalType": "address",
          "name": "partyB",
          "type": "address"
        },
        {
          "internalType": "enum KlerosIntegration.Status",
          "name": "status",
          "type": "uint8"
        },
        {
          "internalType": "uint256",
          "name": "disputeId",
          "type": "uint256"
        }
      ],
      "stateMutability": "view",
      "type": "function",
      "constant": true
    },
    {
      "inputs": [
        {
          "internalType": "address",
          "name": "_partyB",
          "type": "address"
        }
      ],
      "name": "raiseDispute",
      "outputs": [],
      "stateMutability": "nonpayable",
      "type": "function"
    },
    {
      "inputs": [
        {
          "internalType": "uint256",
          "name": "_disputeId",
          "type": "uint256"
        }
      ],
      "name": "resolveDispute",
      "outputs": [],
      "stateMutability": "nonpayable",
      "type": "function"
    },
    {
      "inputs": [
        {
          "internalType": "uint256",
          "name": "_disputeId",
          "type": "uint256"
        }
      ],
      "name": "checkDisputeStatus",
      "outputs": [
        {
          "internalType": "uint256",
          "name": "",
          "type": "uint256"
        }
      ],
      "stateMutability": "view",
      "type": "function",
      "constant": true
    },
    {
      "inputs": [
        {
          "internalType": "uint256",
          "name": "_disputeId",
          "type": "uint256"
        }
      ],
      "name": "getDisputeResult",
      "outputs": [
        {
          "internalType": "uint256",
          "name": "",
          "type": "uint256"
        }
      ],
      "stateMutability": "view",
      "type": "function",
      "constant": true
    }
  ],
  "bytecode": "0x60803460705761064a80380390601f19601f83011683019183831067ffffffffffffffff84111760755780849260209460405283398101031260705751600160a060020a0381169081900360705760028054600160a060020a0319169190911790556040516105a590816100a58239f35b600080fd5b7f4e487b7100000000000000000000000000000000000000000000000000000000600052604160045260246000fdfe608080604052600436101561001357600080fd5b60e060020a60003504906350de9b4082146104eb57508063564a565d1461047f578063622efc2a146103d75780636cc6cde1146103ae5780639908ff061461017e578063a28889e1146101605763c2b7b8681461006f57600080fd5b3461015b57602036600319011261015b57600435806000526000602052600160406000200160ff60a060020a825404166003811015610141576001036100ea57805460a060020a60ff02191660a160020a1790557f57cce005d496355471bb5269f1dea3d6c81b6ac14c1d74ba28aefb022357013b600080a2005b60405160e560020a62461bcd02815260206004820152602360248201527f44697370757465206d75737420626520646973707574656420746f207265736f604482015260e860020a626c7665026064820152608490fd5b60e060020a634e487b710260009081526021600452602490fd5b600080fd5b3461015b57600036600319011261015b576020600154604051908152f35b3461015b57602036600319011261015b57600435600160a060020a0381169081900361015b5760015460001981146103945760010190816001556040516080810181811067ffffffffffffffff82111761037a5760409081523382526020808301848152600084840181815260608601828152978252928190529290922092518354600160a060020a0319908116600160a060020a03928316178555925160018501805490941691161782555193600385101561014157815460a060020a60ff02191660a060020a90950260a060020a60ff0216949094179055915160029283015590546040805160e060020a63c13517e10281526003600482015260248101919091526000604482018190529291602090829060649082908790600160a060020a03165af190811561036f578391610339575b506001805484526020848152604080862060020193909355815485528490529083208101805460a060020a60ff02191660a060020a179055549033827fa98740350a04e10bd52f7846736922efc8c45cf66834c194a975d83416861f228580a47f04901f83201c8724eadf084436db8aa391820bae6d11f9f78a17edb6f2eef3cf8280a280f35b90506020813d602011610367575b816103546020938361054d565b810103126103635751836102b2565b8280fd5b3d9150610347565b6040513d85823e3d90fd5b60e060020a634e487b710260009081526041600452602490fd5b60e060020a634e487b710260009081526011600452602490fd5b3461015b57600036600319011261015b57600254604051600160a060020a039091168152602090f35b3461015b57602036600319011261015b57600160a060020a03600254166004356000526000602052602060026040600020015460246040518094819360e060020a6320f7aa3f02835260048301525afa801561047357600090610440575b602090604051908152f35b506020813d60201161046b575b8161045a6020938361054d565b8101031261015b5760209051610435565b3d915061044d565b6040513d6000823e3d90fd5b3461015b57602036600319011261015b5760043560005260006020526040600020600160a060020a038154166001820154600260ff60a0820a83041693015490604051928352600160a060020a0316602083015260038310156101415760809260408301526060820152f35b3461015b57602036600319011261015b57602081602481600160a060020a03600254166004356000526000855260026040600020015460e660020a6301437a6d02835260048301525afa80156104735760009061044057602090604051908152f35b90601f8019910116810190811067ffffffffffffffff82111761037a5760405256fea2646970667358221220efcc25c273019ea5cbd33fff73382f10120e24b304595759c04de300e2afc09c64736f6c63430008220033",
  "immutableReferences": {},
  "source": "// SPDX-License-Identifier: MIT\r\npragma solidity ^0.8.0;\r\n\r\ninterface IKlerosLiquid {\r\n    function createDispute(uint256 _numberOfChoices, bytes calldata _extraData) external returns (uint256);\r\n    function getDisputeStatus(uint256 _disputeId) external view returns (uint256);\r\n    function getDisputeResult(uint256 _disputeId) external view returns (uint256);\r\n}\r\n\r\ncontract KlerosIntegration {\r\n    enum Status { Pending, Disputed, Resolved }\r\n    \r\n    struct Dispute {\r\n        address partyA;\r\n        address partyB;\r\n        Status status;\r\n        uint256 disputeId;\r\n    }\r\n\r\n    mapping(uint256 => Dispute) public disputes;\r\n    uint256 public disputeCount;\r\n    address public arbitrator;\r\n\r\n    event DisputeCreated(uint256 indexed disputeId, address indexed partyA, address indexed partyB);\r\n    event DisputeRaised(uint256 indexed disputeId);\r\n    event DisputeResolved(uint256 indexed disputeId);\r\n\r\n    constructor(address _arbitrator) {\r\n        arbitrator = _arbitrator;\r\n    }\r\n\r\n    function raiseDispute(address _partyB) external {\r\n        disputeCount++;\r\n        disputes[disputeCount] = Dispute({\r\n            partyA: msg.sender,\r\n            partyB: _partyB,\r\n            status: Status.Pending,\r\n            disputeId: 0\r\n        });\r\n\r\n        // Create a dispute with Kleros\r\n        disputes[disputeCount].disputeId = IKlerosLiquid(arbitrator).createDispute(3, \"\"); // Assuming 3 choices for the dispute\r\n        disputes[disputeCount].status = Status.Disputed;\r\n\r\n        emit DisputeCreated(disputeCount, msg.sender, _partyB);\r\n        emit DisputeRaised(disputeCount);\r\n    }\r\n\r\n    function resolveDispute(uint256 _disputeId) external {\r\n        Dispute storage dispute = disputes[_disputeId];\r\n        require(dispute.status == Status.Disputed, \"Dispute must be disputed to resolve\");\r\n\r\n        dispute.status = Status.Resolved;\r\n        emit DisputeResolved(_disputeId);\r\n    }\r\n\r\n    function checkDisputeStatus(uint256 _disputeId) external view returns (uint256) {\r\n        return IKlerosLiquid(arbitrator).getDisputeStatus(disputes[_disputeId].disputeId);\r\n    }\r\n\r\n    function getDisputeResult(uint256 _disputeId) external view returns (uint256) {\r\n        return IKlerosLiquid(arbitrator).getDisputeResult(disputes[_disputeId].disputeId);\r\n    }\r\n}\r\n",
  "sourcePath": "D:\\btech\\4 th Year\\Major Project\\Freelance\\Delance\\truffle_project\\contracts\\KlerosIntegration.sol",
  "compiler": {
    "name": "solc",
    "version": "0.8.34+commit.80d5c536.Emscripten.clang"
  },
  "schemaVersion": "3.4.16",
  "updatedAt": "2026-03-22T17:55:24.873Z",
  "networkType": "ethereum",
  "devdoc": {
    "kind": "dev",
    "methods": {},
    "version": 1
  },
  "userdoc": {
    "kind": "user",
    "methods": {},
    "version": 1
  }
}