{
  "contractName": "RequestManager",
  "abi": [
    {
      "inputs": [
        {
          "internalType": "address",
          "name": "_projectsContract",
          "type": "address"
        }
      ],
      "stateMutability": "nonpayable",
      "type": "constructor"
    },
    {
      "anonymous": false,
      "inputs": [
        {
          "indexed": false,
          "internalType": "uint256",
          "name": "ratingId",
          "type": "uint256"
        },
        {
          "indexed": false,
          "internalType": "address",
          "name": "rater",
          "type": "address"
        },
        {
          "indexed": false,
          "internalType": "address",
          "name": "freelancer",
          "type": "address"
        },
        {
          "indexed": false,
          "internalType": "uint256",
          "name": "rating",
          "type": "uint256"
        }
      ],
      "name": "FreelancerRatingSubmitted",
      "type": "event"
    },
    {
      "anonymous": false,
      "inputs": [
        {
          "indexed": false,
          "internalType": "uint256",
          "name": "projectId",
          "type": "uint256"
        },
        {
          "indexed": false,
          "internalType": "uint256",
          "name": "milestoneId",
          "type": "uint256"
        },
        {
          "indexed": false,
          "internalType": "uint256",
          "name": "updatedRating",
          "type": "uint256"
        }
      ],
      "name": "MilestoneAccepted",
      "type": "event"
    },
    {
      "anonymous": false,
      "inputs": [
        {
          "indexed": true,
          "internalType": "uint256",
          "name": "reviewRequestId",
          "type": "uint256"
        },
        {
          "indexed": false,
          "internalType": "string",
          "name": "reason",
          "type": "string"
        }
      ],
      "name": "MilestoneReviewRequestRejected",
      "type": "event"
    },
    {
      "anonymous": false,
      "inputs": [
        {
          "indexed": false,
          "internalType": "uint256",
          "name": "requestId",
          "type": "uint256"
        },
        {
          "indexed": false,
          "internalType": "uint256",
          "name": "milestoneId",
          "type": "uint256"
        },
        {
          "indexed": false,
          "internalType": "string",
          "name": "cid",
          "type": "string"
        }
      ],
      "name": "MilestoneReviewRequestSent",
      "type": "event"
    },
    {
      "anonymous": false,
      "inputs": [
        {
          "indexed": false,
          "internalType": "uint256",
          "name": "projectId",
          "type": "uint256"
        },
        {
          "indexed": false,
          "internalType": "uint256",
          "name": "requestId",
          "type": "uint256"
        },
        {
          "indexed": false,
          "internalType": "address",
          "name": "employer",
          "type": "address"
        },
        {
          "indexed": false,
          "internalType": "address",
          "name": "freelancer",
          "type": "address"
        }
      ],
      "name": "ProjectCompleted",
      "type": "event"
    },
    {
      "anonymous": false,
      "inputs": [
        {
          "indexed": false,
          "internalType": "uint256",
          "name": "projectId",
          "type": "uint256"
        },
        {
          "indexed": false,
          "internalType": "uint256",
          "name": "newAmount",
          "type": "uint256"
        }
      ],
      "name": "QuotationAccepted",
      "type": "event"
    },
    {
      "anonymous": false,
      "inputs": [
        {
          "indexed": false,
          "internalType": "uint256",
          "name": "projectId",
          "type": "uint256"
        },
        {
          "indexed": false,
          "internalType": "address",
          "name": "proposedBy",
          "type": "address"
        },
        {
          "indexed": false,
          "internalType": "uint256",
          "name": "amount",
          "type": "uint256"
        },
        {
          "indexed": false,
          "internalType": "string",
          "name": "notes",
          "type": "string"
        }
      ],
      "name": "QuotationCounterProposed",
      "type": "event"
    },
    {
      "anonymous": false,
      "inputs": [
        {
          "indexed": false,
          "internalType": "uint256",
          "name": "projectId",
          "type": "uint256"
        },
        {
          "indexed": false,
          "internalType": "address",
          "name": "proposedBy",
          "type": "address"
        },
        {
          "indexed": false,
          "internalType": "uint256",
          "name": "amount",
          "type": "uint256"
        }
      ],
      "name": "QuotationProposed",
      "type": "event"
    },
    {
      "anonymous": false,
      "inputs": [
        {
          "indexed": false,
          "internalType": "uint256",
          "name": "projectId",
          "type": "uint256"
        }
      ],
      "name": "QuotationRejected",
      "type": "event"
    },
    {
      "anonymous": false,
      "inputs": [
        {
          "indexed": false,
          "internalType": "uint256",
          "name": "_reviewRequestId",
          "type": "uint256"
        }
      ],
      "name": "RejectionReasonAccepted",
      "type": "event"
    },
    {
      "anonymous": false,
      "inputs": [
        {
          "indexed": false,
          "internalType": "uint256",
          "name": "requestId",
          "type": "uint256"
        },
        {
          "indexed": false,
          "internalType": "address",
          "name": "freelancer",
          "type": "address"
        },
        {
          "indexed": false,
          "internalType": "address",
          "name": "escrowContract",
          "type": "address"
        }
      ],
      "name": "RequestAccepted",
      "type": "event"
    },
    {
      "anonymous": false,
      "inputs": [
        {
          "indexed": false,
          "internalType": "uint256",
          "name": "draftId",
          "type": "uint256"
        },
        {
          "indexed": false,
          "internalType": "uint256",
          "name": "requestId",
          "type": "uint256"
        },
        {
          "indexed": false,
          "internalType": "address",
          "name": "freelancer",
          "type": "address"
        },
        {
          "indexed": false,
          "internalType": "address",
          "name": "employer",
          "type": "address"
        }
      ],
      "name": "RequestDraftSent",
      "type": "event"
    },
    {
      "anonymous": false,
      "inputs": [
        {
          "indexed": false,
          "internalType": "uint256",
          "name": "requestId",
          "type": "uint256"
        },
        {
          "indexed": false,
          "internalType": "address",
          "name": "freelancer",
          "type": "address"
        }
      ],
      "name": "RequestRejected",
      "type": "event"
    },
    {
      "anonymous": false,
      "inputs": [
        {
          "indexed": false,
          "internalType": "uint256",
          "name": "requestId",
          "type": "uint256"
        },
        {
          "indexed": false,
          "internalType": "uint256",
          "name": "projectId",
          "type": "uint256"
        },
        {
          "indexed": false,
          "internalType": "address",
          "name": "freelancer",
          "type": "address"
        }
      ],
      "name": "RequestSent",
      "type": "event"
    },
    {
      "inputs": [
        {
          "internalType": "uint256",
          "name": "",
          "type": "uint256"
        }
      ],
      "name": "assignedFreelancer",
      "outputs": [
        {
          "internalType": "address",
          "name": "",
          "type": "address"
        }
      ],
      "stateMutability": "view",
      "type": "function",
      "constant": true
    },
    {
      "inputs": [],
      "name": "fileCount",
      "outputs": [
        {
          "internalType": "uint256",
          "name": "",
          "type": "uint256"
        }
      ],
      "stateMutability": "view",
      "type": "function",
      "constant": true
    },
    {
      "inputs": [],
      "name": "freelancerRatingCount",
      "outputs": [
        {
          "internalType": "uint256",
          "name": "",
          "type": "uint256"
        }
      ],
      "stateMutability": "view",
      "type": "function",
      "constant": true
    },
    {
      "inputs": [
        {
          "internalType": "uint256",
          "name": "",
          "type": "uint256"
        }
      ],
      "name": "freelancerRatings",
      "outputs": [
        {
          "internalType": "uint256",
          "name": "ratingId",
          "type": "uint256"
        },
        {
          "internalType": "uint256",
          "name": "requestId",
          "type": "uint256"
        },
        {
          "internalType": "address",
          "name": "rater",
          "type": "address"
        },
        {
          "internalType": "address",
          "name": "freelancer",
          "type": "address"
        },
        {
          "internalType": "uint256",
          "name": "rating",
          "type": "uint256"
        },
        {
          "internalType": "string",
          "name": "review",
          "type": "string"
        },
        {
          "internalType": "uint256",
          "name": "timestamp",
          "type": "uint256"
        }
      ],
      "stateMutability": "view",
      "type": "function",
      "constant": true
    },
    {
      "inputs": [
        {
          "internalType": "address",
          "name": "",
          "type": "address"
        },
        {
          "internalType": "uint256",
          "name": "",
          "type": "uint256"
        }
      ],
      "name": "freelancerRatingsList",
      "outputs": [
        {
          "internalType": "uint256",
          "name": "",
          "type": "uint256"
        }
      ],
      "stateMutability": "view",
      "type": "function",
      "constant": true
    },
    {
      "inputs": [
        {
          "internalType": "uint256",
          "name": "",
          "type": "uint256"
        },
        {
          "internalType": "uint256",
          "name": "",
          "type": "uint256"
        }
      ],
      "name": "milestoneFiles",
      "outputs": [
        {
          "internalType": "uint256",
          "name": "id",
          "type": "uint256"
        },
        {
          "internalType": "uint256",
          "name": "milestoneId",
          "type": "uint256"
        },
        {
          "internalType": "string",
          "name": "name",
          "type": "string"
        },
        {
          "internalType": "string",
          "name": "rid",
          "type": "string"
        },
        {
          "internalType": "string",
          "name": "cid",
          "type": "string"
        }
      ],
      "stateMutability": "view",
      "type": "function",
      "constant": true
    },
    {
      "inputs": [],
      "name": "milestoneReviewRequestCount",
      "outputs": [
        {
          "internalType": "uint256",
          "name": "",
          "type": "uint256"
        }
      ],
      "stateMutability": "view",
      "type": "function",
      "constant": true
    },
    {
      "inputs": [
        {
          "internalType": "uint256",
          "name": "",
          "type": "uint256"
        }
      ],
      "name": "milestoneReviewRequests",
      "outputs": [
        {
          "internalType": "uint256",
          "name": "id",
          "type": "uint256"
        },
        {
          "internalType": "uint256",
          "name": "milestoneId",
          "type": "uint256"
        },
        {
          "internalType": "address",
          "name": "freelancer",
          "type": "address"
        },
        {
          "internalType": "string",
          "name": "cid",
          "type": "string"
        },
        {
          "internalType": "bool",
          "name": "reviewed",
          "type": "bool"
        }
      ],
      "stateMutability": "view",
      "type": "function",
      "constant": true
    },
    {
      "inputs": [],
      "name": "projectCompletionCount",
      "outputs": [
        {
          "internalType": "uint256",
          "name": "",
          "type": "uint256"
        }
      ],
      "stateMutability": "view",
      "type": "function",
      "constant": true
    },
    {
      "inputs": [
        {
          "internalType": "uint256",
          "name": "",
          "type": "uint256"
        }
      ],
      "name": "projectCompletions",
      "outputs": [
        {
          "internalType": "uint256",
          "name": "completionId",
          "type": "uint256"
        },
        {
          "internalType": "uint256",
          "name": "projectId",
          "type": "uint256"
        },
        {
          "internalType": "uint256",
          "name": "requestId",
          "type": "uint256"
        },
        {
          "internalType": "address",
          "name": "employer",
          "type": "address"
        },
        {
          "internalType": "address",
          "name": "freelancer",
          "type": "address"
        },
        {
          "internalType": "bool",
          "name": "isCompleted",
          "type": "bool"
        },
        {
          "internalType": "uint256",
          "name": "completionTime",
          "type": "uint256"
        }
      ],
      "stateMutability": "view",
      "type": "function",
      "constant": true
    },
    {
      "inputs": [
        {
          "internalType": "uint256",
          "name": "",
          "type": "uint256"
        }
      ],
      "name": "projectToRequest",
      "outputs": [
        {
          "internalType": "uint256",
          "name": "",
          "type": "uint256"
        }
      ],
      "stateMutability": "view",
      "type": "function",
      "constant": true
    },
    {
      "inputs": [],
      "name": "projectsContract",
      "outputs": [
        {
          "internalType": "contract Projects",
          "name": "",
          "type": "address"
        }
      ],
      "stateMutability": "view",
      "type": "function",
      "constant": true
    },
    {
      "inputs": [
        {
          "internalType": "uint256",
          "name": "",
          "type": "uint256"
        },
        {
          "internalType": "uint256",
          "name": "",
          "type": "uint256"
        }
      ],
      "name": "quotations",
      "outputs": [
        {
          "internalType": "uint256",
          "name": "projectId",
          "type": "uint256"
        },
        {
          "internalType": "address",
          "name": "proposedBy",
          "type": "address"
        },
        {
          "internalType": "uint256",
          "name": "proposedAmount",
          "type": "uint256"
        },
        {
          "internalType": "string",
          "name": "description",
          "type": "string"
        },
        {
          "internalType": "string",
          "name": "negotiationNotes",
          "type": "string"
        },
        {
          "internalType": "enum RequestManager.QuotationStatus",
          "name": "status",
          "type": "uint8"
        },
        {
          "internalType": "uint256",
          "name": "timestamp",
          "type": "uint256"
        }
      ],
      "stateMutability": "view",
      "type": "function",
      "constant": true
    },
    {
      "inputs": [],
      "name": "requestCount",
      "outputs": [
        {
          "internalType": "uint256",
          "name": "",
          "type": "uint256"
        }
      ],
      "stateMutability": "view",
      "type": "function",
      "constant": true
    },
    {
      "inputs": [],
      "name": "requestDraftCount",
      "outputs": [
        {
          "internalType": "uint256",
          "name": "",
          "type": "uint256"
        }
      ],
      "stateMutability": "view",
      "type": "function",
      "constant": true
    },
    {
      "inputs": [
        {
          "internalType": "uint256",
          "name": "",
          "type": "uint256"
        }
      ],
      "name": "requestDrafts",
      "outputs": [
        {
          "internalType": "uint256",
          "name": "id",
          "type": "uint256"
        },
        {
          "internalType": "uint256",
          "name": "requestId",
          "type": "uint256"
        },
        {
          "internalType": "uint256",
          "name": "projectId",
          "type": "uint256"
        },
        {
          "internalType": "address",
          "name": "freelancer",
          "type": "address"
        },
        {
          "internalType": "address",
          "name": "employer",
          "type": "address"
        },
        {
          "internalType": "string",
          "name": "draftContent",
          "type": "string"
        },
        {
          "internalType": "uint256",
          "name": "timestamp",
          "type": "uint256"
        },
        {
          "internalType": "bool",
          "name": "reviewed",
          "type": "bool"
        }
      ],
      "stateMutability": "view",
      "type": "function",
      "constant": true
    },
    {
      "inputs": [
        {
          "internalType": "uint256",
          "name": "",
          "type": "uint256"
        }
      ],
      "name": "requests",
      "outputs": [
        {
          "internalType": "uint256",
          "name": "projectId",
          "type": "uint256"
        },
        {
          "internalType": "address",
          "name": "freelancer",
          "type": "address"
        },
        {
          "internalType": "uint256",
          "name": "freelancerRating",
          "type": "uint256"
        },
        {
          "internalType": "enum RequestManager.RequestStatus",
          "name": "status",
          "type": "uint8"
        },
        {
          "internalType": "contract Escrow",
          "name": "escrowContract",
          "type": "address"
        }
      ],
      "stateMutability": "view",
      "type": "function",
      "constant": true
    },
    {
      "inputs": [],
      "name": "responseCount",
      "outputs": [
        {
          "internalType": "uint256",
          "name": "",
          "type": "uint256"
        }
      ],
      "stateMutability": "view",
      "type": "function",
      "constant": true
    },
    {
      "inputs": [
        {
          "internalType": "uint256",
          "name": "",
          "type": "uint256"
        }
      ],
      "name": "reviewResponses",
      "outputs": [
        {
          "internalType": "uint256",
          "name": "id",
          "type": "uint256"
        },
        {
          "internalType": "uint256",
          "name": "milestoneId",
          "type": "uint256"
        },
        {
          "internalType": "address",
          "name": "freelancer",
          "type": "address"
        },
        {
          "internalType": "string",
          "name": "response",
          "type": "string"
        },
        {
          "internalType": "bool",
          "name": "accepted",
          "type": "bool"
        }
      ],
      "stateMutability": "view",
      "type": "function",
      "constant": true
    },
    {
      "inputs": [
        {
          "internalType": "uint256",
          "name": "_projectId",
          "type": "uint256"
        },
        {
          "internalType": "uint256",
          "name": "_freelancerRating",
          "type": "uint256"
        }
      ],
      "name": "sendRequest",
      "outputs": [],
      "stateMutability": "nonpayable",
      "type": "function"
    },
    {
      "inputs": [
        {
          "internalType": "uint256",
          "name": "_requestId",
          "type": "uint256"
        }
      ],
      "name": "acceptRequest",
      "outputs": [],
      "stateMutability": "payable",
      "type": "function",
      "payable": true
    },
    {
      "inputs": [
        {
          "internalType": "uint256",
          "name": "_requestId",
          "type": "uint256"
        }
      ],
      "name": "rejectRequest",
      "outputs": [],
      "stateMutability": "nonpayable",
      "type": "function"
    },
    {
      "inputs": [
        {
          "internalType": "uint256",
          "name": "_requestId",
          "type": "uint256"
        }
      ],
      "name": "getRequest",
      "outputs": [
        {
          "components": [
            {
              "internalType": "uint256",
              "name": "projectId",
              "type": "uint256"
            },
            {
              "internalType": "address",
              "name": "freelancer",
              "type": "address"
            },
            {
              "internalType": "uint256",
              "name": "freelancerRating",
              "type": "uint256"
            },
            {
              "internalType": "enum RequestManager.RequestStatus",
              "name": "status",
              "type": "uint8"
            },
            {
              "internalType": "contract Escrow",
              "name": "escrowContract",
              "type": "address"
            }
          ],
          "internalType": "struct RequestManager.Request",
          "name": "",
          "type": "tuple"
        }
      ],
      "stateMutability": "view",
      "type": "function",
      "constant": true
    },
    {
      "inputs": [],
      "name": "viewAllRequests",
      "outputs": [
        {
          "internalType": "uint256[]",
          "name": "requestIds",
          "type": "uint256[]"
        },
        {
          "internalType": "uint256[]",
          "name": "projectIds",
          "type": "uint256[]"
        },
        {
          "internalType": "address[]",
          "name": "freelancers",
          "type": "address[]"
        },
        {
          "internalType": "uint256[]",
          "name": "freelancerRatings",
          "type": "uint256[]"
        },
        {
          "internalType": "enum RequestManager.RequestStatus[]",
          "name": "statuses",
          "type": "uint8[]"
        },
        {
          "internalType": "address[]",
          "name": "escrowContracts",
          "type": "address[]"
        }
      ],
      "stateMutability": "view",
      "type": "function",
      "constant": true
    },
    {
      "inputs": [],
      "name": "viewAllReviewResponses",
      "outputs": [
        {
          "internalType": "uint256[]",
          "name": "responseIds",
          "type": "uint256[]"
        },
        {
          "internalType": "uint256[]",
          "name": "milestoneIds",
          "type": "uint256[]"
        },
        {
          "internalType": "address[]",
          "name": "freelancers",
          "type": "address[]"
        },
        {
          "internalType": "string[]",
          "name": "responses",
          "type": "string[]"
        },
        {
          "internalType": "bool[]",
          "name": "acceptedStatuses",
          "type": "bool[]"
        }
      ],
      "stateMutability": "view",
      "type": "function",
      "constant": true
    },
    {
      "inputs": [],
      "name": "viewRequestsByEmployer",
      "outputs": [
        {
          "internalType": "uint256[]",
          "name": "requestIds",
          "type": "uint256[]"
        },
        {
          "internalType": "uint256[]",
          "name": "projectIds",
          "type": "uint256[]"
        },
        {
          "internalType": "address[]",
          "name": "freelancers",
          "type": "address[]"
        },
        {
          "internalType": "uint256[]",
          "name": "freelancerRatings",
          "type": "uint256[]"
        },
        {
          "internalType": "enum RequestManager.RequestStatus[]",
          "name": "statuses",
          "type": "uint8[]"
        },
        {
          "internalType": "address[]",
          "name": "escrowContracts",
          "type": "address[]"
        }
      ],
      "stateMutability": "view",
      "type": "function",
      "constant": true
    },
    {
      "inputs": [
        {
          "internalType": "uint256",
          "name": "_milestoneId",
          "type": "uint256"
        },
        {
          "internalType": "string",
          "name": "_cid",
          "type": "string"
        },
        {
          "internalType": "address",
          "name": "_freelancer",
          "type": "address"
        }
      ],
      "name": "sendMilestoneReviewRequest",
      "outputs": [],
      "stateMutability": "nonpayable",
      "type": "function"
    },
    {
      "inputs": [],
      "name": "viewAllMilestoneReviewRequests",
      "outputs": [
        {
          "internalType": "uint256[]",
          "name": "requestIds",
          "type": "uint256[]"
        },
        {
          "internalType": "uint256[]",
          "name": "milestoneIds",
          "type": "uint256[]"
        },
        {
          "internalType": "address[]",
          "name": "freelancers",
          "type": "address[]"
        },
        {
          "internalType": "string[]",
          "name": "cids",
          "type": "string[]"
        },
        {
          "internalType": "bool[]",
          "name": "reviewedStatuses",
          "type": "bool[]"
        }
      ],
      "stateMutability": "view",
      "type": "function",
      "constant": true
    },
    {
      "inputs": [
        {
          "internalType": "uint256",
          "name": "_reviewRequestId",
          "type": "uint256"
        },
        {
          "internalType": "uint256",
          "name": "_projectId",
          "type": "uint256"
        }
      ],
      "name": "getEscrowAccountFromReviewRequest",
      "outputs": [
        {
          "internalType": "contract Escrow",
          "name": "",
          "type": "address"
        }
      ],
      "stateMutability": "view",
      "type": "function",
      "constant": true
    },
    {
      "inputs": [
        {
          "internalType": "uint256",
          "name": "_reviewRequestId",
          "type": "uint256"
        },
        {
          "internalType": "uint256",
          "name": "_projId",
          "type": "uint256"
        }
      ],
      "name": "acceptMilestoneReviewRequest",
      "outputs": [],
      "stateMutability": "payable",
      "type": "function",
      "payable": true
    },
    {
      "inputs": [
        {
          "internalType": "uint256",
          "name": "_reviewRequestId",
          "type": "uint256"
        },
        {
          "internalType": "string",
          "name": "_reason",
          "type": "string"
        }
      ],
      "name": "rejectMilestoneReviewRequest",
      "outputs": [],
      "stateMutability": "nonpayable",
      "type": "function"
    },
    {
      "inputs": [
        {
          "internalType": "uint256",
          "name": "_reviewRequestId",
          "type": "uint256"
        }
      ],
      "name": "acceptRejectionReason",
      "outputs": [],
      "stateMutability": "nonpayable",
      "type": "function"
    },
    {
      "inputs": [
        {
          "internalType": "address",
          "name": "freelancer",
          "type": "address"
        }
      ],
      "name": "viewAcceptedProjectsByFreelancer",
      "outputs": [
        {
          "internalType": "uint256[]",
          "name": "ids",
          "type": "uint256[]"
        },
        {
          "internalType": "string[]",
          "name": "names",
          "type": "string[]"
        },
        {
          "internalType": "string[]",
          "name": "descriptions",
          "type": "string[]"
        },
        {
          "internalType": "uint256[]",
          "name": "rewards",
          "type": "uint256[]"
        },
        {
          "internalType": "enum Projects.Status[]",
          "name": "statuses",
          "type": "uint8[]"
        },
        {
          "internalType": "address[]",
          "name": "employers",
          "type": "address[]"
        }
      ],
      "stateMutability": "view",
      "type": "function",
      "constant": true
    },
    {
      "inputs": [
        {
          "internalType": "uint256",
          "name": "_milestoneId",
          "type": "uint256"
        },
        {
          "internalType": "string",
          "name": "_name",
          "type": "string"
        },
        {
          "internalType": "string",
          "name": "_rid",
          "type": "string"
        },
        {
          "internalType": "string",
          "name": "_cid",
          "type": "string"
        }
      ],
      "name": "addFile",
      "outputs": [],
      "stateMutability": "nonpayable",
      "type": "function"
    },
    {
      "inputs": [
        {
          "internalType": "uint256",
          "name": "_milestoneId",
          "type": "uint256"
        }
      ],
      "name": "viewAllFilesForMilestone",
      "outputs": [
        {
          "internalType": "uint256[]",
          "name": "ids",
          "type": "uint256[]"
        },
        {
          "internalType": "uint256[]",
          "name": "milestoneIds",
          "type": "uint256[]"
        },
        {
          "internalType": "string[]",
          "name": "names",
          "type": "string[]"
        },
        {
          "internalType": "string[]",
          "name": "rids",
          "type": "string[]"
        },
        {
          "internalType": "string[]",
          "name": "cids",
          "type": "string[]"
        }
      ],
      "stateMutability": "view",
      "type": "function",
      "constant": true
    },
    {
      "inputs": [
        {
          "internalType": "uint256",
          "name": "_requestId",
          "type": "uint256"
        },
        {
          "internalType": "string",
          "name": "_draftContent",
          "type": "string"
        }
      ],
      "name": "sendRequestDraft",
      "outputs": [],
      "stateMutability": "nonpayable",
      "type": "function"
    },
    {
      "inputs": [
        {
          "internalType": "uint256",
          "name": "_requestId",
          "type": "uint256"
        }
      ],
      "name": "getRequestDrafts",
      "outputs": [
        {
          "components": [
            {
              "internalType": "uint256",
              "name": "id",
              "type": "uint256"
            },
            {
              "internalType": "uint256",
              "name": "requestId",
              "type": "uint256"
            },
            {
              "internalType": "uint256",
              "name": "projectId",
              "type": "uint256"
            },
            {
              "internalType": "address",
              "name": "freelancer",
              "type": "address"
            },
            {
              "internalType": "address",
              "name": "employer",
              "type": "address"
            },
            {
              "internalType": "string",
              "name": "draftContent",
              "type": "string"
            },
            {
              "internalType": "uint256",
              "name": "timestamp",
              "type": "uint256"
            },
            {
              "internalType": "bool",
              "name": "reviewed",
              "type": "bool"
            }
          ],
          "internalType": "struct RequestManager.RequestDraft[]",
          "name": "",
          "type": "tuple[]"
        }
      ],
      "stateMutability": "view",
      "type": "function",
      "constant": true
    },
    {
      "inputs": [
        {
          "internalType": "uint256",
          "name": "_requestId",
          "type": "uint256"
        },
        {
          "internalType": "uint256",
          "name": "_rating",
          "type": "uint256"
        },
        {
          "internalType": "string",
          "name": "_review",
          "type": "string"
        }
      ],
      "name": "rateFreelancer",
      "outputs": [],
      "stateMutability": "nonpayable",
      "type": "function"
    },
    {
      "inputs": [
        {
          "internalType": "address",
          "name": "_freelancer",
          "type": "address"
        }
      ],
      "name": "getFreelancerRatings",
      "outputs": [
        {
          "components": [
            {
              "internalType": "uint256",
              "name": "ratingId",
              "type": "uint256"
            },
            {
              "internalType": "uint256",
              "name": "requestId",
              "type": "uint256"
            },
            {
              "internalType": "address",
              "name": "rater",
              "type": "address"
            },
            {
              "internalType": "address",
              "name": "freelancer",
              "type": "address"
            },
            {
              "internalType": "uint256",
              "name": "rating",
              "type": "uint256"
            },
            {
              "internalType": "string",
              "name": "review",
              "type": "string"
            },
            {
              "internalType": "uint256",
              "name": "timestamp",
              "type": "uint256"
            }
          ],
          "internalType": "struct RequestManager.FreelancerRating[]",
          "name": "",
          "type": "tuple[]"
        }
      ],
      "stateMutability": "view",
      "type": "function",
      "constant": true
    },
    {
      "inputs": [
        {
          "internalType": "address",
          "name": "_freelancer",
          "type": "address"
        }
      ],
      "name": "getFreelancerAverageRating",
      "outputs": [
        {
          "internalType": "uint256",
          "name": "",
          "type": "uint256"
        }
      ],
      "stateMutability": "view",
      "type": "function",
      "constant": true
    },
    {
      "inputs": [
        {
          "internalType": "uint256",
          "name": "_requestId",
          "type": "uint256"
        }
      ],
      "name": "completeProject",
      "outputs": [],
      "stateMutability": "nonpayable",
      "type": "function"
    },
    {
      "inputs": [
        {
          "internalType": "uint256",
          "name": "_projectId",
          "type": "uint256"
        }
      ],
      "name": "getProjectCompletion",
      "outputs": [
        {
          "components": [
            {
              "internalType": "uint256",
              "name": "completionId",
              "type": "uint256"
            },
            {
              "internalType": "uint256",
              "name": "projectId",
              "type": "uint256"
            },
            {
              "internalType": "uint256",
              "name": "requestId",
              "type": "uint256"
            },
            {
              "internalType": "address",
              "name": "employer",
              "type": "address"
            },
            {
              "internalType": "address",
              "name": "freelancer",
              "type": "address"
            },
            {
              "internalType": "bool",
              "name": "isCompleted",
              "type": "bool"
            },
            {
              "internalType": "uint256",
              "name": "completionTime",
              "type": "uint256"
            }
          ],
          "internalType": "struct RequestManager.ProjectCompletion",
          "name": "",
          "type": "tuple"
        }
      ],
      "stateMutability": "view",
      "type": "function",
      "constant": true
    },
    {
      "inputs": [
        {
          "internalType": "uint256",
          "name": "_projectId",
          "type": "uint256"
        },
        {
          "internalType": "uint256",
          "name": "_proposedAmount",
          "type": "uint256"
        },
        {
          "internalType": "string",
          "name": "_description",
          "type": "string"
        }
      ],
      "name": "proposeQuotation",
      "outputs": [],
      "stateMutability": "nonpayable",
      "type": "function"
    },
    {
      "inputs": [
        {
          "internalType": "uint256",
          "name": "_projectId",
          "type": "uint256"
        },
        {
          "internalType": "uint256",
          "name": "_newAmount",
          "type": "uint256"
        },
        {
          "internalType": "string",
          "name": "_notes",
          "type": "string"
        }
      ],
      "name": "counterPropose",
      "outputs": [],
      "stateMutability": "nonpayable",
      "type": "function"
    },
    {
      "inputs": [
        {
          "internalType": "uint256",
          "name": "_projectId",
          "type": "uint256"
        },
        {
          "internalType": "uint256",
          "name": "_quotationIndex",
          "type": "uint256"
        }
      ],
      "name": "acceptQuotation",
      "outputs": [],
      "stateMutability": "payable",
      "type": "function",
      "payable": true
    },
    {
      "inputs": [
        {
          "internalType": "uint256",
          "name": "_projectId",
          "type": "uint256"
        },
        {
          "internalType": "uint256",
          "name": "_quotationIndex",
          "type": "uint256"
        }
      ],
      "name": "rejectQuotation",
      "outputs": [],
      "stateMutability": "nonpayable",
      "type": "function"
    },
    {
      "inputs": [
        {
          "internalType": "uint256",
          "name": "_projectId",
          "type": "uint256"
        }
      ],
      "name": "getQuotations",
      "outputs": [
        {
          "components": [
            {
              "internalType": "uint256",
              "name": "projectId",
              "type": "uint256"
            },
            {
              "internalType": "address",
              "name": "proposedBy",
              "type": "address"
            },
            {
              "internalType": "uint256",
              "name": "proposedAmount",
              "type": "uint256"
            },
            {
              "internalType": "string",
              "name": "description",
              "type": "string"
            },
            {
              "internalType": "string",
              "name": "negotiationNotes",
              "type": "string"
            },
            {
              "internalType": "enum RequestManager.QuotationStatus",
              "name": "status",
              "type": "uint8"
            },
            {
              "internalType": "uint256",
              "name": "timestamp",
              "type": "uint256"
            }
          ],
          "internalType": "struct RequestManager.Quotation[]",
          "name": "",
          "type": "tuple[]"
        }
      ],
      "stateMutability": "view",
      "type": "function",
      "constant": true
    },
    {
      "inputs": [
        {
          "internalType": "uint256",
          "name": "_projectId",
          "type": "uint256"
        }
      ],
      "name": "getLatestQuotation",
      "outputs": [
        {
          "components": [
            {
              "internalType": "uint256",
              "name": "projectId",
              "type": "uint256"
            },
            {
              "internalType": "address",
              "name": "proposedBy",
              "type": "address"
            },
            {
              "internalType": "uint256",
              "name": "proposedAmount",
              "type": "uint256"
            },
            {
              "internalType": "string",
              "name": "description",
              "type": "string"
            },
            {
              "internalType": "string",
              "name": "negotiationNotes",
              "type": "string"
            },
            {
              "internalType": "enum RequestManager.QuotationStatus",
              "name": "status",
              "type": "uint8"
            },
            {
              "internalType": "uint256",
              "name": "timestamp",
              "type": "uint256"
            }
          ],
          "internalType": "struct RequestManager.Quotation",
          "name": "",
          "type": "tuple"
        }
      ],
      "stateMutability": "view",
      "type": "function",
      "constant": true
    },
    {
      "inputs": [
        {
          "internalType": "uint256",
          "name": "_projectId",
          "type": "uint256"
        }
      ],
      "name": "isProjectAssigned",
      "outputs": [
        {
          "internalType": "bool",
          "name": "",
          "type": "bool"
        }
      ],
      "stateMutability": "view",
      "type": "function",
      "constant": true
    }
  ],
  "bytecode": "0x608034607057615e9380380390601f19601f83011683019183831067ffffffffffffffff84111760755780849260209460405283398101031260705751600160a060020a0381169081900360705760008054600160a060020a031916919091179055604051615dee90816100a58239f35b600080fd5b7f4e487b7100000000000000000000000000000000000000000000000000000000600052604160045260246000fdfe61014080604052600436101561001457600080fd5b600061010081905260e060020a90350490631301586c821461485b5750806313e43248146146115780631a796315146141685780631b0f350f14613d565780632245f15214613aba57806322a7fd0714613a815780632d7788db1461399257806331eb2af41461383757806339028dec146133425780633a760554146131b157806341ff9d1114612db75780634395351914612d9757806344922e2d14612aec5780634922f88114612acc5780634ba1f098146127c75780634bd335b81461279a5780634c2fb255146126db5780634d54863a146123615780634d758c2914611fc95780635badbe4c14611fa95780635fc9fe3714611f5a57806372fc224c14611f3a57806378a4196d14611edc5780637ce250f514611c685780637d9effef146116635780637e670ea2146115be57806381d12c581461154757806383f5f2301461150c578063857b55481461142457806386fe6d4f1461132b57806394e150291461130b57806397302bc8146111f957806397d445e61461114d5780639be8d8f9146110ab5780639f935bf91461108b578063a62abfba14611014578063a7080a1814610f06578063a817229a14610dd2578063b3db5c9414610b7a578063b4d4fcb714610a5b578063bb6866e1146109f7578063bef3edc41461095b578063c5597bbb1461093b578063c58343ef1461081d578063c62851001461035d578063d27dc80c146102d2578063e8b13ff7146102a7578063ed37130c146102775763ed3bb6801461024557600080fd5b3461027057602061025e61025836614a58565b906159a9565b604051600160a060020a039091168152f35b6101005180fd5b34610270576020366003190112610270576004356101005152600660205260206040610100512054604051908152f35b346102705760203660031901126102705760206102ca6102c5614ec4565b6158d6565b604051908152f35b34610270576020366003190112610270576004356101005152601060205260e06040610100512080549060ff6001820154916002810154600160a060020a03600383015416906005600484015493015494604051968752602087015260408601526060850152600160a060020a038116608085015260a060020a900416151560a083015260c0820152f35b34610270576080366003190112610270576004356024356001604060020a03811161027057610390903690600401614c87565b6044356001604060020a038111610270576103af903690600401614c87565b916064356001604060020a038111610270576103cf903690600401614c87565b9160045491604051926103e184614ba8565b8352602083019080825260408401928352606084019586526080840194855261010051526003602052604061010051208054604060020a8110156106375761042e91600182018155614f2d565b9390936108005751835551600183015551805160028301916001604060020a0382116106375761045e8354614dd5565b601f81116107a0575b5060209082906001601f8311146107305761048f9282916101005192610654575b5050615364565b906002021790555b6003810192519283516001604060020a038111610637576104b88254614dd5565b601f81116106d0575b5060206001601f83111461065f5781806104e992600497986101005192610654575050615364565b906002021790555b0190518051906001604060020a0382116106375761050f8354614dd5565b601f81116105d7575b5060209082906001601f8311146105675761053f928291610100519261055c575050615364565b906002021790555b6105526004546151ed565b6004556101005180f35b015190508580610488565b9050601f1983169184610100515280610100512092610100515b8181106105bf575091600293918560019694106105a5575b50505002019055610547565b6105b5910151601f841690615364565b9055848080610599565b91936020600181928787015181550195019201610581565b8281111561051857836101005152602061010051206020601f850104906020851061062c575b601f82602092019301040390610100515b82811061061c575050610518565b610100518282015560010161060e565b6101005191506105fd565b610100805160e060020a634e487b71029052604160045251602490fd5b015190508880610488565b601f1982169083610100515280610100512091610100515b8181106106b85750916004969784926001956002951061069e575b505050020190556104f1565b6106ae910151601f841690615364565b9055878080610692565b9192602060018192868c015181550194019201610677565b818111156104c157826101005152602061010051206020601f8401049060208410610725575b601f82602092019301040390610100515b8281106107155750506104c1565b6101005182820155600101610707565b6101005191506106f6565b9050601f1983169184610100515280610100512092610100515b8181106107885750916002939185600196941061076e575b50505002019055610497565b61077e910151601f841690615364565b9055878080610762565b9193602060018192878701518155019501920161074a565b8281111561046757836101005152602061010051206020601f85010490602085106107f5575b601f82602092019301040390610100515b8281106107e5575050610467565b61010051828201556001016107d7565b6101005191506107c6565b610100805160e060020a634e487b71029052516004819052602490fd5b346102705760203660031901126102705760043560405161083d81614ba8565b6101005181526101005160208201526101005160408201526101005160608201526080610100519101528061010051526005602052610890600160a060020a036001604061010051200154161515615571565b6101005152600560205260a060406101005120604051906108b082614ba8565b8054825261092a60018460020a036001830154166020840190815260036002840154936040860194855201549260608501916108ef60ff861684615272565b608086019461010060018960020a0391041685526040519551865260018760020a039051166020860152516040850152516060840190614adf565b60018360020a039051166080820152f35b346102705761010051366003190112610270576020600254604051908152f35b34610270576020366003190112610270576004356101005152600e6020526040610100512080546001820154916109ed600160a060020a0360028301541691600160a060020a0360038201541660048201549060066109bc60058501614e14565b930154946040519788978852602088015260408701526060860152608085015260e060a085015260e0840190614d24565b9060c08301520390f35b34610270576020366003190112610270576004356101005152600a602052604061010051208054610a57600183015492600160a060020a036002820154169060ff6004610a4660038401614e14565b920154169160405195869586614eda565b0390f35b34610270576101005136600319011261027057600254610a7a8161522d565b610a838261522d565b91610a8d8161522d565b610a968261568d565b90610aa08361522d565b9260015b81811115610ac057505090610a57929160405195869586614fb7565b806101005152600160205260406101005120908154600019820190828211610b5d5760ff6004610b5895610b4e93610af8868e61525f565b526001810154610b08868f61525f565b526002810154600160a060020a0316610b21868b61525f565b52610b2e60038201614e14565b610b38868c61525f565b52610b43858b61525f565b50015416918861525f565b90151590526151ed565b610aa4565b610100805160e060020a634e487b71029052601160045251602490fd5b3461027057610b8836614a58565b9080151580610d53575b610b9b9061503e565b61010080515460405160e360020a631e1e7e590281526004810184905291519082906024908290600160a060020a03165afa908115610d45576101005191610d19575b506002811015610cfc576001610bf491146151a5565b610bff6007546151ed565b90816007556003604051610c1281614ba8565b828152336020808301918252604080840197885261010080516060860190815281516080870190815282519990995260059093525120925183559051600183018054600160a060020a031916600160a060020a03929092169190911790559451600282015593519301926003811015610cfc577fe697eb68c0228bd7d4e553246a2a86e8402d0895e45092ef8ae87b4cfd29f01693606093610ccb9260ff80198454169116178255600160a060020a03905116906156f9565b6007549080610100515260066020528160406101005120556040519182526020820152336040820152a16101005180f35b610100805160e060020a634e487b71029052602160045251602490fd5b610d3891503d8061010051833e610d308183614c14565b81019061512a565b5050935050505083610bde565b6040513d61010051823e3d90fd5b50610100515460405160e160020a631b7dd6930281529060209082906004908290600160a060020a03165afa8015610d45576101005190610d99575b8211159050610b92565b506020813d602011610dca575b81610db360209383614c14565b81010312610dc557610b9b9051610d8f565b600080fd5b3d9150610da6565b3461027057602036600319011261027057600435806101005152600a60205260406101005120600160a060020a036002820154163303610e9f576004019081549060ff8216610e57577f25fa961293610a63a633d14b93d5aa91df30ab4131e3e197fbb148988f45f2fa92600160209360ff1916179055604051908152a16101005180f35b60405160e560020a62461bcd02815260206004820152601f60248201527f526576696577207265717565737420616c7265616479207265766965776564006044820152606490fd5b60405160e560020a62461bcd02815260206004820152603360248201527f4f6e6c792074686520667265656c616e6365722063616e2061636365707420746044820152606960020a723432903932b532b1ba34b7b7103932b0b9b7b7026064820152608490fd5b34610270576101005136600319011261027057600754610f258161522d565b610f2e8261522d565b90610f388361522d565b610f418461522d565b610f4a8561522d565b90610f548661522d565b9260015b87811115610f72575060405196508695610a579587614b06565b806101005152600560205260406101005120906000198101818111610b5d57611009600361100f9484610fa5858d61525f565b528054610fb2858e61525f565b526001810154600160a060020a0316610fcb858961525f565b526002810154610fdb858a61525f565b520154610ff460ff8216610fef858b61525f565b615272565b6101009004600160a060020a0316918861525f565b526151ed565b610f58565b346102705760203660031901126102705760e06110326004356157a9565b60c060405191805183526020810151602084015260408101516040840152600160a060020a036060820151166060840152600160a060020a03608082015116608084015260a0810151151560a0840152015160c0820152f35b346102705761010051366003190112610270576020601154604051908152f35b34610270576101005136600319011261027057600b546110ca8161522d565b6110d38261522d565b916110dd8161522d565b6110e68261568d565b906110f08361522d565b9260015b8181111561111057505090610a57929160405195869586614fb7565b806101005152600a60205260406101005120908154600019820190828211610b5d5760ff600461114895610b4e93610af8868e61525f565b6110f4565b34610270576020366003190112610270576004356101005152600c60205260406101005120805460018201549160028101546111e8600160a060020a03600384015416600160a060020a036004850154166111aa60058601614e14565b9160ff6007600688015497015416946040519889988952602089015260408801526060870152608086015261010060a0860152610100850190614d24565b9160c0840152151560e08301520390f35b346102705760203660031901126102705760043560405161121981614bdd565b610100518152610100516020820152610100516040820152606080820152606060808201526101005160a082015260c06101005191015280610100515260086020526040610100512054156112c357806101005152600860205260406101005120906101005152600860205260406101005120546000198101908111610b5d576112a96112af91610a5793614d9f565b50615733565b604051918291602083526020830190614f49565b60405160e560020a62461bcd02815260206004820152601e60248201527f4e6f2071756f746174696f6e7320666f7220746869732070726f6a65637400006044820152606490fd5b346102705761010051366003190112610270576020600b54604051908152f35b34610270576060366003190112610270576004356024356001604060020a0381116102705761135e903690600401614cd4565b909190604435600160a060020a03811690819003610270577fbfc58ffde775327d37ac02c637219967f9f1d0d5dae07e75af5d1ad5be354360936113f861141a926113aa600b546151ed565b80600b55604051916113bb83614ba8565b81835287602084015260408301526113d4368786614c50565b60608301526101005160808301526101005152600a60205260406101005120615374565b600b5492604051948594855260208501526060604085015260608401916155c0565b0390a16101005180f35b3461027057602036600319011261027057600435610100515260086020526040610100512080549061145582615216565b916114636040519384614c14565b80835260208301809261010051526020610100512061010051915b8383106114ee578486604051918291602083019060208452518091526040830190604060208202850101929161010051905b8282106114bf57505050500390f35b919360019193955060206114de8192603f198a82030186528851614f49565b96019201920185949391926114b0565b600760206001926114fe85615733565b81520192019201919061147e565b3461027057602036600319011261027057600435610100515260096020526020600160a060020a036040610100512054161515604051908152f35b34610270576020366003190112610270576004356101005152600560205260a06040610100512080549060018360020a03600182015416906003600282015491015491604051938452602084015260408301526115aa6060830160ff8316614adf565b61010060018460020a039104166080820152f35b34610270576115cc36614a58565b906101005152600360205260406101005120908154811015610270576115f191614f2d565b508054610a5760018301549261165561160c60028301614e14565b91611647611628600461162160038501614e14565b9301614e14565b936040519788978852602088015260a0604088015260a0870190614d24565b908582036060870152614d24565b908382036080850152614d24565b346102705761167136614ca2565b9180151580611bee575b6116849061503e565b61168f8215156155e1565b825115611ba657806101005152600660205260406101005120546116b4811515615630565b61010080515460405160e360020a631e1e7e590281526004810185905291519192919083906024908290600160a060020a03165afa918215610d455761010051906101005193611b7e575b506002811015610cfc57600103611b285761010051526005602052600160a060020a036001604061010051200154163314908115611b15575b5015611ab0576040519161174b83614bdd565b8183526020830193338552604084019382855260608101918252602091604051906117768483614c14565b6101005182526080830191825260a08301966001885260c0840198428a5287610100515260088652604061010051208054604060020a811015610637576117c291600182018155614d9f565b9590956108005751855551600185018054600160a060020a031916600160a060020a039290921691909117905551600284015551805160038401916001604060020a038211610637576118158354614dd5565b601f8111611a54575b50859082906001601f8311146119e45761184492829161010051926119d9575050615364565b906002021790555b51805160048301916001604060020a0382116106375761186c8354614dd5565b601f811161197d575b50849082906001601f83111461190d5761189b9282916101005192611902575050615364565b906002021790555b6005810194516005811015610cfc577faf24b5c95c71d4afa309bff2d28e48f37eb326d372f70e7020680835383f3fde9660609660069260ff801983541691161790555191015560405192835233908301526040820152a16101005180f35b015190508b80610488565b9050601f1983169184610100515286610100512092610100515b88828210611967575050916002939185600196941061194d575b505050020190556118a3565b61195d910151601f841690615364565b90558a8080611941565b6001849682939587015181550195019201611927565b82811115611875578361010051528561010051208680601f860104918186106119ce575b82601f91019301040390610100515b8281106119be575050611875565b61010051828201556001016119b0565b6101005192506119a1565b015190508c80610488565b9050601f1983169184610100515287610100512092610100515b89828210611a3e5750509160029391856001969410611a24575b5050500201905561184c565b611a34910151601f841690615364565b90558b8080611a18565b60018496829395870151815501950192016119fe565b8281111561181e578361010051528661010051208780601f86010491818610611aa5575b82601f91019301040390610100515b828110611a9557505061181e565b6101005182820155600101611a87565b610100519250611a78565b60405160e560020a62461bcd02815260206004820152603160248201527f4f6e6c7920667265656c616e636572206f7220656d706c6f7965722063616e206044820152607960020a70383937b837b9b29038bab7ba30ba34b7b7026064820152608490fd5b600160a060020a03163314905084611738565b60405160e560020a62461bcd02815260206004820152602260248201527f50726f6a656374206973206e6f74206f70656e20666f722071756f746174696f604482015260f060020a616e73026064820152608490fd5b9050611b989192503d8061010051833e610d308183614c14565b5095945092505050866116ff565b60405160e560020a62461bcd02815260206004820152601b60248201527f4465736372697074696f6e2063616e6e6f7420626520656d70747900000000006044820152606490fd5b50610100515460405160e160020a631b7dd6930281529060209082906004908290600160a060020a03165afa8015610d45576101005190611c34575b821115905061167b565b506020813d602011611c60575b81611c4e60209383614c14565b81010312610dc5576116849051611c2a565b3d9150611c41565b3461027057602036600319011261027057600160a060020a03611c89614ec4565b1661010051526012602052604061010051206040518082602082945493848152019061010051526020610100512092610100515b818110611ec3575050611cd292500382614c14565b805190611cde82615216565b91611cec6040519384614c14565b808352611cfb601f1991615216565b01610100515b818110611e6f575050610100515b8151811015611db15780611d256001928461525f565b516101005152600e60205260406101005120600660405191611d4683614bdd565b80548352848101546020840152600281015460a060020a8690039081166040850152600382015416606084015260048101546080840152611d8960058201614e14565b60a0840152015460c0820152611d9f828661525f565b52611daa818561525f565b5001611d0f565b8260405180916020820160208352815180915260408301906020604081830286010193019161010051905b828210611deb57505050500390f35b919360019193955060208091603f198982030185528751908151815282820151838201528460a060020a0360408301511660408201528460a060020a0360608301511660608201526080820151608082015260c080611e5960a085015160e060a086015260e0850190614d24565b9301519101529601920192018594939192611ddc565b602090604051611e7e81614bdd565b6101005181526101005183820152610100516040820152610100516060820152610100516080820152606060a08201526101005160c082015282828701015201611d01565b8454835260019485019486945060209093019201611cbd565b3461027057604036600319011261027057611ef5614ec4565b60243590600160a060020a03166101005152601260205260406101005120805482101561027057602091611f2891614f15565b90546008604051920260020a90048152f35b346102705761010051366003190112610270576020600f54604051908152f35b346102705760203660031901126102705760043561010051526001602052604061010051208054610a57600183015492600160a060020a036002820154169060ff6004610a4660038401614e14565b346102705761010051366003190112610270576020600754604051908152f35b3461027057602036600319011261027057611fe2614ec4565b600754611fee8161522d565b91611ff88261568d565b906120028361568d565b60e05261200e8361522d565b60c05261201a8361522d565b60a0526120268361522d565b608052610100519260015b818111156121ef575050506120458261522d565b9161204f8161568d565b6120588261568d565b906120628361522d565b9261206c8161522d565b946120768261522d565b97610100515b83811061212b57505050506120d292916120b66120c4926120a86040519860c08a5260c08a0190614a6e565b9088820360208a0152614d49565b908682036040880152614d49565b908482036060860152614a6e565b82810360808401526020808351928381520192019061010051905b808210612108578480610a57868983820360a0850152614aa2565b9091928351906002821015610cfc576020816001938293520194019201906120ed565b612135818361525f565b51612140828b61525f565b5261214b818461525f565b51612156828761525f565b52612161818661525f565b5061216e8160e05161525f565b51612179828861525f565b52612184818761525f565b506121918160c05161525f565b5161219c828961525f565b526121a98160a05161525f565b51906002821015610cfc576121c96001926121c4838c61525f565b615727565b8160a060020a036121dc8260805161525f565b51166121e8828d61525f565b520161207c565b80610100515260056020526040610100512060ff6003820154166003811015610cfc5760011480612348575b61222f575b5061222a906151ed565b612031565b9094600160a060020a036101005154169154916040519260e360020a631e1e7e5902845260048401528260248161010051935afa908115610d45578761230c9261222a946101005161010051610100519061010051928761010051956101005197612313575b506122a4906122ee979861525f565b526122af878d61525f565b526122ba868c61525f565b506122c78660e05161525f565b526122d48560e05161525f565b506122e18560c05161525f565b526121c48460a05161525f565b6122fa8260805161525f565b600160a060020a0390911690526151ed565b9490612220565b92509350506122ee94506122a4935061233991503d8061010051833e610d308183614c14565b50975095909491939190612295565b506001810154600160a060020a0385811691161461221b565b34610270576040366003190112610270576004356024356001604060020a03811161027057612394903690600401614c87565b9080610100515260056020526040610100512090600160a060020a036001830154166123c18115156154fa565b330361268457610100805154835460405160e360020a631e1e7e59028152600481019190915291519193919084906024908290600160a060020a03165afa928315610d4557610100519361265e575b5061241c600d546151ed565b9081600d5554906040519161243083614bf8565b818352602080840185815260408086019384523360608701908152600160a060020a038981166080890190815260a089019b8c524260c08a01908152610100805160e08c0190815281519a909a52600c9097529551939093209751885592516001880155935160028701559251600386018054600160a060020a031990811692841692909217905592516004860180549094169116179091559451805190959060058401906001604060020a038111610637576124ed8254614dd5565b601f81116125fe575b5060206001601f8311146125785791816125348160079694612558999896600080516020615d998339815191529d610100519261256d575050615364565b906002021790555b51600684015551151591019060ff801983541691151516179055565b61141a600d5492604051938493339185615549565b015190508d80610488565b601f1982169083610100515280610100512091610100515b8181106125e657508361255898979593600080516020615d998339815191529c60019460079997600295106125cc575b5050500201905561253c565b6125dc910151601f841690615364565b90558c80806125c0565b9192602060018192868f015181550194019201612590565b818111156124f657826101005152602061010051206020601f8401049060208410612653575b601f82602092019301040390610100515b8281106126435750506124f6565b6101005182820155600101612635565b610100519150612624565b6126769193503d8061010051833e610d308183614c14565b509450505050509184612410565b60405160e560020a62461bcd02815260206004820152602360248201527f4f6e6c792074686520667265656c616e6365722063616e2073656e6420647261604482015260e860020a62667473026064820152608490fd5b34610270576126e936614a58565b9061010051526008602052604061010051209081548110156102705761270e91614d9f565b508054600160a060020a0360018301541691600281015461279161278661273760038501614e14565b61277861274660048701614e14565b91600660ff60058901541697015495604051998a998a5260208a0152604089015260e0606089015260e0880190614d24565b908682036080880152614d24565b9260a0850190614eb7565b60c08301520390f35b346102705761010051366003190112610270576101005154604051600160a060020a039091168152602090f35b6020366003190112610270576004358061010051526005602052604061010051209060018201600160a060020a0381541692612804841515615571565b600381019360ff8554166003811015610cfc57612a8457610100805154835460405160e360020a631e1e7e59028152600481019190915291519192919083906024908290600160a060020a03165afa908115610d455761010051928392839190612a5a575b50600160a060020a03831633036129fe576002811015610cfc576001036129bc5760405191610282808401918483106001604060020a038411176106375784936128b9938793615af787396156d7565b0391f08015610d45576128cc90856156f9565b835460ff1916600117845581548154610100805191909152600960205251604081208054600160a060020a031916600160a060020a039384161790555491549116803b15610270576040519160e160020a6349ee0973028352600483015281602481610100519361010051905af18015610d455761299d575b8154845460408051868152600160a060020a039384166020820152610100909204909216918101919091527fac8064fea85b95641f19e230ba9da498102d474473fe4b103466cb224daf5e0190606090a16101005180f35b610100519192916129ad91614c14565b61010051610270579083612945565b60405160e560020a62461bcd0281526020600482015260146024820152606160020a73283937b532b1ba1036bab9ba1031329037b832b7026044820152606490fd5b60405160e560020a62461bcd02815260206004820152602860248201527f4f6e6c792074686520656d706c6f7965722063616e2061636365707420746865604482015260c260020a67081c995c5d595cdd026064820152608490fd5b91935050612a7591503d8061010051833e610d308183614c14565b50945094925090509288612869565b60405160e560020a62461bcd02815260206004820152601660248201527f52657175657374206973206e6f742070656e64696e67000000000000000000006044820152606490fd5b346102705761010051366003190112610270576020600d54604051908152f35b346102705760203660031901126102705761010051600d5460043560015b82811115612d575750612b1c83615216565b92612b2a6040519485614c14565b808452612b39601f1991615216565b01610100515b818110612cfa575050610100519060015b83811115612c24578460405180916020820160208352815180915260408301906020604081830286010193019161010051905b828210612b9257505050500390f35b919360019193955060208091603f19898203018552875190815181528282015183820152604082015160408201528460a060020a0360608301511660608201528460a060020a03608083015116608082015260e080612c0260a085015161010060a0860152610100850190614d24565b9360c081015160c0850152015115159101529601920192018594939192612b83565b806101005152600c60205281600160406101005120015414612c4f575b612c4a906151ed565b612b50565b91612cf2612c4a91846101005152600c6020526040610100512060ff600760405192612c7a84614bf8565b8054845260018101546020850152600281015460408501526003810154600160a060020a0390811660608601526004820154166080850152612cbe60058201614e14565b60a0850152600681015460c0850152015416151560e0820152612ce1828961525f565b52612cec818861525f565b506151ed565b929050612c41565b602090604051612d0981614bf8565b6101005181526101005183820152610100516040820152610100516060820152610100516080820152606060a08201526101005160c08201526101005160e082015282828801015201612b3f565b806101005152600c60205281600160406101005120015414612d82575b612d7d906151ed565b612b0a565b92612d8f612d7d916151ed565b939050612d74565b346102705761010051366003190112610270576020600454604051908152f35b612dc036614a58565b81151580613137575b612dd29061503e565b8161010051526008602052612def60406101005120548210615085565b81610100515260066020526040610100512054612e0d811515615630565b61010080515460405160e360020a631e1e7e590281526004810186905291519192919083906024908290600160a060020a03165afa918215610d45576101005190610100519361310f575b506002811015610cfc576001612e6e91146151a5565b600160a060020a03821633036130b95761010051526005602052612eaa6040610100512092846101005152600860205260406101005120614d9f565b5091600583019260ff8454166005811015610cfc57600181149081156130ae575b501561306657600201928354340361300c57805460ff1916600317905582546001820180546040519194600160a060020a039190911690610282808401916001604060020a03831185841017610637578493612f2d938793615af787396156d7565b0391f0908115610d45576003612f45910191826156f9565b805460ff19166001179055546101008051849052600960205251604081208054600160a060020a031916600160a060020a039384161790555416803b156102705760405160e160020a6349ee0973028152600481018490526101005190918290602490829084905af18015610d4557612ff1575b7f30981c9cd8c9ae5e869821a79087b12d5bd6fc4aeaabf85fbf091cfff2f36797604084845482519182526020820152a16101005180f35b61010051612ffe91614c14565b610100516102705782612fb9565b60405160e560020a62461bcd02815260206004820152602660248201527f53656e7420616d6f756e74206d757374206d617463682070726f706f73656420604482015260d260020a65185b5bdd5b9d026064820152608490fd5b60405160e560020a62461bcd02815260206004820152601c60248201527f51756f746174696f6e2063616e6e6f74206265206163636570746564000000006044820152606490fd5b600214905086612ecb565b60405160e560020a62461bcd02815260206004820152602260248201527f4f6e6c7920656d706c6f7965722063616e206163636570742071756f74617469604482015260f160020a6137b7026064820152608490fd5b90506131299192503d8061010051833e610d308183614c14565b509594509250505085612e58565b50610100515460405160e160020a631b7dd6930281529060209082906004908290600160a060020a03165afa8015610d4557610100519061317d575b8311159050612dc9565b506020813d6020116131a9575b8161319760209383614c14565b81010312610dc557612dd29051613173565b3d915061318a565b34610270576020366003190112610270576004356004546131d18161522d565b906131db8161522d565b6131e48261568d565b906131ee8361568d565b926131f88161568d565b610100519096815b8381106132675761322f88610a578b6132598b61324b8c61323d8d604051998a9960a08b5260a08b0190614a6e565b9089820360208b0152614a6e565b908782036040890152614d49565b908582036060870152614d49565b908382036080850152614d49565b81610100515260036020528160016132858360406101005120614f2d565b50015414613296575b600101613200565b9161333a600191836101005152600360205261332560046132bd8760406101005120614f2d565b5080546132ca858f61525f565b52858101546132d9858c61525f565b526132e660028201614e14565b6132f0858d61525f565b526132fb848c61525f565b508b6133138561330d60038501614e14565b9261525f565b5261331e848d61525f565b5001614e14565b61332f828d61525f565b52612cec818c61525f565b92905061328e565b346102705761335036614ca2565b91801515806137bd575b6133639061503e565b61336e8215156155e1565b806101005152600860205260406101005120541561376657806101005152600660205260406101005120546133a4811515615630565b61010080515460405160e360020a631e1e7e590281526004810185905291519192919083906024908290600160a060020a03165afa918215610d45576101005190610100519361373e575b506002811015610cfc576001036136e75761010051526005602052604061010051209082610100515260086020526040610100512080546000198101908111610b5d5761343b91614d9f565b506001808201549301549092600160a060020a03918216911681036136695750600160a060020a031633036135fb576004905b60058101805460ff19166002908117909155810184905584519101906001604060020a038111610637576134a28254614dd5565b601f811161359b575b5060206001601f83111461351b5791816134e481600080516020615d79833981519152989461141a966101005191613510575b50615364565b906002021790555b60405193849384523360208501526040840152608060608401526080830190614d24565b90508501518a6134de565b601f1982169083610100515280610100512091610100515b81811061358357508361141a9593600193600080516020615d798339815191529a9660029410613569575b5050020190556134ec565b61357a90870151601f841690615364565b9055898061355e565b9192602060018192868c015181550194019201613533565b818111156134ab57826101005152602061010051206020601f84010490602084106135f0575b601f82602092019301040390610100515b8281106135e05750506134ab565b61010051828201556001016135d2565b6101005191506135c1565b60405160e560020a62461bcd02815260206004820152603860248201527f4f6e6c7920656d706c6f7965722063616e20636f756e7465722d6f666665722060448201527f6f6e20667265656c616e63657227732070726f706f73616c00000000000000006064820152608490fd5b905033036136795760049061346e565b60405160e560020a62461bcd02815260206004820152603860248201527f4f6e6c7920667265656c616e6365722063616e20636f756e7465722d6f66666560448201527f72206f6e20656d706c6f79657227732070726f706f73616c00000000000000006064820152608490fd5b60405160e560020a62461bcd02815260206004820152602360248201527f50726f6a656374206973206e6f74206f70656e20666f72206e65676f74696174604482015260e960020a6234b7b7026064820152608490fd5b90506137589192503d8061010051833e610d308183614c14565b5095945092505050866133ef565b60405160e560020a62461bcd028152602060048201526024808201527f4e6f2071756f746174696f6e7320657869737420666f7220746869732070726f604482015260e260020a631a9958dd026064820152608490fd5b50610100515460405160e160020a631b7dd6930281529060209082906004908290600160a060020a03165afa8015610d45576101005190613803575b821115905061335a565b506020813d60201161382f575b8161381d60209383614c14565b81010312610dc55761336390516137f9565b3d9150613810565b34610270576040366003190112610270576004356024356001604060020a0381116102705761386a903690600401614cd4565b90826101005152600a6020526040610100512091600483019283549060ff821661394a577fbaaa1d8ac25adbe9d68fdf1013f60ea647f91e457fb4589976b74dbf9c14968f9460016139299360ff19161790556001810154906002600160a0820a03910154166138db6002546151ed565b9081600255604051926138ed84614ba8565b82845260208401526040830152613905368587614c50565b60608301526101005160808301526101005152600160205260406101005120615374565b6139406040519283926020845260208401916155c0565b0390a26101005180f35b60405160e560020a62461bcd02815260206004820181905260248201527f526576696577207265717565737420616c72656164792070726f6365737365646044820152606490fd5b346102705760203660031901126102705760043580610100515260056020526040610100512090600360018301926139d5600160a060020a038554161515615571565b019060ff8254166003811015610cfc57613a3957815460ff1916600217909155905460408051928352600160a060020a039190911660208301527f490ad67e4c8b3b9c1d11dfcd7f02e155190b8f6feff3a9d9e9df3721f0f74e5791a16101005180f35b60405160e560020a62461bcd02815260206004820152601960248201527f5265717565737420616c72656164792070726f636573736564000000000000006044820152606490fd5b3461027057602036600319011261027057600435610100515260096020526020600160a060020a03604061010051205416604051908152f35b34610270576020366003190112610270576004358061010051526005602052604061010051209060018201613afa600160a060020a0382541615156154fa565b60ff6003840154166003811015610cfc57600103613d0e57610100805154845460405160e360020a631e1e7e59028152600481019190915291519082906024908290600160a060020a03165afa908115610d45576101005191613cea575b50600160a060020a0381169033829003613c8c577fcd73b9f83ea59931f0cf4e6f9100a040894905d20d9cc2b2010c38cbe453581a9461141a926005613b9f6011546151ed565b806011558354600160a060020a038854169060405194613bbe86614bdd565b838652602080870192835260408088018d81526060890193845260808901958652600160a08a018181524260c08c0190815261010080519a909a526010909552975183902099518a55945194890194909455925160028801559051600387018054600160a060020a031916600160a060020a0392831617905592516004870180549551600160a860020a03199096169185169190911794151560a060020a0260a060020a60ff0216949094179093559151929093019190915591549454915195869592909116929185615549565b60405160e560020a62461bcd02815260206004820152602a60248201527f4f6e6c792074686520656d706c6f7965722063616e20636f6d706c6574652074604482015260b260020a691a19481c1c9bda9958dd026064820152608490fd5b613d0191503d8061010051833e610d308183614c14565b5094505050505084613b58565b60405160e560020a62461bcd02815260206004820152601860248201527f52657175657374206d75737420626520616363657074656400000000000000006044820152606490fd5b3461027057613d6436614ca2565b918115158061415d575b1561411557806101005152600560205260406101005120926001840193613da0600160a060020a0386541615156154fa565b610100805154915460405160e360020a631e1e7e5902815260048101919091529051909182906024908290600160a060020a03165afa908115610d455761010051916140f1575b50600160a060020a0316330361409457613e02600f546151ed565b600f81905584546040519391929190600160a060020a0316613e2385614bdd565b8385526020808601928352336040808801918252606088019384526080880189815260a089019687524260c08a01908152610100805199909952600e90945296512096518755925160018701559151600286018054600160a060020a0319908116600160a060020a0393841617909155915160038701805490931691161790559151600484015551805160058401916001604060020a03821161063757613eca8354614dd5565b601f8111614034575b506020906001601f841114613fc2578280600696959493613efe936101005192613fb7575050615364565b906002021790555b51910155600160a060020a03825416610100515260126020526040610100512091600f5491835492604060020a84101561063757613f6d847f53d9cb24b2b38bed8a18abd27b61fce9a966d0215f185ff66f427cfe4f8217b0966001608097018155614f15565b600882939254910260020a918261010051039283910216911916179055600f5491600160a060020a0390541660405192835233602084015260408301526060820152a16101005180f35b015190508a80610488565b601f1983169184610100515280610100512092610100515b81811061401c5750926002928592600698979660019610614002575b50505002019055613f06565b614012910151601f841690615364565b9055898080613ff6565b91936020600181928787015181550195019201613fda565b82811115613ed357836101005152602061010051206020601f8501049060208510614089575b601f82602092019301040390610100515b828110614079575050613ed3565b610100518282015560010161406b565b61010051915061405a565b60405160e560020a62461bcd02815260206004820152602960248201527f4f6e6c792074686520656d706c6f7965722063616e2072617465207468652066604482015260b960020a683932b2b630b731b2b9026064820152608490fd5b61410891503d8061010051833e610d308183614c14565b5094505050505085613de7565b60405160e560020a62461bcd02815260206004820152601e60248201527f526174696e67206d757374206265206265747765656e203120616e64203500006044820152606490fd5b506005821115613d6e565b61417136614a58565b906101005152600a602052604061010051206004810190815460ff81166145c9576001820191825493600160a060020a036101005154166040519660e660020a63010b152702885260048801528660248161010051935afa948515610d4557610100516101208190529687968792839283928392919061443e575b5061010051998a805b825181101561442c5783614209828561525f565b5114614217576001016141f5565b95946142579798999a9b9c50869350614250925083915061424a8261424a9661424a8260019d61424a826101205161525f565b5061525f565b519a61525f565b505b156143e45760ff199092166001179091556002018054610100515460405160e060020a633a766ddf028152600160a060020a0392831660048201819052959394939190921691602081602481865afa908115610d455761010051916143b2575b5081600502916005830403610b5d5760646142d5920490615357565b6101f481116143a9575b813b15610270576040519460e260020a63018f72830286526004860152602485015283604481610100519361010051905af1928315610d455761438f93614396575b505490600160a060020a0390541661433a6002546151ed565b90816002556040519261434c84614ba8565b82845260208401526040830152604051614367602082614c14565b6101005181526060830152600160808301526101005152600160205260406101005120615374565b6101005180f35b610100516143a391614c14565b83614321565b506101f46142df565b90506020813d6020116143dc575b816143cd60209383614c14565b810103126102705751866142b9565b3d91506143c0565b60405160e560020a62461bcd02815260206004820152601860248201527f4d696c6573746f6e6520646f6573206e6f7420657869737400000000000000006044820152606490fd5b509b5050505050505090919293614259565b99509950505050503d8061010051873e6144588187614c14565b850194610100818703126102705780516001604060020a038111610270578661448291830161527e565b9660208201516001604060020a03811161027057876144a291840161527e565b5060408201516001604060020a03811161027057876144c29184016152da565b9660608301516001604060020a03811161027057816144e29185016152da565b9260808101516001604060020a038111610270578261450291830161527e565b9360a08201516001604060020a038111610270578361452291840161527e565b9160c08101516001604060020a0381116102705781019380601f8601121561027057845161454f81615216565b9561455d6040519788614c14565b81875260208080890193028201019083821161027057602001915b8183106145b05750505060e08201516001604060020a0381116102705761459f92016152da565b9a996101205293909199928b6141ec565b8251801515810361027057815260209283019201614578565b60405160e560020a62461bcd02815260206004820152601f60248201527f526576696577207265717565737420616c7265616479206163636570746564006044820152606490fd5b34610270576101005136600319011261027057610100516007548154600160a060020a0316919060015b818111156147be575061464d8261522d565b906146578361522d565b926146618161522d565b61466a8261522d565b9061467d6146778461522d565b9361522d565b936101005160015b828111156146a357505050610a579495965060405196879687614b06565b806101005152600560205260406101005120546040519060e360020a631e1e7e5902825260048201528a8160248161010051935afa908115610d4557610100519161479a575b50600160a060020a03163314614708575b614703906151ed565b614685565b9061479261470391836101005152600560205260038a8561473084604061010051209361525f565b52805461473d848f61525f565b526001810154600160a060020a0316614756848a61525f565b526002810154614766848b61525f565b52015461477a60ff8216610fef848c61525f565b6101009004600160a060020a0316611009828b61525f565b9190506146fa565b6147b191503d8061010051833e610d308183614c14565b509450505050508b6146e9565b806101005152600560205260406101005120546040519060e360020a631e1e7e5902825260048201526101005181602481885afa908115610d45576101005191614837575b50600160a060020a03163314614822575b61481d906151ed565b61463b565b9161482f61481d916151ed565b929050614814565b61484e91503d8061010051833e610d308183614c14565b5094505050505085614803565b346102705761486936614a58565b9091821515806149df575b61487e915061503e565b816101005152600860205261489b60406101005120548210615085565b61010080515460405160e360020a631e1e7e590281526004810185905291519082906024908290600160a060020a03165afa908115610d4557610100519061010051926149b9575b506002811015610cfc5760016148f991146151a5565b600160a060020a03163303614963578160056149486020937f6ba13ccf38e1630058b978f3457e3c065946df004bbd348544427653ab81f68b9561010051526008855260406101005120614d9f565b5001805460ff19166004179055604051908152a16101005180f35b60405160e560020a62461bcd02815260206004820152602260248201527f4f6e6c7920656d706c6f7965722063616e2072656a6563742071756f74617469604482015260f160020a6137b7026064820152608490fd5b90506149d291503d8061010051833e610d308183614c14565b50945092505050846148e3565b50610100515460e160020a631b7dd69302825260209082906004908290600160a060020a03165afa8015610d45576101005190614a24575b61487e9150831115614874565b506020813d602011614a50575b81614a3e60209383614c14565b810103126102705761487e9051614a17565b3d9150614a31565b6040906003190112610dc5576004359060243590565b906020808351928381520192019060005b818110614a8c5750505090565b8251845260209384019390920191600101614a7f565b906020808351928381520192019060005b818110614ac05750505090565b8251600160a060020a0316845260209384019390920191600101614ab3565b906003821015614aec5752565b60e060020a634e487b710260009081526021600452602490fd5b9695939192614b35614b5194614b27614b439460c08c5260c08c0190614a6e565b908a820360208c0152614a6e565b9088820360408a0152614aa2565b908682036060880152614a6e565b9380850360808201526020808451968781520193016000955b808710614b89575050614b8693945060a0818403910152614aa2565b90565b909360208082614b9c6001948951614adf565b01950196019590614b6a565b60a081019081106001604060020a03821117614bc357604052565b60e060020a634e487b710260009081526041600452602490fd5b60e081019081106001604060020a03821117614bc357604052565b61010081019081106001604060020a03821117614bc357604052565b90601f801991011681019081106001604060020a03821117614bc357604052565b6001604060020a038111614bc357601f01601f191660200190565b929192614c5c82614c35565b91614c6a6040519384614c14565b829481845281830111610dc5578281602093846000960137010152565b9080601f83011215610dc557816020614b8693359101614c50565b6060600319820112610dc5576004359160243591604435906001604060020a038211610dc557614b8691600401614c87565b9181601f84011215610dc5578235916001604060020a038311610dc55760208381860195010111610dc557565b60005b838110614d145750506000910152565b8181015183820152602001614d04565b90602091614d3d81518092818552858086019101614d01565b601f01601f1916010190565b805180835260208181028401810193928101926000918101905b838310614d7257505050505090565b9091929394602080614d90600193601f198682030187528951614d24565b97019301930191939290614d63565b8054821015614dbb576000526007602060002091020190600090565b60e060020a634e487b710260009081526032600452602490fd5b9060016002830492168015614e0a575b6020831014614df057565b60e060020a634e487b710260009081526022600452602490fd5b91607f1691614de5565b9060405191826000825492614e2884614dd5565b8084529360018116908115614e965750600114614e4f575b50614e4d92500383614c14565b565b90506000929192526020600020906000915b818310614e7a575050906020614e4d9282010138614e40565b6020919350806001915483858901015201910190918492614e61565b905060209250614e4d94915060ff1916828401521515810282010138614e40565b906005821015614aec5752565b60043590600160a060020a0382168203610dc557565b939092614f0d9260809497969786526020860152600160a060020a0316604085015260a0606085015260a0840190614d24565b931515910152565b8054821015614dbb5760005260206000200190600090565b8054821015614dbb576000526005602060002091020190600090565b9081518152600160a060020a0360208301511660208201526040820151604082015260c080614f9c614f8a606086015160e0606087015260e0860190614d24565b60808601518582036080870152614d24565b93614faf60a082015160a0860190614eb7565b015191015290565b939192614fe461500094614fd6614ff29460a0895260a0890190614a6e565b908782036020890152614a6e565b908582036040870152614aa2565b908382036060850152614d49565b9060808183039101526020808351928381520192019060005b8181106150265750505090565b82511515845260209384019390920191600101615019565b1561504557565b60405160e560020a62461bcd0281526020600482015260126024820152607260020a71125b9d985b1a59081c1c9bda9958dd081251026044820152606490fd5b1561508c57565b60405160e560020a62461bcd02815260206004820152601760248201527f496e76616c69642071756f746174696f6e20696e6465780000000000000000006044820152606490fd5b81601f82011215610dc55780516150ea81614c35565b926150f86040519485614c14565b81845260208284010111610dc557614b869160208085019101614d01565b5190600160a060020a0382168203610dc557565b9160e083830312610dc55782519260208101516001604060020a038111610dc557836151579183016150d4565b926040820151906001604060020a038211610dc5576151779183016150d4565b9160608201519160808101516002811015610dc55791614b8660c061519e60a08501615116565b9301615116565b156151ac57565b60405160e560020a62461bcd0281526020600482015260136024820152606960020a72283937b532b1ba1034b9903737ba1037b832b7026044820152606490fd5b60001981146151fc5760010190565b60e060020a634e487b710260009081526011600452602490fd5b6001604060020a038111614bc35760208091020190565b9061523782615216565b6152446040519182614c14565b8281528092615255601f1991615216565b0190602036910137565b8051821015614dbb576020809202010190565b6003821015614aec5752565b9080601f83011215610dc557815161529581615216565b926152a36040519485614c14565b8184526020808086019302820101928311610dc557602001905b8282106152ca5750505090565b81518152602091820191016152bd565b9080601f83011215610dc55781516152f181615216565b926152ff6040519485614c14565b818452602080808601930282010191838311610dc55760208201905b83821061532a57505050505090565b81516001604060020a038111610dc55760209161534c878480948801016150d4565b81520191019061531b565b919082018092116151fc57565b9060080260020a60001904191690565b81518155602082015160018201556040820151600282018054600160a060020a031916600160a060020a03929092169190911790556060820151805191929160038401916001604060020a038211614bc3576153d08354614dd5565b601f81116154a4575b50602090601f831160011461543257928261540881608095614e4d999895600498600092615427575050615364565b906002021790555b0151151591019060ff801983541691151516179055565b015190503880610488565b601f1983169184600052806000209260005b81811061548c575084614e4d9897946004979460019460809860029510615472575b50505002019055615410565b615482910151601f841690615364565b9055388080615466565b91936020600181928787015181550195019201615444565b828111156153d9578360005260206000206020601f85010490602085106154f1575b601f8260209201930104039060005b8281106154e35750506153d9565b6000828201556001016154d5565b600091506154c6565b1561550157565b60405160e560020a62461bcd02815260206004820152601660248201527f5265717565737420646f6573206e6f74206578697374000000000000000000006044820152606490fd5b9081526020810191909152600160a060020a0391821660408201529116606082015260800190565b1561557857565b60405160e560020a62461bcd02815260206004820152601d60248201527f4e6f20726571756573742065786973747320666f7220746869732049440000006044820152606490fd5b908060209392818452848401376000828201840152601f01601f1916010190565b156155e857565b60405160e560020a62461bcd02815260206004820152601d60248201527f416d6f756e74206d7573742062652067726561746572207468616e20300000006044820152606490fd5b1561563757565b60405160e560020a62461bcd02815260206004820152602260248201527f4e6f20726571756573742065786973747320666f7220746869732070726f6a65604482015260f260020a6118dd026064820152608490fd5b9061569782615216565b6156a46040519182614c14565b82815280926156b5601f1991615216565b019060005b8281106156c657505050565b8060606020809385010152016156ba565b600160a060020a03918216815291166020820152604081019190915260600190565b805461010060a860020a031916600160a060020a039092166101000261010060a860020a0316919091179055565b6002821015614aec5752565b9060405161574081614bdd565b825481526001830154600160a060020a031660208201526002830154604082015291829061577060038201614e14565b606083015261578160048201614e14565b608083015260ff6005820154166005811015614aec5760c09160069160a08501520154910152565b6040516157b581614bdd565b6000815260006020820152600060408201526000606082015260006080820152600060a0820152600060c082015250600190601154915b8281111561583c5760405160e560020a62461bcd02815260206004820152601c60248201527f50726f6a65637420636f6d706c6574696f6e206e6f7420666f756e64000000006044820152606490fd5b80600052601060205281600160406000200154146158625761585d906151ed565b6157ec565b9150506000526010602052604060002060056040519161588183614bdd565b8054835260018101546020840152600281015460408401526003810154600160a060020a0390811660608501526004820154908116608085015260a060020a900460ff16151560a0840152015460c082015290565b600160a060020a0316600052601260205260406000206040518082602082945493848152019060005260206000209260005b81811061599057505061591d92500382614c14565b80511561598a57600090815b81518310156159625761595a600191615942858561525f565b51600052600e60205260046040600020015490615357565b920191615929565b915051908115615970570490565b60e060020a634e487b710260009081526012600452602490fd5b50600090565b8454835260019485019486945060209093019201615908565b600052600a602052604060002090815415615aae576007549160005b838110615a315760405160e560020a62461bcd02815260206004820152603160248201527f4e6f206d61746368696e67207265717565737420666f756e6420666f722074686044820152607a60020a701a5cc81c995d9a595dc81c995c5d595cdd026064820152608490fd5b80600052600560205260406000208381541480615a90575b80615a76575b615a5c57506001016159c5565b600301546101009004600160a060020a0316949350505050565b5060ff6003820154166003811015614aec57600114615a4f565b5060018101546002840154600160a060020a03908116911614615a49565b60405160e560020a62461bcd02815260206004820152601d60248201527f526576696577207265717565737420646f6573206e6f742065786973740000006044820152606490fdfe608061028280380390601f19601f83011683019183831067ffffffffffffffff841117609457808492606094604052833981010312608f57603e8160c3565b906040604b6020830160c3565b91015160008054600160a060020a03948516600160a060020a031991821617909155600180549490931693169290921790556002556040516101ab90816100d78239f35b600080fd5b7f4e487b7100000000000000000000000000000000000000000000000000000000600052604160045260246000fd5b5190600160a060020a0382168203608f5756fe608080604052600436101561001357600080fd5b60e060020a60003504906369d8957582146100c357508063a37dda2c1461009a578063aa8c217c1461007c5763ae200e791461004e57600080fd5b3461007757600036600319011261007757600154604051600160a060020a039091168152602090f35b600080fd5b34610077576000366003190112610077576020600254604051908152f35b3461007757600036600319011261007757600054604051600160a060020a039091168152602090f35b3461007757600036600319011261007757600154600160a060020a031633036101215760008054600254829182918291600160a060020a0316828215610118575bf11561010c57005b6040513d6000823e3d90fd5b506108fc610104565b60e560020a62461bcd02815260206004820152602360248201527f4f6e6c792074686520656d706c6f7965722063616e2072656c65617365206675604482015260e860020a626e6473026064820152608490fdfea26469706673582212205c58b1b3565fb4d251b62fedfd6cdcf89662af26486494bc2efd2b321962a53964736f6c634300082200337041399863d3c4321ae1532f5491889c4d2d545fe190c428f5fd525f5b68c5af66055127df8271016bc51ecc70f8e60e872c693340c3db56a0024f27116e7026a2646970667358221220e7fcb934532ca543c58e2b15fa8d267a1b46cde59102d0f6b0cafe4c1580eca164736f6c63430008220033",
  "immutableReferences": {},
  "source": "// SPDX-License-Identifier: MIT\r\npragma solidity ^0.8.0;\r\n\r\nimport \"./Projects.sol\";\r\n\r\ncontract Escrow {\r\n    address public freelancer;\r\n    address public employer;\r\n    uint public amount;\r\n\r\n    constructor(address _freelancer, address _employer, uint _amount) payable {\r\n        freelancer = _freelancer;\r\n        employer = _employer;\r\n        amount = _amount;\r\n    }\r\n\r\n    function releaseFunds() external {\r\n        require(msg.sender == employer, \"Only the employer can release funds\");\r\n        payable(freelancer).transfer(amount);\r\n    }\r\n}\r\n\r\ncontract RequestManager {\r\n    Projects public projectsContract;\r\n\r\n    enum RequestStatus { Pending, Accepted, Rejected }\r\n    enum QuotationStatus { Pending, Proposed, Negotiating, Accepted, Rejected }\r\n\r\n    struct Request {\r\n        uint projectId;\r\n        address freelancer;\r\n        uint freelancerRating;\r\n        RequestStatus status;\r\n        Escrow escrowContract;\r\n    }\r\n\r\n    struct Quotation {\r\n        uint projectId;\r\n        address proposedBy;\r\n        uint proposedAmount;\r\n        string description;\r\n        string negotiationNotes;\r\n        QuotationStatus status;\r\n        uint timestamp;\r\n    }\r\n\r\n    struct MilestoneReviewRequest {\r\n        uint id;\r\n        uint milestoneId;\r\n        address freelancer;\r\n        string cid;\r\n        bool reviewed;\r\n    }\r\n\r\n    struct File {\r\n        uint id;\r\n        uint milestoneId;\r\n        string name;\r\n        string rid;\r\n        string cid;\r\n    }\r\n\r\n    struct ReviewResponse{\r\n        uint id;\r\n        uint milestoneId;\r\n        address freelancer;\r\n        string response;\r\n        bool accepted;\r\n    }\r\n    \r\n    struct RequestDraft {\r\n        uint id;\r\n        uint requestId;\r\n        uint projectId;\r\n        address freelancer;\r\n        address employer;\r\n        string draftContent; // Could be description or proposal\r\n        uint timestamp;\r\n        bool reviewed;\r\n    }\r\n    \r\n    struct FreelancerRating {\r\n        uint ratingId;\r\n        uint requestId;\r\n        address rater; // employer\r\n        address freelancer;\r\n        uint rating; // 1-5 stars\r\n        string review;\r\n        uint timestamp;\r\n    }\r\n    \r\n    struct ProjectCompletion {\r\n        uint completionId;\r\n        uint projectId;\r\n        uint requestId;\r\n        address employer;\r\n        address freelancer;\r\n        bool isCompleted;\r\n        uint completionTime;\r\n    }\r\n    \r\n    mapping(uint => ReviewResponse) public reviewResponses;\r\n    uint public responseCount;\r\n\r\n    // Mapping milestone ID to an array of files\r\n    mapping(uint => File[]) public milestoneFiles;\r\n    uint public fileCount;\r\n\r\n    // Store all requests in a single mapping\r\n    mapping(uint => Request) public requests;\r\n    mapping(uint => uint) public projectToRequest; // projectId => requestId mapping\r\n    uint public requestCount; // To keep track of the total number of requests\r\n\r\n    mapping(uint => Quotation[]) public quotations; // projectId => array of quotations\r\n    mapping(uint => address) public assignedFreelancer; // projectId => freelancer address\r\n\r\n    mapping(uint => MilestoneReviewRequest) public milestoneReviewRequests;\r\n    uint public milestoneReviewRequestCount;\r\n\r\n    // New mappings for additional features\r\n    mapping(uint => RequestDraft) public requestDrafts;\r\n    uint public requestDraftCount;\r\n    \r\n    mapping(uint => FreelancerRating) public freelancerRatings;\r\n    uint public freelancerRatingCount;\r\n    \r\n    mapping(uint => ProjectCompletion) public projectCompletions;\r\n    uint public projectCompletionCount;\r\n    \r\n    mapping(address => uint[]) public freelancerRatingsList; // Track ratings per freelancer\r\n\r\n    event RequestSent(uint requestId, uint projectId, address freelancer);\r\n    event RequestAccepted(uint requestId, address freelancer, address escrowContract);\r\n    event RequestRejected(uint requestId, address freelancer);\r\n    event QuotationProposed(uint projectId, address proposedBy, uint amount);\r\n    event QuotationCounterProposed(uint projectId, address proposedBy, uint amount, string notes);\r\n    event QuotationAccepted(uint projectId, uint newAmount);\r\n    event QuotationRejected(uint projectId);\r\n    event MilestoneReviewRequestSent(uint requestId, uint milestoneId, string cid);\r\n    event MilestoneAccepted(uint projectId, uint milestoneId, uint updatedRating);\r\n    event MilestoneReviewRequestRejected(uint indexed reviewRequestId, string reason);\r\n    event RejectionReasonAccepted(uint _reviewRequestId);\r\n    event RequestDraftSent(uint draftId, uint requestId, address freelancer, address employer);\r\n    event FreelancerRatingSubmitted(uint ratingId, address rater, address freelancer, uint rating);\r\n    event ProjectCompleted(uint projectId, uint requestId, address employer, address freelancer);\r\n\r\n    constructor(address _projectsContract) {\r\n        projectsContract = Projects(_projectsContract);\r\n    }\r\n\r\n    function sendRequest(uint _projectId, uint _freelancerRating) public {\r\n        require(_projectId > 0 && _projectId <= projectsContract.projectCount(), \"Invalid project ID\");\r\n        (,, , , Projects.Status status, , ) = projectsContract.getProject(_projectId);\r\n        require(status == Projects.Status.Open, \"Project is not open\");\r\n\r\n        // Create a new request\r\n        requestCount++; // Increment request count to create a unique ID\r\n        requests[requestCount] = Request({\r\n            projectId: _projectId,\r\n            freelancer: msg.sender,\r\n            freelancerRating: _freelancerRating,\r\n            status: RequestStatus.Pending,\r\n            escrowContract: Escrow(address(0))\r\n        });\r\n        \r\n        // Map projectId to requestId for easy lookup\r\n        projectToRequest[_projectId] = requestCount;\r\n\r\n        emit RequestSent(requestCount, _projectId, msg.sender);\r\n    }\r\n\r\n    function acceptRequest(uint _requestId) public payable {\r\n        Request storage request = requests[_requestId];\r\n        require(request.freelancer != address(0), \"No request exists for this ID\");\r\n        require(request.status == RequestStatus.Pending, \"Request is not pending\");\r\n\r\n        // Fetch project details\r\n        (,, , uint projectReward, Projects.Status status, address employer, ) = projectsContract.getProject(request.projectId);\r\n        require(msg.sender == employer, \"Only the employer can accept the request\");\r\n        require(status == Projects.Status.Open, \"Project must be open\");\r\n\r\n        // Create new escrow contract instance with freelancer and employer details\r\n        request.escrowContract = new Escrow{value: projectReward}(request.freelancer, employer, projectReward);\r\n\r\n        request.status = RequestStatus.Accepted;\r\n        \r\n        // Mark freelancer as assigned and close the project\r\n        assignedFreelancer[request.projectId] = request.freelancer;\r\n        projectsContract.closeProject(request.projectId);\r\n        \r\n        emit RequestAccepted(_requestId, request.freelancer, address(request.escrowContract));\r\n    }\r\n\r\n    function rejectRequest(uint _requestId) public {\r\n        Request storage request = requests[_requestId];\r\n        require(request.freelancer != address(0), \"No request exists for this ID\");\r\n        require(request.status == RequestStatus.Pending, \"Request already processed\");\r\n\r\n        request.status = RequestStatus.Rejected;\r\n        emit RequestRejected(_requestId, request.freelancer);\r\n    }\r\n\r\n    \r\n\r\n    function getRequest(uint _requestId) public view returns (Request memory) {\r\n        require(requests[_requestId].freelancer != address(0), \"No request exists for this ID\");\r\n        return requests[_requestId];\r\n    }\r\n\r\n    // New function to view all requests\r\n    function viewAllRequests() public view returns (\r\n        uint[] memory requestIds,\r\n        uint[] memory projectIds,\r\n        address[] memory freelancers,\r\n        uint[] memory freelancerRatings,\r\n        RequestStatus[] memory statuses,\r\n        address[] memory escrowContracts\r\n    ) {\r\n        uint count = requestCount;\r\n\r\n        // Initialize arrays based on the total request count\r\n        requestIds = new uint[](count);\r\n        projectIds = new uint[](count);\r\n        freelancers = new address[](count);\r\n        freelancerRatings = new uint[](count);\r\n        statuses = new RequestStatus[](count);\r\n        escrowContracts = new address[](count);\r\n\r\n        // Populate the arrays with request details\r\n        for (uint i = 1; i <= requestCount; i++) {\r\n            Request storage request = requests[i];\r\n            requestIds[i - 1] = i;\r\n            projectIds[i - 1] = request.projectId;\r\n            freelancers[i - 1] = request.freelancer;\r\n            freelancerRatings[i - 1] = request.freelancerRating;\r\n            statuses[i - 1] = request.status;\r\n            escrowContracts[i - 1] = address(request.escrowContract);\r\n        }\r\n\r\n        return (requestIds, projectIds, freelancers, freelancerRatings, statuses, escrowContracts);\r\n    }\r\n\r\n\r\n    function viewAllReviewResponses() public view returns (\r\n        uint[] memory responseIds,\r\n        uint[] memory milestoneIds,\r\n        address[] memory freelancers,\r\n        string[] memory responses,\r\n        bool[] memory acceptedStatuses\r\n    ) {\r\n        uint count = responseCount;\r\n\r\n        // Initialize arrays based on the total response count\r\n        responseIds = new uint[](count);\r\n        milestoneIds = new uint[](count);\r\n        freelancers = new address[](count);\r\n        responses = new string[](count);\r\n        acceptedStatuses = new bool[](count);\r\n\r\n        // Populate the arrays with response details\r\n        for (uint i = 1; i <= count; i++) {\r\n            ReviewResponse storage reviewResponse = reviewResponses[i];\r\n            responseIds[i - 1] = reviewResponse.id;\r\n            milestoneIds[i - 1] = reviewResponse.milestoneId;\r\n            freelancers[i - 1] = reviewResponse.freelancer;\r\n            responses[i - 1] = reviewResponse.response;\r\n            acceptedStatuses[i - 1] = reviewResponse.accepted;\r\n        }\r\n\r\n        return (responseIds, milestoneIds, freelancers, responses, acceptedStatuses);\r\n    }\r\n\r\n\r\n    // function acceptMilestone(uint _milestoneId, uint _actualDaysTaken, uint _delayPenalty, uint _requestId) public payable {\r\n    //     Request memory request = getRequest(_requestId); // Retrieve the request using requestId\r\n\r\n    //     // Ensure projectId is valid\r\n    //     require(request.projectId > 0 && request.projectId <= projectsContract.projectCount(), \"Project does not exist\");\r\n\r\n    //     // Retrieve the project details using the getProject function\r\n    //     (, , , uint reward, , address employer) = projectsContract.getProject(request.projectId);\r\n    //     require(msg.sender == employer, \"Only the employer can accept milestones\");\r\n\r\n    //     // Ensure milestoneId is valid\r\n    //     (\r\n    //         uint[] memory ids,\r\n    //         uint[] memory projectIds,\r\n    //         string[] memory names,\r\n    //         string[] memory descriptions,\r\n    //         uint[] memory daycounts,\r\n    //         uint[] memory percentages,\r\n    //         bool[] memory completions,\r\n    //         string[] memory proofFileHashes\r\n    //     ) = projectsContract.getMilestones(request.projectId);\r\n\r\n    //     // Check if the milestone exists and is within bounds\r\n    //     require(_milestoneId > 0 && _milestoneId <= ids.length, \"Milestone does not exist\");\r\n        \r\n    //     // Fetch milestone data by using _milestoneId as an index\r\n    //     uint milestoneIndex = _milestoneId - 1;\r\n    //     require(!completions[milestoneIndex], \"Milestone already completed\");\r\n    //     require(bytes(proofFileHashes[milestoneIndex]).length > 0, \"Proof file not uploaded\");\r\n\r\n    //     // Mark the milestone as completed\r\n    //     projectsContract.completeMilestone(request.projectId, _milestoneId);\r\n\r\n    //     // Calculate and update freelancer rating based on the provided formula\r\n    //     uint currentRating = projectsContract.getFreelancerRating(request.freelancer);\r\n    //     uint rewardWeight = (percentages[milestoneIndex] * reward) / 100;\r\n    //     int ratingChange = int((5 * 100 * rewardWeight * daycounts[milestoneIndex]) / (reward * _actualDaysTaken));\r\n\r\n    //     // Cap the increment at +0.2 if positive\r\n    //     if (ratingChange > 20) {\r\n    //         ratingChange = 20;\r\n    //     }\r\n\r\n    //     uint newRating = uint(int(currentRating) + ratingChange);\r\n\r\n    //     // Ensure new rating doesn't exceed 5.0 (500 basis points)\r\n    //     if (newRating > 500) {\r\n    //         newRating = 500;\r\n    //     }\r\n\r\n    //     // Update the freelancer's rating\r\n    //     projectsContract.setFreelancerRating(request.freelancer, newRating);\r\n\r\n    //     // Release milestone payment from the escrow with the specified penalty\r\n    //     uint milestonePercentage = percentages[milestoneIndex];\r\n    //     request.escrowContract.releaseMilestonePayment(milestonePercentage, _delayPenalty);\r\n\r\n    //     emit MilestoneAccepted(request.projectId, _milestoneId, newRating);\r\n    // }\r\n\r\n\r\n    function viewRequestsByEmployer() public view returns (\r\n            uint[] memory requestIds,\r\n            uint[] memory projectIds,\r\n            address[] memory freelancers,\r\n            uint[] memory freelancerRatings,\r\n            RequestStatus[] memory statuses,\r\n            address[] memory escrowContracts\r\n        ) {\r\n            uint count = 0;\r\n\r\n            // Count requests that belong to projects owned by the employer\r\n            for (uint i = 1; i <= requestCount; i++) {\r\n                uint projectId = requests[i].projectId;\r\n                (, , , , , address employer, ) = projectsContract.getProject(projectId);\r\n                if (employer == msg.sender) {\r\n                    count++;\r\n                }\r\n            }\r\n\r\n            // Initialize arrays based on the count of matching requests\r\n            requestIds = new uint[](count);\r\n            projectIds = new uint[](count);\r\n            freelancers = new address[](count);\r\n            freelancerRatings = new uint[](count);\r\n            statuses = new RequestStatus[](count);\r\n            escrowContracts = new address[](count);\r\n\r\n            uint index = 0;\r\n\r\n            // Populate the arrays with matching request details\r\n            for (uint i = 1; i <= requestCount; i++) {\r\n                uint projectId = requests[i].projectId;\r\n                (, , , , , address employer, ) = projectsContract.getProject(projectId);\r\n                if (employer == msg.sender) {\r\n                    Request storage request = requests[i];\r\n                    requestIds[index] = i;\r\n                    projectIds[index] = request.projectId;\r\n                    freelancers[index] = request.freelancer;\r\n                    freelancerRatings[index] = request.freelancerRating;\r\n                    statuses[index] = request.status;\r\n                    escrowContracts[index] = address(request.escrowContract);\r\n                    index++;\r\n                }\r\n            }\r\n\r\n            return (requestIds, projectIds, freelancers, freelancerRatings, statuses, escrowContracts);\r\n    }\r\n\r\n    function sendMilestoneReviewRequest(uint _milestoneId, string calldata _cid, address _freelancer) public {\r\n        // Create a new milestone review request\r\n        milestoneReviewRequestCount++; // Increment count for unique ID\r\n        milestoneReviewRequests[milestoneReviewRequestCount] = MilestoneReviewRequest({\r\n            id: milestoneReviewRequestCount,\r\n            milestoneId: _milestoneId,\r\n            freelancer: _freelancer,\r\n            cid: _cid,\r\n            reviewed: false // Initially, the request is not reviewed\r\n        });\r\n\r\n        emit MilestoneReviewRequestSent(milestoneReviewRequestCount, _milestoneId, _cid); // Emit event\r\n    }\r\n\r\n    function viewAllMilestoneReviewRequests() public view returns (\r\n        uint[] memory requestIds,\r\n        uint[] memory milestoneIds,\r\n        address[] memory freelancers,\r\n        string[] memory cids,\r\n        bool[] memory reviewedStatuses\r\n    ) {\r\n        uint count = milestoneReviewRequestCount;\r\n\r\n        // Initialize arrays based on the total count of review requests\r\n        requestIds = new uint[](count);\r\n        milestoneIds = new uint[](count);\r\n        freelancers = new address[](count);\r\n        cids = new string[](count);\r\n        reviewedStatuses = new bool[](count);\r\n\r\n        // Populate the arrays with review request details\r\n        for (uint i = 1; i <= milestoneReviewRequestCount; i++) {\r\n            MilestoneReviewRequest storage reviewRequest = milestoneReviewRequests[i];\r\n            requestIds[i - 1] = reviewRequest.id;\r\n            milestoneIds[i - 1] = reviewRequest.milestoneId;\r\n            freelancers[i - 1] = reviewRequest.freelancer;\r\n            cids[i - 1] = reviewRequest.cid;\r\n            reviewedStatuses[i - 1] = reviewRequest.reviewed;\r\n        }\r\n\r\n        return (requestIds, milestoneIds, freelancers, cids, reviewedStatuses);\r\n    }\r\n\r\n\r\n    function getEscrowAccountFromReviewRequest(uint _reviewRequestId, uint _projectId) public view returns (Escrow) {\r\n        // Fetch the MilestoneReviewRequest using the provided ID\r\n        MilestoneReviewRequest storage reviewRequest = milestoneReviewRequests[_reviewRequestId];\r\n\r\n        // Ensure the review request exists\r\n        require(reviewRequest.id != 0, \"Review request does not exist\");\r\n        \r\n        // Find the corresponding request based on the project ID and freelancer address\r\n        for (uint i = 0; i < requestCount; i++) {\r\n            Request storage request = requests[i];\r\n\r\n            // Check if the request matches the provided projectId and the freelancer address from the review request\r\n            if (request.projectId == _projectId && request.freelancer == reviewRequest.freelancer && request.status == RequestStatus.Accepted) {\r\n                return request.escrowContract; // Return the escrow contract associated with the request\r\n            }\r\n        }\r\n\r\n        // If no matching request was found, revert with an error message\r\n        revert(\"No matching request found for this review request\");\r\n    }\r\n\r\n\r\n\r\n\r\n    function acceptMilestoneReviewRequest(uint _reviewRequestId, uint _projId) public payable {\r\n        // Fetch the  request using the ID\r\n        MilestoneReviewRequest storage reviewRequest = milestoneReviewRequests[_reviewRequestId];\r\n        require(!reviewRequest.reviewed, \"Review request already accepted\");\r\n\r\n        // Get the milestone ID from the  request\r\n        uint milestoneId = reviewRequest.milestoneId;\r\n\r\n        // Retrieve the associated milestones for the project\r\n        (\r\n            uint[] memory ids,\r\n            uint[] memory projectIds,\r\n            string[] memory names,\r\n            string[] memory descriptions,\r\n            uint[] memory daycounts,\r\n            uint[] memory percentages,\r\n            bool[] memory completions,\r\n            string[] memory proofFileHashes\r\n        ) = projectsContract.getMilestones(_projId);\r\n\r\n        // Initialize variables to store the milestone data once we find it\r\n        bool milestoneFound = false;\r\n        string memory milestoneName;\r\n        string memory milestoneDescription;\r\n        uint milestoneDaycount;\r\n        uint milestonePercentage;\r\n        bool milestoneCompleted;\r\n        string memory milestoneProofFileHash;\r\n\r\n        // Search for the milestone with the specified milestoneId\r\n        for (uint i = 0; i < ids.length; i++) {\r\n            if (ids[i] == milestoneId) {\r\n                milestoneFound = true;\r\n                milestoneName = names[i];\r\n                milestoneDescription = descriptions[i];\r\n                milestoneDaycount = daycounts[i];\r\n                milestonePercentage = percentages[i];\r\n                milestoneCompleted = completions[i];\r\n                milestoneProofFileHash = proofFileHashes[i];\r\n                break;\r\n            }\r\n        }\r\n\r\n        require(milestoneFound, \"Milestone does not exist\");\r\n\r\n        reviewRequest.reviewed = true;\r\n\r\n        // Get freelancer's address from the request\r\n        address freelancer = reviewRequest.freelancer;\r\n\r\n        // Update freelancer rating based on the milestone percentage\r\n        uint currentRating = projectsContract.getFreelancerRating(freelancer);\r\n        // uint rewardWeight = projReward / 100;\r\n        uint newRating = currentRating + (5 * milestonePercentage / 100);\r\n\r\n        // Ensure the new rating does not exceed 500\r\n        if (newRating > 500) {\r\n            newRating = 500;\r\n        }\r\n\r\n        // Set the new rating for the freelancer\r\n        projectsContract.setFreelancerRating(freelancer, newRating);\r\n\r\n        // TODO: Implement milestone payment release\r\n        // getEscrowAccountFromReviewRequest(_reviewRequestId, _projId).releaseMilestonePayment(milestonePercentage);\r\n\r\n        uint _milestoneId = reviewRequest.milestoneId;\r\n        address _freelancer = reviewRequest.freelancer;\r\n\r\n        responseCount++;\r\n        reviewResponses[responseCount] = ReviewResponse({\r\n            id: responseCount,\r\n            milestoneId: _milestoneId,\r\n            freelancer: _freelancer,\r\n            response: \"\",\r\n            accepted: true\r\n        });\r\n    }\r\n\r\n\r\n\r\n    // function acceptMilestoneReviewRequest(uint _reviewRequestId, uint _projId) public payable {\r\n    //     // Fetch the  request using the ID\r\n    //     MilestoneReviewRequest storage reviewRequest = milestoneReviewRequests[_reviewRequestId];\r\n    //     require(!reviewRequest.reviewed, \"Review request already accepted\");\r\n\r\n    //     // Get the milestone ID from the  request\r\n    //     uint milestoneId = reviewRequest.milestoneId;\r\n\r\n    //     // Retrieve the associated milestones for the project\r\n    //     (\r\n    //         uint[] memory ids,\r\n    //         uint[] memory projectIds,\r\n    //         string[] memory names,\r\n    //         string[] memory descriptions,\r\n    //         uint[] memory daycounts,\r\n    //         uint[] memory percentages,\r\n    //         bool[] memory completions,\r\n    //         string[] memory proofFileHashes\r\n    //     ) = projectsContract.getMilestones(_projId);\r\n\r\n    //     // Initialize variables to store the milestone data once we find it\r\n    //     bool milestoneFound = false;\r\n    //     string memory milestoneName;\r\n    //     string memory milestoneDescription;\r\n    //     uint milestoneDaycount;\r\n    //     uint milestonePercentage;\r\n    //     bool milestoneCompleted;\r\n    //     string memory milestoneProofFileHash;\r\n\r\n    //     // Search for the milestone with the specified milestoneId\r\n    //     for (uint i = 0; i < ids.length; i++) {\r\n    //         if (ids[i] == milestoneId) {\r\n    //             milestoneFound = true;\r\n    //             milestoneName = names[i];\r\n    //             milestoneDescription = descriptions[i];\r\n    //             milestoneDaycount = daycounts[i];\r\n    //             milestonePercentage = percentages[i];\r\n    //             milestoneCompleted = completions[i];\r\n    //             milestoneProofFileHash = proofFileHashes[i];\r\n    //             break;\r\n    //         }\r\n    //     }\r\n\r\n    //     require(milestoneFound, \"Milestone does not exist\");\r\n\r\n    //     // Use getProject to retrieve the project details\r\n    //     (\r\n    //         uint projId,\r\n    //         string memory projName,\r\n    //         string memory projDescription,\r\n    //         uint projReward,\r\n    //         Projects.Status projStatus,\r\n    //         address projEmployer\r\n    //     ) = projectsContract.getProject(_projId);\r\n\r\n    //     // Verify that the sender is the employer of the project\r\n    //     require(projEmployer == msg.sender, \"Only the employer can accept milestones\");\r\n\r\n    //     // Mark the review request as accepted\r\n    //     reviewRequest.reviewed = true;\r\n\r\n    //     // Get freelancer's address from the request\r\n    //     address freelancer = reviewRequest.freelancer;\r\n\r\n    //     // Update freelancer rating based on the milestone percentage\r\n    //     uint currentRating = projectsContract.getFreelancerRating(freelancer);\r\n    //     uint rewardWeight = projReward / 100;\r\n    //     uint newRating = currentRating + (5 * milestonePercentage / rewardWeight);\r\n\r\n    //     // Ensure the new rating does not exceed 500\r\n    //     if (newRating > 500) {\r\n    //         newRating = 500;\r\n    //     }\r\n\r\n    //     // Set the new rating for the freelancer\r\n    //     projectsContract.setFreelancerRating(freelancer, newRating);\r\n\r\n    //     // Find the request with the matching projectId and freelancer\r\n    //     uint requestIndex;\r\n    //     bool foundRequest = false;\r\n\r\n    //     for (uint i = 0; i < requestCount; i++) {\r\n    //         if (requests[i].projectId == _projId && requests[i].freelancer == freelancer && requests[i].status == RequestStatus.Accepted) {\r\n    //             requestIndex = i;\r\n    //             foundRequest = true;\r\n    //             break;\r\n    //         }\r\n    //     }\r\n    //     require(foundRequest, \"Associated request not found\");\r\n\r\n    //     // Release the milestone payment from escrow using the found request\r\n    //     requests[requestIndex].escrowContract.releaseMilestonePayment(milestonePercentage);\r\n\r\n    //     // Emit an event to record the milestone acceptance\r\n    //     emit MilestoneAccepted(projId, milestoneId, newRating);\r\n    // }\r\n\r\n    // function acceptMilestoneReviewRequest(uint _reviewRequestId, uint _projId) public payable {\r\n    //     // Fetch the request using the ID\r\n    //     MilestoneReviewRequest storage reviewRequest = milestoneReviewRequests[_reviewRequestId];\r\n    //     require(reviewRequest.id != 0, \"Review request does not exist\");\r\n    //     require(!reviewRequest.reviewed, \"Review request already accepted\");\r\n\r\n    //     // Get the milestone ID from the request\r\n    //     uint milestoneId = reviewRequest.milestoneId;\r\n\r\n    //     // Retrieve the associated milestones for the project\r\n    //     (\r\n    //         uint[] memory ids,\r\n    //         ,  // projectIds not used\r\n    //         ,  // names not used\r\n    //         ,  // descriptions not used\r\n    //         uint[] memory daycounts,\r\n    //         uint[] memory percentages,\r\n    //         bool[] memory completions,\r\n    //         string[] memory proofFileHashes\r\n    //     ) = projectsContract.getMilestones(_projId);\r\n\r\n    //     // Verify that the milestone exists and get its index\r\n    //     uint milestoneIndex;\r\n    //     bool milestoneFound = false;\r\n    //     for (uint i = 0; i < ids.length; i++) {\r\n    //         if (ids[i] == milestoneId) {\r\n    //             milestoneIndex = i;\r\n    //             milestoneFound = true;\r\n    //             break;\r\n    //         }\r\n    //     }\r\n    //     require(milestoneFound, \"Milestone does not exist\");\r\n    //     require(!completions[milestoneIndex], \"Milestone already completed\");\r\n    //     require(bytes(proofFileHashes[milestoneIndex]).length > 0, \"Proof file not uploaded\");\r\n\r\n    //     // Get project details\r\n    //     (, , , uint projReward, , address projEmployer) = projectsContract.getProject(_projId);\r\n    //     require(msg.sender == projEmployer, \"Only the employer can accept milestones\");\r\n\r\n    //     // Mark the milestone as completed in the Projects contract\r\n    //     projectsContract.completeMilestone(_projId, milestoneId);\r\n\r\n    //     // Mark the review request as accepted\r\n    //     reviewRequest.reviewed = true;\r\n\r\n    //     // Get freelancer's address from the request\r\n    //     address freelancer = reviewRequest.freelancer;\r\n\r\n    //     // Update freelancer rating\r\n    //     uint currentRating = projectsContract.getFreelancerRating(freelancer);\r\n    //     uint milestonePercentage = percentages[milestoneIndex];\r\n        \r\n    //     // Calculate rating increase based on milestone percentage and project reward\r\n    //     uint ratingIncrease = (5 * milestonePercentage * daycounts[milestoneIndex]) / 100;\r\n    //     uint newRating = currentRating + ratingIncrease;\r\n        \r\n    //     // Cap the rating at 500 (5.0)\r\n    //     if (newRating > 500) {\r\n    //         newRating = 500;\r\n    //     }\r\n\r\n    //     // Update the freelancer's rating\r\n    //     projectsContract.setFreelancerRating(freelancer, newRating);\r\n\r\n    //     // Find the associated request for the escrow\r\n    //     uint requestId;\r\n    //     bool foundRequest = false;\r\n    //     for (uint i = 1; i <= requestCount; i++) {\r\n    //         if (requests[i].projectId == _projId && \r\n    //             requests[i].freelancer == freelancer && \r\n    //             requests[i].status == RequestStatus.Accepted) {\r\n    //             requestId = i;\r\n    //             foundRequest = true;\r\n    //             break;\r\n    //         }\r\n    //     }\r\n    //     require(foundRequest, \"Associated request not found\");\r\n    //     require(address(requests[requestId].escrowContract) != address(0), \"Escrow contract not found\");\r\n\r\n    //     // Release the milestone payment from escrow\r\n    //     requests[requestId].escrowContract.releaseMilestonePayment(milestonePercentage);\r\n\r\n    //     // Emit event\r\n    //     emit MilestoneAccepted(_projId, milestoneId, newRating);\r\n    // }\r\n\r\n\r\n\r\n\r\n    function rejectMilestoneReviewRequest(uint _reviewRequestId, string calldata _reason)  public {\r\n        MilestoneReviewRequest storage reviewRequest = milestoneReviewRequests[_reviewRequestId];\r\n        require(!reviewRequest.reviewed, \"Review request already processed\");\r\n        reviewRequest.reviewed = true;\r\n\r\n        uint _milestoneId = reviewRequest.milestoneId;\r\n        address _freelancer = reviewRequest.freelancer;\r\n\r\n        responseCount++;\r\n        // request.escrowContract = new ReviewResponse{value: projectReward}(request.freelancer, employer);\r\n        reviewResponses[responseCount] = ReviewResponse({\r\n            id: responseCount,\r\n            milestoneId: _milestoneId,\r\n            freelancer: _freelancer,\r\n            response: _reason,\r\n            accepted: false\r\n        });\r\n\r\n        emit MilestoneReviewRequestRejected(_reviewRequestId, _reason);\r\n    }\r\n\r\n    function acceptRejectionReason(uint _reviewRequestId) public {\r\n        // Fetch the request using the ID\r\n        MilestoneReviewRequest storage reviewRequest = milestoneReviewRequests[_reviewRequestId];\r\n        \r\n        // Check if the request exists and if it is not already reviewed\r\n        require(reviewRequest.freelancer == msg.sender, \"Only the freelancer can accept the rejection reason\");\r\n        require(!reviewRequest.reviewed, \"Review request already reviewed\");\r\n\r\n        // Accept the rejection reason and mark the request as reviewed\r\n        reviewRequest.reviewed = true;\r\n\r\n        // Emit an event for this action (optional)\r\n        emit RejectionReasonAccepted(_reviewRequestId);\r\n    }\r\n\r\n\r\n    function viewAcceptedProjectsByFreelancer(address freelancer) public view returns (\r\n        uint[] memory ids, \r\n        string[] memory names, \r\n        string[] memory descriptions, \r\n        uint[] memory rewards, \r\n        Projects.Status[] memory statuses, // Change here to use Projects.Status\r\n        address[] memory employers\r\n    ) {\r\n        // Temporary storage for matched projects\r\n        uint[] memory tempIds = new uint[](requestCount); \r\n        string[] memory tempNames = new string[](requestCount);\r\n        string[] memory tempDescriptions = new string[](requestCount);\r\n        uint[] memory tempRewards = new uint[](requestCount);\r\n        Projects.Status[] memory tempStatuses = new Projects.Status[](requestCount); // Change here to use Projects.Status\r\n        address[] memory tempEmployers = new address[](requestCount);\r\n\r\n        uint matchCount = 0; // Count of matched projects\r\n\r\n        for (uint i = 1; i <= requestCount; i++) {\r\n            Request storage req = requests[i];\r\n            if (req.status == RequestStatus.Accepted && req.freelancer == freelancer) {\r\n                // Unpack the return values from getProject\r\n                (uint id, string memory name, string memory description, uint reward, Projects.Status status, address employer, ) = \r\n                    projectsContract.getProject(req.projectId); // Call the function\r\n                \r\n                // Assign the unpacked values to temporary storage\r\n                tempIds[matchCount] = id;\r\n                tempNames[matchCount] = name;\r\n                tempDescriptions[matchCount] = description;\r\n                tempRewards[matchCount] = reward;\r\n                tempStatuses[matchCount] = status;\r\n                tempEmployers[matchCount] = employer;\r\n                matchCount++;\r\n            }\r\n        }\r\n\r\n        // Create memory arrays of the exact size of matches found\r\n        ids = new uint[](matchCount);\r\n        names = new string[](matchCount);\r\n        descriptions = new string[](matchCount);\r\n        rewards = new uint[](matchCount);\r\n        statuses = new Projects.Status[](matchCount); // Change here to use Projects.Status\r\n        employers = new address[](matchCount);\r\n\r\n        for (uint j = 0; j < matchCount; j++) {\r\n            ids[j] = tempIds[j];\r\n            names[j] = tempNames[j];\r\n            descriptions[j] = tempDescriptions[j];\r\n            rewards[j] = tempRewards[j];\r\n            statuses[j] = tempStatuses[j];\r\n            employers[j] = tempEmployers[j];\r\n        }\r\n\r\n        return (ids, names, descriptions, rewards, statuses, employers);\r\n    }\r\n    \r\n\r\n    function addFile(\r\n        uint _milestoneId, \r\n        string memory _name, \r\n        string memory _rid, \r\n        string memory _cid\r\n    ) public {\r\n        // Create a new File struct with a unique ID and add it to the milestoneFiles map\r\n        File memory newFile = File({\r\n            id: fileCount, // unique global ID for each file\r\n            milestoneId: _milestoneId,\r\n            name: _name,\r\n            rid: _rid,\r\n            cid: _cid\r\n        });\r\n        \r\n        milestoneFiles[_milestoneId].push(newFile); // Add file to the array for the specific milestone\r\n        fileCount++; // Increment the global file count\r\n    }\r\n\r\n    function viewAllFilesForMilestone(uint _milestoneId) \r\n        public \r\n        view \r\n        returns (\r\n            uint[] memory ids,\r\n            uint[] memory milestoneIds,\r\n            string[] memory names,\r\n            string[] memory rids,\r\n            string[] memory cids\r\n        ) \r\n    {\r\n        uint count = fileCount; // Assuming 'fileCount' keeps track of the total files added\r\n\r\n        // Initialize arrays based on the total file count for the specified milestone\r\n        ids = new uint[](count);\r\n        milestoneIds = new uint[](count);\r\n        names = new string[](count);\r\n        rids = new string[](count);\r\n        cids = new string[](count);\r\n\r\n        // Populate the arrays with file details for the given milestone\r\n        uint index = 0;\r\n        for (uint i = 0; i < count; i++) {\r\n            if (milestoneFiles[_milestoneId][i].milestoneId == _milestoneId) {\r\n                File storage file = milestoneFiles[_milestoneId][i];\r\n                ids[index] = file.id;\r\n                milestoneIds[index] = file.milestoneId;\r\n                names[index] = file.name;\r\n                rids[index] = file.rid;\r\n                cids[index] = file.cid;\r\n                index++;\r\n            }\r\n        }\r\n\r\n        return (ids, milestoneIds, names, rids, cids);\r\n    }\r\n\r\n    // ===== NEW FUNCTIONS FOR ADDITIONAL FEATURES =====\r\n\r\n    /**\r\n     * Send a request draft from freelancer to employer (client)\r\n     */\r\n    function sendRequestDraft(uint _requestId, string memory _draftContent) public {\r\n        Request storage request = requests[_requestId];\r\n        require(request.freelancer != address(0), \"Request does not exist\");\r\n        require(request.freelancer == msg.sender, \"Only the freelancer can send drafts\");\r\n        \r\n        // Get employer address from project\r\n        (,, , , , address employer, ) = projectsContract.getProject(request.projectId);\r\n        \r\n        requestDraftCount++;\r\n        requestDrafts[requestDraftCount] = RequestDraft({\r\n            id: requestDraftCount,\r\n            requestId: _requestId,\r\n            projectId: request.projectId,\r\n            freelancer: msg.sender,\r\n            employer: employer,\r\n            draftContent: _draftContent,\r\n            timestamp: block.timestamp,\r\n            reviewed: false\r\n        });\r\n        \r\n        emit RequestDraftSent(requestDraftCount, _requestId, msg.sender, employer);\r\n    }\r\n\r\n    /**\r\n     * Get all request drafts for a specific request\r\n     */\r\n    function getRequestDrafts(uint _requestId) public view returns (RequestDraft[] memory) {\r\n        uint count = 0;\r\n        for (uint i = 1; i <= requestDraftCount; i++) {\r\n            if (requestDrafts[i].requestId == _requestId) {\r\n                count++;\r\n            }\r\n        }\r\n        \r\n        RequestDraft[] memory drafts = new RequestDraft[](count);\r\n        uint index = 0;\r\n        for (uint i = 1; i <= requestDraftCount; i++) {\r\n            if (requestDrafts[i].requestId == _requestId) {\r\n                drafts[index] = requestDrafts[i];\r\n                index++;\r\n            }\r\n        }\r\n        return drafts;\r\n    }\r\n\r\n    /**\r\n     * Allows employer (client) to rate freelancer\r\n     */\r\n    function rateFreelancer(uint _requestId, uint _rating, string memory _review) public {\r\n        require(_rating > 0 && _rating <= 5, \"Rating must be between 1 and 5\");\r\n        \r\n        Request storage request = requests[_requestId];\r\n        require(request.freelancer != address(0), \"Request does not exist\");\r\n        \r\n        // Get employer address from project\r\n        (,, , , , address employer, ) = projectsContract.getProject(request.projectId);\r\n        require(msg.sender == employer, \"Only the employer can rate the freelancer\");\r\n        \r\n        freelancerRatingCount++;\r\n        freelancerRatings[freelancerRatingCount] = FreelancerRating({\r\n            ratingId: freelancerRatingCount,\r\n            requestId: _requestId,\r\n            rater: msg.sender,\r\n            freelancer: request.freelancer,\r\n            rating: _rating,\r\n            review: _review,\r\n            timestamp: block.timestamp\r\n        });\r\n        \r\n        freelancerRatingsList[request.freelancer].push(freelancerRatingCount);\r\n        \r\n        emit FreelancerRatingSubmitted(freelancerRatingCount, msg.sender, request.freelancer, _rating);\r\n    }\r\n\r\n    /**\r\n     * Get all ratings for a specific freelancer\r\n     */\r\n    function getFreelancerRatings(address _freelancer) public view returns (FreelancerRating[] memory) {\r\n        uint[] memory ratingIds = freelancerRatingsList[_freelancer];\r\n        FreelancerRating[] memory ratings = new FreelancerRating[](ratingIds.length);\r\n        \r\n        for (uint i = 0; i < ratingIds.length; i++) {\r\n            ratings[i] = freelancerRatings[ratingIds[i]];\r\n        }\r\n        \r\n        return ratings;\r\n    }\r\n\r\n    /**\r\n     * Get average rating for a freelancer\r\n     */\r\n    function getFreelancerAverageRating(address _freelancer) public view returns (uint) {\r\n        uint[] memory ratingIds = freelancerRatingsList[_freelancer];\r\n        if (ratingIds.length == 0) return 0;\r\n        \r\n        uint totalRating = 0;\r\n        for (uint i = 0; i < ratingIds.length; i++) {\r\n            totalRating += freelancerRatings[ratingIds[i]].rating;\r\n        }\r\n        \r\n        return totalRating / ratingIds.length;\r\n    }\r\n\r\n    /**\r\n     * Mark project as completed by employer (client)\r\n     */\r\n    function completeProject(uint _requestId) public {\r\n        Request storage request = requests[_requestId];\r\n        require(request.freelancer != address(0), \"Request does not exist\");\r\n        require(request.status == RequestStatus.Accepted, \"Request must be accepted\");\r\n        \r\n        // Get employer address from project\r\n        (,, , , , address employer, ) = projectsContract.getProject(request.projectId);\r\n        require(msg.sender == employer, \"Only the employer can complete the project\");\r\n        \r\n        projectCompletionCount++;\r\n        projectCompletions[projectCompletionCount] = ProjectCompletion({\r\n            completionId: projectCompletionCount,\r\n            projectId: request.projectId,\r\n            requestId: _requestId,\r\n            employer: employer,\r\n            freelancer: request.freelancer,\r\n            isCompleted: true,\r\n            completionTime: block.timestamp\r\n        });\r\n        \r\n        emit ProjectCompleted(request.projectId, _requestId, employer, request.freelancer);\r\n    }\r\n\r\n    /**\r\n     * Get project completion status\r\n     */\r\n    function getProjectCompletion(uint _projectId) public view returns (ProjectCompletion memory) {\r\n        for (uint i = 1; i <= projectCompletionCount; i++) {\r\n            if (projectCompletions[i].projectId == _projectId) {\r\n                return projectCompletions[i];\r\n            }\r\n        }\r\n        revert(\"Project completion not found\");\r\n    }\r\n\r\n    /**\r\n     * Quotation Functions\r\n     */\r\n    \r\n    function proposeQuotation(uint _projectId, uint _proposedAmount, string memory _description) public {\r\n        require(_projectId > 0 && _projectId <= projectsContract.projectCount(), \"Invalid project ID\");\r\n        require(_proposedAmount > 0, \"Amount must be greater than 0\");\r\n        require(bytes(_description).length > 0, \"Description cannot be empty\");\r\n        \r\n        uint requestId = projectToRequest[_projectId];\r\n        require(requestId > 0, \"No request exists for this project\");\r\n        \r\n        (,,,, Projects.Status status, address employer, ) = projectsContract.getProject(_projectId);\r\n        require(status == Projects.Status.Open, \"Project is not open for quotations\");\r\n        \r\n        Request storage request = requests[requestId];\r\n        // Can be proposed by freelancer (requesting the project) or employer (counter-offer)\r\n        require(msg.sender == request.freelancer || msg.sender == employer, \"Only freelancer or employer can propose quotation\");\r\n\r\n        Quotation memory newQuotation = Quotation({\r\n            projectId: _projectId,\r\n            proposedBy: msg.sender,\r\n            proposedAmount: _proposedAmount,\r\n            description: _description,\r\n            negotiationNotes: \"\",\r\n            status: QuotationStatus.Proposed,\r\n            timestamp: block.timestamp\r\n        });\r\n\r\n        quotations[_projectId].push(newQuotation);\r\n        emit QuotationProposed(_projectId, msg.sender, _proposedAmount);\r\n    }\r\n\r\n    function counterPropose(uint _projectId, uint _newAmount, string memory _notes) public {\r\n        require(_projectId > 0 && _projectId <= projectsContract.projectCount(), \"Invalid project ID\");\r\n        require(_newAmount > 0, \"Amount must be greater than 0\");\r\n        require(quotations[_projectId].length > 0, \"No quotations exist for this project\");\r\n        \r\n        uint requestId = projectToRequest[_projectId];\r\n        require(requestId > 0, \"No request exists for this project\");\r\n        \r\n        (,,,, Projects.Status status, address employer, ) = projectsContract.getProject(_projectId);\r\n        require(status == Projects.Status.Open, \"Project is not open for negotiation\");\r\n        \r\n        Request storage request = requests[requestId];\r\n        Quotation[] storage projQuotations = quotations[_projectId];\r\n        uint lastIdx = projQuotations.length - 1;\r\n        Quotation storage lastQuotation = projQuotations[lastIdx];\r\n        \r\n        // Counter offer must come from the other party\r\n        if (lastQuotation.proposedBy == request.freelancer) {\r\n            require(msg.sender == employer, \"Only employer can counter-offer on freelancer's proposal\");\r\n        } else {\r\n            require(msg.sender == request.freelancer, \"Only freelancer can counter-offer on employer's proposal\");\r\n        }\r\n        \r\n        lastQuotation.status = QuotationStatus.Negotiating;\r\n        lastQuotation.proposedAmount = _newAmount;\r\n        lastQuotation.negotiationNotes = _notes;\r\n        \r\n        emit QuotationCounterProposed(_projectId, msg.sender, _newAmount, _notes);\r\n    }\r\n\r\n    function acceptQuotation(uint _projectId, uint _quotationIndex) public payable {\r\n        require(_projectId > 0 && _projectId <= projectsContract.projectCount(), \"Invalid project ID\");\r\n        require(_quotationIndex < quotations[_projectId].length, \"Invalid quotation index\");\r\n        \r\n        uint requestId = projectToRequest[_projectId];\r\n        require(requestId > 0, \"No request exists for this project\");\r\n        \r\n        (,,,uint originalReward, Projects.Status status, address employer, ) = projectsContract.getProject(_projectId);\r\n        require(status == Projects.Status.Open, \"Project is not open\");\r\n        require(msg.sender == employer, \"Only employer can accept quotation\");\r\n        \r\n        Request storage request = requests[requestId];\r\n        Quotation storage quotation = quotations[_projectId][_quotationIndex];\r\n        require(quotation.status == QuotationStatus.Proposed || quotation.status == QuotationStatus.Negotiating, \"Quotation cannot be accepted\");\r\n        require(msg.value == quotation.proposedAmount, \"Sent amount must match proposed amount\");\r\n        \r\n        quotation.status = QuotationStatus.Accepted;\r\n        \r\n        // Create escrow with new amount\r\n        Escrow escrow = new Escrow{value: quotation.proposedAmount}(request.freelancer, employer, quotation.proposedAmount);\r\n        request.escrowContract = escrow;\r\n        request.status = RequestStatus.Accepted;\r\n        \r\n        assignedFreelancer[_projectId] = request.freelancer;\r\n        projectsContract.closeProject(_projectId);\r\n        \r\n        emit QuotationAccepted(_projectId, quotation.proposedAmount);\r\n    }\r\n\r\n    function rejectQuotation(uint _projectId, uint _quotationIndex) public {\r\n        require(_projectId > 0 && _projectId <= projectsContract.projectCount(), \"Invalid project ID\");\r\n        require(_quotationIndex < quotations[_projectId].length, \"Invalid quotation index\");\r\n        \r\n        (,,,, Projects.Status status, address employer, ) = projectsContract.getProject(_projectId);\r\n        require(status == Projects.Status.Open, \"Project is not open\");\r\n        require(msg.sender == employer, \"Only employer can reject quotation\");\r\n        \r\n        Quotation storage quotation = quotations[_projectId][_quotationIndex];\r\n        quotation.status = QuotationStatus.Rejected;\r\n        \r\n        emit QuotationRejected(_projectId);\r\n    }\r\n\r\n    function getQuotations(uint _projectId) public view returns (Quotation[] memory) {\r\n        return quotations[_projectId];\r\n    }\r\n\r\n    function getLatestQuotation(uint _projectId) public view returns (Quotation memory) {\r\n        require(quotations[_projectId].length > 0, \"No quotations for this project\");\r\n        return quotations[_projectId][quotations[_projectId].length - 1];\r\n    }\r\n\r\n    function isProjectAssigned(uint _projectId) public view returns (bool) {\r\n        return assignedFreelancer[_projectId] != address(0);\r\n    }\r\n}\r\n\r\n",
  "sourcePath": "D:\\btech\\4 th Year\\Major Project\\Freelance\\Delance\\truffle_project\\contracts\\RequestManager.sol",
  "compiler": {
    "name": "solc",
    "version": "0.8.34+commit.80d5c536.Emscripten.clang"
  },
  "schemaVersion": "3.4.16",
  "updatedAt": "2026-03-22T17:55:24.676Z",
  "networkType": "ethereum",
  "devdoc": {
    "kind": "dev",
    "methods": {},
    "version": 1
  },
  "userdoc": {
    "kind": "user",
    "methods": {
      "completeProject(uint256)": {
        "notice": "Mark project as completed by employer (client)"
      },
      "getFreelancerAverageRating(address)": {
        "notice": "Get average rating for a freelancer"
      },
      "getFreelancerRatings(address)": {
        "notice": "Get all ratings for a specific freelancer"
      },
      "getProjectCompletion(uint256)": {
        "notice": "Get project completion status"
      },
      "getRequestDrafts(uint256)": {
        "notice": "Get all request drafts for a specific request"
      },
      "proposeQuotation(uint256,uint256,string)": {
        "notice": "Quotation Functions"
      },
      "rateFreelancer(uint256,uint256,string)": {
        "notice": "Allows employer (client) to rate freelancer"
      },
      "sendRequestDraft(uint256,string)": {
        "notice": "Send a request draft from freelancer to employer (client)"
      }
    },
    "version": 1
  }
}