{
  "contractName": "Escrow",
  "abi": [
    {
      "inputs": [
        {
          "internalType": "address",
          "name": "_freelancer",
          "type": "address"
        },
        {
          "internalType": "address",
          "name": "_employer",
          "type": "address"
        }
      ],
      "stateMutability": "payable",
      "type": "constructor"
    },
    {
      "inputs": [],
      "name": "amount",
      "outputs": [
        {
          "internalType": "uint256",
          "name": "",
          "type": "uint256"
        }
      ],
      "stateMutability": "view",
      "type": "function"
    },
    {
      "inputs": [],
      "name": "employer",
      "outputs": [
        {
          "internalType": "address",
          "name": "",
          "type": "address"
        }
      ],
      "stateMutability": "view",
      "type": "function"
    },
    {
      "inputs": [],
      "name": "freelancer",
      "outputs": [
        {
          "internalType": "address",
          "name": "",
          "type": "address"
        }
      ],
      "stateMutability": "view",
      "type": "function"
    },
    {
      "inputs": [],
      "name": "releaseFunds",
      "outputs": [],
      "stateMutability": "nonpayable",
      "type": "function"
    },
    {
      "inputs": [],
      "name": "refund",
      "outputs": [],
      "stateMutability": "nonpayable",
      "type": "function"
    },
    {
      "inputs": [
        {
          "internalType": "uint256",
          "name": "_reducedAmount",
          "type": "uint256"
        }
      ],
      "name": "releaseReducedFunds",
      "outputs": [],
      "stateMutability": "nonpayable",
      "type": "function"
    },
    {
      "inputs": [
        {
          "internalType": "uint256",
          "name": "milestonePercentage",
          "type": "uint256"
        },
        {
          "internalType": "uint256",
          "name": "delayPenalty",
          "type": "uint256"
        }
      ],
      "name": "releaseMilestonePayment",
      "outputs": [],
      "stateMutability": "nonpayable",
      "type": "function"
    }
  ],
  "bytecode": "0x608060405261001561000f6100f6565b906101ea565b61001d61002b565b610cc261020d8239610cc290f35b60405190565b601f801991011690565b634e487b7160e01b5f52604160045260245ffd5b9061005990610031565b810190811060018060401b0382111761007157604052565b61003b565b9061008961008261002b565b928361004f565b565b5f80fd5b60018060a01b031690565b6100a39061008f565b90565b6100af8161009a565b036100b657565b5f80fd5b905051906100c7826100a6565b565b91906040838203126100f157806100e56100ee925f86016100ba565b936020016100ba565b90565b61008b565b610114610ecf8038038061010981610076565b9283398101906100c9565b9091565b5f1b90565b9061012e60018060a01b0391610118565b9181191691161790565b90565b61014f61014a6101549261008f565b610138565b61008f565b90565b6101609061013b565b90565b61016c90610157565b90565b90565b9061018761018261018e92610163565b61016f565b825461011d565b9055565b9061019e5f1991610118565b9181191691161790565b90565b6101bf6101ba6101c4926101a8565b610138565b6101a8565b90565b90565b906101df6101da6101e6926101ab565b6101c7565b8254610192565b9055565b906101f86101ff925f610172565b6001610172565b61020a3460026101ca565b56fe60806040526004361015610013575b610376565b61001d5f3561008c565b806345ad1a2e14610087578063590e1ae31461008257806369d895751461007d5780638c936e6514610078578063a37dda2c14610073578063aa8c217c1461006e5763ae200e790361000e57610341565b6102fd565b61026e565b6101be565b61015e565b61012b565b6100e9565b60e01c90565b60405190565b5f80fd5b5f80fd5b90565b6100ac816100a0565b036100b357565b5f80fd5b905035906100c4826100a3565b565b906020828203126100df576100dc915f016100b7565b90565b61009c565b5f0190565b34610117576101016100fc3660046100c6565b6106ad565b610109610092565b80610113816100e4565b0390f35b610098565b5f91031261012657565b61009c565b346101595761013b36600461011c565b6101436108a1565b61014b610092565b80610155816100e4565b0390f35b610098565b3461018c5761016e36600461011c565b610176610943565b61017e610092565b80610188816100e4565b0390f35b610098565b91906040838203126101b957806101ad6101b6925f86016100b7565b936020016100b7565b90565b61009c565b346101ed576101d76101d1366004610191565b90610b9a565b6101df610092565b806101e9816100e4565b0390f35b610098565b1c90565b60018060a01b031690565b61021190600861021693026101f2565b6101f6565b90565b906102249154610201565b90565b6102325f5f90610219565b90565b60018060a01b031690565b61024990610235565b90565b61025590610240565b9052565b919061026c905f6020850194019061024c565b565b3461029e5761027e36600461011c565b61029a610289610227565b610291610092565b91829182610259565b0390f35b610098565b90565b6102b69060086102bb93026101f2565b6102a3565b90565b906102c991546102a6565b90565b6102d860025f906102be565b90565b6102e4906100a0565b9052565b91906102fb905f602085019401906102db565b565b3461032d5761030d36600461011c565b6103296103186102cc565b610320610092565b918291826102e8565b0390f35b610098565b61033e60015f90610219565b90565b346103715761035136600461011c565b61036d61035c610332565b610364610092565b91829182610259565b0390f35b610098565b5f80fd5b5f1c90565b61038b6103909161037a565b6101f6565b90565b61039d905461037f565b90565b60209181520190565b60207f6e64730000000000000000000000000000000000000000000000000000000000917f4f6e6c792074686520656d706c6f7965722063616e2072656c656173652066755f8201520152565b61040360236040926103a0565b61040c816103a9565b0190565b6104259060208101905f8183039101526103f6565b90565b1561042f57565b610437610092565b62461bcd60e51b81528061044d60048201610410565b0390fd5b61045d6104629161037a565b6102a3565b90565b61046f9054610451565b90565b90565b90565b61048c61048761049192610472565b610475565b6100a0565b90565b5f7f4e6f2066756e647320746f2072656c6561736500000000000000000000000000910152565b6104c860136020926103a0565b6104d181610494565b0190565b6104ea9060208101905f8183039101526104bb565b90565b156104f457565b6104fc610092565b62461bcd60e51b815280610512600482016104d5565b0390fd5b60207f6c616e6365000000000000000000000000000000000000000000000000000000917f5265647563656420616d6f756e74206578636565647320657363726f772062615f8201520152565b61057060256040926103a0565b61057981610516565b0190565b6105929060208101905f818303910152610563565b90565b1561059c57565b6105a4610092565b62461bcd60e51b8152806105ba6004820161057d565b0390fd5b6105d26105cd6105d792610235565b610475565b610235565b90565b6105e3906105be565b90565b6105ef906105da565b90565b6105fb906105be565b90565b610607906105f2565b90565b610612610092565b3d5f823e3d90fd5b634e487b7160e01b5f52601160045260245ffd5b61063d610643919392936100a0565b926100a0565b820391821161064e57565b61061a565b5f1b90565b906106645f1991610653565b9181191691161790565b61068261067d610687926100a0565b610475565b6100a0565b90565b90565b906106a261069d6106a99261066e565b61068a565b8254610658565b9055565b6106d2336106cc6106c66106c16001610393565b610240565b91610240565b14610428565b6106f76106df6002610465565b6106f16106eb5f610478565b916100a0565b116104ed565b61071d8161071661071061070b6002610465565b6100a0565b916100a0565b1115610595565b5f80808061073a61073561073083610393565b6105e6565b6105fe565b859082821561076e575bf115610769576107606107679161075b6002610465565b61062e565b600261068d565b565b61060a565b506108fc610744565b60207f6120726566756e64000000000000000000000000000000000000000000000000917f4f6e6c792074686520667265656c616e6365722063616e2072657175657374205f8201520152565b6107d160286040926103a0565b6107da81610777565b0190565b6107f39060208101905f8183039101526107c4565b90565b156107fd57565b610805610092565b62461bcd60e51b81528061081b600482016107de565b0390fd5b5f7f4e6f2066756e647320746f20726566756e640000000000000000000000000000910152565b61085360126020926103a0565b61085c8161081f565b0190565b6108759060208101905f818303910152610846565b90565b1561087f57565b610887610092565b62461bcd60e51b81528061089d60048201610860565b0390fd5b6108c5336108bf6108b96108b45f610393565b610240565b91610240565b146107f6565b6108ea6108d26002610465565b6108e46108de5f610478565b916100a0565b11610878565b5f8080806109076109026108fd83610393565b6105e6565b6105fe565b6109116002610465565b9082821561093a575bf1156109355761093361092c5f610478565b600261068d565b565b61060a565b506108fc61091a565b6109683361096261095c6109576001610393565b610240565b91610240565b14610428565b61098d6109756002610465565b6109876109815f610478565b916100a0565b116104ed565b5f8080806109aa6109a56109a083610393565b6105e6565b6105fe565b6109b46002610465565b908282156109dd575bf1156109d8576109d66109cf5f610478565b600261068d565b565b61060a565b506108fc6109bd565b5f7f496e73756666696369656e742066756e647320696e20657363726f7700000000910152565b610a1a601c6020926103a0565b610a23816109e6565b0190565b610a3c9060208101905f818303910152610a0d565b90565b15610a4657565b610a4e610092565b62461bcd60e51b815280610a6460048201610a27565b0390fd5b610a77610a7d919392936100a0565b926100a0565b91610a898382026100a0565b928184041490151715610a9857565b61061a565b90565b610ab4610aaf610ab992610a9d565b610475565b6100a0565b90565b634e487b7160e01b5f52601260045260245ffd5b610adc610ae2916100a0565b916100a0565b908115610aed570490565b610abc565b60207f616c616e63650000000000000000000000000000000000000000000000000000917f52656475636564207061796d656e74206578636565647320657363726f7720625f8201520152565b610b4c60266040926103a0565b610b5581610af2565b0190565b610b6e9060208101905f818303910152610b3f565b90565b15610b7857565b610b80610092565b62461bcd60e51b815280610b9660048201610b59565b0390fd5b90610c06610bf6610bef610bdf610c0c95610bd0610bb86002610465565b610bca610bc45f610478565b916100a0565b11610a3f565b610bda6002610465565b610a68565b610be96064610aa0565b90610ad0565b9283610a68565b610c006064610aa0565b90610ad0565b9061062e565b610c3281610c2b610c25610c206002610465565b6100a0565b916100a0565b1115610b71565b5f808080610c4f610c4a610c4583610393565b6105e6565b6105fe565b8590828215610c83575bf115610c7e57610c75610c7c91610c706002610465565b61062e565b600261068d565b565b61060a565b506108fc610c5956fea2646970667358221220ace25eb02815382ce475daacf06cf686dac076d070f52d930980c7b50bf4feee64736f6c634300081c0033",
  "immutableReferences": {},
  "source": "// SPDX-License-Identifier: MIT\r\npragma solidity ^0.8.0;\r\n\r\nimport \"./Projects.sol\";\r\n\r\ncontract Escrow {\r\n    address public freelancer;\r\n    address public employer;\r\n    uint public amount;\r\n\r\n    constructor(address _freelancer, address _employer) payable {\r\n        freelancer = _freelancer;\r\n        employer = _employer;\r\n        amount = msg.value; // Set the amount to the value sent during the contract creation\r\n    }\r\n\r\n    function releaseFunds() external {\r\n        require(msg.sender == employer, \"Only the employer can release funds\");\r\n        require(amount > 0, \"No funds to release\");\r\n        payable(freelancer).transfer(amount);\r\n        amount = 0; // Set amount to 0 after release\r\n    }\r\n\r\n    function refund() external {\r\n        require(msg.sender == freelancer, \"Only the freelancer can request a refund\");\r\n        require(amount > 0, \"No funds to refund\");\r\n        payable(freelancer).transfer(amount);\r\n        amount = 0; // Set amount to 0 after refund\r\n    }\r\n\r\n    function releaseReducedFunds(uint _reducedAmount) external {\r\n        require(msg.sender == employer, \"Only the employer can release funds\");\r\n        require(amount > 0, \"No funds to release\");\r\n        require(_reducedAmount <= amount, \"Reduced amount exceeds escrow balance\");\r\n\r\n        payable(freelancer).transfer(_reducedAmount);\r\n        amount -= _reducedAmount; // Deduct the paid amount from the total escrow balance\r\n    }\r\n\r\n    function releaseMilestonePayment(uint milestonePercentage, uint delayPenalty) external {\r\n        // require(msg.sender == employer, \"Only the employer can release milestone payments\");\r\n        require(amount > 0, \"Insufficient funds in escrow\");\r\n\r\n        uint milestonePayment = (amount * milestonePercentage) / 100;\r\n        uint reducedPayment = milestonePayment - ((milestonePayment * delayPenalty) / 100);\r\n\r\n        require(reducedPayment <= amount, \"Reduced payment exceeds escrow balance\");\r\n\r\n        payable(freelancer).transfer(reducedPayment);\r\n        amount -= reducedPayment;\r\n    }\r\n}\r\n\r\ncontract RequestManager {\r\n    Projects public projectsContract;\r\n\r\n    enum RequestStatus { Pending, Accepted, Rejected }\r\n\r\n    struct Request {\r\n        uint projectId;\r\n        address freelancer;\r\n        uint freelancerRating;\r\n        RequestStatus status;\r\n        Escrow escrowContract;\r\n    }\r\n\r\n    // Store all requests in a single mapping\r\n    mapping(uint => Request) public requests;\r\n    uint public requestCount; // To keep track of the total number of requests\r\n\r\n    event RequestSent(uint requestId, uint projectId, address freelancer);\r\n    event RequestAccepted(uint requestId, address freelancer, address escrowContract);\r\n    event RequestRejected(uint requestId, address freelancer);\r\n    event MilestoneAccepted(uint projectId, uint milestoneId, uint updatedRating);\r\n\r\n    constructor(address _projectsContract) {\r\n        projectsContract = Projects(_projectsContract);\r\n    }\r\n\r\n    function sendRequest(uint _projectId, uint _freelancerRating) public {\r\n        require(_projectId > 0 && _projectId <= projectsContract.projectCount(), \"Invalid project ID\");\r\n        (,, , , Projects.Status status, ) = projectsContract.getProject(_projectId);\r\n        require(status == Projects.Status.Open, \"Project is not open\");\r\n\r\n        // Create a new request\r\n        requestCount++; // Increment request count to create a unique ID\r\n        requests[requestCount] = Request({\r\n            projectId: _projectId,\r\n            freelancer: msg.sender,\r\n            freelancerRating: _freelancerRating,\r\n            status: RequestStatus.Pending,\r\n            escrowContract: Escrow(address(0))\r\n        });\r\n\r\n        emit RequestSent(requestCount, _projectId, msg.sender);\r\n    }\r\n\r\n    function acceptRequest(uint _requestId) public payable {\r\n        Request storage request = requests[_requestId];\r\n        require(request.freelancer != address(0), \"No request exists for this ID\");\r\n        require(request.status == RequestStatus.Pending, \"Request is not pending\");\r\n\r\n        // Fetch project details\r\n        (,, , uint projectReward, Projects.Status status, address employer) = projectsContract.getProject(request.projectId);\r\n        require(msg.sender == employer, \"Only the employer can accept the request\");\r\n        require(status == Projects.Status.Open, \"Project must be open\");\r\n\r\n        // Create new escrow contract instance with freelancer and employer details\r\n        request.escrowContract = new Escrow{value: projectReward}(request.freelancer, employer);\r\n\r\n        request.status = RequestStatus.Accepted;\r\n        emit RequestAccepted(_requestId, request.freelancer, address(request.escrowContract));\r\n    }\r\n\r\n    function rejectRequest(uint _requestId) public {\r\n        Request storage request = requests[_requestId];\r\n        require(request.freelancer != address(0), \"No request exists for this ID\");\r\n        require(request.status == RequestStatus.Pending, \"Request already processed\");\r\n\r\n        request.status = RequestStatus.Rejected;\r\n        emit RequestRejected(_requestId, request.freelancer);\r\n    }\r\n\r\n    function getRequest(uint _requestId) public view returns (Request memory) {\r\n        require(requests[_requestId].freelancer != address(0), \"No request exists for this ID\");\r\n        return requests[_requestId];\r\n    }\r\n\r\n    // New function to view all requests\r\n    function viewAllRequests() public view returns (Request[] memory) {\r\n        Request[] memory allRequests = new Request[](requestCount);\r\n        for (uint i = 1; i <= requestCount; i++) {\r\n            allRequests[i - 1] = requests[i];\r\n        }\r\n        return allRequests;\r\n    }\r\n\r\nfunction acceptMilestone(uint _milestoneId, uint _actualDaysTaken, uint _delayPenalty, uint _requestId) public payable {\r\n        Request memory request = getRequest(_requestId); // Retrieve the request using requestId\r\n\r\n        // Ensure projectId is valid\r\n        require(request.projectId > 0 && request.projectId <= projectsContract.projectCount(), \"Project does not exist\");\r\n\r\n        // Retrieve the project details using the getProject function\r\n        (, , , uint reward, , address employer) = projectsContract.getProject(request.projectId);\r\n        require(msg.sender == employer, \"Only the employer can accept milestones\");\r\n\r\n        // Ensure milestoneId is valid\r\n        (\r\n            uint[] memory ids,\r\n            uint[] memory projectIds,\r\n            string[] memory names,\r\n            string[] memory descriptions,\r\n            uint[] memory daycounts,\r\n            uint[] memory percentages,\r\n            bool[] memory completions,\r\n            string[] memory proofFileHashes\r\n        ) = projectsContract.getMilestones(request.projectId);\r\n\r\n        // Check if the milestone exists and is within bounds\r\n        require(_milestoneId > 0 && _milestoneId <= ids.length, \"Milestone does not exist\");\r\n        \r\n        // Fetch milestone data by using _milestoneId as an index\r\n        uint milestoneIndex = _milestoneId - 1;\r\n        require(!completions[milestoneIndex], \"Milestone already completed\");\r\n        require(bytes(proofFileHashes[milestoneIndex]).length > 0, \"Proof file not uploaded\");\r\n\r\n        // Mark the milestone as completed\r\n        projectsContract.completeMilestone(request.projectId, _milestoneId);\r\n\r\n        // Calculate and update freelancer rating based on the provided formula\r\n        uint currentRating = projectsContract.getFreelancerRating(request.freelancer);\r\n        uint rewardWeight = (percentages[milestoneIndex] * reward) / 100;\r\n        int ratingChange = int((5 * 100 * rewardWeight * daycounts[milestoneIndex]) / (reward * _actualDaysTaken));\r\n\r\n        // Cap the increment at +0.2 if positive\r\n        if (ratingChange > 20) {\r\n            ratingChange = 20;\r\n        }\r\n\r\n        uint newRating = uint(int(currentRating) + ratingChange);\r\n\r\n        // Ensure new rating doesn't exceed 5.0 (500 basis points)\r\n        if (newRating > 500) {\r\n            newRating = 500;\r\n        }\r\n\r\n        // Update the freelancer's rating\r\n        projectsContract.setFreelancerRating(request.freelancer, newRating);\r\n\r\n        // Release milestone payment from the escrow with the specified penalty\r\n        uint milestonePercentage = percentages[milestoneIndex];\r\n        request.escrowContract.releaseMilestonePayment(milestonePercentage, _delayPenalty);\r\n\r\n        emit MilestoneAccepted(request.projectId, _milestoneId, newRating);\r\n    }\r\n\r\n\r\n    function viewRequestsByEmployer(address _employer) public view returns (\r\n    uint[] memory requestIds,\r\n    uint[] memory projectIds,\r\n    address[] memory freelancers,\r\n    uint[] memory freelancerRatings,\r\n    RequestStatus[] memory statuses,\r\n    address[] memory escrowContracts\r\n) {\r\n    uint count = 0;\r\n\r\n    // Count requests that belong to projects owned by the specified employer\r\n    for (uint i = 1; i <= requestCount; i++) {\r\n        uint projectId = requests[i].projectId;\r\n        (, , , , , address employer) = projectsContract.getProject(projectId);\r\n        if (employer == _employer) {\r\n            count++;\r\n        }\r\n    }\r\n\r\n    // Initialize arrays based on the count of matching requests\r\n    requestIds = new uint[](count);\r\n    projectIds = new uint[](count);\r\n    freelancers = new address[](count);\r\n    freelancerRatings = new uint[](count);\r\n    statuses = new RequestStatus[](count);\r\n    escrowContracts = new address[](count);\r\n\r\n    uint index = 0;\r\n\r\n    // Populate the arrays with matching request details\r\n    for (uint i = 1; i <= requestCount; i++) {\r\n        uint projectId = requests[i].projectId;\r\n        (, , , , , address employer) = projectsContract.getProject(projectId);\r\n        if (employer == _employer) {\r\n            Request storage request = requests[i];\r\n            requestIds[index] = i;\r\n            projectIds[index] = request.projectId;\r\n            freelancers[index] = request.freelancer;\r\n            freelancerRatings[index] = request.freelancerRating;\r\n            statuses[index] = request.status;\r\n            escrowContracts[index] = address(request.escrowContract);\r\n            index++;\r\n        }\r\n    }\r\n\r\n    return (requestIds, projectIds, freelancers, freelancerRatings, statuses, escrowContracts);\r\n}\r\n\r\n\r\n}\r\n",
  "sourcePath": "C:\\Users\\Shashwat Chaturvedi\\OneDrive - iiit-b\\college\\projects\\delance\\truffle_project\\contracts\\RequestManager.sol",
  "compiler": {
    "name": "solc",
    "version": "0.8.28+commit.7893614a.Emscripten.clang"
  },
  "schemaVersion": "3.4.16",
  "updatedAt": "2024-11-01T16:45:20.160Z",
  "devdoc": {
    "kind": "dev",
    "methods": {},
    "version": 1
  },
  "userdoc": {
    "kind": "user",
    "methods": {},
    "version": 1
  }
}