{
  "contractName": "Projects",
  "abi": [
    {
      "anonymous": false,
      "inputs": [
        {
          "indexed": false,
          "internalType": "uint256",
          "name": "projectId",
          "type": "uint256"
        },
        {
          "indexed": false,
          "internalType": "uint256",
          "name": "milestoneId",
          "type": "uint256"
        },
        {
          "indexed": false,
          "internalType": "string",
          "name": "name",
          "type": "string"
        },
        {
          "indexed": false,
          "internalType": "uint256",
          "name": "percentage",
          "type": "uint256"
        }
      ],
      "name": "MilestoneAdded",
      "type": "event"
    },
    {
      "anonymous": false,
      "inputs": [
        {
          "indexed": false,
          "internalType": "uint256",
          "name": "projectId",
          "type": "uint256"
        },
        {
          "indexed": false,
          "internalType": "uint256",
          "name": "milestoneId",
          "type": "uint256"
        },
        {
          "indexed": false,
          "internalType": "string",
          "name": "proofFileHash",
          "type": "string"
        }
      ],
      "name": "MilestoneProofUploaded",
      "type": "event"
    },
    {
      "anonymous": false,
      "inputs": [
        {
          "indexed": false,
          "internalType": "uint256",
          "name": "id",
          "type": "uint256"
        },
        {
          "indexed": false,
          "internalType": "string",
          "name": "name",
          "type": "string"
        },
        {
          "indexed": false,
          "internalType": "address",
          "name": "employer",
          "type": "address"
        }
      ],
      "name": "ProjectAdded",
      "type": "event"
    },
    {
      "inputs": [
        {
          "internalType": "address",
          "name": "",
          "type": "address"
        }
      ],
      "name": "freelancerRatings",
      "outputs": [
        {
          "internalType": "uint256",
          "name": "",
          "type": "uint256"
        }
      ],
      "stateMutability": "view",
      "type": "function"
    },
    {
      "inputs": [],
      "name": "milestoneCount",
      "outputs": [
        {
          "internalType": "uint256",
          "name": "",
          "type": "uint256"
        }
      ],
      "stateMutability": "view",
      "type": "function"
    },
    {
      "inputs": [
        {
          "internalType": "uint256",
          "name": "",
          "type": "uint256"
        },
        {
          "internalType": "uint256",
          "name": "",
          "type": "uint256"
        }
      ],
      "name": "milestones",
      "outputs": [
        {
          "internalType": "uint256",
          "name": "id",
          "type": "uint256"
        },
        {
          "internalType": "uint256",
          "name": "projectId",
          "type": "uint256"
        },
        {
          "internalType": "string",
          "name": "name",
          "type": "string"
        },
        {
          "internalType": "string",
          "name": "description",
          "type": "string"
        },
        {
          "internalType": "uint256",
          "name": "daycount",
          "type": "uint256"
        },
        {
          "internalType": "uint256",
          "name": "percentage",
          "type": "uint256"
        },
        {
          "internalType": "bool",
          "name": "completed",
          "type": "bool"
        },
        {
          "internalType": "string",
          "name": "proofFileHash",
          "type": "string"
        }
      ],
      "stateMutability": "view",
      "type": "function"
    },
    {
      "inputs": [],
      "name": "projectCount",
      "outputs": [
        {
          "internalType": "uint256",
          "name": "",
          "type": "uint256"
        }
      ],
      "stateMutability": "view",
      "type": "function"
    },
    {
      "inputs": [
        {
          "internalType": "uint256",
          "name": "",
          "type": "uint256"
        }
      ],
      "name": "projects",
      "outputs": [
        {
          "internalType": "uint256",
          "name": "id",
          "type": "uint256"
        },
        {
          "internalType": "string",
          "name": "name",
          "type": "string"
        },
        {
          "internalType": "string",
          "name": "description",
          "type": "string"
        },
        {
          "internalType": "uint256",
          "name": "reward",
          "type": "uint256"
        },
        {
          "internalType": "enum Projects.Status",
          "name": "status",
          "type": "uint8"
        },
        {
          "internalType": "address",
          "name": "employer",
          "type": "address"
        }
      ],
      "stateMutability": "view",
      "type": "function"
    },
    {
      "inputs": [
        {
          "internalType": "string",
          "name": "_name",
          "type": "string"
        },
        {
          "internalType": "string",
          "name": "_description",
          "type": "string"
        },
        {
          "internalType": "uint256",
          "name": "_reward",
          "type": "uint256"
        }
      ],
      "name": "addProject",
      "outputs": [],
      "stateMutability": "nonpayable",
      "type": "function"
    },
    {
      "inputs": [
        {
          "internalType": "uint256",
          "name": "_projectId",
          "type": "uint256"
        },
        {
          "internalType": "string",
          "name": "_name",
          "type": "string"
        },
        {
          "internalType": "string",
          "name": "_description",
          "type": "string"
        },
        {
          "internalType": "uint256",
          "name": "_daycount",
          "type": "uint256"
        },
        {
          "internalType": "uint256",
          "name": "_percentage",
          "type": "uint256"
        }
      ],
      "name": "addMilestone",
      "outputs": [],
      "stateMutability": "nonpayable",
      "type": "function"
    },
    {
      "inputs": [
        {
          "internalType": "uint256",
          "name": "_projectId",
          "type": "uint256"
        },
        {
          "internalType": "uint256",
          "name": "_milestoneId",
          "type": "uint256"
        },
        {
          "internalType": "address",
          "name": "_freelancer",
          "type": "address"
        },
        {
          "internalType": "string",
          "name": "_proofFileHash",
          "type": "string"
        }
      ],
      "name": "uploadMilestoneProof",
      "outputs": [],
      "stateMutability": "nonpayable",
      "type": "function"
    },
    {
      "inputs": [
        {
          "internalType": "address",
          "name": "_freelancer",
          "type": "address"
        }
      ],
      "name": "getFreelancerRating",
      "outputs": [
        {
          "internalType": "uint256",
          "name": "",
          "type": "uint256"
        }
      ],
      "stateMutability": "view",
      "type": "function"
    },
    {
      "inputs": [
        {
          "internalType": "uint256",
          "name": "_id",
          "type": "uint256"
        }
      ],
      "name": "getProject",
      "outputs": [
        {
          "internalType": "uint256",
          "name": "",
          "type": "uint256"
        },
        {
          "internalType": "string",
          "name": "",
          "type": "string"
        },
        {
          "internalType": "string",
          "name": "",
          "type": "string"
        },
        {
          "internalType": "uint256",
          "name": "",
          "type": "uint256"
        },
        {
          "internalType": "enum Projects.Status",
          "name": "",
          "type": "uint8"
        },
        {
          "internalType": "address",
          "name": "",
          "type": "address"
        }
      ],
      "stateMutability": "view",
      "type": "function"
    },
    {
      "inputs": [],
      "name": "viewProjects",
      "outputs": [
        {
          "internalType": "uint256[]",
          "name": "ids",
          "type": "uint256[]"
        },
        {
          "internalType": "string[]",
          "name": "names",
          "type": "string[]"
        },
        {
          "internalType": "string[]",
          "name": "descriptions",
          "type": "string[]"
        },
        {
          "internalType": "uint256[]",
          "name": "rewards",
          "type": "uint256[]"
        },
        {
          "internalType": "enum Projects.Status[]",
          "name": "statuses",
          "type": "uint8[]"
        },
        {
          "internalType": "address[]",
          "name": "employers",
          "type": "address[]"
        }
      ],
      "stateMutability": "view",
      "type": "function"
    },
    {
      "inputs": [],
      "name": "viewOpenProjects",
      "outputs": [
        {
          "internalType": "uint256[]",
          "name": "ids",
          "type": "uint256[]"
        },
        {
          "internalType": "string[]",
          "name": "names",
          "type": "string[]"
        },
        {
          "internalType": "string[]",
          "name": "descriptions",
          "type": "string[]"
        },
        {
          "internalType": "uint256[]",
          "name": "rewards",
          "type": "uint256[]"
        },
        {
          "internalType": "enum Projects.Status[]",
          "name": "statuses",
          "type": "uint8[]"
        },
        {
          "internalType": "address[]",
          "name": "employers",
          "type": "address[]"
        }
      ],
      "stateMutability": "view",
      "type": "function"
    },
    {
      "inputs": [
        {
          "internalType": "uint256",
          "name": "_projectId",
          "type": "uint256"
        }
      ],
      "name": "getMilestones",
      "outputs": [
        {
          "internalType": "uint256[]",
          "name": "ids",
          "type": "uint256[]"
        },
        {
          "internalType": "uint256[]",
          "name": "projectIds",
          "type": "uint256[]"
        },
        {
          "internalType": "string[]",
          "name": "names",
          "type": "string[]"
        },
        {
          "internalType": "string[]",
          "name": "descriptions",
          "type": "string[]"
        },
        {
          "internalType": "uint256[]",
          "name": "daycounts",
          "type": "uint256[]"
        },
        {
          "internalType": "uint256[]",
          "name": "percentages",
          "type": "uint256[]"
        },
        {
          "internalType": "bool[]",
          "name": "completions",
          "type": "bool[]"
        },
        {
          "internalType": "string[]",
          "name": "proofFileHashes",
          "type": "string[]"
        }
      ],
      "stateMutability": "view",
      "type": "function"
    },
    {
      "inputs": [
        {
          "internalType": "uint256",
          "name": "_id",
          "type": "uint256"
        }
      ],
      "name": "closeProject",
      "outputs": [],
      "stateMutability": "nonpayable",
      "type": "function"
    },
    {
      "inputs": [
        {
          "internalType": "uint256",
          "name": "_projectId",
          "type": "uint256"
        },
        {
          "internalType": "uint256",
          "name": "_milestoneId",
          "type": "uint256"
        }
      ],
      "name": "completeMilestone",
      "outputs": [],
      "stateMutability": "nonpayable",
      "type": "function"
    },
    {
      "inputs": [
        {
          "internalType": "address",
          "name": "_freelancer",
          "type": "address"
        },
        {
          "internalType": "uint256",
          "name": "_rating",
          "type": "uint256"
        }
      ],
      "name": "setFreelancerRating",
      "outputs": [],
      "stateMutability": "nonpayable",
      "type": "function"
    }
  ],
  "bytecode": "0x608060405234601c57600e6020565b61300461002b823961300490f35b6026565b60405190565b5f80fdfe60806040526004361015610013575b61117a565b61001d5f3561011c565b8063063dca0c146101175780630681ca5514610112578063107046bd1461010d5780631c376c631461010857806327db21e114610103578063310f9411146100fe57806336fbad26146100f95780633a766ddf146100f457806342c549c0146100ef57806353eef060146100ea578063563700d5146100e55780635fd4f758146100e057806393dc12e6146100db578063d0b20691146100d6578063f0f3f2c8146100d15763f326206b0361000e57611146565b61110a565b6110d3565b611041565b61100d565b610f6b565b610e05565b610dc6565b610c70565b610c3b565b610bf0565b6108f4565b610833565b61061a565b610267565b6101c6565b60e01c90565b60405190565b5f80fd5b5f80fd5b5f80fd5b60018060a01b031690565b61014890610134565b90565b6101548161013f565b0361015b57565b5f80fd5b9050359061016c8261014b565b565b90565b61017a8161016e565b0361018157565b5f80fd5b9050359061019282610171565b565b91906040838203126101bc57806101b06101b9925f860161015f565b93602001610185565b90565b61012c565b5f0190565b346101f5576101df6101d9366004610194565b906111bc565b6101e7610122565b806101f1816101c1565b0390f35b610128565b5f91031261020457565b61012c565b1c90565b90565b6102209060086102259302610209565b61020d565b90565b906102339154610210565b90565b61024260045f90610228565b90565b61024e9061016e565b9052565b9190610265905f60208501940190610245565b565b34610297576102773660046101fa565b610293610282610236565b61028a610122565b91829182610252565b0390f35b610128565b906020828203126102b5576102b2915f01610185565b90565b61012c565b90565b6102d16102cc6102d69261016e565b6102ba565b61016e565b90565b906102e3906102bd565b5f5260205260405f2090565b5f1c90565b610300610305916102ef565b61020d565b90565b61031290546102f4565b90565b634e487b7160e01b5f52602260045260245ffd5b9060016002830492168015610349575b602083101461034457565b610315565b91607f1691610339565b60209181520190565b5f5260205f2090565b905f929180549061037f61037883610329565b8094610353565b916001811690815f146103d6575060011461039a575b505050565b6103a7919293945061035c565b915f925b8184106103be57505001905f8080610395565b600181602092959395548486015201910192906103ab565b92949550505060ff19168252151560200201905f8080610395565b906103fb91610365565b90565b601f801991011690565b634e487b7160e01b5f52604160045260245ffd5b90610426906103fe565b810190811067ffffffffffffffff82111761044057604052565b610408565b9061046561045e92610455610122565b938480926103f1565b038361041c565b565b60ff1690565b61047961047e916102ef565b610467565b90565b61048b905461046d565b90565b60081c90565b60018060a01b031690565b6104ab6104b09161048e565b610494565b90565b6104bd905461049f565b90565b6104ca905f6102d9565b906104d65f8301610308565b916104e360018201610445565b916104f060028301610445565b916104fd60038201610308565b91610515600461050e818501610481565b93016104b3565b90565b5190565b60209181520190565b90825f9392825e0152565b61054f61055860209361055d9361054681610518565b9384809361051c565b95869101610525565b6103fe565b0190565b634e487b7160e01b5f52602160045260245ffd5b6002111561057f57565b610561565b9061058e82610575565b565b61059990610584565b90565b6105a590610590565b9052565b6105b29061013f565b9052565b91946106076105fc60a0956105ee610611956106189a9c9b999c6105e160c08a01925f8b0190610245565b88820360208a0152610530565b908682036040880152610530565b986060850190610245565b608083019061059c565b01906105a9565b565b346106515761064d61063561063036600461029c565b6104c0565b92610644969496929192610122565b968796876105b6565b0390f35b610128565b919060408382031261067e578061067261067b925f8601610185565b93602001610185565b90565b61012c565b9061068d906102bd565b5f5260205260405f2090565b634e487b7160e01b5f52603260045260245ffd5b5490565b5f5260205f2090565b6106c3816106ad565b8210156106dd576106d56008916106b1565b910201905f90565b610699565b60ff1690565b6106f46106f9916102ef565b6106e2565b90565b61070690546106e8565b90565b610714906001610683565b9061071e826106ad565b8110156107985761072e916106ba565b509061073b5f8301610308565b9161074860018201610308565b9161075560028301610445565b9161076260038201610445565b9161076f60048301610308565b9161077c60058201610308565b91610795600761078e600685016106fc565b9301610445565b90565b5f80fd5b151590565b6107aa9061079c565b9052565b949692610804610823956107f68861080f946107e9610819986108309f9d986107df905f6101008701960190610245565b60208d0190610245565b8a820360408c0152610530565b9088820360608a0152610530565b976080870190610245565b60a0850190610245565b60c08301906107a1565b60e0818403910152610530565b90565b3461086e5761086a61084f610849366004610656565b90610709565b94610861989698949194939293610122565b988998896107ae565b0390f35b610128565b9060208282031261088c57610889915f0161015f565b90565b61012c565b6108a56108a06108aa92610134565b6102ba565b610134565b90565b6108b690610891565b90565b6108c2906108ad565b90565b906108cf906108b9565b5f5260205260405f2090565b6108f1906108ec6002915f926108c5565b610228565b90565b346109245761092061090f61090a366004610873565b6108db565b610917610122565b91829182610252565b0390f35b610128565b5190565b60209181520190565b60200190565b6109459061016e565b9052565b906109568160209361093c565b0190565b60200190565b9061097d61097761097084610929565b809361092d565b92610936565b905f5b81811061098d5750505090565b9091926109a66109a06001928651610949565b9461095a565b9101919091610980565b5190565b60209181520190565b60200190565b6109e26109eb6020936109f0936109d981610518565b93848093610353565b95869101610525565b6103fe565b0190565b906109fe916109c3565b90565b60200190565b90610a1b610a14836109b0565b80926109b4565b9081610a2c602083028401946109bd565b925f915b838310610a3f57505050505090565b90919293946020610a61610a5b838560019503875289516109f4565b97610a01565b9301930191939290610a30565b5190565b60209181520190565b60200190565b610a8a90610590565b9052565b90610a9b81602093610a81565b0190565b60200190565b90610ac2610abc610ab584610a6e565b8093610a72565b92610a7b565b905f5b818110610ad25750505090565b909192610aeb610ae56001928651610a8e565b94610a9f565b9101919091610ac5565b5190565b60209181520190565b60200190565b610b119061013f565b9052565b90610b2281602093610b08565b0190565b60200190565b90610b49610b43610b3c84610af5565b8093610af9565b92610b02565b905f5b818110610b595750505090565b909192610b72610b6c6001928651610b15565b94610b26565b9101919091610b4c565b949193610bc3610bdf94610bb5610bed9997610ba7610bd19660c08c01908c5f818403910152610960565b908a820360208c0152610a07565b9088820360408a0152610a07565b908682036060880152610960565b908482036080860152610aa5565b9160a0818403910152610b2c565b90565b34610c2757610c003660046101fa565b610c23610c0b6114b6565b92610c1a969496929192610122565b96879687610b7c565b0390f35b610128565b610c3860035f90610228565b90565b34610c6b57610c4b3660046101fa565b610c67610c56610c2c565b610c5e610122565b91829182610252565b0390f35b610128565b34610ca057610c9c610c8b610c86366004610873565b6116fd565b610c93610122565b91829182610252565b0390f35b610128565b5190565b60209181520190565b60200190565b610cc19061079c565b9052565b90610cd281602093610cb8565b0190565b60200190565b90610cf9610cf3610cec84610ca5565b8093610ca9565b92610cb2565b905f5b818110610d095750505090565b909192610d22610d1c6001928651610cc5565b94610cd6565b9101919091610cfc565b969394610d8b610db596610d7d610da796610d6e8c610dc39e9c98610d60610d99996101008401908482035f860152610960565b916020818403910152610960565b908c6040818403910152610a07565b908a820360608c0152610a07565b9088820360808a0152610960565b9086820360a0880152610960565b9084820360c0860152610cdc565b9160e0818403910152610a07565b90565b34610e0057610dfc610de1610ddc36600461029c565b611a12565b94610df3989698949194939293610122565b98899889610d2c565b0390f35b610128565b34610e3c57610e153660046101fa565b610e38610e20611c65565b92610e2f969496929192610122565b96879687610b7c565b0390f35b610128565b5f80fd5b5f80fd5b90610e5c610e55610122565b928361041c565b565b67ffffffffffffffff8111610e7c57610e786020916103fe565b0190565b610408565b90825f939282370152565b90929192610ea1610e9c82610e5e565b610e49565b93818552602085019082840111610ebd57610ebb92610e81565b565b610e45565b9080601f83011215610ee057816020610edd93359101610e8c565b90565b610e41565b919060a083820312610f6657610efd815f8501610185565b92602081013567ffffffffffffffff8111610f615782610f1e918301610ec2565b92604082013567ffffffffffffffff8111610f5c57610f4284610f59928501610ec2565b93610f508160608601610185565b93608001610185565b90565b610130565b610130565b61012c565b34610f9d57610f87610f7e366004610ee5565b93929092612425565b610f8f610122565b80610f99816101c1565b0390f35b610128565b9091606082840312611008575f82013567ffffffffffffffff81116110035783610fcd918401610ec2565b9260208301359067ffffffffffffffff8211610ffe57610ff281610ffb938601610ec2565b93604001610185565b90565b610130565b610130565b61012c565b3461103c57611026611020366004610fa2565b91612778565b61102e610122565b80611038816101c1565b0390f35b610128565b3461106f5761105961105436600461029c565b612905565b611061610122565b8061106b816101c1565b0390f35b610128565b906080828203126110ce5761108b815f8401610185565b926110998260208501610185565b926110a7836040830161015f565b92606082013567ffffffffffffffff81116110c9576110c69201610ec2565b90565b610130565b61012c565b34611105576110ef6110e6366004611074565b92919091612af7565b6110f7610122565b80611101816101c1565b0390f35b610128565b346111415761113d61112561112036600461029c565b612ceb565b92611134969496929192610122565b968796876105b6565b0390f35b610128565b346111755761115f611159366004610656565b90612ecd565b611167610122565b80611171816101c1565b0390f35b610128565b5f80fd5b5f1b90565b9061118f5f199161117e565b9181191691161790565b90565b906111b16111ac6111b8926102bd565b611199565b8254611183565b9055565b6111cb6111d0929160026108c5565b61119c565b565b606090565b606090565b606090565b606090565b67ffffffffffffffff81116111fe5760208091020190565b610408565b90611215611210836111e6565b610e49565b918252565b369037565b9061124461122c83611203565b9260208061123a86936111e6565b920191039061121a565b565b67ffffffffffffffff811161125e5760208091020190565b610408565b9061127561127083611246565b610e49565b918252565b606090565b5f5b82811061128d57505050565b60209061129861127a565b8184015201611281565b906112c76112af83611263565b926020806112bd8693611246565b920191039061127f565b565b67ffffffffffffffff81116112e15760208091020190565b610408565b906112f86112f3836112c9565b610e49565b918252565b369037565b9061132761130f836112e6565b9260208061131d86936112c9565b92019103906112fd565b565b67ffffffffffffffff81116113415760208091020190565b610408565b9061135861135383611329565b610e49565b918252565b369037565b9061138761136f83611346565b9260208061137d8693611329565b920191039061135d565b565b90565b6113a061139b6113a592611389565b6102ba565b61016e565b90565b634e487b7160e01b5f52601160045260245ffd5b6113c59061016e565b5f1981146113d35760010190565b6113a8565b90565b6113ea6113f09193929361016e565b9261016e565b82039182116113fb57565b6113a8565b9061140a82610929565b81101561141b576020809102010190565b610699565b9061142a9061016e565b9052565b90611438826109b0565b811015611449576020809102010190565b610699565b61145790610445565b90565b9061146482610a6e565b811015611475576020809102010190565b610699565b9061148490610584565b9052565b9061149282610af5565b8110156114a3576020809102010190565b610699565b906114b29061013f565b9052565b6114be6111d2565b506114c76111d7565b506114d06111d7565b506114d96111d2565b506114e26111dc565b506114eb6111e1565b506114fe6114f96003610308565b61121f565b9061151161150c6003610308565b6112a2565b61152361151e6003610308565b6112a2565b6115356115306003610308565b61121f565b906115486115436003610308565b611302565b9261155b6115566003610308565b611362565b95611566600161138c565b5b8061158361157d6115786003610308565b61016e565b9161016e565b116116e4576116df906116da6116b560046115a76115a25f86906102d9565b6113d8565b6115da6115b55f8301610308565b6115d589916115ce896115c8600161138c565b906113db565b9092611400565b611420565b61160f60018201896115ff6115f9896115f3600161138c565b906113db565b9261144e565b611609838361142e565b5261142e565b5150611646600282018a6116366116308961162a600161138c565b906113db565b9261144e565b611640838361142e565b5261142e565b515061167c61165760038301610308565b6116778c916116708961166a600161138c565b906113db565b9092611400565b611420565b6116af61168a838301610481565b6116aa8d916116a38961169d600161138c565b906113db565b909261145a565b61147a565b016104b3565b6116d58b916116ce856116c8600161138c565b906113db565b9092611488565b6114a8565b6113bc565b611567565b50959294909195919594939291959493929190565b5f90565b6117146117199161170c6116f9565b5060026108c5565b610308565b90565b606090565b90565b61173861173361173d92611721565b6102ba565b61016e565b90565b5f7f50726f6a65637420646f6573206e6f7420657869737400000000000000000000910152565b611774601660209261051c565b61177d81611740565b0190565b6117969060208101905f818303910152611767565b90565b156117a057565b6117a8610122565b62461bcd60e51b8152806117be60048201611781565b0390fd5b67ffffffffffffffff81116117da5760208091020190565b610408565b906117f16117ec836117c2565b610e49565b918252565b52565b906118039061079c565b9052565b611812610100610e49565b90565b906118dc6118d36007611826611807565b9461183d6118355f8301610308565b5f8801611420565b61185561184c60018301610308565b60208801611420565b61186d61186460028301610445565b604088016117f6565b61188561187c60038301610445565b606088016117f6565b61189d61189460048301610308565b60808801611420565b6118b56118ac60058301610308565b60a08801611420565b6118cd6118c4600683016106fc565b60c088016117f9565b01610445565b60e084016117f6565b565b6118e790611815565b90565b906118f4826106ad565b6118fd816117df565b9261190b60208501916106b1565b5f915b83831061191b5750505050565b6008602060019261192b856118de565b81520192019201919061190e565b611942906118ea565b90565b5190565b67ffffffffffffffff81116119615760208091020190565b610408565b9061197861197383611949565b610e49565b918252565b369037565b906119a761198f83611966565b9260208061199d8693611949565b920191039061197d565b565b60016119b5910161016e565b90565b906119c282611945565b8110156119d3576020809102010190565b610699565b6119e2905161016e565b90565b6119ef905161079c565b90565b906119fc82610ca5565b811015611a0d576020809102010190565b610699565b611a8b611a9091611a216111d2565b50611a2a6111d2565b50611a336111d7565b50611a3c6111d7565b50611a456111d2565b50611a4e6111d2565b50611a5761171c565b50611a606111d7565b5080611a74611a6e5f611724565b9161016e565b1180611c3c575b611a8490611799565b6001610683565b611939565b90611a9a82611945565b91611aa48361121f565b90611aae8461121f565b611ab7856112a2565b611ac0866112a2565b611ac98761121f565b91611ad38861121f565b93611add89611982565b95611ae78a6112a2565b98611af15f611724565b5b8b611b06611b00839261016e565b9161016e565b1015611c1e57611c1990611c1260e08c611b41611b248886906119b8565b5191611b3c611b345f85016119d8565b879092611400565b611420565b611b62611b50602083016119d8565b611b5d8a91879092611400565b611420565b611b7d60408201518a8691611b77838361142e565b5261142e565b5150611b9a60608201518b8691611b94838361142e565b5261142e565b5150611bbd611bab608083016119d8565b611bb88d91879092611400565b611420565b611bdd8c611bd8611bd060a085016119d8565b879092611400565b611420565b611bfd8d611bf8611bf060c085016119e5565b8790926119f2565b6117f9565b01518d8391611c0c838361142e565b5261142e565b51506119a9565b611af2565b50929950509196929594939491979695949392919796959493929190565b50611a8481611c5c611c56611c516003610308565b61016e565b9161016e565b11159050611a7b565b611c6d6111d2565b50611c766111d7565b50611c7f6111d7565b50611c886111d2565b50611c916111dc565b50611c9a6111e1565b50611ca45f611724565b90611caf600161138c565b5b80611ccc611cc6611cc16003610308565b61016e565b9161016e565b11611d2357611ce76004611ce15f84906102d9565b01610481565b611cfa611cf46001610584565b91610584565b14611d0e575b611d09906113bc565b611cb0565b91611d1b611d09916113bc565b929050611d00565b50611d2d8261121f565b91611d37816112a2565b92611d41826112a2565b93611d4b8361121f565b611d5d611d5785611302565b94611362565b92611d675f611724565b96611d72600161138c565b5b80611d8f611d89611d846003610308565b61016e565b9161016e565b11611ec057611daa6004611da45f84906102d9565b01610481565b611dbd611db76001610584565b91610584565b14611dd1575b611dcc906113bc565b611d73565b97611eb8611dcc91611eb3611ea16004611df3611dee8f5f6102d9565b6113d8565b611e13611e015f8301610308565b611e0e8b91889092611400565b611420565b611e35600182018c611e25889261144e565b611e2f838361142e565b5261142e565b5150611e596002820189611e49889261144e565b611e53838361142e565b5261142e565b5150611e7c611e6a60038301610308565b611e778c91889092611400565b611420565b611e9b8d611e96611e8e858501610481565b88909261145a565b61147a565b016104b3565b611eae8a91849092611488565b6114a8565b6113bc565b989050611dc3565b509650949094919594939291959493929190565b60207f6f6e657300000000000000000000000000000000000000000000000000000000917f4f6e6c792074686520656d706c6f7965722063616e20616464206d696c6573745f8201520152565b611f2e602460409261051c565b611f3781611ed4565b0190565b611f509060208101905f818303910152611f21565b90565b15611f5a57565b611f62610122565b62461bcd60e51b815280611f7860048201611f3b565b0390fd5b90565b611f93611f8e611f9892611f7c565b6102ba565b61016e565b90565b5f7f496e76616c69642070657263656e746167650000000000000000000000000000910152565b611fcf601260209261051c565b611fd881611f9b565b0190565b611ff19060208101905f818303910152611fc2565b90565b15611ffb57565b612003610122565b62461bcd60e51b81528061201960048201611fdc565b0390fd5b90565b61202b610100610e49565b90565b9061204061203b83610e5e565b610e49565b918252565b61204e5f61202e565b90565b612059612045565b90565b5f5260205f2090565b5490565b61207281612065565b82101561208c5761208460089161205c565b910201905f90565b610699565b634e487b7160e01b5f525f60045260245ffd5b5190565b601f602091010490565b1b90565b919060086120d19102916120cb5f19846120b2565b926120b2565b9181191691161790565b91906120f16120ec6120f9936102bd565b611199565b9083546120b6565b9055565b61210f916121096116f9565b916120db565b565b5b81811061211d575050565b8061212a5f6001936120fd565b01612112565b9190601f8111612140575b505050565b61214c6121719361035c565b906020612158846120a8565b83019310612179575b61216a906120a8565b0190612111565b5f808061213b565b915061216a81929050612161565b90612197905f1990600802610209565b191690565b816121a691612187565b906002021790565b906121b881610518565b9067ffffffffffffffff8211612278576121dc826121d68554610329565b85612130565b602090601f8311600114612210579180916121ff935f92612204575b505061219c565b90555b565b90915001515f806121f8565b601f1983169161221f8561035c565b925f5b81811061226057509160029391856001969410612246575b50505002019055612202565b612256910151601f841690612187565b90555f808061223a565b91936020600181928787015181550195019201612222565b610408565b90612287916121ae565b565b9061229560ff9161117e565b9181191691161790565b6122a89061079c565b90565b90565b906122c36122be6122ca9261229f565b6122ab565b8254612289565b9055565b9061238f60e06007612395946122f15f82016122eb5f88016119d8565b9061119c565b61230a60018201612304602088016119d8565b9061119c565b6123236002820161231d604088016120a4565b9061227d565b61233c60038201612336606088016120a4565b9061227d565b6123556004820161234f608088016119d8565b9061119c565b61236e6005820161236860a088016119d8565b9061119c565b6123876006820161238160c088016119e5565b906122ae565b0192016120a4565b9061227d565b565b91906123a8576123a6916122ce565b565b612091565b90815491680100000000000000008310156123dd57826123d59160016123db95018155612069565b90612397565b565b610408565b9493916060916124239461240e61241b9361240460808b01945f8c0190610245565b60208a0190610245565b8782036040890152610530565b940190610245565b565b91939290938261243d6124375f611724565b9161016e565b11806125dc575b61244d90611799565b61247e3361247861247261246d60046124675f8a906102d9565b016104b3565b61013f565b9161013f565b14611f53565b8361249161248b5f611724565b9161016e565b11806125bb575b6124a190611ff4565b6124ab6004610308565b6124b4906113bc565b6124bf90600461119c565b6001836124cb91610683565b6124d49061201d565b916124df6004610308565b918491879187925f946124f0612020565b965f8801906124fe91611420565b602087019061250c91611420565b604086019061251a916117f6565b6060850190612528916117f6565b608084019061253691611420565b60a083019061254491611420565b60c0820190612552916117f9565b61255a612051565b60e0820190612568916117f6565b612571916123ad565b9161257c6004610308565b9091927fc67423104bf96f5ca8826913ae711e8c2254e1b2c04af907b2312853ed4cbed2936125a9610122565b9384936125b693856123e2565b0390a1565b506124a1846125d36125cd6064611f7f565b9161016e565b11159050612498565b5061244d836125fc6125f66125f16003610308565b61016e565b9161016e565b11159050612444565b61260f60c0610e49565b90565b61261c9051610584565b90565b61262890610584565b90565b90565b9061264361263e61264a9261261f565b61262b565b8254612289565b9055565b612658905161013f565b90565b60081b90565b90612674610100600160a81b039161265b565b9181191691161790565b90565b9061269661269161269d926108b9565b61267e565b8254612661565b9055565b9061272f60a06004612735946126c45f82016126be5f88016119d8565b9061119c565b6126dd600182016126d7602088016120a4565b9061227d565b6126f6600282016126f0604088016120a4565b9061227d565b61270f60038201612709606088016119d8565b9061119c565b61272782820161272160808801612612565b9061262e565b01920161264e565b90612681565b565b90612741916126a1565b565b93929061276e6040916127769461276160608901925f8a0190610245565b8782036020890152610530565b9401906105a9565b565b916127fc6128159261279c6127956127906003610308565b6113bc565b600361119c565b6127f36127a96003610308565b936127ea8793916127e16001936127d833976127cf6127c6612605565b9b5f8d01611420565b60208b016117f6565b604089016117f6565b60608701611420565b6080850161147a565b60a083016114a8565b6128105f61280a6003610308565b906102d9565b612737565b61281f6003610308565b9033916128587f0c37be42d09c868de3d7b2154026972d847472b2d254f8f2f6a8f1be3a450e6a9361284f610122565b93849384612743565b0390a1565b60207f2070726f6a656374000000000000000000000000000000000000000000000000917f4f6e6c792074686520656d706c6f7965722063616e20636c6f736520746869735f8201520152565b6128b7602860409261051c565b6128c08161285d565b0190565b6128d99060208101905f8183039101526128aa565b90565b156128e357565b6128eb610122565b62461bcd60e51b815280612901600482016128c4565b0390fd5b61293d61293861296e928061292261291c5f611724565b9161016e565b1180612970575b61293290611799565b5f6102d9565b6113d8565b6129643361295e612958612953600486016104b3565b61013f565b9161013f565b146128dc565b60045f910161262e565b565b506129328161299061298a6129856003610308565b61016e565b9161016e565b11159050612929565b60207f2075706c6f61642070726f6f6600000000000000000000000000000000000000917f4f6e6c79207468652061737369676e656420667265656c616e6365722063616e5f8201520152565b6129f3602d60409261051c565b6129fc81612999565b0190565b612a159060208101905f8183039101526129e6565b90565b15612a1f57565b612a27610122565b62461bcd60e51b815280612a3d60048201612a00565b0390fd5b5f7f496e76616c6964206d696c6573746f6e65204944000000000000000000000000910152565b612a75601460209261051c565b612a7e81612a41565b0190565b612a979060208101905f818303910152612a68565b90565b15612aa157565b612aa9610122565b62461bcd60e51b815280612abf60048201612a82565b0390fd5b612ae7612af4949293612add60608401955f850190610245565b6020830190610245565b6040818403910152610530565b90565b909291612b3a9082612b11612b0b5f611724565b9161016e565b1180612c04575b612b2190611799565b612b34612b2e339261013f565b9161013f565b14612a18565b82612b4d612b475f611724565b9161016e565b1180612bd1575b612b5d90612a9a565b612b93826007612b8c612b7260018690610683565b612b8688612b80600161138c565b906113db565b906106ba565b500161227d565b919091612bcc7fa242dc265ec329d765b4d1175eb5f3d36f052da4b6bf61b340d71ca9846ca7a293612bc3610122565b93849384612ac3565b0390a1565b50612b5d83612bfb612bf5612bf0612beb60018790610683565b6106ad565b61016e565b9161016e565b11159050612b54565b50612b2183612c24612c1e612c196003610308565b61016e565b9161016e565b11159050612b18565b606090565b5f90565b5f90565b612c4460c0610e49565b90565b90612cdd612cd46004612c58612c3a565b94612c6f612c675f8301610308565b5f8801611420565b612c87612c7e60018301610445565b602088016117f6565b612c9f612c9660028301610445565b604088016117f6565b612cb7612cae60038301610308565b60608801611420565b612cce612cc5838301610481565b6080880161147a565b016104b3565b60a084016114a8565b565b612ce890612c47565b90565b612d51612d5691612cfa6116f9565b50612d03612c2d565b50612d0c612c2d565b50612d156116f9565b50612d1e612c32565b50612d27612c36565b5080612d3b612d355f611724565b9161016e565b1180612d9d575b612d4b90611799565b5f6102d9565b612cdf565b90612d625f83016119d8565b90602083015192604081015192612d7b606083016119d8565b92612d9460a0612d8d60808601612612565b940161264e565b91959493929190565b50612d4b81612dbd612db7612db26003610308565b61016e565b9161016e565b11159050612d42565b5f7f4d696c6573746f6e6520646f6573206e6f742065786973740000000000000000910152565b612dfa601860209261051c565b612e0381612dc6565b0190565b612e1c9060208101905f818303910152612ded565b90565b15612e2657565b612e2e610122565b62461bcd60e51b815280612e4460048201612e07565b0390fd5b90565b5f7f4d696c6573746f6e6520616c726561647920636f6d706c657465640000000000910152565b612e7f601b60209261051c565b612e8881612e4b565b0190565b612ea19060208101905f818303910152612e72565b90565b15612eab57565b612eb3610122565b62461bcd60e51b815280612ec960048201612e8c565b0390fd5b612f42612f7092612f3c612f2b612f489480612ef1612eeb5f611724565b9161016e565b1180612fa5575b612f0190611799565b83612f14612f0e5f611724565b9161016e565b1180612f72575b612f2490612e1f565b6001610683565b91612f36600161138c565b906113db565b906106ba565b50612e48565b612f65612f60612f5a600684016106fc565b1561079c565b612ea4565b6006600191016122ae565b565b50612f2484612f9c612f96612f91612f8c60018790610683565b6106ad565b61016e565b9161016e565b11159050612f1b565b50612f0181612fc5612fbf612fba6003610308565b61016e565b9161016e565b11159050612ef856fea264697066735822122066954d1d5ab36326b4e950cd7344da57b8c974d623a5b2a7e23528ae2119234964736f6c634300081c0033",
  "immutableReferences": {},
  "source": "// SPDX-License-Identifier: MIT\r\npragma solidity >=0.8.7;\r\n\r\n// import \"./RequestManager.sol\";\r\n\r\ncontract Projects {\r\n    \r\n    enum Status { Closed, Open }\r\n\r\n    struct Project {\r\n        uint id;\r\n        string name;\r\n        string description;\r\n        uint reward;\r\n        Status status;\r\n        address employer;\r\n    }\r\n\r\n    struct Milestone {\r\n        uint id;\r\n        uint projectId;\r\n        string name;\r\n        string description;\r\n        uint daycount;\r\n        uint percentage;\r\n        bool completed;\r\n        string proofFileHash; // To store proof file hash\r\n    }\r\n\r\n    mapping(uint => Project) public projects;\r\n    mapping(uint => Milestone[]) public milestones;\r\n    mapping(address => uint) public freelancerRatings; // Map freelancer address to their rating (in basis points out of 5 * 100)\r\n\r\n    uint public projectCount;\r\n    uint public milestoneCount;\r\n\r\n    // RequestManager public requestManager;\r\n\r\n    event ProjectAdded(uint id, string name, address employer);\r\n    event MilestoneAdded(uint projectId, uint milestoneId, string name, uint percentage);\r\n    event MilestoneProofUploaded(uint projectId, uint milestoneId, string proofFileHash);\r\n    // constructor(address _requestManager) {\r\n    //     requestManager = RequestManager(_requestManager);\r\n    // }\r\n\r\n    function addProject(string memory _name, string memory _description, uint _reward) public {\r\n        projectCount++;\r\n        projects[projectCount] = Project({\r\n            id: projectCount,\r\n            name: _name,\r\n            description: _description,\r\n            reward: _reward,\r\n            status: Status.Open,\r\n            employer: msg.sender\r\n        });\r\n\r\n        emit ProjectAdded(projectCount, _name, msg.sender);\r\n    }\r\n\r\n    function addMilestone(uint _projectId, string memory _name, string memory _description, uint _daycount, uint _percentage) public {\r\n        require(_projectId > 0 && _projectId <= projectCount, \"Project does not exist\");\r\n        require(msg.sender == projects[_projectId].employer, \"Only the employer can add milestones\");\r\n        require(_percentage > 0 && _percentage <= 100, \"Invalid percentage\");\r\n\r\n        milestoneCount++;\r\n        milestones[_projectId].push(Milestone({\r\n            id: milestoneCount,\r\n            projectId: _projectId,\r\n            name: _name,\r\n            description: _description,\r\n            daycount: _daycount,\r\n            percentage: _percentage,\r\n            completed: false,\r\n            proofFileHash: \"\" // Initialize proof file hash as empty\r\n        }));\r\n\r\n        emit MilestoneAdded(_projectId, milestoneCount, _name, _percentage);\r\n    }\r\n\r\n    function uploadMilestoneProof(uint _projectId, uint _milestoneId, address _freelancer, string memory _proofFileHash) public {\r\n        require(_projectId > 0 && _projectId <= projectCount, \"Project does not exist\");\r\n        require(msg.sender == _freelancer, \"Only the assigned freelancer can upload proof\");\r\n\r\n        // Check if the milestone exists\r\n        require(_milestoneId > 0 && _milestoneId <= milestones[_projectId].length, \"Invalid milestone ID\");\r\n\r\n        // Store the proof file hash for the milestone\r\n        milestones[_projectId][_milestoneId - 1].proofFileHash = _proofFileHash;\r\n\r\n        emit MilestoneProofUploaded(_projectId, _milestoneId, _proofFileHash);\r\n    }\r\n\r\n    function getFreelancerRating(address _freelancer) public view returns (uint) {\r\n        return freelancerRatings[_freelancer];\r\n    }\r\n\r\n    function getProject(uint _id) public view returns (uint, string memory, string memory, uint, Status, address) {\r\n        require(_id > 0 && _id <= projectCount, \"Project does not exist\");\r\n        Project memory proj = projects[_id];\r\n        return (proj.id, proj.name, proj.description, proj.reward, proj.status, proj.employer);\r\n    }\r\n\r\n    function viewProjects() public view returns (\r\n        uint[] memory ids, \r\n        string[] memory names, \r\n        string[] memory descriptions, \r\n        uint[] memory rewards, \r\n        Status[] memory statuses, \r\n        address[] memory employers\r\n    ) {\r\n        ids = new uint[](projectCount);\r\n        names = new string[](projectCount);\r\n        descriptions = new string[](projectCount);\r\n        rewards = new uint[](projectCount);\r\n        statuses = new Status[](projectCount);\r\n        employers = new address[](projectCount);\r\n\r\n        for (uint i = 1; i <= projectCount; i++) {\r\n            Project storage proj = projects[i];\r\n            ids[i - 1] = proj.id;\r\n            names[i - 1] = proj.name;\r\n            descriptions[i - 1] = proj.description;\r\n            rewards[i - 1] = proj.reward;\r\n            statuses[i - 1] = proj.status;\r\n            employers[i - 1] = proj.employer;\r\n        }\r\n\r\n        return (ids, names, descriptions, rewards, statuses, employers);\r\n    }\r\n\r\n    function viewOpenProjects() public view returns (\r\n        uint[] memory ids, \r\n        string[] memory names, \r\n        string[] memory descriptions, \r\n        uint[] memory rewards, \r\n        Status[] memory statuses, \r\n        address[] memory employers\r\n    ) {\r\n        uint openCount = 0;\r\n        for (uint i = 1; i <= projectCount; i++) {\r\n            if (projects[i].status == Status.Open) {\r\n                openCount++;\r\n            }\r\n        }\r\n\r\n        ids = new uint[](openCount);\r\n        names = new string[](openCount);\r\n        descriptions = new string[](openCount);\r\n        rewards = new uint[](openCount);\r\n        statuses = new Status[](openCount);\r\n        employers = new address[](openCount);\r\n\r\n        uint index = 0;\r\n        for (uint i = 1; i <= projectCount; i++) {\r\n            if (projects[i].status == Status.Open) {\r\n                Project storage proj = projects[i];\r\n                ids[index] = proj.id;\r\n                names[index] = proj.name;\r\n                descriptions[index] = proj.description;\r\n                rewards[index] = proj.reward;\r\n                statuses[index] = proj.status;\r\n                employers[index] = proj.employer;\r\n                index++;\r\n            }\r\n        }\r\n\r\n        return (ids, names, descriptions, rewards, statuses, employers);\r\n    }\r\n\r\n    function getMilestones(uint _projectId) \r\n        public view \r\n        returns (\r\n            uint[] memory ids, \r\n            uint[] memory projectIds, \r\n            string[] memory names, \r\n            string[] memory descriptions, \r\n            uint[] memory daycounts, \r\n            uint[] memory percentages, \r\n            bool[] memory completions, \r\n            string[] memory proofFileHashes\r\n        ) \r\n    {\r\n        require(_projectId > 0 && _projectId <= projectCount, \"Project does not exist\");\r\n\r\n        Milestone[] memory projectMilestones = milestones[_projectId];\r\n        uint milestonesCount = projectMilestones.length;\r\n\r\n        // Initialize arrays for each field in Milestone\r\n        ids = new uint[](milestonesCount);\r\n        projectIds = new uint[](milestonesCount);\r\n        names = new string[](milestonesCount);\r\n        descriptions = new string[](milestonesCount);\r\n        daycounts = new uint[](milestonesCount);\r\n        percentages = new uint[](milestonesCount);\r\n        completions = new bool[](milestonesCount);\r\n        proofFileHashes = new string[](milestonesCount);\r\n\r\n        // Populate each array with the corresponding data from each milestone\r\n        for (uint i = 0; i < milestonesCount; i++) {\r\n            Milestone memory milestone = projectMilestones[i];\r\n            ids[i] = milestone.id;\r\n            projectIds[i] = milestone.projectId;\r\n            names[i] = milestone.name;\r\n            descriptions[i] = milestone.description;\r\n            daycounts[i] = milestone.daycount;\r\n            percentages[i] = milestone.percentage;\r\n            completions[i] = milestone.completed;\r\n            proofFileHashes[i] = milestone.proofFileHash;\r\n        }\r\n\r\n        return (\r\n            ids, \r\n            projectIds, \r\n            names, \r\n            descriptions, \r\n            daycounts, \r\n            percentages, \r\n            completions, \r\n            proofFileHashes\r\n        );\r\n    }\r\n\r\n    function closeProject(uint _id) public {\r\n        require(_id > 0 && _id <= projectCount, \"Project does not exist\");\r\n        Project storage proj = projects[_id];\r\n        require(msg.sender == proj.employer, \"Only the employer can close this project\");\r\n        proj.status = Status.Closed;\r\n    }\r\n\r\n    function completeMilestone(uint _projectId, uint _milestoneId) public {\r\n        require(_projectId > 0 && _projectId <= projectCount, \"Project does not exist\");\r\n        require(_milestoneId > 0 && _milestoneId <= milestones[_projectId].length, \"Milestone does not exist\");\r\n        \r\n        Milestone storage milestone = milestones[_projectId][_milestoneId - 1];\r\n        require(!milestone.completed, \"Milestone already completed\");\r\n        \r\n        milestone.completed = true; // Mark the milestone as completed\r\n    }\r\n\r\n    function setFreelancerRating(address _freelancer, uint _rating) public {\r\n        // Ensure only the owner of the contract can set the rating\r\n        // require(msg.sender == owner, \"Only the owner can set the rating\"); // Adjust ownership logic as necessary\r\n        freelancerRatings[_freelancer] = _rating;\r\n    }\r\n\r\n\r\n}\r\n",
  "sourcePath": "C:\\Users\\Shashwat Chaturvedi\\OneDrive - iiit-b\\college\\projects\\delance\\truffle_project\\contracts\\Projects.sol",
  "compiler": {
    "name": "solc",
    "version": "0.8.28+commit.7893614a.Emscripten.clang"
  },
  "schemaVersion": "3.4.16",
  "updatedAt": "2024-11-01T16:45:20.150Z",
  "devdoc": {
    "kind": "dev",
    "methods": {},
    "version": 1
  },
  "userdoc": {
    "kind": "user",
    "methods": {},
    "version": 1
  }
}