{
  "contractName": "Projects",
  "abi": [
    {
      "inputs": [],
      "stateMutability": "nonpayable",
      "type": "constructor"
    },
    {
      "anonymous": false,
      "inputs": [
        {
          "indexed": false,
          "internalType": "uint256",
          "name": "projectId",
          "type": "uint256"
        },
        {
          "indexed": false,
          "internalType": "uint256",
          "name": "milestoneId",
          "type": "uint256"
        },
        {
          "indexed": false,
          "internalType": "string",
          "name": "name",
          "type": "string"
        },
        {
          "indexed": false,
          "internalType": "uint256",
          "name": "percentage",
          "type": "uint256"
        }
      ],
      "name": "MilestoneAdded",
      "type": "event"
    },
    {
      "anonymous": false,
      "inputs": [
        {
          "indexed": false,
          "internalType": "uint256",
          "name": "projectId",
          "type": "uint256"
        },
        {
          "indexed": false,
          "internalType": "uint256",
          "name": "milestoneId",
          "type": "uint256"
        },
        {
          "indexed": false,
          "internalType": "string",
          "name": "proofFileHash",
          "type": "string"
        }
      ],
      "name": "MilestoneProofUploaded",
      "type": "event"
    },
    {
      "anonymous": false,
      "inputs": [
        {
          "indexed": false,
          "internalType": "uint256",
          "name": "id",
          "type": "uint256"
        },
        {
          "indexed": false,
          "internalType": "string",
          "name": "name",
          "type": "string"
        },
        {
          "indexed": false,
          "internalType": "address",
          "name": "employer",
          "type": "address"
        }
      ],
      "name": "ProjectAdded",
      "type": "event"
    },
    {
      "inputs": [
        {
          "internalType": "address",
          "name": "",
          "type": "address"
        }
      ],
      "name": "freelancerRatings",
      "outputs": [
        {
          "internalType": "uint256",
          "name": "",
          "type": "uint256"
        }
      ],
      "stateMutability": "view",
      "type": "function",
      "constant": true
    },
    {
      "inputs": [],
      "name": "milestoneCount",
      "outputs": [
        {
          "internalType": "uint256",
          "name": "",
          "type": "uint256"
        }
      ],
      "stateMutability": "view",
      "type": "function",
      "constant": true
    },
    {
      "inputs": [
        {
          "internalType": "uint256",
          "name": "",
          "type": "uint256"
        },
        {
          "internalType": "uint256",
          "name": "",
          "type": "uint256"
        }
      ],
      "name": "milestones",
      "outputs": [
        {
          "internalType": "uint256",
          "name": "id",
          "type": "uint256"
        },
        {
          "internalType": "uint256",
          "name": "projectId",
          "type": "uint256"
        },
        {
          "internalType": "string",
          "name": "name",
          "type": "string"
        },
        {
          "internalType": "string",
          "name": "description",
          "type": "string"
        },
        {
          "internalType": "uint256",
          "name": "daycount",
          "type": "uint256"
        },
        {
          "internalType": "uint256",
          "name": "percentage",
          "type": "uint256"
        },
        {
          "internalType": "bool",
          "name": "completed",
          "type": "bool"
        },
        {
          "internalType": "string",
          "name": "proofFileHash",
          "type": "string"
        }
      ],
      "stateMutability": "view",
      "type": "function",
      "constant": true
    },
    {
      "inputs": [],
      "name": "owner",
      "outputs": [
        {
          "internalType": "address",
          "name": "",
          "type": "address"
        }
      ],
      "stateMutability": "view",
      "type": "function",
      "constant": true
    },
    {
      "inputs": [],
      "name": "projectCount",
      "outputs": [
        {
          "internalType": "uint256",
          "name": "",
          "type": "uint256"
        }
      ],
      "stateMutability": "view",
      "type": "function",
      "constant": true
    },
    {
      "inputs": [
        {
          "internalType": "uint256",
          "name": "",
          "type": "uint256"
        }
      ],
      "name": "projects",
      "outputs": [
        {
          "internalType": "uint256",
          "name": "id",
          "type": "uint256"
        },
        {
          "internalType": "string",
          "name": "name",
          "type": "string"
        },
        {
          "internalType": "string",
          "name": "description",
          "type": "string"
        },
        {
          "internalType": "uint256",
          "name": "reward",
          "type": "uint256"
        },
        {
          "internalType": "enum Projects.Status",
          "name": "status",
          "type": "uint8"
        },
        {
          "internalType": "address",
          "name": "employer",
          "type": "address"
        },
        {
          "internalType": "address",
          "name": "assignedFreelancer",
          "type": "address"
        }
      ],
      "stateMutability": "view",
      "type": "function",
      "constant": true
    },
    {
      "inputs": [],
      "name": "requestManager",
      "outputs": [
        {
          "internalType": "address",
          "name": "",
          "type": "address"
        }
      ],
      "stateMutability": "view",
      "type": "function",
      "constant": true
    },
    {
      "inputs": [
        {
          "internalType": "address",
          "name": "_requestManager",
          "type": "address"
        }
      ],
      "name": "setRequestManager",
      "outputs": [],
      "stateMutability": "nonpayable",
      "type": "function"
    },
    {
      "inputs": [
        {
          "internalType": "string",
          "name": "_name",
          "type": "string"
        },
        {
          "internalType": "string",
          "name": "_description",
          "type": "string"
        },
        {
          "internalType": "uint256",
          "name": "_reward",
          "type": "uint256"
        }
      ],
      "name": "addProject",
      "outputs": [],
      "stateMutability": "nonpayable",
      "type": "function"
    },
    {
      "inputs": [
        {
          "internalType": "uint256",
          "name": "_projectId",
          "type": "uint256"
        },
        {
          "internalType": "string",
          "name": "_name",
          "type": "string"
        },
        {
          "internalType": "string",
          "name": "_description",
          "type": "string"
        },
        {
          "internalType": "uint256",
          "name": "_daycount",
          "type": "uint256"
        },
        {
          "internalType": "uint256",
          "name": "_percentage",
          "type": "uint256"
        }
      ],
      "name": "addMilestone",
      "outputs": [],
      "stateMutability": "nonpayable",
      "type": "function"
    },
    {
      "inputs": [
        {
          "internalType": "uint256",
          "name": "_projectId",
          "type": "uint256"
        },
        {
          "internalType": "uint256",
          "name": "_milestoneId",
          "type": "uint256"
        },
        {
          "internalType": "address",
          "name": "_freelancer",
          "type": "address"
        },
        {
          "internalType": "string",
          "name": "_proofFileHash",
          "type": "string"
        }
      ],
      "name": "uploadMilestoneProof",
      "outputs": [],
      "stateMutability": "nonpayable",
      "type": "function"
    },
    {
      "inputs": [
        {
          "internalType": "address",
          "name": "_freelancer",
          "type": "address"
        }
      ],
      "name": "getFreelancerRating",
      "outputs": [
        {
          "internalType": "uint256",
          "name": "",
          "type": "uint256"
        }
      ],
      "stateMutability": "view",
      "type": "function",
      "constant": true
    },
    {
      "inputs": [
        {
          "internalType": "uint256",
          "name": "_id",
          "type": "uint256"
        }
      ],
      "name": "getProject",
      "outputs": [
        {
          "internalType": "uint256",
          "name": "",
          "type": "uint256"
        },
        {
          "internalType": "string",
          "name": "",
          "type": "string"
        },
        {
          "internalType": "string",
          "name": "",
          "type": "string"
        },
        {
          "internalType": "uint256",
          "name": "",
          "type": "uint256"
        },
        {
          "internalType": "enum Projects.Status",
          "name": "",
          "type": "uint8"
        },
        {
          "internalType": "address",
          "name": "",
          "type": "address"
        },
        {
          "internalType": "address",
          "name": "",
          "type": "address"
        }
      ],
      "stateMutability": "view",
      "type": "function",
      "constant": true
    },
    {
      "inputs": [],
      "name": "viewProjects",
      "outputs": [
        {
          "internalType": "uint256[]",
          "name": "ids",
          "type": "uint256[]"
        },
        {
          "internalType": "string[]",
          "name": "names",
          "type": "string[]"
        },
        {
          "internalType": "string[]",
          "name": "descriptions",
          "type": "string[]"
        },
        {
          "internalType": "uint256[]",
          "name": "rewards",
          "type": "uint256[]"
        },
        {
          "internalType": "enum Projects.Status[]",
          "name": "statuses",
          "type": "uint8[]"
        },
        {
          "internalType": "address[]",
          "name": "employers",
          "type": "address[]"
        }
      ],
      "stateMutability": "view",
      "type": "function",
      "constant": true
    },
    {
      "inputs": [],
      "name": "viewOpenProjects",
      "outputs": [
        {
          "internalType": "uint256[]",
          "name": "ids",
          "type": "uint256[]"
        },
        {
          "internalType": "string[]",
          "name": "names",
          "type": "string[]"
        },
        {
          "internalType": "string[]",
          "name": "descriptions",
          "type": "string[]"
        },
        {
          "internalType": "uint256[]",
          "name": "rewards",
          "type": "uint256[]"
        },
        {
          "internalType": "enum Projects.Status[]",
          "name": "statuses",
          "type": "uint8[]"
        },
        {
          "internalType": "address[]",
          "name": "employers",
          "type": "address[]"
        }
      ],
      "stateMutability": "view",
      "type": "function",
      "constant": true
    },
    {
      "inputs": [
        {
          "internalType": "uint256",
          "name": "_projectId",
          "type": "uint256"
        }
      ],
      "name": "getMilestones",
      "outputs": [
        {
          "internalType": "uint256[]",
          "name": "ids",
          "type": "uint256[]"
        },
        {
          "internalType": "uint256[]",
          "name": "projectIds",
          "type": "uint256[]"
        },
        {
          "internalType": "string[]",
          "name": "names",
          "type": "string[]"
        },
        {
          "internalType": "string[]",
          "name": "descriptions",
          "type": "string[]"
        },
        {
          "internalType": "uint256[]",
          "name": "daycounts",
          "type": "uint256[]"
        },
        {
          "internalType": "uint256[]",
          "name": "percentages",
          "type": "uint256[]"
        },
        {
          "internalType": "bool[]",
          "name": "completions",
          "type": "bool[]"
        },
        {
          "internalType": "string[]",
          "name": "proofFileHashes",
          "type": "string[]"
        }
      ],
      "stateMutability": "view",
      "type": "function",
      "constant": true
    },
    {
      "inputs": [
        {
          "internalType": "uint256",
          "name": "_id",
          "type": "uint256"
        }
      ],
      "name": "closeProject",
      "outputs": [],
      "stateMutability": "nonpayable",
      "type": "function"
    },
    {
      "inputs": [
        {
          "internalType": "uint256",
          "name": "_projectId",
          "type": "uint256"
        },
        {
          "internalType": "uint256",
          "name": "_milestoneId",
          "type": "uint256"
        }
      ],
      "name": "completeMilestone",
      "outputs": [],
      "stateMutability": "nonpayable",
      "type": "function"
    },
    {
      "inputs": [
        {
          "internalType": "address",
          "name": "_freelancer",
          "type": "address"
        },
        {
          "internalType": "uint256",
          "name": "_rating",
          "type": "uint256"
        }
      ],
      "name": "setFreelancerRating",
      "outputs": [],
      "stateMutability": "nonpayable",
      "type": "function"
    }
  ],
  "bytecode": "0x6080806040523460275760068054600160a060020a03191633179055611f34908161002d8239f35b600080fdfe6080604052600436101561001257600080fd5b60e060020a6000350463063dca0c81146119725780630681ca5514611954578063107046bd146118dd5780631c376c631461181557806327db21e1146116a5578063310f9411146116fd57806336fbad26146116df5780633a766ddf146116a557806342c549c0146113ba57806353eef0601461120c578063563700d514610c4e5780635fd4f758146108a657806380a76522146107665780638da5cb5b1461073d57806393dc12e614610652578063d0b2069114610374578063f0f3f2c814610257578063f326206b1461011e5763fd84030c146100f057600080fd5b3461011957600036600319011261011957600554604051600160a060020a039091168152602090f35b600080fd5b346101195761012c36611ba4565b908015158061024b575b61013f90611e5f565b81151580610233575b156101eb576000526001602052604060002060001982019182116101d15760069161017291611bba565b5001805460ff81166101895760ff19166001179055005b60405160e560020a62461bcd02815260206004820152601b60248201527f4d696c6573746f6e6520616c726561647920636f6d706c6574656400000000006044820152606490fd5b60e060020a634e487b710260009081526011600452602490fd5b60405160e560020a62461bcd02815260206004820152601860248201527f4d696c6573746f6e6520646f6573206e6f7420657869737400000000000000006044820152606490fd5b50806000526001602052604060002054821115610148565b50600354811115610136565b346101195760203660031901126101195760043580151580610368575b61027d90611e5f565b600052600060205260406000206040519061029782611a1b565b805482526102a760018201611a57565b90602083019182526102bb60028201611a57565b92604081019384526003820154906060810191825260048301549260808201906102e860ff861683611e53565b610100909404600160a060020a0390811660a08401908152600595909501541660c083019081529151945195519251905190600282101561034e579351915160405196879661034a96600160a060020a03938416969590931694919088611b48565b0390f35b60e060020a634e487b710260009081526021600452602490fd5b50600354811115610274565b3461011957608036600319011261011957604435600160a060020a038116906024359060043590839003610119576064356001604060020a038111610119576103c1903690600401611d48565b9281151580610646575b6103d490611e5f565b33036105e557811515806105cd575b1561058b5780600052600160205260406000206000198301908382116101d15760079161040f91611bba565b500183516001604060020a0381116105715761042b82546119c0565b601f811161051b575b506020601f82116001146104a157918161046b81600080516020611ebf833981519152989461049196600091610496575b50611eae565b906002021790555b60405193849384526020840152606060408401526060830190611afa565b0390a1005b90508501518a610465565b601f1982169083600052806000209160005b8181106105035750836104919593600193600080516020611ebf8339815191529a96600294106104e9575b505002019055610473565b6104fa90870151601f841690611eae565b905589806104de565b9192602060018192868c0151815501940192016104b3565b81811115610434578260005260206000206020601f8401049060208410610568575b601f8260209201930104039060005b82811061055a575050610434565b60008282015560010161054c565b6000915061053d565b60e060020a634e487b710260009081526041600452602490fd5b60405160e560020a62461bcd0281526020600482015260146024820152606260020a73125b9d985b1a59081b5a5b195cdd1bdb99481251026044820152606490fd5b508060005260016020526040600020548211156103e3565b60405160e560020a62461bcd02815260206004820152602d60248201527f4f6e6c79207468652061737369676e656420667265656c616e6365722063616e6044820152609960020a6c103ab83637b0b210383937b7b3026064820152608490fd5b506003548211156103cb565b346101195760203660031901126101195760043580151580610731575b61067890611e5f565b60005260006020526004604060002001600160a060020a03610100825404163314801561071d575b156106af57805460ff19169055005b60405160e560020a62461bcd02815260206004820152603a60248201527f4f6e6c792074686520656d706c6f796572206f7220526571756573744d616e6160448201527f6765722063616e20636c6f736520746869732070726f6a6563740000000000006064820152608490fd5b50600554600160a060020a031633146106a0565b5060035481111561066f565b3461011957600036600319011261011957600654604051600160a060020a039091168152602090f35b346101195760203660031901126101195761077f6119aa565b600654600160a060020a0316330361085157600160a060020a0316801561080957600554600160a060020a0381166107c157600160a060020a03191617600555005b60405160e560020a62461bcd02815260206004820152601a60248201527f526571756573744d616e6167657220616c7265616479207365740000000000006044820152606490fd5b60405160e560020a62461bcd02815260206004820152601e60248201527f496e76616c696420526571756573744d616e61676572206164647265737300006044820152606490fd5b60405160e560020a62461bcd02815260206004820152602160248201527f4f6e6c79206f776e65722063616e2073657420526571756573744d616e616765604482015260f960020a6039026064820152608490fd5b34610119576060366003190112610119576004356001604060020a038111610119576108d6903690600401611d48565b6024356001604060020a038111610119576108f5903690600401611d48565b90610901600354611e31565b806003556040519261091284611a1b565b81845260208401938385526040810191825260608101604435815260808201926001845260a083019633885260c08401956000875260005260006020526040600020935184556001840190518051906001604060020a0382116105715761097983546119c0565b601f8111610bf8575b5081602091601f8211600114610b8e576109a69260009183610b83575b5050611eae565b906002021790555b51805160028401916001604060020a038211610571576109ce83546119c0565b601f8111610b2d575b5081602091601f8211600114610ac3576109fa9260009183610ab8575050611eae565b906002021790555b51600382015560048101915191600283101561034e5780549551600160a860020a031990961660ff90931692909217610100600160a060020a039687160261010060a860020a03161790915590516005919091018054600160a060020a03191691909316179091556003546040519081526060602082018190527f0c37be42d09c868de3d7b2154026972d847472b2d254f8f2f6a8f1be3a450e6a928291610aad9190830190611afa565b3360408301520390a1005b015190508b8061099f565b9050601f1983169184600052806000209260005b818110610b1557509160029391856001969410610afb575b50505002019055610a02565b610b0b910151601f841690611eae565b90558a8080610aef565b91936020600181928787015181550195019201610ad7565b828111156109d7578360005260206000206020601f8501049060208510610b7a575b601f8260209201930104039060005b828110610b6c5750506109d7565b600082820155600101610b5e565b60009150610b4f565b015190508c8061099f565b9050601f1983169184600052806000209260005b818110610be057509160029391856001969410610bc6575b505050020190556109ae565b610bd6910151601f841690611eae565b90558b8080610bba565b91936020600181928787015181550195019201610ba2565b82811115610982578360005260206000206020601f8501049060208510610c45575b601f8260209201930104039060005b828110610c37575050610982565b600082820155600101610c29565b60009150610c1a565b346101195760a0366003190112610119576004356024356001604060020a03811161011957610c81903690600401611d48565b6044356001604060020a03811161011957610ca0903690600401611d48565b916084359080151580611200575b610cb790611e5f565b6000818152602081905260409020600401546101009004600160a060020a031633036111a9578115158061119e575b1561115e57610cf6600454611e31565b9182600455816000526001602052604060002060405193610d16856119ff565b84526020840193838552604081018681526060820197885260808201606435815260a083019085825260c08401926000845260209860405196610d598b89611a36565b6000885260e087019788528054604060020a81101561057157610d8191600182018155611bba565b9690966111445751865551600186015551805160028601916001604060020a03821161057157610db183546119c0565b601f81116110f2575b50818b91601f821160011461108857610ddc9260009183610fbd575050611eae565b906002021790555b600384019951998a516001604060020a03811161057157610e0582546119c0565b601f8111611036575b5089601f8211600114610fc8578180610e379260079a9b9c9d9e9f600092610fbd575050611eae565b906002021790555b516004840155516005830155600682019051151560ff801983541691161790550190518051906001604060020a03821161057157610e7d83546119c0565b601f8111610f6b575b508590601f8311600114610ef05791610ebe8180610ee59694600080516020611edf8339815191529b96600092610ab8575050611eae565b906002021790555b6004546040519586958652850152608060408501526080840190611afa565b9060608301520390a1005b601f1983169184600052876000209260005b818110610f54575093610ee5959360019360029383600080516020611edf8339815191529d9810610f3a575b50505002019055610ec6565b610f4a910151601f841690611eae565b90558a8080610f2e565b919389600181928787015181550195019201610f02565b82811115610e865783600052866000208780601f86010491818610610fb4575b82601f9101930104039060005b828110610fa6575050610e86565b600082820155600101610f98565b60009250610f8b565b015190508f8061099f565b601f19821690836000528b6000209160005b81811061101f5750916007999a9b9c9d9e849260019560029510611005575b50505002019055610e3f565b611015910151601f841690611eae565b90558e8080610ff9565b8f8301518455600190930192918d01918d01610fda565b81811115610e0e57826000528a6000208b80601f8501049181851061107f575b82601f9101930104039060005b828110611071575050610e0e565b600082820155600101611063565b60009250611056565b60008581528d812093919250601f198516908e5b8282106110db57505091600293918560019694106110c1575b50505002019055610de4565b6110d1910151601f841690611eae565b90558e80806110b5565b60018496829395870151815501950192018e61109c565b82811115610dba57836000528b6000208c80601f8601049181861061113b575b82601f9101930104039060005b82811061112d575050610dba565b60008282015560010161111f565b60009250611112565b60e060020a634e487b710260009081526004819052602490fd5b60405160e560020a62461bcd0281526020600482015260126024820152607060020a71496e76616c69642070657263656e74616765026044820152606490fd5b506064821115610ce6565b60405160e560020a62461bcd028152602060048201526024808201527f4f6e6c792074686520656d706c6f7965722063616e20616464206d696c657374604482015260e060020a636f6e6573026064820152608490fd5b50600354811115610cae565b346101195760003660031901126101195760006001600354905b81811115611371575061123882611db5565b61124183611de7565b9161124b84611de7565b9361125581611db5565b61126761126183611db5565b92611db5565b92600060015b8281111561128a5750505061034a93949560405196879687611c7a565b80600052600060205260ff60046040600020015416600281101561034e57898960018a93146112c5575b5050506112c090611e31565b61126d565b6113669261131f86809461131288996004966112c09a60005260006020526040600020966112f583895492611e40565b5261130260018801611a57565b61130c8383611e40565b52611e40565b5061130260028501611a57565b50600381015461132f848a611e40565b52015461134860ff8216611343848b611e40565b611e53565b6101009004600160a060020a0316611360828a611e40565b52611e31565b9190508689896112b4565b80600052600060205260ff60046040600020015416600281101561034e576001146113a5575b6113a090611e31565b611226565b916113b26113a091611e31565b929050611397565b346101195760203660031901126101195760043580151580611699575b6113e090611e5f565b6000526001602052604060002080546113f881611d9e565b916114066040519384611a36565b818352602083019060005260206000206000915b8383106116165784805161142d81611db5565b9161143782611db5565b61144083611de7565b61144984611de7565b61145285611db5565b9161145c86611db5565b9661146687611d9e565b946114746040519687611a36565b87865261148088611d9e565b602087019890601f1901368a3761149681611de7565b9760005b82811061156157505050936114fe61151a946114f06114d59a9b956114e261150c9660209a6040519e8f926101008452610100840190611bf0565b918c818403910152611bf0565b8c810360408e015290611c24565b908a820360608c0152611c24565b9088820360808a0152611bf0565b9086820360a0880152611bf0565b9184830360c0860152519182815201939060005b81811061154957848061034a888783820360e0850152611c24565b8251151586526020958601959092019160010161152e565b8060e08d61157160019486611e40565b5190815161157f858b611e40565b52602082015161158f858a611e40565b52604082015161159f858c611e40565b526115aa848b611e40565b5060608201516115ba858d611e40565b526115c5848c611e40565b5060808201516115d5858e611e40565b526115e58460a084015192611e40565b5260c081015115156115f7848e611e40565b520151611604828d611e40565b5261160f818c611e40565b500161149a565b60086020600192604051611629816119ff565b85548152848601548382015261164160028701611a57565b604082015261165260038701611a57565b606082015260048601546080820152600586015460a082015260ff600687015416151560c082015261168660078701611a57565b60e082015281520192019201919061141a565b506003548111156113d7565b3461011957602036600319011261011957600160a060020a036116c66119aa565b1660005260026020526020604060002054604051908152f35b34610119576000366003190112610119576020600354604051908152f35b346101195760003660031901126101195760035461171a81611db5565b9061172481611de7565b9161172e82611de7565b61173783611db5565b61174084611db5565b9061174a85611db5565b9260015b8681111561176857506040519687965061034a9587611c7a565b80600052600060205260406000209081546000198201908282116101d1576118109361136091611798848c611e40565b5260006117ac848e61130260018601611a57565b50506117ba60028201611a57565b6117c48488611e40565b526117cf8387611e40565b5060046003820154916000926117e5868b611e40565b52015490506117fb60ff8216611343858b611e40565b6101009004600160a060020a03169188611e40565b61174e565b346101195761182336611ba4565b90600052600160205260406000209081548110156101195761184491611bba565b50805461034a60018301549261185c60028201611a57565b61186860038301611a57565b916004810154926118be6005830154916118b061188f600760ff6006880154169601611a57565b956040519a8b9a8b5260208b015261010060408b01526101008a0190611afa565b9088820360608a0152611afa565b93608087015260a0860152151560c085015283820360e0850152611afa565b346101195760203660031901126101195760043560005260006020526040600020805461034a61190f60018401611a57565b9161191c60028501611a57565b60038501546004860154600590960154604051968796600160a060020a039283169561010083049093169460ff909216939288611b48565b34610119576000366003190112610119576020600454604051908152f35b3461011957604036600319011261011957600160a060020a036119936119aa565b166000526002602052602435604060002055600080f35b60043590600160a060020a038216820361011957565b90600160028304921680156119f5575b60208310146119db57565b60e060020a634e487b710260009081526022600452602490fd5b91607f16916119d0565b61010081019081106001604060020a0382111761057157604052565b60e081019081106001604060020a0382111761057157604052565b90601f801991011681019081106001604060020a0382111761057157604052565b9060405191826000825492611a6b846119c0565b8084529360018116908115611ad95750600114611a92575b50611a9092500383611a36565b565b90506000929192526020600020906000915b818310611abd575050906020611a909282010138611a83565b6020919350806001915483858901015201910190918492611aa4565b905060209250611a9094915060ff1916828401521515810282010138611a83565b919082519283825260005b848110611b26575050826000602080949584010152601f8019910116010190565b80602080928401015182828601015201611b05565b90600282101561034e5752565b9592611b7e90611b70611b8e9460c098949b9a979b8a5260e060208b015260e08a0190611afa565b9088820360408a0152611afa565b9760608701526080860190611b3b565b600160a060020a0390811660a085015216910152565b6040906003190112610119576004359060243590565b8054821015611bd6576000526008602060002091020190600090565b60e060020a634e487b710260009081526032600452602490fd5b906020808351928381520192019060005b818110611c0e5750505090565b8251845260209384019390920191600101611c01565b805180835260208181028401810193928101926000918101905b838310611c4d57505050505090565b9091929394602080611c6b600193601f198682030187528951611afa565b97019301930191939290611c3e565b939192611ca7611cc394611c99611cb59460c0895260c0890190611bf0565b908782036020890152611c24565b908582036040870152611c24565b908382036060850152611bf0565b81810360808301526020808451928381520193019060005b818110611d295750505060a08183039101526020808351928381520192019060005b818110611d0a5750505090565b8251600160a060020a0316845260209384019390920191600101611cfd565b90919360208082611d3d6001948951611b3b565b019501929101611cdb565b81601f82011215610119578035906001604060020a0382116105715760405192611d7c601f8401601f191660200185611a36565b8284526020838301011161011957816000926020809301838601378301015290565b6001604060020a0381116105715760208091020190565b90611dbf82611d9e565b611dcc6040519182611a36565b8281528092611ddd601f1991611d9e565b0190602036910137565b90611df182611d9e565b611dfe6040519182611a36565b8281528092611e0f601f1991611d9e565b019060005b828110611e2057505050565b806060602080938501015201611e14565b60001981146101d15760010190565b8051821015611bd6576020809202010190565b600282101561034e5752565b15611e6657565b60405160e560020a62461bcd02815260206004820152601660248201527f50726f6a65637420646f6573206e6f74206578697374000000000000000000006044820152606490fd5b9060080260020a6000190419169056fea242dc265ec329d765b4d1175eb5f3d36f052da4b6bf61b340d71ca9846ca7a2c67423104bf96f5ca8826913ae711e8c2254e1b2c04af907b2312853ed4cbed2a2646970667358221220515d9444d326289467ace037f74c96092530d43847a40d27c887e60aa3ce67a664736f6c63430008220033",
  "immutableReferences": {},
  "source": "// SPDX-License-Identifier: MIT\r\npragma solidity >=0.8.7;\r\n\r\n// import \"./RequestManager.sol\";\r\n\r\ncontract Projects {\r\n    \r\n    enum Status { Closed, Open }\r\n\r\n    struct Project {\r\n        uint id;\r\n        string name;\r\n        string description;\r\n        uint reward;\r\n        Status status;\r\n        address employer;\r\n        address assignedFreelancer;\r\n    }\r\n\r\n    struct Milestone {\r\n        uint id;\r\n        uint projectId;\r\n        string name;\r\n        string description;\r\n        uint daycount;\r\n        uint percentage;\r\n        bool completed;\r\n        string proofFileHash; // To store proof file hash\r\n    }\r\n\r\n    mapping(uint => Project) public projects;\r\n    mapping(uint => Milestone[]) public milestones;\r\n    mapping(address => uint) public freelancerRatings; // Map freelancer address to their rating (in basis points out of 5 * 100)\r\n\r\n    uint public projectCount;\r\n    uint public milestoneCount;\r\n    address public requestManager;\r\n    address public owner;\r\n\r\n    event ProjectAdded(uint id, string name, address employer);\r\n    event MilestoneAdded(uint projectId, uint milestoneId, string name, uint percentage);\r\n    event MilestoneProofUploaded(uint projectId, uint milestoneId, string proofFileHash);\r\n    // constructor(address _requestManager) {\r\n    //     requestManager = RequestManager(_requestManager);\r\n    // }\r\n\r\n    constructor() {\r\n        owner = msg.sender;\r\n    }\r\n\r\n    function setRequestManager(address _requestManager) public {\r\n        require(owner == msg.sender, \"Only owner can set RequestManager\");\r\n        require(_requestManager != address(0), \"Invalid RequestManager address\");\r\n        require(requestManager == address(0), \"RequestManager already set\");\r\n        requestManager = _requestManager;\r\n    }\r\n\r\n    function addProject(string memory _name, string memory _description, uint _reward) public {\r\n        projectCount++;\r\n        projects[projectCount] = Project({\r\n            id: projectCount,\r\n            name: _name,\r\n            description: _description,\r\n            reward: _reward,\r\n            status: Status.Open,\r\n            employer: msg.sender,\r\n            assignedFreelancer: address(0)\r\n        });\r\n\r\n        emit ProjectAdded(projectCount, _name, msg.sender);\r\n    }\r\n\r\n    function addMilestone(uint _projectId, string memory _name, string memory _description, uint _daycount, uint _percentage) public {\r\n        require(_projectId > 0 && _projectId <= projectCount, \"Project does not exist\");\r\n        require(msg.sender == projects[_projectId].employer, \"Only the employer can add milestones\");\r\n        require(_percentage > 0 && _percentage <= 100, \"Invalid percentage\");\r\n\r\n        milestoneCount++;\r\n        milestones[_projectId].push(Milestone({\r\n            id: milestoneCount,\r\n            projectId: _projectId,\r\n            name: _name,\r\n            description: _description,\r\n            daycount: _daycount,\r\n            percentage: _percentage,\r\n            completed: false,\r\n            proofFileHash: \"\" // Initialize proof file hash as empty\r\n        }));\r\n\r\n        emit MilestoneAdded(_projectId, milestoneCount, _name, _percentage);\r\n    }\r\n\r\n    function uploadMilestoneProof(uint _projectId, uint _milestoneId, address _freelancer, string memory _proofFileHash) public {\r\n        require(_projectId > 0 && _projectId <= projectCount, \"Project does not exist\");\r\n        require(msg.sender == _freelancer, \"Only the assigned freelancer can upload proof\");\r\n\r\n        // Check if the milestone exists\r\n        require(_milestoneId > 0 && _milestoneId <= milestones[_projectId].length, \"Invalid milestone ID\");\r\n\r\n        // Store the proof file hash for the milestone\r\n        milestones[_projectId][_milestoneId - 1].proofFileHash = _proofFileHash;\r\n\r\n        emit MilestoneProofUploaded(_projectId, _milestoneId, _proofFileHash);\r\n    }\r\n\r\n\r\n\r\n    function getFreelancerRating(address _freelancer) public view returns (uint) {\r\n        return freelancerRatings[_freelancer];\r\n    }\r\n\r\n    function getProject(uint _id) public view returns (uint, string memory, string memory, uint, Status, address, address) {\r\n        require(_id > 0 && _id <= projectCount, \"Project does not exist\");\r\n        Project memory proj = projects[_id];\r\n        return (proj.id, proj.name, proj.description, proj.reward, proj.status, proj.employer, proj.assignedFreelancer);\r\n    }\r\n\r\n    function viewProjects() public view returns (\r\n        uint[] memory ids, \r\n        string[] memory names, \r\n        string[] memory descriptions, \r\n        uint[] memory rewards, \r\n        Status[] memory statuses, \r\n        address[] memory employers\r\n    ) {\r\n        ids = new uint[](projectCount);\r\n        names = new string[](projectCount);\r\n        descriptions = new string[](projectCount);\r\n        rewards = new uint[](projectCount);\r\n        statuses = new Status[](projectCount);\r\n        employers = new address[](projectCount);\r\n\r\n        for (uint i = 1; i <= projectCount; i++) {\r\n            Project storage proj = projects[i];\r\n            ids[i - 1] = proj.id;\r\n            names[i - 1] = proj.name;\r\n            descriptions[i - 1] = proj.description;\r\n            rewards[i - 1] = proj.reward;\r\n            statuses[i - 1] = proj.status;\r\n            employers[i - 1] = proj.employer;\r\n        }\r\n\r\n        return (ids, names, descriptions, rewards, statuses, employers);\r\n    }\r\n\r\n    function viewOpenProjects() public view returns (\r\n        uint[] memory ids, \r\n        string[] memory names, \r\n        string[] memory descriptions, \r\n        uint[] memory rewards, \r\n        Status[] memory statuses, \r\n        address[] memory employers\r\n    ) {\r\n        uint openCount = 0;\r\n        for (uint i = 1; i <= projectCount; i++) {\r\n            if (projects[i].status == Status.Open) {\r\n                openCount++;\r\n            }\r\n        }\r\n\r\n        ids = new uint[](openCount);\r\n        names = new string[](openCount);\r\n        descriptions = new string[](openCount);\r\n        rewards = new uint[](openCount);\r\n        statuses = new Status[](openCount);\r\n        employers = new address[](openCount);\r\n\r\n        uint index = 0;\r\n        for (uint i = 1; i <= projectCount; i++) {\r\n            if (projects[i].status == Status.Open) {\r\n                Project storage proj = projects[i];\r\n                ids[index] = proj.id;\r\n                names[index] = proj.name;\r\n                descriptions[index] = proj.description;\r\n                rewards[index] = proj.reward;\r\n                statuses[index] = proj.status;\r\n                employers[index] = proj.employer;\r\n                index++;\r\n            }\r\n        }\r\n\r\n        return (ids, names, descriptions, rewards, statuses, employers);\r\n    }\r\n\r\n    function getMilestones(uint _projectId) \r\n        public view \r\n        returns (\r\n            uint[] memory ids, \r\n            uint[] memory projectIds, \r\n            string[] memory names, \r\n            string[] memory descriptions, \r\n            uint[] memory daycounts, \r\n            uint[] memory percentages, \r\n            bool[] memory completions, \r\n            string[] memory proofFileHashes\r\n        ) \r\n    {\r\n        require(_projectId > 0 && _projectId <= projectCount, \"Project does not exist\");\r\n\r\n        Milestone[] memory projectMilestones = milestones[_projectId];\r\n        uint milestonesCount = projectMilestones.length;\r\n\r\n        // Initialize arrays for each field in Milestone\r\n        ids = new uint[](milestonesCount);\r\n        projectIds = new uint[](milestonesCount);\r\n        names = new string[](milestonesCount);\r\n        descriptions = new string[](milestonesCount);\r\n        daycounts = new uint[](milestonesCount);\r\n        percentages = new uint[](milestonesCount);\r\n        completions = new bool[](milestonesCount);\r\n        proofFileHashes = new string[](milestonesCount);\r\n\r\n        // Populate each array with the corresponding data from each milestone\r\n        for (uint i = 0; i < milestonesCount; i++) {\r\n            Milestone memory milestone = projectMilestones[i];\r\n            ids[i] = milestone.id;\r\n            projectIds[i] = milestone.projectId;\r\n            names[i] = milestone.name;\r\n            descriptions[i] = milestone.description;\r\n            daycounts[i] = milestone.daycount;\r\n            percentages[i] = milestone.percentage;\r\n            completions[i] = milestone.completed;\r\n            proofFileHashes[i] = milestone.proofFileHash;\r\n        }\r\n\r\n        return (\r\n            ids, \r\n            projectIds, \r\n            names, \r\n            descriptions, \r\n            daycounts, \r\n            percentages, \r\n            completions, \r\n            proofFileHashes\r\n        );\r\n    }\r\n\r\n    function closeProject(uint _id) public {\r\n        require(_id > 0 && _id <= projectCount, \"Project does not exist\");\r\n        Project storage proj = projects[_id];\r\n        require(msg.sender == proj.employer || msg.sender == requestManager, \"Only the employer or RequestManager can close this project\");\r\n        proj.status = Status.Closed;\r\n    }\r\n\r\n    function completeMilestone(uint _projectId, uint _milestoneId) public {\r\n        require(_projectId > 0 && _projectId <= projectCount, \"Project does not exist\");\r\n        require(_milestoneId > 0 && _milestoneId <= milestones[_projectId].length, \"Milestone does not exist\");\r\n        \r\n        Milestone storage milestone = milestones[_projectId][_milestoneId - 1];\r\n        require(!milestone.completed, \"Milestone already completed\");\r\n        \r\n        milestone.completed = true; // Mark the milestone as completed\r\n    }\r\n\r\n    function setFreelancerRating(address _freelancer, uint _rating) public {\r\n        // Ensure only the owner of the contract can set the rating\r\n        // require(msg.sender == owner, \"Only the owner can set the rating\"); // Adjust ownership logic as necessary\r\n        freelancerRatings[_freelancer] = _rating;\r\n    }\r\n\r\n\r\n}\r\n",
  "sourcePath": "C:\\Users\\malik\\OneDrive\\Desktop\\BTECH\\Final_year_project\\Lance-With-quote\\truffle_project\\contracts\\Projects.sol",
  "compiler": {
    "name": "solc",
    "version": "0.8.34+commit.80d5c536.Emscripten.clang"
  },
  "schemaVersion": "3.4.16",
  "updatedAt": "2026-04-16T18:09:12.741Z",
  "networkType": "ethereum",
  "devdoc": {
    "kind": "dev",
    "methods": {},
    "version": 1
  },
  "userdoc": {
    "kind": "user",
    "methods": {},
    "version": 1
  }
}