{
  "contractName": "Projects",
  "abi": [
    {
      "inputs": [],
      "stateMutability": "nonpayable",
      "type": "constructor"
    },
    {
      "anonymous": false,
      "inputs": [
        {
          "indexed": false,
          "internalType": "uint256",
          "name": "projectId",
          "type": "uint256"
        },
        {
          "indexed": false,
          "internalType": "uint256",
          "name": "milestoneId",
          "type": "uint256"
        },
        {
          "indexed": false,
          "internalType": "string",
          "name": "name",
          "type": "string"
        },
        {
          "indexed": false,
          "internalType": "uint256",
          "name": "percentage",
          "type": "uint256"
        }
      ],
      "name": "MilestoneAdded",
      "type": "event"
    },
    {
      "anonymous": false,
      "inputs": [
        {
          "indexed": false,
          "internalType": "uint256",
          "name": "projectId",
          "type": "uint256"
        },
        {
          "indexed": false,
          "internalType": "uint256",
          "name": "milestoneId",
          "type": "uint256"
        },
        {
          "indexed": false,
          "internalType": "string",
          "name": "proofFileHash",
          "type": "string"
        }
      ],
      "name": "MilestoneProofUploaded",
      "type": "event"
    },
    {
      "anonymous": false,
      "inputs": [
        {
          "indexed": false,
          "internalType": "uint256",
          "name": "id",
          "type": "uint256"
        },
        {
          "indexed": false,
          "internalType": "string",
          "name": "name",
          "type": "string"
        },
        {
          "indexed": false,
          "internalType": "address",
          "name": "employer",
          "type": "address"
        }
      ],
      "name": "ProjectAdded",
      "type": "event"
    },
    {
      "inputs": [
        {
          "internalType": "address",
          "name": "",
          "type": "address"
        }
      ],
      "name": "freelancerRatings",
      "outputs": [
        {
          "internalType": "uint256",
          "name": "",
          "type": "uint256"
        }
      ],
      "stateMutability": "view",
      "type": "function"
    },
    {
      "inputs": [],
      "name": "milestoneCount",
      "outputs": [
        {
          "internalType": "uint256",
          "name": "",
          "type": "uint256"
        }
      ],
      "stateMutability": "view",
      "type": "function"
    },
    {
      "inputs": [
        {
          "internalType": "uint256",
          "name": "",
          "type": "uint256"
        },
        {
          "internalType": "uint256",
          "name": "",
          "type": "uint256"
        }
      ],
      "name": "milestones",
      "outputs": [
        {
          "internalType": "uint256",
          "name": "id",
          "type": "uint256"
        },
        {
          "internalType": "uint256",
          "name": "projectId",
          "type": "uint256"
        },
        {
          "internalType": "string",
          "name": "name",
          "type": "string"
        },
        {
          "internalType": "string",
          "name": "description",
          "type": "string"
        },
        {
          "internalType": "uint256",
          "name": "daycount",
          "type": "uint256"
        },
        {
          "internalType": "uint256",
          "name": "percentage",
          "type": "uint256"
        },
        {
          "internalType": "enum Projects.MilestoneStatus",
          "name": "status",
          "type": "uint8"
        },
        {
          "internalType": "address",
          "name": "freelancer",
          "type": "address"
        },
        {
          "internalType": "address",
          "name": "client",
          "type": "address"
        },
        {
          "internalType": "uint256",
          "name": "amount",
          "type": "uint256"
        },
        {
          "internalType": "string",
          "name": "proofFileHash",
          "type": "string"
        }
      ],
      "stateMutability": "view",
      "type": "function"
    },
    {
      "inputs": [],
      "name": "owner",
      "outputs": [
        {
          "internalType": "address",
          "name": "",
          "type": "address"
        }
      ],
      "stateMutability": "view",
      "type": "function"
    },
    {
      "inputs": [],
      "name": "projectCount",
      "outputs": [
        {
          "internalType": "uint256",
          "name": "",
          "type": "uint256"
        }
      ],
      "stateMutability": "view",
      "type": "function"
    },
    {
      "inputs": [
        {
          "internalType": "uint256",
          "name": "",
          "type": "uint256"
        }
      ],
      "name": "projects",
      "outputs": [
        {
          "internalType": "uint256",
          "name": "id",
          "type": "uint256"
        },
        {
          "internalType": "string",
          "name": "name",
          "type": "string"
        },
        {
          "internalType": "string",
          "name": "description",
          "type": "string"
        },
        {
          "internalType": "uint256",
          "name": "reward",
          "type": "uint256"
        },
        {
          "internalType": "enum Projects.Status",
          "name": "status",
          "type": "uint8"
        },
        {
          "internalType": "address",
          "name": "employer",
          "type": "address"
        },
        {
          "internalType": "address",
          "name": "assignedFreelancer",
          "type": "address"
        }
      ],
      "stateMutability": "view",
      "type": "function"
    },
    {
      "inputs": [],
      "name": "requestManager",
      "outputs": [
        {
          "internalType": "address",
          "name": "",
          "type": "address"
        }
      ],
      "stateMutability": "view",
      "type": "function"
    },
    {
      "inputs": [
        {
          "internalType": "address",
          "name": "_requestManager",
          "type": "address"
        }
      ],
      "name": "setRequestManager",
      "outputs": [],
      "stateMutability": "nonpayable",
      "type": "function"
    },
    {
      "inputs": [
        {
          "internalType": "string",
          "name": "_name",
          "type": "string"
        },
        {
          "internalType": "string",
          "name": "_description",
          "type": "string"
        },
        {
          "internalType": "uint256",
          "name": "_reward",
          "type": "uint256"
        }
      ],
      "name": "addProject",
      "outputs": [],
      "stateMutability": "nonpayable",
      "type": "function"
    },
    {
      "inputs": [
        {
          "internalType": "uint256",
          "name": "_projectId",
          "type": "uint256"
        },
        {
          "internalType": "string",
          "name": "_name",
          "type": "string"
        },
        {
          "internalType": "string",
          "name": "_description",
          "type": "string"
        },
        {
          "internalType": "uint256",
          "name": "_daycount",
          "type": "uint256"
        },
        {
          "internalType": "uint256",
          "name": "_percentage",
          "type": "uint256"
        }
      ],
      "name": "addMilestone",
      "outputs": [],
      "stateMutability": "nonpayable",
      "type": "function"
    },
    {
      "inputs": [
        {
          "internalType": "uint256",
          "name": "_projectId",
          "type": "uint256"
        },
        {
          "internalType": "uint256",
          "name": "_milestoneId",
          "type": "uint256"
        },
        {
          "internalType": "address",
          "name": "_freelancer",
          "type": "address"
        },
        {
          "internalType": "string",
          "name": "_proofFileHash",
          "type": "string"
        }
      ],
      "name": "uploadMilestoneProof",
      "outputs": [],
      "stateMutability": "nonpayable",
      "type": "function"
    },
    {
      "inputs": [
        {
          "internalType": "address",
          "name": "_freelancer",
          "type": "address"
        }
      ],
      "name": "getFreelancerRating",
      "outputs": [
        {
          "internalType": "uint256",
          "name": "",
          "type": "uint256"
        }
      ],
      "stateMutability": "view",
      "type": "function"
    },
    {
      "inputs": [
        {
          "internalType": "uint256",
          "name": "_id",
          "type": "uint256"
        }
      ],
      "name": "getProject",
      "outputs": [
        {
          "internalType": "uint256",
          "name": "",
          "type": "uint256"
        },
        {
          "internalType": "string",
          "name": "",
          "type": "string"
        },
        {
          "internalType": "string",
          "name": "",
          "type": "string"
        },
        {
          "internalType": "uint256",
          "name": "",
          "type": "uint256"
        },
        {
          "internalType": "enum Projects.Status",
          "name": "",
          "type": "uint8"
        },
        {
          "internalType": "address",
          "name": "",
          "type": "address"
        },
        {
          "internalType": "address",
          "name": "",
          "type": "address"
        }
      ],
      "stateMutability": "view",
      "type": "function"
    },
    {
      "inputs": [],
      "name": "viewProjects",
      "outputs": [
        {
          "internalType": "uint256[]",
          "name": "ids",
          "type": "uint256[]"
        },
        {
          "internalType": "string[]",
          "name": "names",
          "type": "string[]"
        },
        {
          "internalType": "string[]",
          "name": "descriptions",
          "type": "string[]"
        },
        {
          "internalType": "uint256[]",
          "name": "rewards",
          "type": "uint256[]"
        },
        {
          "internalType": "enum Projects.Status[]",
          "name": "statuses",
          "type": "uint8[]"
        },
        {
          "internalType": "address[]",
          "name": "employers",
          "type": "address[]"
        }
      ],
      "stateMutability": "view",
      "type": "function"
    },
    {
      "inputs": [],
      "name": "viewOpenProjects",
      "outputs": [
        {
          "internalType": "uint256[]",
          "name": "ids",
          "type": "uint256[]"
        },
        {
          "internalType": "string[]",
          "name": "names",
          "type": "string[]"
        },
        {
          "internalType": "string[]",
          "name": "descriptions",
          "type": "string[]"
        },
        {
          "internalType": "uint256[]",
          "name": "rewards",
          "type": "uint256[]"
        },
        {
          "internalType": "enum Projects.Status[]",
          "name": "statuses",
          "type": "uint8[]"
        },
        {
          "internalType": "address[]",
          "name": "employers",
          "type": "address[]"
        }
      ],
      "stateMutability": "view",
      "type": "function"
    },
    {
      "inputs": [
        {
          "internalType": "uint256",
          "name": "_projectId",
          "type": "uint256"
        }
      ],
      "name": "getMilestones",
      "outputs": [
        {
          "internalType": "uint256[]",
          "name": "ids",
          "type": "uint256[]"
        },
        {
          "internalType": "uint256[]",
          "name": "projectIds",
          "type": "uint256[]"
        },
        {
          "internalType": "string[]",
          "name": "names",
          "type": "string[]"
        },
        {
          "internalType": "string[]",
          "name": "descriptions",
          "type": "string[]"
        },
        {
          "internalType": "uint256[]",
          "name": "daycounts",
          "type": "uint256[]"
        },
        {
          "internalType": "uint256[]",
          "name": "percentages",
          "type": "uint256[]"
        },
        {
          "internalType": "enum Projects.MilestoneStatus[]",
          "name": "statuses",
          "type": "uint8[]"
        },
        {
          "internalType": "address[]",
          "name": "freelancers",
          "type": "address[]"
        },
        {
          "internalType": "address[]",
          "name": "clients",
          "type": "address[]"
        },
        {
          "internalType": "uint256[]",
          "name": "amounts",
          "type": "uint256[]"
        },
        {
          "internalType": "string[]",
          "name": "proofFileHashes",
          "type": "string[]"
        }
      ],
      "stateMutability": "view",
      "type": "function"
    },
    {
      "inputs": [
        {
          "internalType": "uint256",
          "name": "_id",
          "type": "uint256"
        }
      ],
      "name": "closeProject",
      "outputs": [],
      "stateMutability": "nonpayable",
      "type": "function"
    },
    {
      "inputs": [
        {
          "internalType": "uint256",
          "name": "_projectId",
          "type": "uint256"
        },
        {
          "internalType": "uint256",
          "name": "_milestoneId",
          "type": "uint256"
        }
      ],
      "name": "completeMilestone",
      "outputs": [],
      "stateMutability": "nonpayable",
      "type": "function"
    },
    {
      "inputs": [
        {
          "internalType": "uint256",
          "name": "_projectId",
          "type": "uint256"
        },
        {
          "internalType": "uint256",
          "name": "_milestoneId",
          "type": "uint256"
        },
        {
          "internalType": "enum Projects.MilestoneStatus",
          "name": "_status",
          "type": "uint8"
        }
      ],
      "name": "setMilestoneStatus",
      "outputs": [],
      "stateMutability": "nonpayable",
      "type": "function"
    },
    {
      "inputs": [
        {
          "internalType": "address",
          "name": "_freelancer",
          "type": "address"
        },
        {
          "internalType": "uint256",
          "name": "_rating",
          "type": "uint256"
        }
      ],
      "name": "setFreelancerRating",
      "outputs": [],
      "stateMutability": "nonpayable",
      "type": "function"
    }
  ],
  "bytecode": "0x60808060405234602757600680546001600160a01b0319163317905561228a908161002d8239f35b600080fdfe6080604052600436101561001257600080fd5b60003560e01c8063063dca0c14611c365780630681ca5514611c18578063107046bd14611ba15780631c376c6314611aa257806327db21e114611934578063310f94111461198c57806336fbad261461196e5780633a766ddf1461193457806342c549c01461156c57806353eef060146113c0578063563700d514610cfb5780635fd4f7581461095657806373a7cb1b146108b957806380a76522146107885780638da5cb5b1461075f57806393dc12e61461067c578063d0b2069114610339578063f0f3f2c814610236578063f326206b146101265763fd84030c146100f857600080fd5b34610121576000366003190112610121576005546040516001600160a01b039091168152602090f35b600080fd5b346101215761013436611e66565b908015158061022a575b6101479061213f565b81151580610212575b610159906121cd565b6000526001602052604060002060001982019182116101fc5760069161017e91611e7c565b500160ff81541660058110156101e6576001036101a257805460ff19166002179055005b606460405162461bcd60e51b815260206004820152602060248201527f4d696c6573746f6e65206e6f7420696e207375626d69747465642073746174656044820152fd5b634e487b7160e01b600052602160045260246000fd5b634e487b7160e01b600052601160045260246000fd5b50600081815260016020526040902054821115610150565b5060035481111561013e565b34610121576020366003190112610121576004358015158061032d575b61025c9061213f565b600052600060205260406000206040519061027682611cda565b8054825261028660018201611d18565b906020830191825261029a60028201611d18565b92604081019384526003820154906060810191825260048301549260808201906102c760ff861683612133565b60089490941c6001600160a01b0390811660a08401908152600595909501541660c08301908152915194519551925190519060028210156101e65793519151604051968796610329966001600160a01b03938416969590931694919088611e0a565b0390f35b50600354811115610253565b34610121576080366003190112610121576044356024356004356001600160a01b038316808403610121576064356001600160401b03811161012157610383903690600401612027565b9082151580610670575b6103969061213f565b330361061557821515806105fd575b156105c157816000526001602052604060002060001984018481116101fc576103cd91611e7c565b5093600685019460ff86541660058110156101e65761057c57825195906009016001600160401b038711610566576104058154611c84565b601f8111610510575b50602096601f8111600114610493579161048394939183610465946000805160206122158339815191529a600091610488575b508160011b916000199060031b1c19161790555b805460ff191660011781556121a8565b60405193849384526020840152606060408401526060830190611dbc565b0390a1005b90508601518b610441565b601f1981169782600052806000209860005b8181106104f85750826000805160206122158339815191529a610483989795936104659795600194106104df575b5050811b019055610455565b88015160001960f88460031b161c191690558b806104d3565b878301518b556001909a0199602092830192016104a5565b8781111561040e57816000526020600020601f890160051c9060208a1061055d575b81601f9101920160051c039060005b82811061054f57505061040e565b600082820155600101610541565b60009150610532565b634e487b7160e01b600052604160045260246000fd5b60405162461bcd60e51b815260206004820152601e60248201527f4d696c6573746f6e65206e6f7420696e2070656e64696e6720737461746500006044820152606490fd5b60405162461bcd60e51b8152602060048201526014602482015273125b9d985b1a59081b5a5b195cdd1bdb9948125160621b6044820152606490fd5b508160005260016020526040600020548311156103a5565b60405162461bcd60e51b815260206004820152602d60248201527f4f6e6c79207468652061737369676e656420667265656c616e6365722063616e60448201526c103ab83637b0b210383937b7b360991b6064820152608490fd5b5060035483111561038d565b346101215760203660031901126101215760043580151580610753575b6106a29061213f565b6000526000602052600460406000200160018060a01b03815460081c163314801561073f575b156106d757805460ff19169055005b60405162461bcd60e51b815260206004820152603a60248201527f4f6e6c792074686520656d706c6f796572206f7220526571756573744d616e6160448201527919d95c8818d85b8818db1bdcd9481d1a1a5cc81c1c9bda9958dd60321b6064820152608490fd5b506005546001600160a01b031633146106c8565b50600354811115610699565b34610121576000366003190112610121576006546040516001600160a01b039091168152602090f35b34610121576020366003190112610121576107a1611c6e565b6006546001600160a01b0316330361086a576001600160a01b03168015610825576005546001600160a01b0381166107e3576001600160a01b03191617600555005b60405162461bcd60e51b815260206004820152601a60248201527914995c5d595cdd13585b9859d95c88185b1c9958591e481cd95d60321b6044820152606490fd5b60405162461bcd60e51b815260206004820152601e60248201527f496e76616c696420526571756573744d616e61676572206164647265737300006044820152606490fd5b60405162461bcd60e51b815260206004820152602160248201527f4f6e6c79206f776e65722063616e2073657420526571756573744d616e6167656044820152603960f91b6064820152608490fd5b34610121576060366003190112610121576024356044356004356005821015610121578015158061094a575b6108ee9061213f565b82151580610932575b610900906121cd565b600052600160205260406000209160001981019081116101fc5761092960069161093094611e7c565b5001612190565b005b506000818152600160205260409020548311156108f7565b506003548111156108e5565b34610121576060366003190112610121576004356001600160401b03811161012157610986903690600401612027565b6024356001600160401b038111610121576109a5903690600401612027565b906109b1600354612110565b80600355604051906109c282611cda565b80825260208201908382526040830194855260608301604435815260808401956001875260a085019333855260c086019360008552600052600060205260406000209551865560018601905180519060018060401b038211610566578190610a2a8454611c84565b601f8111610c9d575b50602090601f8311600114610c3857600092610c2d575b50508160011b916000199060031b1c19161790555b51805160028601916001600160401b038211610566578190610a818454611c84565b601f8111610bcf575b50602090601f8311600114610b6a57600092610b5f575b50508160011b916000199060031b1c19161790555b51600384015560048301945160028110156101e6577f0c37be42d09c868de3d7b2154026972d847472b2d254f8f2f6a8f1be3a450e6a95600593610b109260ff8019845416911617825560018060a01b03905116906121a8565b51910180546001600160a01b0319166001600160a01b039290921691909117905560035460405190815260606020820181905290918291610b549190830190611dbc565b3360408301520390a1005b015190508980610aa1565b60008581528281209350601f198516905b818110610bb75750908460019594939210610b9e575b505050811b019055610ab6565b015160001960f88460031b161c19169055898080610b91565b92936020600181928786015181550195019301610b7b565b82811115610a8a57909150836000526020600020601f840160051c9060208510610c24575b849392601f0160051c829003910160005b828110610c13575050610a8a565b600081830155859450600101610c05565b60009150610bf4565b015190508a80610a4a565b60008581528281209350601f198516905b818110610c855750908460019594939210610c6c575b505050811b019055610a5f565b015160001960f88460031b161c191690558a8080610c5f565b92936020600181928786015181550195019301610c49565b82811115610a3357909150836000526020600020601f840160051c9060208510610cf2575b849392601f0160051c829003910160005b828110610ce1575050610a33565b600081830155859450600101610cd3565b60009150610cc2565b346101215760a0366003190112610121576024356001600160401b03811161012157610d2b903690600401612027565b6044356001600160401b03811161012157610d4a903690600401612027565b906004351515806113b2575b610d5f9061213f565b600480356000908152602081905260409020015460081c6001600160a01b0316330361136157608435151580611354575b1561131a57610da0600454612110565b9182600455600435600052600060205260036040600020015460843581029080820460843514901517156101fc5760043560005260016020526040600020916004356000526000602052606460018060a01b0360046040600020015460081c169260405196610e0e88611cbe565b875260208701936004358552604088019387855260608901528235608089015260843560a0890152600060c0890152600060e089015261010088015204610120860152602092604051610e618582611cf5565b600081526101408701528054600160401b81101561056657610e8891600182018155611e7c565b9290926113045785518355516001830155518051906001600160401b038211610566578190610eba6002850154611c84565b601f811161129d575b508490601f831160011461122c57600092611221575b50508160011b916000199060031b1c19161760028201555b60608401518051906001600160401b038211610566578190610f166003850154611c84565b601f81116111ba575b508490601f83116001146111495760009261113e575b50508160011b916000199060031b1c19161760038201555b6080840151600482015560a084015160058201556006810160c08501519160058310156101e657610f9b82610f8761014095600995612190565b60e08801516001600160a01b0316906121a8565b6101008601516007820180546001600160a01b0319166001600160a01b03929092169190911790556101208601516008820155919094015180519094909101906001600160401b03811161056657610ff38254611c84565b601f81116110ea575b5082601f82116001146110765781906000805160206122358339815191529660009261106b575b50508160011b916000199060031b1c19161790555b61105e600454926040519384936004358552840152608060408401526080830190611dbc565b60843560608301520390a1005b015190508680611023565b601f1982169583600052846000209660005b8181106110d357509160008051602061223583398151915297918460019594106110ba575b505050811b019055611038565b015160001960f88460031b161c191690558680806110ad565b838301518955600190980197928601928601611088565b81811115610ffc578260005283600020601f830160051c90858410611135575b81601f9101920160051c039060005b828110611127575050610ffc565b600082820155600101611119565b6000915061110a565b015190508680610f35565b92506003840160005284600020906000935b86601f19851686106111a157506001945083601f19811610611188575b505050811b016003820155610f4d565b015160001960f88460031b161c19169055868080611178565b828201518455948501946001909301929091019061115b565b82811115610f1f579091506003840160005284600020601f840160051c90868510611218575b92909184926000945b81601f840160051c038610611202575050509091610f1f565b60008183018701556001909501948694506111e9565b600091506111e0565b015190508680610ed9565b92506002840160005284600020906000935b86601f198516861061128457506001945083601f1981161061126b575b505050811b016002820155610ef1565b015160001960f88460031b161c1916905586808061125b565b828201518455948501946001909301929091019061123e565b82811115610ec3579091506002840160005284600020601f840160051c908685106112fb575b92909184926000945b81601f840160051c0386106112e5575050509091610ec3565b60008183018701556001909501948694506112cc565b600091506112c3565b634e487b7160e01b600052600060045260246000fd5b60405162461bcd60e51b8152602060048201526012602482015271496e76616c69642070657263656e7461676560701b6044820152606490fd5b5060646084351115610d90565b60405162461bcd60e51b8152602060048201526024808201527f4f6e6c792074686520656d706c6f7965722063616e20616464206d696c6573746044820152636f6e657360e01b6064820152608490fd5b506003546004351115610d56565b346101215760003660031901126101215760006001600354905b8181111561152357506113ec82612094565b6113f5836120c6565b916113ff846120c6565b9361140981612094565b61141b61141583612094565b92612094565b92600060015b8281111561143e5750505061032993949560405196879687611f85565b80600052600060205260ff6004604060002001541660028110156101e657898960018a9314611479575b50505061147490612110565b611421565b611518926114d38680946114c688996004966114749a60005260006020526040600020966114a98389549261211f565b526114b660018801611d18565b6114c0838361211f565b5261211f565b506114b660028501611d18565b5060038101546114e3848a61211f565b5201546114fc60ff82166114f7848b61211f565b612133565b60081c6001600160a01b0316611512828a61211f565b52612110565b919050868989611468565b80600052600060205260ff6004604060002001541660028110156101e657600114611557575b61155290612110565b6113da565b9161156461155291612110565b929050611549565b346101215760203660031901126101215760043580151580611928575b6115929061213f565b6000526001602052604060002080546115aa8161207d565b916115b86040519384611cf5565b818352602083019060005260206000206000915b838310611875578451856115df82612094565b906115e983612094565b926115f3816120c6565b936115fd826120c6565b9461160783612094565b61161084612094565b6116198561207d565b916116276040519384611cf5565b8583526116338661207d565b602084019990601f1901368b3761164987612094565b9461165388612094565b9661165d89612094565b98611667816120c6565b9a8c60005b83811061176e57505050506040519a6101608c526101608c0161168e91611ebb565b8b810360208d015261169f91611ebb565b8a810360408c01526116b091611eef565b89810360608b01526116c191611eef565b88810360808a01526116d291611ebb565b87810360a08901526116e391611ebb565b9086820360c08801525190818152602001969060005b81811061174f57505050916117316117409261172288610329979689809b0360e08b0152611f48565b90878203610100890152611f48565b90858203610120870152611ebb565b90838203610140850152611eef565b909197602080826117636001948d51611eae565b0199019291016116f9565b611778818461211f565b51916117868284519261211f565b526020820151611796828761211f565b5260408201516117a6828861211f565b526117b1818761211f565b5060608201516117c1828961211f565b526117cc818861211f565b5060808201516117dc828a61211f565b5260a08201516117ec828b61211f565b5260c082015160058110156101e657818f8f8f958f918f976101409361182061186c9861181b8960019d61211f565b612184565b611836878b8060a01b0360e0870151169261211f565b5261184e868a8060a01b03610100860151169261211f565b5261185f856101208401519261211f565b5201516114c0838361211f565b50018d9061166c565b600a602060019260405161188881611cbe565b8554815284860154838201526118a060028701611d18565b60408201526118b160038701611d18565b606082015260048601546080820152600586015460a082015260068601546118df60ff821660c08401612184565b60a086901b869003600891821c811660e084015260078801541661010083015286015461012082015261191460098701611d18565b6101408201528152019201920191906115cc565b50600354811115611589565b34610121576020366003190112610121576001600160a01b03611955611c6e565b1660005260026020526020604060002054604051908152f35b34610121576000366003190112610121576020600354604051908152f35b34610121576000366003190112610121576003546119a981612094565b906119b3816120c6565b916119bd826120c6565b6119c683612094565b6119cf84612094565b906119d985612094565b9260015b868111156119f75750604051968796506103299587611f85565b80600052600060205260406000209081546000198201908282116101fc57611a9d9361151291611a27848c61211f565b526000611a3b848e6114b660018601611d18565b5050611a4960028201611d18565b611a53848861211f565b52611a5e838761211f565b506004600382015491600092611a74868b61211f565b5201549050611a8a60ff82166114f7858b61211f565b60081c6001600160a01b0316918861211f565b6119dd565b3461012157611ab036611e66565b906000526001602052604060002090815481101561012157611ad191611e7c565b508054610329600183015492611ae960028201611d18565b611af560038301611d18565b916004810154926005820154600683015490611b5b60018060a01b0360078601541693611b4d611b2c600960088901549801611d18565b976040519c8d9c8d5260208d015261016060408d01526101608c0190611dbc565b908a820360608c0152611dbc565b95608089015260a0880152611b7660c0880160ff8316611eae565b60081c6001600160a01b031660e0870152610100860152610120850152838203610140850152611dbc565b3461012157602036600319011261012157600435600052600060205260406000208054610329611bd360018401611d18565b91611be060028501611d18565b600385015460048601546005909601546040519687966001600160a01b0392831695600883901c9093169460ff909216939288611e0a565b34610121576000366003190112610121576020600454604051908152f35b34610121576040366003190112610121576001600160a01b03611c57611c6e565b166000526002602052602435604060002055600080f35b600435906001600160a01b038216820361012157565b90600182811c92168015611cb4575b6020831014611c9e57565b634e487b7160e01b600052602260045260246000fd5b91607f1691611c93565b61016081019081106001600160401b0382111761056657604052565b60e081019081106001600160401b0382111761056657604052565b601f909101601f19168101906001600160401b0382119082101761056657604052565b9060405191826000825492611d2c84611c84565b8084529360018116908115611d9a5750600114611d53575b50611d5192500383611cf5565b565b90506000929192526020600020906000915b818310611d7e575050906020611d519282010138611d44565b6020919350806001915483858901015201910190918492611d65565b905060209250611d5194915060ff191682840152151560051b82010138611d44565b919082519283825260005b848110611de8575050826000602080949584010152601f8019910116010190565b80602080928401015182828601015201611dc7565b9060028210156101e65752565b9592611e4090611e32611e509460c098949b9a979b8a5260e060208b015260e08a0190611dbc565b9088820360408a0152611dbc565b9760608701526080860190611dfd565b6001600160a01b0390811660a085015216910152565b6040906003190112610121576004359060243590565b8054821015611e9857600052600a602060002091020190600090565b634e487b7160e01b600052603260045260246000fd5b9060058210156101e65752565b906020808351928381520192019060005b818110611ed95750505090565b8251845260209384019390920191600101611ecc565b9080602083519182815201916020808360051b8301019401926000915b838310611f1b57505050505090565b9091929394602080611f39600193601f198682030187528951611dbc565b97019301930191939290611f0c565b906020808351928381520192019060005b818110611f665750505090565b82516001600160a01b0316845260209384019390920191600101611f59565b9695939192611fb4611fd094611fa6611fc29460c08c5260c08c0190611ebb565b908a820360208c0152611eef565b9088820360408a0152611eef565b908682036060880152611ebb565b9380850360808201526020808451968781520193016000955b80871061200857505061200593945060a0818403910152611f48565b90565b90936020808261201b6001948951611dfd565b01950196019590611fe9565b81601f82011215610121578035906001600160401b038211610566576040519261205b601f8401601f191660200185611cf5565b8284526020838301011161012157816000926020809301838601378301015290565b6001600160401b0381116105665760051b60200190565b9061209e8261207d565b6120ab6040519182611cf5565b82815280926120bc601f199161207d565b0190602036910137565b906120d08261207d565b6120dd6040519182611cf5565b82815280926120ee601f199161207d565b019060005b8281106120ff57505050565b8060606020809385010152016120f3565b60001981146101fc5760010190565b8051821015611e985760209160051b010190565b60028210156101e65752565b1561214657565b60405162461bcd60e51b8152602060048201526016602482015275141c9bda9958dd08191bd95cc81b9bdd08195e1a5cdd60521b6044820152606490fd5b60058210156101e65752565b9060058110156101e65760ff80198354169116179055565b8054610100600160a81b03191660089290921b610100600160a81b0316919091179055565b156121d457565b60405162461bcd60e51b8152602060048201526018602482015277135a5b195cdd1bdb9948191bd95cc81b9bdd08195e1a5cdd60421b6044820152606490fdfea242dc265ec329d765b4d1175eb5f3d36f052da4b6bf61b340d71ca9846ca7a2c67423104bf96f5ca8826913ae711e8c2254e1b2c04af907b2312853ed4cbed2a2646970667358221220a20d0fb8b03f36999af2459aa1bb2641bf10a2cabe2204b89fd1996beec2be7464736f6c63430008220033",
  "immutableReferences": {},
  "source": "// SPDX-License-Identifier: MIT\r\npragma solidity >=0.8.7;\r\n\r\n// import \"./RequestManager.sol\";\r\n\r\ncontract Projects {\r\n    \r\n    enum Status { Closed, Open }\r\n\r\n    enum MilestoneStatus { Pending, Submitted, Approved, Disputed, Resolved }\r\n\r\n    struct Project {\r\n        uint id;\r\n        string name;\r\n        string description;\r\n        uint reward;\r\n        Status status;\r\n        address employer;\r\n        address assignedFreelancer;\r\n    }\r\n\r\n    struct Milestone {\r\n        uint id;\r\n        uint projectId;\r\n        string name;\r\n        string description;\r\n        uint daycount;\r\n        uint percentage;\r\n        MilestoneStatus status;\r\n        address freelancer;\r\n        address client;\r\n        uint amount;\r\n        string proofFileHash; // To store proof file hash\r\n    }\r\n\r\n    mapping(uint => Project) public projects;\r\n    mapping(uint => Milestone[]) public milestones;\r\n    mapping(address => uint) public freelancerRatings; // Map freelancer address to their rating (in basis points out of 5 * 100)\r\n\r\n    uint public projectCount;\r\n    uint public milestoneCount;\r\n    address public requestManager;\r\n    address public owner;\r\n\r\n    event ProjectAdded(uint id, string name, address employer);\r\n    event MilestoneAdded(uint projectId, uint milestoneId, string name, uint percentage);\r\n    event MilestoneProofUploaded(uint projectId, uint milestoneId, string proofFileHash);\r\n    // constructor(address _requestManager) {\r\n    //     requestManager = RequestManager(_requestManager);\r\n    // }\r\n\r\n    constructor() {\r\n        owner = msg.sender;\r\n    }\r\n\r\n    function setRequestManager(address _requestManager) public {\r\n        require(owner == msg.sender, \"Only owner can set RequestManager\");\r\n        require(_requestManager != address(0), \"Invalid RequestManager address\");\r\n        require(requestManager == address(0), \"RequestManager already set\");\r\n        requestManager = _requestManager;\r\n    }\r\n\r\n    function addProject(string memory _name, string memory _description, uint _reward) public {\r\n        projectCount++;\r\n        projects[projectCount] = Project({\r\n            id: projectCount,\r\n            name: _name,\r\n            description: _description,\r\n            reward: _reward,\r\n            status: Status.Open,\r\n            employer: msg.sender,\r\n            assignedFreelancer: address(0)\r\n        });\r\n\r\n        emit ProjectAdded(projectCount, _name, msg.sender);\r\n    }\r\n\r\n    function addMilestone(uint _projectId, string memory _name, string memory _description, uint _daycount, uint _percentage) public {\r\n        require(_projectId > 0 && _projectId <= projectCount, \"Project does not exist\");\r\n        require(msg.sender == projects[_projectId].employer, \"Only the employer can add milestones\");\r\n        require(_percentage > 0 && _percentage <= 100, \"Invalid percentage\");\r\n\r\n        milestoneCount++;\r\n        uint amount = (projects[_projectId].reward * _percentage) / 100;\r\n        milestones[_projectId].push(Milestone({\r\n            id: milestoneCount,\r\n            projectId: _projectId,\r\n            name: _name,\r\n            description: _description,\r\n            daycount: _daycount,\r\n            percentage: _percentage,\r\n            status: MilestoneStatus.Pending,\r\n            freelancer: address(0),\r\n            client: projects[_projectId].employer,\r\n            amount: amount,\r\n            proofFileHash: \"\" // Initialize proof file hash as empty\r\n        }));\r\n\r\n        emit MilestoneAdded(_projectId, milestoneCount, _name, _percentage);\r\n    }\r\n\r\n    function uploadMilestoneProof(uint _projectId, uint _milestoneId, address _freelancer, string memory _proofFileHash) public {\r\n        require(_projectId > 0 && _projectId <= projectCount, \"Project does not exist\");\r\n        require(msg.sender == _freelancer, \"Only the assigned freelancer can upload proof\");\r\n\r\n        // Check if the milestone exists\r\n        require(_milestoneId > 0 && _milestoneId <= milestones[_projectId].length, \"Invalid milestone ID\");\r\n\r\n        Milestone storage milestone = milestones[_projectId][_milestoneId - 1];\r\n        require(milestone.status == MilestoneStatus.Pending, \"Milestone not in pending state\");\r\n\r\n        // Store the proof file hash for the milestone\r\n        milestone.proofFileHash = _proofFileHash;\r\n        milestone.status = MilestoneStatus.Submitted;\r\n        milestone.freelancer = _freelancer;\r\n\r\n        emit MilestoneProofUploaded(_projectId, _milestoneId, _proofFileHash);\r\n    }\r\n\r\n\r\n\r\n    function getFreelancerRating(address _freelancer) public view returns (uint) {\r\n        return freelancerRatings[_freelancer];\r\n    }\r\n\r\n    function getProject(uint _id) public view returns (uint, string memory, string memory, uint, Status, address, address) {\r\n        require(_id > 0 && _id <= projectCount, \"Project does not exist\");\r\n        Project memory proj = projects[_id];\r\n        return (proj.id, proj.name, proj.description, proj.reward, proj.status, proj.employer, proj.assignedFreelancer);\r\n    }\r\n\r\n    function viewProjects() public view returns (\r\n        uint[] memory ids, \r\n        string[] memory names, \r\n        string[] memory descriptions, \r\n        uint[] memory rewards, \r\n        Status[] memory statuses, \r\n        address[] memory employers\r\n    ) {\r\n        ids = new uint[](projectCount);\r\n        names = new string[](projectCount);\r\n        descriptions = new string[](projectCount);\r\n        rewards = new uint[](projectCount);\r\n        statuses = new Status[](projectCount);\r\n        employers = new address[](projectCount);\r\n\r\n        for (uint i = 1; i <= projectCount; i++) {\r\n            Project storage proj = projects[i];\r\n            ids[i - 1] = proj.id;\r\n            names[i - 1] = proj.name;\r\n            descriptions[i - 1] = proj.description;\r\n            rewards[i - 1] = proj.reward;\r\n            statuses[i - 1] = proj.status;\r\n            employers[i - 1] = proj.employer;\r\n        }\r\n\r\n        return (ids, names, descriptions, rewards, statuses, employers);\r\n    }\r\n\r\n    function viewOpenProjects() public view returns (\r\n        uint[] memory ids, \r\n        string[] memory names, \r\n        string[] memory descriptions, \r\n        uint[] memory rewards, \r\n        Status[] memory statuses, \r\n        address[] memory employers\r\n    ) {\r\n        uint openCount = 0;\r\n        for (uint i = 1; i <= projectCount; i++) {\r\n            if (projects[i].status == Status.Open) {\r\n                openCount++;\r\n            }\r\n        }\r\n\r\n        ids = new uint[](openCount);\r\n        names = new string[](openCount);\r\n        descriptions = new string[](openCount);\r\n        rewards = new uint[](openCount);\r\n        statuses = new Status[](openCount);\r\n        employers = new address[](openCount);\r\n\r\n        uint index = 0;\r\n        for (uint i = 1; i <= projectCount; i++) {\r\n            if (projects[i].status == Status.Open) {\r\n                Project storage proj = projects[i];\r\n                ids[index] = proj.id;\r\n                names[index] = proj.name;\r\n                descriptions[index] = proj.description;\r\n                rewards[index] = proj.reward;\r\n                statuses[index] = proj.status;\r\n                employers[index] = proj.employer;\r\n                index++;\r\n            }\r\n        }\r\n\r\n        return (ids, names, descriptions, rewards, statuses, employers);\r\n    }\r\n\r\n    function getMilestones(uint _projectId) \r\n        public view \r\n        returns (\r\n            uint[] memory ids, \r\n            uint[] memory projectIds, \r\n            string[] memory names, \r\n            string[] memory descriptions, \r\n            uint[] memory daycounts, \r\n            uint[] memory percentages, \r\n            MilestoneStatus[] memory statuses,\r\n            address[] memory freelancers,\r\n            address[] memory clients,\r\n            uint[] memory amounts,\r\n            string[] memory proofFileHashes\r\n        ) \r\n    {\r\n        require(_projectId > 0 && _projectId <= projectCount, \"Project does not exist\");\r\n\r\n        Milestone[] memory projectMilestones = milestones[_projectId];\r\n        uint milestonesCount = projectMilestones.length;\r\n\r\n        // Initialize arrays for each field in Milestone\r\n        ids = new uint[](milestonesCount);\r\n        projectIds = new uint[](milestonesCount);\r\n        names = new string[](milestonesCount);\r\n        descriptions = new string[](milestonesCount);\r\n        daycounts = new uint[](milestonesCount);\r\n        percentages = new uint[](milestonesCount);\r\n        statuses = new MilestoneStatus[](milestonesCount);\r\n        freelancers = new address[](milestonesCount);\r\n        clients = new address[](milestonesCount);\r\n        amounts = new uint[](milestonesCount);\r\n        proofFileHashes = new string[](milestonesCount);\r\n\r\n        // Populate each array with the corresponding data from each milestone\r\n        for (uint i = 0; i < milestonesCount; i++) {\r\n            Milestone memory milestone = projectMilestones[i];\r\n            ids[i] = milestone.id;\r\n            projectIds[i] = milestone.projectId;\r\n            names[i] = milestone.name;\r\n            descriptions[i] = milestone.description;\r\n            daycounts[i] = milestone.daycount;\r\n            percentages[i] = milestone.percentage;\r\n            statuses[i] = milestone.status;\r\n            freelancers[i] = milestone.freelancer;\r\n            clients[i] = milestone.client;\r\n            amounts[i] = milestone.amount;\r\n            proofFileHashes[i] = milestone.proofFileHash;\r\n        }\r\n\r\n        return (\r\n            ids, \r\n            projectIds, \r\n            names, \r\n            descriptions, \r\n            daycounts, \r\n            percentages, \r\n            statuses,\r\n            freelancers,\r\n            clients,\r\n            amounts,\r\n            proofFileHashes\r\n        );\r\n    }\r\n\r\n    function closeProject(uint _id) public {\r\n        require(_id > 0 && _id <= projectCount, \"Project does not exist\");\r\n        Project storage proj = projects[_id];\r\n        require(msg.sender == proj.employer || msg.sender == requestManager, \"Only the employer or RequestManager can close this project\");\r\n        proj.status = Status.Closed;\r\n    }\r\n\r\n    function completeMilestone(uint _projectId, uint _milestoneId) public {\r\n        require(_projectId > 0 && _projectId <= projectCount, \"Project does not exist\");\r\n        require(_milestoneId > 0 && _milestoneId <= milestones[_projectId].length, \"Milestone does not exist\");\r\n        \r\n        Milestone storage milestone = milestones[_projectId][_milestoneId - 1];\r\n        require(milestone.status == MilestoneStatus.Submitted, \"Milestone not in submitted state\");\r\n        \r\n        milestone.status = MilestoneStatus.Approved; // Mark the milestone as approved\r\n    }\r\n\r\n    function setMilestoneStatus(uint _projectId, uint _milestoneId, MilestoneStatus _status) public {\r\n        require(_projectId > 0 && _projectId <= projectCount, \"Project does not exist\");\r\n        require(_milestoneId > 0 && _milestoneId <= milestones[_projectId].length, \"Milestone does not exist\");\r\n        \r\n        milestones[_projectId][_milestoneId - 1].status = _status;\r\n    }\r\n\r\n    function setFreelancerRating(address _freelancer, uint _rating) public {\r\n        // Ensure only the owner of the contract can set the rating\r\n        // require(msg.sender == owner, \"Only the owner can set the rating\"); // Adjust ownership logic as necessary\r\n        freelancerRatings[_freelancer] = _rating;\r\n    }\r\n\r\n\r\n}\r\n",
  "sourcePath": "C:\\Users\\malik\\OneDrive\\Desktop\\BTECH\\Final_year_project\\Lance-With-quote\\truffle_project\\contracts\\Projects.sol",
  "compiler": {
    "name": "solc",
    "version": "0.8.34+commit.80d5c536.Emscripten.clang"
  },
  "schemaVersion": "3.4.16",
  "updatedAt": "2026-04-19T17:46:59.602Z",
  "devdoc": {
    "kind": "dev",
    "methods": {},
    "version": 1
  },
  "userdoc": {
    "kind": "user",
    "methods": {},
    "version": 1
  }
}