{
  "contractName": "Projects",
  "abi": [
    {
      "anonymous": false,
      "inputs": [
        {
          "indexed": false,
          "internalType": "uint256",
          "name": "projectId",
          "type": "uint256"
        },
        {
          "indexed": false,
          "internalType": "uint256",
          "name": "milestoneId",
          "type": "uint256"
        },
        {
          "indexed": false,
          "internalType": "string",
          "name": "name",
          "type": "string"
        },
        {
          "indexed": false,
          "internalType": "uint256",
          "name": "percentage",
          "type": "uint256"
        }
      ],
      "name": "MilestoneAdded",
      "type": "event"
    },
    {
      "anonymous": false,
      "inputs": [
        {
          "indexed": false,
          "internalType": "uint256",
          "name": "id",
          "type": "uint256"
        },
        {
          "indexed": false,
          "internalType": "string",
          "name": "name",
          "type": "string"
        },
        {
          "indexed": false,
          "internalType": "address",
          "name": "employer",
          "type": "address"
        }
      ],
      "name": "ProjectAdded",
      "type": "event"
    },
    {
      "inputs": [],
      "name": "milestoneCount",
      "outputs": [
        {
          "internalType": "uint256",
          "name": "",
          "type": "uint256"
        }
      ],
      "stateMutability": "view",
      "type": "function",
      "constant": true
    },
    {
      "inputs": [
        {
          "internalType": "uint256",
          "name": "",
          "type": "uint256"
        },
        {
          "internalType": "uint256",
          "name": "",
          "type": "uint256"
        }
      ],
      "name": "milestones",
      "outputs": [
        {
          "internalType": "uint256",
          "name": "id",
          "type": "uint256"
        },
        {
          "internalType": "uint256",
          "name": "projectId",
          "type": "uint256"
        },
        {
          "internalType": "string",
          "name": "name",
          "type": "string"
        },
        {
          "internalType": "string",
          "name": "description",
          "type": "string"
        },
        {
          "internalType": "uint256",
          "name": "daycount",
          "type": "uint256"
        },
        {
          "internalType": "uint256",
          "name": "percentage",
          "type": "uint256"
        },
        {
          "internalType": "bool",
          "name": "completed",
          "type": "bool"
        }
      ],
      "stateMutability": "view",
      "type": "function",
      "constant": true
    },
    {
      "inputs": [],
      "name": "projectCount",
      "outputs": [
        {
          "internalType": "uint256",
          "name": "",
          "type": "uint256"
        }
      ],
      "stateMutability": "view",
      "type": "function",
      "constant": true
    },
    {
      "inputs": [
        {
          "internalType": "uint256",
          "name": "",
          "type": "uint256"
        }
      ],
      "name": "projects",
      "outputs": [
        {
          "internalType": "uint256",
          "name": "id",
          "type": "uint256"
        },
        {
          "internalType": "string",
          "name": "name",
          "type": "string"
        },
        {
          "internalType": "string",
          "name": "description",
          "type": "string"
        },
        {
          "internalType": "uint256",
          "name": "reward",
          "type": "uint256"
        },
        {
          "internalType": "enum Projects.Status",
          "name": "status",
          "type": "uint8"
        },
        {
          "internalType": "address",
          "name": "employer",
          "type": "address"
        },
        {
          "internalType": "address",
          "name": "assignedFreelancer",
          "type": "address"
        }
      ],
      "stateMutability": "view",
      "type": "function",
      "constant": true
    },
    {
      "inputs": [
        {
          "internalType": "string",
          "name": "_name",
          "type": "string"
        },
        {
          "internalType": "string",
          "name": "_description",
          "type": "string"
        },
        {
          "internalType": "uint256",
          "name": "_reward",
          "type": "uint256"
        }
      ],
      "name": "addProject",
      "outputs": [],
      "stateMutability": "nonpayable",
      "type": "function"
    },
    {
      "inputs": [
        {
          "internalType": "uint256",
          "name": "_projectId",
          "type": "uint256"
        },
        {
          "internalType": "string",
          "name": "_name",
          "type": "string"
        },
        {
          "internalType": "string",
          "name": "_description",
          "type": "string"
        },
        {
          "internalType": "uint256",
          "name": "_daycount",
          "type": "uint256"
        },
        {
          "internalType": "uint256",
          "name": "_percentage",
          "type": "uint256"
        }
      ],
      "name": "addMilestone",
      "outputs": [],
      "stateMutability": "nonpayable",
      "type": "function"
    },
    {
      "inputs": [
        {
          "internalType": "uint256",
          "name": "_id",
          "type": "uint256"
        }
      ],
      "name": "getProject",
      "outputs": [
        {
          "internalType": "uint256",
          "name": "",
          "type": "uint256"
        },
        {
          "internalType": "string",
          "name": "",
          "type": "string"
        },
        {
          "internalType": "string",
          "name": "",
          "type": "string"
        },
        {
          "internalType": "uint256",
          "name": "",
          "type": "uint256"
        },
        {
          "internalType": "enum Projects.Status",
          "name": "",
          "type": "uint8"
        },
        {
          "internalType": "address",
          "name": "",
          "type": "address"
        },
        {
          "internalType": "address",
          "name": "",
          "type": "address"
        }
      ],
      "stateMutability": "view",
      "type": "function",
      "constant": true
    },
    {
      "inputs": [],
      "name": "viewProjects",
      "outputs": [
        {
          "internalType": "uint256[]",
          "name": "ids",
          "type": "uint256[]"
        },
        {
          "internalType": "string[]",
          "name": "names",
          "type": "string[]"
        },
        {
          "internalType": "string[]",
          "name": "descriptions",
          "type": "string[]"
        },
        {
          "internalType": "uint256[]",
          "name": "rewards",
          "type": "uint256[]"
        },
        {
          "internalType": "enum Projects.Status[]",
          "name": "statuses",
          "type": "uint8[]"
        },
        {
          "internalType": "address[]",
          "name": "employers",
          "type": "address[]"
        },
        {
          "internalType": "address[]",
          "name": "assignedFreelancers",
          "type": "address[]"
        }
      ],
      "stateMutability": "view",
      "type": "function",
      "constant": true
    },
    {
      "inputs": [],
      "name": "viewOpenProjects",
      "outputs": [
        {
          "internalType": "uint256[]",
          "name": "ids",
          "type": "uint256[]"
        },
        {
          "internalType": "string[]",
          "name": "names",
          "type": "string[]"
        },
        {
          "internalType": "string[]",
          "name": "descriptions",
          "type": "string[]"
        },
        {
          "internalType": "uint256[]",
          "name": "rewards",
          "type": "uint256[]"
        },
        {
          "internalType": "enum Projects.Status[]",
          "name": "statuses",
          "type": "uint8[]"
        },
        {
          "internalType": "address[]",
          "name": "employers",
          "type": "address[]"
        },
        {
          "internalType": "address[]",
          "name": "assignedFreelancers",
          "type": "address[]"
        }
      ],
      "stateMutability": "view",
      "type": "function",
      "constant": true
    },
    {
      "inputs": [
        {
          "internalType": "uint256",
          "name": "_projectId",
          "type": "uint256"
        }
      ],
      "name": "getMilestones",
      "outputs": [
        {
          "internalType": "uint256[]",
          "name": "ids",
          "type": "uint256[]"
        },
        {
          "internalType": "uint256[]",
          "name": "projectIds",
          "type": "uint256[]"
        },
        {
          "internalType": "string[]",
          "name": "names",
          "type": "string[]"
        },
        {
          "internalType": "string[]",
          "name": "descriptions",
          "type": "string[]"
        },
        {
          "internalType": "uint256[]",
          "name": "daycounts",
          "type": "uint256[]"
        },
        {
          "internalType": "uint256[]",
          "name": "percentages",
          "type": "uint256[]"
        },
        {
          "internalType": "bool[]",
          "name": "completions",
          "type": "bool[]"
        }
      ],
      "stateMutability": "view",
      "type": "function",
      "constant": true
    },
    {
      "inputs": [
        {
          "internalType": "uint256",
          "name": "_id",
          "type": "uint256"
        }
      ],
      "name": "closeProject",
      "outputs": [],
      "stateMutability": "nonpayable",
      "type": "function"
    },
    {
      "inputs": [
        {
          "internalType": "uint256",
          "name": "_projectId",
          "type": "uint256"
        },
        {
          "internalType": "uint256",
          "name": "_milestoneId",
          "type": "uint256"
        }
      ],
      "name": "completeMilestone",
      "outputs": [],
      "stateMutability": "nonpayable",
      "type": "function"
    }
  ],
  "bytecode": "0x6080604052348015600f57600080fd5b506123f08061001f6000396000f3fe608060405234801561001057600080fd5b50600436106100d1576000357c01000000000000000000000000000000000000000000000000000000009004806353eef0601161008e57806353eef06014610188578063563700d5146101905780635fd4f758146101a557806393dc12e6146101b8578063f0f3f2c8146101cb578063f326206b146101de57600080fd5b80630681ca55146100d6578063107046bd146100f25780631c376c6314610118578063310f94111461013e57806336fbad261461015957806342c549c014610162575b600080fd5b6100df60035481565b6040519081526020015b60405180910390f35b610105610100366004611be7565b6101f1565b6040516100e99796959493929190611c84565b61012b610126366004611cef565b61034d565b6040516100e99796959493929190611d11565b6101466104c1565b6040516100e99796959493929190611e36565b6100df60025481565b610175610170366004611be7565b61099c565b6040516100e99796959493929190611efb565b610146610e42565b6101a361019e366004612064565b61136e565b005b6101a36101b33660046120e8565b6115ad565b6101a36101c6366004611be7565b61171b565b6101056101d9366004611be7565b6117f2565b6101a36101ec366004611cef565b611a17565b600060208190529081526040902080546001820180549192916102139061215b565b80601f016020809104026020016040519081016040528092919081815260200182805461023f9061215b565b801561028c5780601f106102615761010080835404028352916020019161028c565b820191906000526020600020905b81548152906001019060200180831161026f57829003601f168201915b5050505050908060020180546102a19061215b565b80601f01602080910402602001604051908101604052809291908181526020018280546102cd9061215b565b801561031a5780601f106102ef5761010080835404028352916020019161031a565b820191906000526020600020905b8154815290600101906020018083116102fd57829003601f168201915b505050600384015460048501546005909501549394909360ff82169350600160a060020a03610100909204821692501687565b6001602052816000526040600020818154811061036957600080fd5b9060005260206000209060070201600091509150508060000154908060010154908060020180546103999061215b565b80601f01602080910402602001604051908101604052809291908181526020018280546103c59061215b565b80156104125780601f106103e757610100808354040283529160200191610412565b820191906000526020600020905b8154815290600101906020018083116103f557829003601f168201915b5050505050908060030180546104279061215b565b80601f01602080910402602001604051908101604052809291908181526020018280546104539061215b565b80156104a05780601f10610475576101008083540402835291602001916104a0565b820191906000526020600020905b81548152906001019060200180831161048357829003601f168201915b50505050600483015460058401546006909401549293909290915060ff1687565b606080606080606080606060025467ffffffffffffffff8111156104e7576104e7611fbc565b604051908082528060200260200182016040528015610510578160200160208202803683370190505b50965060025467ffffffffffffffff81111561052e5761052e611fbc565b60405190808252806020026020018201604052801561056157816020015b606081526020019060019003908161054c5790505b50955060025467ffffffffffffffff81111561057f5761057f611fbc565b6040519080825280602002602001820160405280156105b257816020015b606081526020019060019003908161059d5790505b50945060025467ffffffffffffffff8111156105d0576105d0611fbc565b6040519080825280602002602001820160405280156105f9578160200160208202803683370190505b50935060025467ffffffffffffffff81111561061757610617611fbc565b604051908082528060200260200182016040528015610640578160200160208202803683370190505b50925060025467ffffffffffffffff81111561065e5761065e611fbc565b604051908082528060200260200182016040528015610687578160200160208202803683370190505b50915060025467ffffffffffffffff8111156106a5576106a5611fbc565b6040519080825280602002602001820160405280156106ce578160200160208202803683370190505b50905060015b60025481116109925760008181526020819052604090208054896106f96001856121b1565b81518110610709576107096121ca565b6020026020010181815250508060010180546107249061215b565b80601f01602080910402602001604051908101604052809291908181526020018280546107509061215b565b801561079d5780601f106107725761010080835404028352916020019161079d565b820191906000526020600020905b81548152906001019060200180831161078057829003601f168201915b5050505050886001846107b091906121b1565b815181106107c0576107c06121ca565b60200260200101819052508060020180546107da9061215b565b80601f01602080910402602001604051908101604052809291908181526020018280546108069061215b565b80156108535780601f1061082857610100808354040283529160200191610853565b820191906000526020600020905b81548152906001019060200180831161083657829003601f168201915b50505050508760018461086691906121b1565b81518110610876576108766121ca565b60209081029190910101526003810154866108926001856121b1565b815181106108a2576108a26121ca565b6020908102919091010152600481015460ff16856108c16001856121b1565b815181106108d1576108d16121ca565b602002602001019060018111156108ea576108ea611c46565b908160018111156108fd576108fd611c46565b90525060048101546101009004600160a060020a03168461091f6001856121b1565b8151811061092f5761092f6121ca565b600160a060020a039283166020918202929092010152600582015416836109576001856121b1565b81518110610967576109676121ca565b600160a060020a0390921660209283029190910190910152508061098a816121e3565b9150506106d4565b5090919293949596565b60608060608060608060606000881180156109b957506002548811155b6109e15760405160e560020a62461bcd0281526004016109d8906121fc565b60405180910390fd5b6000888152600160205260409020548067ffffffffffffffff811115610a0957610a09611fbc565b604051908082528060200260200182016040528015610a32578160200160208202803683370190505b5097508067ffffffffffffffff811115610a4e57610a4e611fbc565b604051908082528060200260200182016040528015610a77578160200160208202803683370190505b5096508067ffffffffffffffff811115610a9357610a93611fbc565b604051908082528060200260200182016040528015610ac657816020015b6060815260200190600190039081610ab15790505b5095508067ffffffffffffffff811115610ae257610ae2611fbc565b604051908082528060200260200182016040528015610b1557816020015b6060815260200190600190039081610b005790505b5094508067ffffffffffffffff811115610b3157610b31611fbc565b604051908082528060200260200182016040528015610b5a578160200160208202803683370190505b5093508067ffffffffffffffff811115610b7657610b76611fbc565b604051908082528060200260200182016040528015610b9f578160200160208202803683370190505b5092508067ffffffffffffffff811115610bbb57610bbb611fbc565b604051908082528060200260200182016040528015610be4578160200160208202803683370190505b50915060005b81811015610e355760008a8152600160205260408120805483908110610c1257610c126121ca565b9060005260206000209060070201905080600001548a8381518110610c3957610c396121ca565b6020026020010181815250508a898381518110610c5857610c586121ca565b602002602001018181525050806002018054610c739061215b565b80601f0160208091040260200160405190810160405280929190818152602001828054610c9f9061215b565b8015610cec5780601f10610cc157610100808354040283529160200191610cec565b820191906000526020600020905b815481529060010190602001808311610ccf57829003601f168201915b5050505050888381518110610d0357610d036121ca565b6020026020010181905250806003018054610d1d9061215b565b80601f0160208091040260200160405190810160405280929190818152602001828054610d499061215b565b8015610d965780601f10610d6b57610100808354040283529160200191610d96565b820191906000526020600020905b815481529060010190602001808311610d7957829003601f168201915b5050505050878381518110610dad57610dad6121ca565b60200260200101819052508060040154868381518110610dcf57610dcf6121ca565b6020026020010181815250508060050154858381518110610df257610df26121ca565b60209081029190910101526006810154845160ff90911690859084908110610e1c57610e1c6121ca565b9115156020928302919091019091015250600101610bea565b5050919395979092949650565b6060808080808080600060015b6002548111610ea557600160008281526020819052604090206004015460ff166001811115610e8057610e80611c46565b03610e935781610e8f816121e3565b9250505b80610e9d816121e3565b915050610e4f565b508067ffffffffffffffff811115610ebf57610ebf611fbc565b604051908082528060200260200182016040528015610ee8578160200160208202803683370190505b5097508067ffffffffffffffff811115610f0457610f04611fbc565b604051908082528060200260200182016040528015610f3757816020015b6060815260200190600190039081610f225790505b5096508067ffffffffffffffff811115610f5357610f53611fbc565b604051908082528060200260200182016040528015610f8657816020015b6060815260200190600190039081610f715790505b5095508067ffffffffffffffff811115610fa257610fa2611fbc565b604051908082528060200260200182016040528015610fcb578160200160208202803683370190505b5094508067ffffffffffffffff811115610fe757610fe7611fbc565b604051908082528060200260200182016040528015611010578160200160208202803683370190505b5093508067ffffffffffffffff81111561102c5761102c611fbc565b604051908082528060200260200182016040528015611055578160200160208202803683370190505b5092508067ffffffffffffffff81111561107157611071611fbc565b60405190808252806020026020018201604052801561109a578160200160208202803683370190505b509150600060015b600254811161136257600160008281526020819052604090206004015460ff1660018111156110d3576110d3611c46565b0361135057600081815260208190526040902080548b518c90859081106110fc576110fc6121ca565b6020026020010181815250508060010180546111179061215b565b80601f01602080910402602001604051908101604052809291908181526020018280546111439061215b565b80156111905780601f1061116557610100808354040283529160200191611190565b820191906000526020600020905b81548152906001019060200180831161117357829003601f168201915b50505050508a84815181106111a7576111a76121ca565b60200260200101819052508060020180546111c19061215b565b80601f01602080910402602001604051908101604052809291908181526020018280546111ed9061215b565b801561123a5780601f1061120f5761010080835404028352916020019161123a565b820191906000526020600020905b81548152906001019060200180831161121d57829003601f168201915b5050505050898481518110611251576112516121ca565b60200260200101819052508060030154888481518110611273576112736121ca565b60209081029190910101526004810154875160ff9091169088908590811061129d5761129d6121ca565b602002602001019060018111156112b6576112b6611c46565b908160018111156112c9576112c9611c46565b815250508060040160019054906101000a9004600160a060020a03168684815181106112f7576112f76121ca565b600160a060020a03928316602091820292909201015260058201548651911690869085908110611329576113296121ca565b600160a060020a03909216602092830291909101909101528261134b816121e3565b935050505b8061135a816121e3565b9150506110a2565b50505090919293949596565b60008511801561138057506002548511155b61139f5760405160e560020a62461bcd0281526004016109d8906121fc565b6000858152602081905260409020600401546101009004600160a060020a031633146114355760405160e560020a62461bcd028152602060048201526024808201527f4f6e6c792074686520656d706c6f7965722063616e20616464206d696c65737460448201527f6f6e65730000000000000000000000000000000000000000000000000000000060648201526084016109d8565b600081118015611446575060648111155b6114955760405160e560020a62461bcd02815260206004820152601260248201527f496e76616c69642070657263656e74616765000000000000000000000000000060448201526064016109d8565b600380549060006114a5836121e3565b90915550506000858152600160208181526040808420815160e08101835260035481528084018b81529281018a8152606082018a90526080820189905260a0820188905260c0820187905282548087018455928752939095208551600790920201908155905192810192909255516002820190611522908261228f565b5060608201516003820190611537908261228f565b506080820151600482015560a0820151600582015560c0909101516006909101805460ff19169115159190911790556003546040517fc67423104bf96f5ca8826913ae711e8c2254e1b2c04af907b2312853ed4cbed29161159e9188919088908690612358565b60405180910390a15050505050565b600280549060006115bd836121e3565b91905055506040518060e0016040528060025481526020018481526020018381526020018281526020016001808111156115f9576115f9611c46565b8152336020808301919091526000604092830181905260025481528082529190912082518155908201516001820190611632908261228f565b5060408201516002820190611647908261228f565b5060608201516003820155608082015160048201805460ff19166001838181111561167457611674611c46565b021790555060a082015160048201805474ffffffffffffffffffffffffffffffffffffffff001916610100600160a060020a039384160217905560c0909201516005909101805473ffffffffffffffffffffffffffffffffffffffff1916919092161790556002546040517f0c37be42d09c868de3d7b2154026972d847472b2d254f8f2f6a8f1be3a450e6a9161170e9186903390612388565b60405180910390a1505050565b60008111801561172d57506002548111155b61174c5760405160e560020a62461bcd0281526004016109d8906121fc565b600081815260208190526040902060048101546101009004600160a060020a031633146117e45760405160e560020a62461bcd02815260206004820152602860248201527f4f6e6c792074686520656d706c6f7965722063616e20636c6f7365207468697360448201527f2070726f6a65637400000000000000000000000000000000000000000000000060648201526084016109d8565b600401805460ff1916905550565b600060608060008060008060008811801561180f57506002548811155b61182e5760405160e560020a62461bcd0281526004016109d8906121fc565b60008060008a81526020019081526020016000206040518060e0016040529081600082015481526020016001820180546118679061215b565b80601f01602080910402602001604051908101604052809291908181526020018280546118939061215b565b80156118e05780601f106118b5576101008083540402835291602001916118e0565b820191906000526020600020905b8154815290600101906020018083116118c357829003601f168201915b505050505081526020016002820180546118f99061215b565b80601f01602080910402602001604051908101604052809291908181526020018280546119259061215b565b80156119725780601f1061194757610100808354040283529160200191611972565b820191906000526020600020905b81548152906001019060200180831161195557829003601f168201915b505050918352505060038201546020820152600482015460409091019060ff1660018111156119a3576119a3611c46565b60018111156119b4576119b4611c46565b815260048201546101009004600160a060020a0390811660208084019190915260059093015416604091820152825191830151908301516060840151608085015160a086015160c090960151949f939e50919c509a509850919650945092505050565b600082118015611a2957506002548211155b611a485760405160e560020a62461bcd0281526004016109d8906121fc565b6000828152602081905260409020600401546101009004600160a060020a03163314611adf5760405160e560020a62461bcd02815260206004820152603260248201527f4f6e6c792074686520656d706c6f7965722063616e206d61726b206d696c657360448201527f746f6e657320617320636f6d706c65746564000000000000000000000000000060648201526084016109d8565b600082815260016020526040812090805b8254811015611b6a5783838281548110611b0c57611b0c6121ca565b90600052602060002090600702016000015403611b62576001838281548110611b3757611b376121ca565b60009182526020909120600790910201600601805460ff191691151591909117905560019150611b6a565b600101611af0565b5080611be15760405160e560020a62461bcd02815260206004820152602860248201527f4d696c6573746f6e6520646f6573206e6f7420657869737420696e207468697360448201527f2070726f6a65637400000000000000000000000000000000000000000000000060648201526084016109d8565b50505050565b600060208284031215611bf957600080fd5b5035919050565b6000815180845260005b81811015611c2657602081850181015186830182015201611c0a565b506000602082860101526020601f19601f83011685010191505092915050565b60e060020a634e487b7102600052602160045260246000fd5b60028110611c805760e060020a634e487b7102600052602160045260246000fd5b9052565b87815260e060208201526000611c9d60e0830189611c00565b8281036040840152611caf8189611c00565b915050856060830152611cc56080830186611c5f565b600160a060020a03841660a0830152600160a060020a03831660c083015298975050505050505050565b60008060408385031215611d0257600080fd5b50508035926020909101359150565b87815286602082015260e060408201526000611d3060e0830188611c00565b8281036060840152611d428188611c00565b6080840196909652505060a0810192909252151560c090910152949350505050565b600081518084526020840193506020830160005b82811015611d96578151865260209586019590910190600101611d78565b5093949350505050565b600082825180855260208501945060208082028301016020850160005b83811015611def57601f19858403018852611dd9838351611c00565b6020988901989093509190910190600101611dbd565b50909695505050505050565b600081518084526020840193506020830160005b82811015611d96578151600160a060020a0316865260209586019590910190600101611e0f565b60e081526000611e4960e083018a611d64565b8281036020840152611e5b818a611da0565b90508281036040840152611e6f8189611da0565b90508281036060840152611e838188611d64565b83810360808501528651808252602080890193509091019060005b81811015611ec457611eb1838551611c5f565b6020938401939290920191600101611e9e565b505083810360a0850152611ed88187611dfb565b91505082810360c0840152611eed8185611dfb565b9a9950505050505050505050565b60e081526000611f0e60e083018a611d64565b8281036020840152611f20818a611d64565b90508281036040840152611f348189611da0565b90508281036060840152611f488188611da0565b90508281036080840152611f5c8187611d64565b905082810360a0840152611f708186611d64565b83810360c08501528451808252602080870193509091019060005b81811015611fab5783511515835260209384019390920191600101611f8b565b50909b9a5050505050505050505050565b60e060020a634e487b7102600052604160045260246000fd5b600082601f830112611fe657600080fd5b813567ffffffffffffffff81111561200057612000611fbc565b604051601f8201601f19908116603f0116810167ffffffffffffffff8111828210171561202f5761202f611fbc565b60405281815283820160200185101561204757600080fd5b816020850160208301376000918101602001919091529392505050565b600080600080600060a0868803121561207c57600080fd5b85359450602086013567ffffffffffffffff81111561209a57600080fd5b6120a688828901611fd5565b945050604086013567ffffffffffffffff8111156120c357600080fd5b6120cf88828901611fd5565b9598949750949560608101359550608001359392505050565b6000806000606084860312156120fd57600080fd5b833567ffffffffffffffff81111561211457600080fd5b61212086828701611fd5565b935050602084013567ffffffffffffffff81111561213d57600080fd5b61214986828701611fd5565b93969395505050506040919091013590565b60028104600182168061216f57607f821691505b6020821081036121925760e060020a634e487b7102600052602260045260246000fd5b50919050565b60e060020a634e487b7102600052601160045260246000fd5b818103818111156121c4576121c4612198565b92915050565b60e060020a634e487b7102600052603260045260246000fd5b6000600182016121f5576121f5612198565b5060010190565b60208082526016908201527f50726f6a65637420646f6573206e6f7420657869737400000000000000000000604082015260600190565b601f82111561228a578282111561228a578060005260206000206020601f8501046020851015612261575060005b908101906020601f8501040360005b8181101561228657600083820155600101612270565b5050505b505050565b815167ffffffffffffffff8111156122a9576122a9611fbc565b6122bd816122b7845461215b565b84612233565b6020601f8211600181146122f557600083156122d95750848201515b60088402600290810a6000190419821690850217855550612351565b600084815260208120601f198516915b828110156123255787850151825560209485019460019092019101612305565b50848210156123455783870151601f861660080260020a60001904191681555b50506001600284020184555b5050505050565b8481528360208201526080604082015260006123776080830185611c00565b905082606083015295945050505050565b8381526060602082015260006123a16060830185611c00565b9050600160a060020a038316604083015294935050505056fea26469706673582212201558b1255f1a78264f5369a77916039388898c08b8e9ac1f0ecf982c1979c58864736f6c63430008220033",
  "immutableReferences": {},
  "source": "// SPDX-License-Identifier: MIT\r\npragma solidity >=0.8.7;\r\n\r\ncontract Projects {\r\n    \r\n    enum Status { Closed, Open }\r\n\r\n    struct Project {\r\n        uint id;\r\n        string name;\r\n        string description;\r\n        uint reward;\r\n        Status status;\r\n        address employer;\r\n        address assignedFreelancer;\r\n    }\r\n\r\n    struct Milestone {\r\n        uint id;\r\n        uint projectId;\r\n        string name;\r\n        string description;\r\n        uint daycount;\r\n        uint percentage;\r\n        bool completed;\r\n    }\r\n\r\n    mapping(uint => Project) public projects;\r\n    mapping(uint => Milestone[]) public milestones;\r\n\r\n    uint public projectCount;\r\n    uint public milestoneCount;\r\n\r\n    event ProjectAdded(uint id, string name, address employer);\r\n    event MilestoneAdded(uint projectId, uint milestoneId, string name, uint percentage);\r\n\r\n    function addProject(string memory _name, string memory _description, uint _reward) public {\r\n        projectCount++;\r\n        projects[projectCount] = Project({\r\n            id: projectCount,\r\n            name: _name,\r\n            description: _description,\r\n            reward: _reward,\r\n            status: Status.Open,\r\n            employer: msg.sender,\r\n            assignedFreelancer: address(0)\r\n        });\r\n\r\n        emit ProjectAdded(projectCount, _name, msg.sender);\r\n    }\r\n\r\n    function addMilestone(uint _projectId, string memory _name, string memory _description, uint _daycount, uint _percentage) public {\r\n        require(_projectId > 0 && _projectId <= projectCount, \"Project does not exist\");\r\n        require(msg.sender == projects[_projectId].employer, \"Only the employer can add milestones\");\r\n        require(_percentage > 0 && _percentage <= 100, \"Invalid percentage\");\r\n\r\n        milestoneCount++;\r\n        milestones[_projectId].push(Milestone({\r\n            id: milestoneCount,\r\n            projectId: _projectId,\r\n            name: _name,\r\n            description: _description,\r\n            daycount: _daycount,\r\n            percentage: _percentage,\r\n            completed: false\r\n        }));\r\n\r\n        emit MilestoneAdded(_projectId, milestoneCount, _name, _percentage);\r\n    }\r\n\r\n    function getProject(uint _id) public view returns (uint, string memory, string memory, uint, Status, address, address) {\r\n        require(_id > 0 && _id <= projectCount, \"Project does not exist\");\r\n        Project memory proj = projects[_id];\r\n        return (proj.id, proj.name, proj.description, proj.reward, proj.status, proj.employer, proj.assignedFreelancer);\r\n    }\r\n\r\n    function viewProjects() public view returns (\r\n        uint[] memory ids, \r\n        string[] memory names, \r\n        string[] memory descriptions, \r\n        uint[] memory rewards, \r\n        Status[] memory statuses, \r\n        address[] memory employers,\r\n        address[] memory assignedFreelancers\r\n    ) {\r\n        ids = new uint[](projectCount);\r\n        names = new string[](projectCount);\r\n        descriptions = new string[](projectCount);\r\n        rewards = new uint[](projectCount);\r\n        statuses = new Status[](projectCount);\r\n        employers = new address[](projectCount);\r\n        assignedFreelancers = new address[](projectCount);\r\n\r\n        for (uint i = 1; i <= projectCount; i++) {\r\n            Project storage proj = projects[i];\r\n            ids[i - 1] = proj.id;\r\n            names[i - 1] = proj.name;\r\n            descriptions[i - 1] = proj.description;\r\n            rewards[i - 1] = proj.reward;\r\n            statuses[i - 1] = proj.status;\r\n            employers[i - 1] = proj.employer;\r\n            assignedFreelancers[i - 1] = proj.assignedFreelancer;\r\n        }\r\n\r\n        return (ids, names, descriptions, rewards, statuses, employers, assignedFreelancers);\r\n    }\r\n\r\n    function viewOpenProjects() public view returns (\r\n        uint[] memory ids, \r\n        string[] memory names, \r\n        string[] memory descriptions, \r\n        uint[] memory rewards, \r\n        Status[] memory statuses, \r\n        address[] memory employers,\r\n        address[] memory assignedFreelancers\r\n    ) {\r\n        uint openCount = 0;\r\n        for (uint i = 1; i <= projectCount; i++) {\r\n            if (projects[i].status == Status.Open) {\r\n                openCount++;\r\n            }\r\n        }\r\n\r\n        ids = new uint[](openCount);\r\n        names = new string[](openCount);\r\n        descriptions = new string[](openCount);\r\n        rewards = new uint[](openCount);\r\n        statuses = new Status[](openCount);\r\n        employers = new address[](openCount);\r\n        assignedFreelancers = new address[](openCount);\r\n\r\n        uint index = 0;\r\n        for (uint i = 1; i <= projectCount; i++) {\r\n            if (projects[i].status == Status.Open) {\r\n                Project storage proj = projects[i];\r\n                ids[index] = proj.id;\r\n                names[index] = proj.name;\r\n                descriptions[index] = proj.description;\r\n                rewards[index] = proj.reward;\r\n                statuses[index] = proj.status;\r\n                employers[index] = proj.employer;\r\n                assignedFreelancers[index] = proj.assignedFreelancer;\r\n                index++;\r\n            }\r\n        }\r\n\r\n        return (ids, names, descriptions, rewards, statuses, employers, assignedFreelancers);\r\n    }\r\n\r\nfunction getMilestones(uint _projectId) public view returns (\r\n    uint[] memory ids,\r\n    uint[] memory projectIds,\r\n    string[] memory names,\r\n    string[] memory descriptions,\r\n    uint[] memory daycounts,\r\n    uint[] memory percentages,\r\n    bool[] memory completions\r\n) {\r\n    require(_projectId > 0 && _projectId <= projectCount, \"Project does not exist\");\r\n    uint milestoneLength = milestones[_projectId].length;\r\n\r\n    ids = new uint[](milestoneLength);\r\n    projectIds = new uint[](milestoneLength);\r\n    names = new string[](milestoneLength);\r\n    descriptions = new string[](milestoneLength);\r\n    daycounts = new uint[](milestoneLength);\r\n    percentages = new uint[](milestoneLength);\r\n    completions = new bool[](milestoneLength);\r\n\r\n    for (uint i = 0; i < milestoneLength; i++) {\r\n        Milestone storage milestone = milestones[_projectId][i];\r\n        ids[i] = milestone.id;\r\n        projectIds[i] = _projectId;\r\n        names[i] = milestone.name;\r\n        descriptions[i] = milestone.description;\r\n        daycounts[i] = milestone.daycount;\r\n        percentages[i] = milestone.percentage;\r\n        completions[i] = milestone.completed;\r\n    }\r\n}\r\n\r\n\r\n    function closeProject(uint _id) public {\r\n        require(_id > 0 && _id <= projectCount, \"Project does not exist\");\r\n        Project storage proj = projects[_id];\r\n        require(msg.sender == proj.employer, \"Only the employer can close this project\");\r\n        proj.status = Status.Closed;\r\n    }\r\n\r\n    function completeMilestone(uint _projectId, uint _milestoneId) public {\r\n        require(_projectId > 0 && _projectId <= projectCount, \"Project does not exist\");\r\n        require(msg.sender == projects[_projectId].employer, \"Only the employer can mark milestones as completed\");\r\n\r\n        Milestone[] storage projectMilestones = milestones[_projectId];\r\n        bool found = false;\r\n\r\n        for (uint i = 0; i < projectMilestones.length; i++) {\r\n            if (projectMilestones[i].id == _milestoneId) {\r\n                projectMilestones[i].completed = true;\r\n                found = true;\r\n                break;\r\n            }\r\n        }\r\n\r\n        require(found, \"Milestone does not exist in this project\");\r\n    }\r\n}\r\n",
  "sourcePath": "C:\\Users\\malik\\OneDrive\\Desktop\\BTECH\\Final_year_project\\Lance-With-quote\\contracts\\Projects.sol",
  "compiler": {
    "name": "solc",
    "version": "0.8.34+commit.80d5c536.Emscripten.clang"
  },
  "schemaVersion": "3.4.16",
  "updatedAt": "2026-04-19T17:47:39.577Z",
  "networkType": "ethereum",
  "devdoc": {
    "kind": "dev",
    "methods": {},
    "version": 1
  },
  "userdoc": {
    "kind": "user",
    "methods": {},
    "version": 1
  }
}