{
  "contractName": "RequestManager",
  "abi": [
    {
      "inputs": [
        {
          "internalType": "address",
          "name": "_projectsContract",
          "type": "address"
        }
      ],
      "stateMutability": "nonpayable",
      "type": "constructor"
    },
    {
      "anonymous": false,
      "inputs": [
        {
          "indexed": false,
          "internalType": "uint256",
          "name": "projectId",
          "type": "uint256"
        },
        {
          "indexed": false,
          "internalType": "uint256",
          "name": "newAmount",
          "type": "uint256"
        }
      ],
      "name": "QuotationAccepted",
      "type": "event"
    },
    {
      "anonymous": false,
      "inputs": [
        {
          "indexed": false,
          "internalType": "uint256",
          "name": "projectId",
          "type": "uint256"
        },
        {
          "indexed": false,
          "internalType": "address",
          "name": "proposedBy",
          "type": "address"
        },
        {
          "indexed": false,
          "internalType": "uint256",
          "name": "amount",
          "type": "uint256"
        },
        {
          "indexed": false,
          "internalType": "string",
          "name": "notes",
          "type": "string"
        }
      ],
      "name": "QuotationCounterProposed",
      "type": "event"
    },
    {
      "anonymous": false,
      "inputs": [
        {
          "indexed": false,
          "internalType": "uint256",
          "name": "projectId",
          "type": "uint256"
        },
        {
          "indexed": false,
          "internalType": "address",
          "name": "proposedBy",
          "type": "address"
        },
        {
          "indexed": false,
          "internalType": "uint256",
          "name": "amount",
          "type": "uint256"
        }
      ],
      "name": "QuotationProposed",
      "type": "event"
    },
    {
      "anonymous": false,
      "inputs": [
        {
          "indexed": false,
          "internalType": "uint256",
          "name": "projectId",
          "type": "uint256"
        }
      ],
      "name": "QuotationRejected",
      "type": "event"
    },
    {
      "anonymous": false,
      "inputs": [
        {
          "indexed": false,
          "internalType": "uint256",
          "name": "projectId",
          "type": "uint256"
        },
        {
          "indexed": false,
          "internalType": "address",
          "name": "freelancer",
          "type": "address"
        },
        {
          "indexed": false,
          "internalType": "address",
          "name": "escrowContract",
          "type": "address"
        }
      ],
      "name": "RequestAccepted",
      "type": "event"
    },
    {
      "anonymous": false,
      "inputs": [
        {
          "indexed": false,
          "internalType": "uint256",
          "name": "projectId",
          "type": "uint256"
        },
        {
          "indexed": false,
          "internalType": "address",
          "name": "freelancer",
          "type": "address"
        }
      ],
      "name": "RequestRejected",
      "type": "event"
    },
    {
      "anonymous": false,
      "inputs": [
        {
          "indexed": false,
          "internalType": "uint256",
          "name": "projectId",
          "type": "uint256"
        },
        {
          "indexed": false,
          "internalType": "address",
          "name": "freelancer",
          "type": "address"
        }
      ],
      "name": "RequestSent",
      "type": "event"
    },
    {
      "inputs": [
        {
          "internalType": "uint256",
          "name": "",
          "type": "uint256"
        }
      ],
      "name": "assignedFreelancer",
      "outputs": [
        {
          "internalType": "address",
          "name": "",
          "type": "address"
        }
      ],
      "stateMutability": "view",
      "type": "function",
      "constant": true
    },
    {
      "inputs": [],
      "name": "projectsContract",
      "outputs": [
        {
          "internalType": "contract Projects",
          "name": "",
          "type": "address"
        }
      ],
      "stateMutability": "view",
      "type": "function",
      "constant": true
    },
    {
      "inputs": [
        {
          "internalType": "uint256",
          "name": "",
          "type": "uint256"
        },
        {
          "internalType": "uint256",
          "name": "",
          "type": "uint256"
        }
      ],
      "name": "quotations",
      "outputs": [
        {
          "internalType": "uint256",
          "name": "projectId",
          "type": "uint256"
        },
        {
          "internalType": "address",
          "name": "proposedBy",
          "type": "address"
        },
        {
          "internalType": "uint256",
          "name": "proposedAmount",
          "type": "uint256"
        },
        {
          "internalType": "string",
          "name": "description",
          "type": "string"
        },
        {
          "internalType": "string",
          "name": "negotiationNotes",
          "type": "string"
        },
        {
          "internalType": "enum RequestManager.QuotationStatus",
          "name": "status",
          "type": "uint8"
        },
        {
          "internalType": "uint256",
          "name": "timestamp",
          "type": "uint256"
        }
      ],
      "stateMutability": "view",
      "type": "function",
      "constant": true
    },
    {
      "inputs": [
        {
          "internalType": "uint256",
          "name": "",
          "type": "uint256"
        }
      ],
      "name": "requests",
      "outputs": [
        {
          "internalType": "uint256",
          "name": "projectId",
          "type": "uint256"
        },
        {
          "internalType": "address",
          "name": "freelancer",
          "type": "address"
        },
        {
          "internalType": "uint256",
          "name": "freelancerRating",
          "type": "uint256"
        },
        {
          "internalType": "enum RequestManager.RequestStatus",
          "name": "status",
          "type": "uint8"
        },
        {
          "internalType": "contract Escrow",
          "name": "escrowContract",
          "type": "address"
        }
      ],
      "stateMutability": "view",
      "type": "function",
      "constant": true
    },
    {
      "inputs": [
        {
          "internalType": "uint256",
          "name": "_projectId",
          "type": "uint256"
        },
        {
          "internalType": "uint256",
          "name": "_freelancerRating",
          "type": "uint256"
        }
      ],
      "name": "sendRequest",
      "outputs": [],
      "stateMutability": "nonpayable",
      "type": "function"
    },
    {
      "inputs": [
        {
          "internalType": "uint256",
          "name": "_projectId",
          "type": "uint256"
        }
      ],
      "name": "acceptRequest",
      "outputs": [],
      "stateMutability": "payable",
      "type": "function",
      "payable": true
    },
    {
      "inputs": [
        {
          "internalType": "uint256",
          "name": "_projectId",
          "type": "uint256"
        }
      ],
      "name": "rejectRequest",
      "outputs": [],
      "stateMutability": "nonpayable",
      "type": "function"
    },
    {
      "inputs": [
        {
          "internalType": "uint256",
          "name": "_projectId",
          "type": "uint256"
        },
        {
          "internalType": "uint256",
          "name": "_proposedAmount",
          "type": "uint256"
        },
        {
          "internalType": "string",
          "name": "_description",
          "type": "string"
        }
      ],
      "name": "proposeQuotation",
      "outputs": [],
      "stateMutability": "nonpayable",
      "type": "function"
    },
    {
      "inputs": [
        {
          "internalType": "uint256",
          "name": "_projectId",
          "type": "uint256"
        },
        {
          "internalType": "uint256",
          "name": "_newAmount",
          "type": "uint256"
        },
        {
          "internalType": "string",
          "name": "_notes",
          "type": "string"
        }
      ],
      "name": "counterPropose",
      "outputs": [],
      "stateMutability": "nonpayable",
      "type": "function"
    },
    {
      "inputs": [
        {
          "internalType": "uint256",
          "name": "_projectId",
          "type": "uint256"
        },
        {
          "internalType": "uint256",
          "name": "_quotationIndex",
          "type": "uint256"
        }
      ],
      "name": "acceptQuotation",
      "outputs": [],
      "stateMutability": "payable",
      "type": "function",
      "payable": true
    },
    {
      "inputs": [
        {
          "internalType": "uint256",
          "name": "_projectId",
          "type": "uint256"
        },
        {
          "internalType": "uint256",
          "name": "_quotationIndex",
          "type": "uint256"
        }
      ],
      "name": "rejectQuotation",
      "outputs": [],
      "stateMutability": "nonpayable",
      "type": "function"
    },
    {
      "inputs": [
        {
          "internalType": "uint256",
          "name": "_projectId",
          "type": "uint256"
        }
      ],
      "name": "getQuotations",
      "outputs": [
        {
          "components": [
            {
              "internalType": "uint256",
              "name": "projectId",
              "type": "uint256"
            },
            {
              "internalType": "address",
              "name": "proposedBy",
              "type": "address"
            },
            {
              "internalType": "uint256",
              "name": "proposedAmount",
              "type": "uint256"
            },
            {
              "internalType": "string",
              "name": "description",
              "type": "string"
            },
            {
              "internalType": "string",
              "name": "negotiationNotes",
              "type": "string"
            },
            {
              "internalType": "enum RequestManager.QuotationStatus",
              "name": "status",
              "type": "uint8"
            },
            {
              "internalType": "uint256",
              "name": "timestamp",
              "type": "uint256"
            }
          ],
          "internalType": "struct RequestManager.Quotation[]",
          "name": "",
          "type": "tuple[]"
        }
      ],
      "stateMutability": "view",
      "type": "function",
      "constant": true
    },
    {
      "inputs": [
        {
          "internalType": "uint256",
          "name": "_projectId",
          "type": "uint256"
        }
      ],
      "name": "getLatestQuotation",
      "outputs": [
        {
          "components": [
            {
              "internalType": "uint256",
              "name": "projectId",
              "type": "uint256"
            },
            {
              "internalType": "address",
              "name": "proposedBy",
              "type": "address"
            },
            {
              "internalType": "uint256",
              "name": "proposedAmount",
              "type": "uint256"
            },
            {
              "internalType": "string",
              "name": "description",
              "type": "string"
            },
            {
              "internalType": "string",
              "name": "negotiationNotes",
              "type": "string"
            },
            {
              "internalType": "enum RequestManager.QuotationStatus",
              "name": "status",
              "type": "uint8"
            },
            {
              "internalType": "uint256",
              "name": "timestamp",
              "type": "uint256"
            }
          ],
          "internalType": "struct RequestManager.Quotation",
          "name": "",
          "type": "tuple"
        }
      ],
      "stateMutability": "view",
      "type": "function",
      "constant": true
    },
    {
      "inputs": [
        {
          "internalType": "uint256",
          "name": "_projectId",
          "type": "uint256"
        }
      ],
      "name": "isProjectAssigned",
      "outputs": [
        {
          "internalType": "bool",
          "name": "",
          "type": "bool"
        }
      ],
      "stateMutability": "view",
      "type": "function",
      "constant": true
    },
    {
      "inputs": [
        {
          "internalType": "uint256",
          "name": "_projectId",
          "type": "uint256"
        }
      ],
      "name": "getRequest",
      "outputs": [
        {
          "components": [
            {
              "internalType": "uint256",
              "name": "projectId",
              "type": "uint256"
            },
            {
              "internalType": "address",
              "name": "freelancer",
              "type": "address"
            },
            {
              "internalType": "uint256",
              "name": "freelancerRating",
              "type": "uint256"
            },
            {
              "internalType": "enum RequestManager.RequestStatus",
              "name": "status",
              "type": "uint8"
            },
            {
              "internalType": "contract Escrow",
              "name": "escrowContract",
              "type": "address"
            }
          ],
          "internalType": "struct RequestManager.Request",
          "name": "",
          "type": "tuple"
        }
      ],
      "stateMutability": "view",
      "type": "function",
      "constant": true
    }
  ],
  "bytecode": "0x6080604052348015600f57600080fd5b50604051612e53380380612e53833981016040819052602c916050565b60008054600160a060020a031916600160a060020a0392909216919091179055607e565b600060208284031215606157600080fd5b8151600160a060020a0381168114607757600080fd5b9392505050565b612dc68061008d6000396000f3fe6080604052600436106100ec5760003560e060020a900480634c2fb2551161008e578063857b55481161005d578063857b5548146102f057806397302bc81461031d578063b3db5c941461034a578063c58343ef1461036a57600080fd5b80634c2fb255146101ec5780637d9effef1461021f57806381d12c581461023f57806383f5f230146102a857600080fd5b806339028dec116100ca57806339028dec1461018657806341ff9d11146101a65780634ba1f098146101b95780634bd335b8146101cc57600080fd5b80631301586c146100f157806322a7fd07146101135780632d7788db14610166575b600080fd5b3480156100fd57600080fd5b5061011161010c366004612310565b610397565b005b34801561011f57600080fd5b5061014961012e366004612332565b600360205260009081526040902054600160a060020a031681565b604051600160a060020a0390911681526020015b60405180910390f35b34801561017257600080fd5b50610111610181366004612332565b61065e565b34801561019257600080fd5b506101116101a13660046123bd565b6108e7565b6101116101b4366004612310565b610d70565b6101116101c7366004612332565b61123b565b3480156101d857600080fd5b5060005461014990600160a060020a031681565b3480156101f857600080fd5b5061020c610207366004612310565b6115dc565b60405161015d97969594939291906124cd565b34801561022b57600080fd5b5061011161023a3660046123bd565b611756565b34801561024b57600080fd5b5061029761025a366004612332565b60016020819052600091825260409091208054918101546002820154600390920154600160a060020a03918216929160ff82169161010090041685565b60405161015d95949392919061253f565b3480156102b457600080fd5b506102e06102c3366004612332565b600090815260036020526040902054600160a060020a0316151590565b604051901515815260200161015d565b3480156102fc57600080fd5b5061031061030b366004612332565b611b25565b60405161015d9190612601565b34801561032957600080fd5b5061033d610338366004612332565b611d23565b60405161015d9190612666565b34801561035657600080fd5b50610111610365366004612310565b611f79565b34801561037657600080fd5b5061038a610385366004612332565b6121f1565b60405161015d9190612680565b60008211801561041e575060008054906101000a9004600160a060020a0316600160a060020a03166336fbad266040518163ffffffff1660e060020a028152600401602060405180830381865afa1580156103f6573d6000803e3d6000fd5b505050506040513d601f19601f8201168201806040525081019061041a91906126d3565b8211155b6104465760405160e560020a62461bcd02815260040161043d906126ec565b60405180910390fd5b60008281526002602052604090205481106104a65760405160e560020a62461bcd02815260206004820152601760248201527f496e76616c69642071756f746174696f6e20696e646578000000000000000000604482015260640161043d565b6000805460405160e360020a631e1e7e59028152600481018590528291600160a060020a03169063f0f3f2c890602401600060405180830381865afa1580156104f3573d6000803e3d6000fd5b505050506040513d6000823e601f3d908101601f1916820160405261051b919081019061278c565b5090965094506001935061052e92505050565b826001811115610540576105406124a0565b146105605760405160e560020a62461bcd02815260040161043d90612843565b33600160a060020a038216146105e15760405160e560020a62461bcd02815260206004820152602260248201527f4f6e6c7920656d706c6f7965722063616e2072656a6563742071756f7461746960448201527f6f6e000000000000000000000000000000000000000000000000000000000000606482015260840161043d565b60008481526002602052604081208054859081106106015761060161287a565b60009182526020918290206005600790920201908101805460ff191660041790556040518781529092507f6ba13ccf38e1630058b978f3457e3c065946df004bbd348544427653ab81f68b91015b60405180910390a15050505050565b60008181526001602081905260409091200154600160a060020a03166106995760405160e560020a62461bcd02815260040161043d90612893565b60008181526001602052604081206003015460ff1660028111156106bf576106bf6124a0565b1461070f5760405160e560020a62461bcd02815260206004820152601960248201527f5265717565737420616c72656164792070726f63657373656400000000000000604482015260640161043d565b6000805460405160e360020a631e1e7e59028152600481018490528291600160a060020a03169063f0f3f2c890602401600060405180830381865afa15801561075c573d6000803e3d6000fd5b505050506040513d6000823e601f3d908101601f19168201604052610784919081019061278c565b5090965094506001935061079792505050565b8260018111156107a9576107a96124a0565b146107f95760405160e560020a62461bcd02815260206004820152601460248201527f50726f6a656374206d757374206265206f70656e000000000000000000000000604482015260640161043d565b33600160a060020a0382161461087a5760405160e560020a62461bcd02815260206004820152602960248201527f4f6e6c792074686520656d706c6f7965722063616e2072656a6563742074686960448201527f7320726571756573740000000000000000000000000000000000000000000000606482015260840161043d565b60008381526001602081815260409283902060038101805460ff19166002179055909101548251868152600160a060020a03909116918101919091527f490ad67e4c8b3b9c1d11dfcd7f02e155190b8f6feff3a9d9e9df3721f0f74e5791015b60405180910390a1505050565b60008311801561096e575060008054906101000a9004600160a060020a0316600160a060020a03166336fbad266040518163ffffffff1660e060020a028152600401602060405180830381865afa158015610946573d6000803e3d6000fd5b505050506040513d601f19601f8201168201806040525081019061096a91906126d3565b8311155b61098d5760405160e560020a62461bcd02815260040161043d906126ec565b600082116109e05760405160e560020a62461bcd02815260206004820152601d60248201527f416d6f756e74206d7573742062652067726561746572207468616e2030000000604482015260640161043d565b600083815260026020526040902054610a635760405160e560020a62461bcd028152602060048201526024808201527f4e6f2071756f746174696f6e7320657869737420666f7220746869732070726f60448201527f6a65637400000000000000000000000000000000000000000000000000000000606482015260840161043d565b6000805460405160e360020a631e1e7e590281526004810186905282918291600160a060020a039091169063f0f3f2c890602401600060405180830381865afa158015610ab4573d6000803e3d6000fd5b505050506040513d6000823e601f3d908101601f19168201604052610adc919081019061278c565b509197509550935060019250610af0915050565b826001811115610b0257610b026124a0565b14610b785760405160e560020a62461bcd02815260206004820152602360248201527f50726f6a656374206973206e6f74206f70656e20666f72206e65676f7469617460448201527f696f6e0000000000000000000000000000000000000000000000000000000000606482015260840161043d565b60008681526002602052604081208054909190610b97906001906128f0565b90506000828281548110610bad57610bad61287a565b600091825260208083208c84526001918290526040909320810154600790920290920191820154919250600160a060020a03908116911603610c6f5733600160a060020a03851614610c6a5760405160e560020a62461bcd02815260206004820152603860248201527f4f6e6c7920656d706c6f7965722063616e20636f756e7465722d6f666665722060448201527f6f6e20667265656c616e63657227732070726f706f73616c0000000000000000606482015260840161043d565b610d02565b60008981526001602081905260409091200154600160a060020a03163314610d025760405160e560020a62461bcd02815260206004820152603860248201527f4f6e6c7920667265656c616e6365722063616e20636f756e7465722d6f66666560448201527f72206f6e20656d706c6f79657227732070726f706f73616c0000000000000000606482015260840161043d565b60058101805460ff19166002908117909155810188905560048101610d2788826129b3565b507f7041399863d3c4321ae1532f5491889c4d2d545fe190c428f5fd525f5b68c5af89338a8a604051610d5d9493929190612a7c565b60405180910390a1505050505050505050565b600082118015610df7575060008054906101000a9004600160a060020a0316600160a060020a03166336fbad266040518163ffffffff1660e060020a028152600401602060405180830381865afa158015610dcf573d6000803e3d6000fd5b505050506040513d601f19601f82011682018060405250810190610df391906126d3565b8211155b610e165760405160e560020a62461bcd02815260040161043d906126ec565b6000828152600260205260409020548110610e765760405160e560020a62461bcd02815260206004820152601760248201527f496e76616c69642071756f746174696f6e20696e646578000000000000000000604482015260640161043d565b6000805460405160e360020a631e1e7e590281526004810185905282918291600160a060020a039091169063f0f3f2c890602401600060405180830381865afa158015610ec7573d6000803e3d6000fd5b505050506040513d6000823e601f3d908101601f19168201604052610eef919081019061278c565b509197509550935060019250610f03915050565b826001811115610f1557610f156124a0565b14610f355760405160e560020a62461bcd02815260040161043d90612843565b33600160a060020a03821614610fb65760405160e560020a62461bcd02815260206004820152602260248201527f4f6e6c7920656d706c6f7965722063616e206163636570742071756f7461746960448201527f6f6e000000000000000000000000000000000000000000000000000000000000606482015260840161043d565b6000858152600260205260408120805486908110610fd657610fd661287a565b6000918252602090912060079091020190506001600582015460ff166004811115611003576110036124a0565b148061102757506002600582015460ff166004811115611025576110256124a0565b145b6110765760405160e560020a62461bcd02815260206004820152601c60248201527f51756f746174696f6e2063616e6e6f7420626520616363657074656400000000604482015260640161043d565b806002015434146110f25760405160e560020a62461bcd02815260206004820152602660248201527f53656e7420616d6f756e74206d757374206d617463682070726f706f7365642060448201527f616d6f756e740000000000000000000000000000000000000000000000000000606482015260840161043d565b60058101805460ff1916600317905560028101546000878152600160208190526040808320909101549051919291600160a060020a039091169085908390611139906122ac565b600160a060020a03938416815292909116602083015260408201526060016040518091039082f0905080158015611174573d6000803e3d6000fd5b5060008881526001602081815260408084206003808201805460ff19600160a060020a038a8116610100029190911674ffffffffffffffffffffffffffffffffffffffffff19909216919091178717909155919094015493835293819020805473ffffffffffffffffffffffffffffffffffffffff19169390941692909217909255600285015481518b8152928301529192507f30981c9cd8c9ae5e869821a79087b12d5bd6fc4aeaabf85fbf091cfff2f36797910160405180910390a150505050505050565b60008181526001602081905260409091200154600160a060020a03166112765760405160e560020a62461bcd02815260040161043d90612893565b60008181526001602052604081206003015460ff16600281111561129c5761129c6124a0565b146112ec5760405160e560020a62461bcd02815260206004820152601960248201527f5265717565737420616c72656164792070726f63657373656400000000000000604482015260640161043d565b6000805460405160e360020a631e1e7e590281526004810184905282918291600160a060020a039091169063f0f3f2c890602401600060405180830381865afa15801561133d573d6000803e3d6000fd5b505050506040513d6000823e601f3d908101601f19168201604052611365919081019061278c565b509197509550935060019250611379915050565b82600181111561138b5761138b6124a0565b146113db5760405160e560020a62461bcd02815260206004820152601460248201527f50726f6a656374206d757374206265206f70656e000000000000000000000000604482015260640161043d565b33600160a060020a0382161461145c5760405160e560020a62461bcd02815260206004820152602960248201527f4f6e6c792074686520656d706c6f7965722063616e206163636570742074686960448201527f7320726571756573740000000000000000000000000000000000000000000000606482015260840161043d565b8234146114ae5760405160e560020a62461bcd02815260206004820152601c60248201527f496e636f72726563742072657761726420616d6f756e742073656e7400000000604482015260640161043d565b60008481526001602081905260408083209091015490518591600160a060020a031690849083906114de906122ac565b600160a060020a03938416815292909116602083015260408201526060016040518091039082f0905080158015611519573d6000803e3d6000fd5b5060008681526001602081815260408084206003808201805474ffffffffffffffffffffffffffffffffffffffffff1916610100600160a060020a038a811691820260ff1916929092178817909255928601805492865296849020805492841673ffffffffffffffffffffffffffffffffffffffff1990931692909217909155938352935481518b81529416918401919091528201529091507fac8064fea85b95641f19e230ba9da498102d474473fe4b103466cb224daf5e019060600161064f565b600260205281600052604060002081815481106115f857600080fd5b60009182526020909120600790910201805460018201546002830154600384018054939650600160a060020a03909216945092916116359061291a565b80601f01602080910402602001604051908101604052809291908181526020018280546116619061291a565b80156116ae5780601f10611683576101008083540402835291602001916116ae565b820191906000526020600020905b81548152906001019060200180831161169157829003601f168201915b5050505050908060040180546116c39061291a565b80601f01602080910402602001604051908101604052809291908181526020018280546116ef9061291a565b801561173c5780601f106117115761010080835404028352916020019161173c565b820191906000526020600020905b81548152906001019060200180831161171f57829003601f168201915b505050506005830154600690930154919260ff1691905087565b6000831180156117dd575060008054906101000a9004600160a060020a0316600160a060020a03166336fbad266040518163ffffffff1660e060020a028152600401602060405180830381865afa1580156117b5573d6000803e3d6000fd5b505050506040513d601f19601f820116820180604052508101906117d991906126d3565b8311155b6117fc5760405160e560020a62461bcd02815260040161043d906126ec565b6000821161184f5760405160e560020a62461bcd02815260206004820152601d60248201527f416d6f756e74206d7573742062652067726561746572207468616e2030000000604482015260640161043d565b60008151116118a35760405160e560020a62461bcd02815260206004820152601b60248201527f4465736372697074696f6e2063616e6e6f7420626520656d7074790000000000604482015260640161043d565b6000805460405160e360020a631e1e7e59028152600481018690528291600160a060020a03169063f0f3f2c890602401600060405180830381865afa1580156118f0573d6000803e3d6000fd5b505050506040513d6000823e601f3d908101601f19168201604052611918919081019061278c565b5090965094506001935061192b92505050565b82600181111561193d5761193d6124a0565b146119b35760405160e560020a62461bcd02815260206004820152602260248201527f50726f6a656374206973206e6f74206f70656e20666f722071756f746174696f60448201527f6e73000000000000000000000000000000000000000000000000000000000000606482015260840161043d565b60006040518060e0016040528087815260200133600160a060020a0316815260200186815260200185815260200160405180602001604052806000815250815260200160016004811115611a0957611a096124a0565b81524260209182015260008881526002808352604080832080546001808201835591855293859020865160079095020193845593850151938301805473ffffffffffffffffffffffffffffffffffffffff1916600160a060020a03909516949094179093559183015191810191909155606082015191925082916003820190611a9290826129b3565b5060808201516004820190611aa790826129b3565b5060a082015160058201805460ff19166001836004811115611acb57611acb6124a0565b021790555060c09190910151600690910155604080518781523360208201529081018690527faf24b5c95c71d4afa309bff2d28e48f37eb326d372f70e7020680835383f3fde9060600160405180910390a1505050505050565b606060026000838152602001908152602001600020805480602002602001604051908101604052809291908181526020016000905b82821015611d185760008481526020908190206040805160e08101825260078602909201805483526001810154600160a060020a031693830193909352600283015490820152600382018054919291606084019190611bb89061291a565b80601f0160208091040260200160405190810160405280929190818152602001828054611be49061291a565b8015611c315780601f10611c0657610100808354040283529160200191611c31565b820191906000526020600020905b815481529060010190602001808311611c1457829003601f168201915b50505050508152602001600482018054611c4a9061291a565b80601f0160208091040260200160405190810160405280929190818152602001828054611c769061291a565b8015611cc35780601f10611c9857610100808354040283529160200191611cc3565b820191906000526020600020905b815481529060010190602001808311611ca657829003601f168201915b5050509183525050600582015460209091019060ff166004811115611cea57611cea6124a0565b6004811115611cfb57611cfb6124a0565b815260200160068201548152505081526020019060010190611b5a565b505050509050919050565b611d2b6122b9565b600082815260026020526040902054611d895760405160e560020a62461bcd02815260206004820152601e60248201527f4e6f2071756f746174696f6e7320666f7220746869732070726f6a6563740000604482015260640161043d565b60008281526002602052604090208054611da5906001906128f0565b81548110611db557611db561287a565b90600052602060002090600702016040518060e0016040529081600082015481526020016001820160009054906101000a9004600160a060020a0316600160a060020a0316600160a060020a0316815260200160028201548152602001600382018054611e219061291a565b80601f0160208091040260200160405190810160405280929190818152602001828054611e4d9061291a565b8015611e9a5780601f10611e6f57610100808354040283529160200191611e9a565b820191906000526020600020905b815481529060010190602001808311611e7d57829003601f168201915b50505050508152602001600482018054611eb39061291a565b80601f0160208091040260200160405190810160405280929190818152602001828054611edf9061291a565b8015611f2c5780601f10611f0157610100808354040283529160200191611f2c565b820191906000526020600020905b815481529060010190602001808311611f0f57829003601f168201915b5050509183525050600582015460209091019060ff166004811115611f5357611f536124a0565b6004811115611f6457611f646124a0565b81526020016006820154815250509050919050565b600082118015612000575060008054906101000a9004600160a060020a0316600160a060020a03166336fbad266040518163ffffffff1660e060020a028152600401602060405180830381865afa158015611fd8573d6000803e3d6000fd5b505050506040513d601f19601f82011682018060405250810190611ffc91906126d3565b8211155b61201f5760405160e560020a62461bcd02815260040161043d906126ec565b6000805460405160e360020a631e1e7e5902815260048101859052600160a060020a039091169063f0f3f2c890602401600060405180830381865afa15801561206c573d6000803e3d6000fd5b505050506040513d6000823e601f3d908101601f19168201604052612094919081019061278c565b50909550600194506120a69350505050565b8160018111156120b8576120b86124a0565b146120d85760405160e560020a62461bcd02815260040161043d90612843565b6040805160a08101825284815233602082015290810183905260608101600081526000602091820181905285815260018083526040918290208451815592840151838201805473ffffffffffffffffffffffffffffffffffffffff1916600160a060020a039092169190911790559083015160028084019190915560608401516003840180549193909260ff1990921691849081111561217a5761217a6124a0565b02179055506080919091015160039091018054600160a060020a039092166101000274ffffffffffffffffffffffffffffffffffffffff0019909216919091179055604080518481523360208201527f48b98ad7a8a8dbe21cc82bf98710ad4d2cdd949ccac393692e4d9a1722c162c791016108da565b6040805160a0808201835260008083526020808401829052838501829052606080850183905260808501839052868352600180835292869020865194850187528054855292830154600160a060020a0316918401919091526002808301549584019590955260038201549394929391929084019160ff1690811115612278576122786124a0565b6002811115612289576122896124a0565b8152600391909101546101009004600160a060020a031660209091015292915050565b6102dc80612ab583390190565b6040518060e00160405280600081526020016000600160a060020a0316815260200160008152602001606081526020016060815260200160006004811115612303576123036124a0565b8152602001600081525090565b6000806040838503121561232357600080fd5b50508035926020909101359150565b60006020828403121561234457600080fd5b5035919050565b60e060020a634e487b7102600052604160045260246000fd5b604051601f8201601f1916810167ffffffffffffffff8111828210171561238d5761238d61234b565b604052919050565b600067ffffffffffffffff8211156123af576123af61234b565b50601f01601f191660200190565b6000806000606084860312156123d257600080fd5b8335925060208401359150604084013567ffffffffffffffff8111156123f757600080fd5b8401601f8101861361240857600080fd5b803561241b61241682612395565b612364565b81815287602083850101111561243057600080fd5b816020840160208301376000602083830101528093505050509250925092565b60005b8381101561246b578181015183820152602001612453565b50506000910152565b6000815180845261248c816020860160208601612450565b601f01601f19169290920160200192915050565b60e060020a634e487b7102600052602160045260246000fd5b600581106124c9576124c96124a0565b9052565b878152600160a060020a038716602082015285604082015260e0606082015260006124fb60e0830187612474565b828103608084015261250d8187612474565b91505061251d60a08301856124b9565b8260c083015298975050505050505050565b600381106124c9576124c96124a0565b858152600160a060020a03851660208201526040810184905260a08101612569606083018561252f565b600160a060020a03831660808301529695505050505050565b80518252600160a060020a036020820151166020830152604081015160408301526000606082015160e060608501526125be60e0850182612474565b9050608083015184820360808601526125d78282612474565b91505060a08301516125ec60a08601826124b9565b5060c083015160c08501528091505092915050565b6000602082016020835280845180835260408501915060406020820286010192506020860160005b8281101561265a57603f19878603018452612645858351612582565b94506020938401939190910190600101612629565b50929695505050505050565b6020815260006126796020830184612582565b9392505050565b600060a08201905082518252600160a060020a0360208401511660208301526040830151604083015260608301516126bb606084018261252f565b50608092830151600160a060020a0316919092015290565b6000602082840312156126e557600080fd5b5051919050565b60208082526012908201527f496e76616c69642070726f6a6563742049440000000000000000000000000000604082015260600190565b600082601f83011261273457600080fd5b815161274261241682612395565b81815284602083860101111561275757600080fd5b612768826020830160208701612450565b949350505050565b8051600160a060020a038116811461278757600080fd5b919050565b600080600080600080600060e0888a0312156127a757600080fd5b8751602089015190975067ffffffffffffffff8111156127c657600080fd5b6127d28a828b01612723565b965050604088015167ffffffffffffffff8111156127ef57600080fd5b6127fb8a828b01612723565b60608a015160808b0151919750955090506002811061281957600080fd5b925061282760a08901612770565b915061283560c08901612770565b905092959891949750929550565b60208082526013908201527f50726f6a656374206973206e6f74206f70656e00000000000000000000000000604082015260600190565b60e060020a634e487b7102600052603260045260246000fd5b60208082526022908201527f4e6f20726571756573742065786973747320666f7220746869732070726f6a6560408201527f6374000000000000000000000000000000000000000000000000000000000000606082015260800190565b818103818111156129145760e060020a634e487b7102600052601160045260246000fd5b92915050565b60028104600182168061292e57607f821691505b6020821081036129515760e060020a634e487b7102600052602260045260246000fd5b50919050565b601f8211156129ae57828211156129ae578060005260206000206020601f8501046020851015612985575060005b908101906020601f8501040360005b818110156129aa57600083820155600101612994565b5050505b505050565b815167ffffffffffffffff8111156129cd576129cd61234b565b6129e1816129db845461291a565b84612957565b6020601f821160018114612a1957600083156129fd5750848201515b60088402600290810a6000190419821690850217855550612a75565b600084815260208120601f198516915b82811015612a495787850151825560209485019460019092019101612a29565b5084821015612a695783870151601f861660080260020a60001904191681555b50506001600284020184555b5050505050565b848152600160a060020a0384166020820152826040820152608060608201526000612aaa6080830184612474565b969550505050505056fe60806040526040516102dc3803806102dc8339810160408190526020916072565b60008054600160a060020a03948516600160a060020a031991821617909155600180549390941692169190911790915560025560a9565b8051600160a060020a0381168114606d57600080fd5b919050565b600080600060608486031215608657600080fd5b608d846057565b92506099602085016057565b9150604084015190509250925092565b610224806100b86000396000f3fe608060405234801561001057600080fd5b5060043610610068577c0100000000000000000000000000000000000000000000000000000000600035046369d89575811461006d578063a37dda2c14610077578063aa8c217c146100c1578063ae200e79146100d8575b600080fd5b6100756100f8565b005b6000546100979073ffffffffffffffffffffffffffffffffffffffff1681565b60405173ffffffffffffffffffffffffffffffffffffffff90911681526020015b60405180910390f35b6100ca60025481565b6040519081526020016100b8565b6001546100979073ffffffffffffffffffffffffffffffffffffffff1681565b60015473ffffffffffffffffffffffffffffffffffffffff1633146101a3576040517f08c379a000000000000000000000000000000000000000000000000000000000815260206004820152602360248201527f4f6e6c792074686520656d706c6f7965722063616e2072656c6561736520667560448201527f6e64730000000000000000000000000000000000000000000000000000000000606482015260840160405180910390fd5b6000805460025460405173ffffffffffffffffffffffffffffffffffffffff9092169281156108fc029290818181858888f193505050501580156101eb573d6000803e3d6000fd5b5056fea2646970667358221220924b63839f876cd82789e732fd85a5e05bdfd0dacddf17eea4c19ae4315b0e4564736f6c63430008220033a2646970667358221220e3bcffd32394a56b0781e5226112d206012f06735972216d7fd2993d5b48770764736f6c63430008220033",
  "immutableReferences": {},
  "source": "// SPDX-License-Identifier: MIT\r\npragma solidity ^0.8.0;\r\n\r\nimport \"./Projects.sol\";\r\n\r\ncontract Escrow {\r\n    address public freelancer;\r\n    address public employer;\r\n    uint public amount;\r\n\r\n    constructor(address _freelancer, address _employer, uint _amount) payable {\r\n        freelancer = _freelancer;\r\n        employer = _employer;\r\n        amount = _amount;\r\n    }\r\n\r\n    function releaseFunds() external {\r\n        require(msg.sender == employer, \"Only the employer can release funds\");\r\n        payable(freelancer).transfer(amount);\r\n    }\r\n}\r\n\r\ncontract RequestManager {\r\n\r\n    Projects public projectsContract;\r\n\r\n    enum RequestStatus { Pending, Accepted, Rejected }\r\n    enum QuotationStatus { Pending, Proposed, Negotiating, Accepted, Rejected }\r\n\r\n    struct Request {\r\n        uint projectId;\r\n        address freelancer;\r\n        uint freelancerRating;\r\n        RequestStatus status;\r\n        Escrow escrowContract;\r\n    }\r\n\r\n    struct Quotation {\r\n        uint projectId;\r\n        address proposedBy; // freelancer or employer address\r\n        uint proposedAmount;\r\n        string description;\r\n        string negotiationNotes;\r\n        QuotationStatus status;\r\n        uint timestamp;\r\n    }\r\n\r\n    mapping(uint => Request) public requests;\r\n    mapping(uint => Quotation[]) public quotations; // projectId => array of quotations\r\n    mapping(uint => address) public assignedFreelancer; // projectId => freelancer address (for quick lookup)\r\n\r\n    event RequestSent(uint projectId, address freelancer);\r\n    event RequestAccepted(uint projectId, address freelancer, address escrowContract);\r\n    event RequestRejected(uint projectId, address freelancer);\r\n    event QuotationProposed(uint projectId, address proposedBy, uint amount);\r\n    event QuotationCounterProposed(uint projectId, address proposedBy, uint amount, string notes);\r\n    event QuotationAccepted(uint projectId, uint newAmount);\r\n    event QuotationRejected(uint projectId);\r\n\r\n    constructor(address _projectsContract) {\r\n        projectsContract = Projects(_projectsContract);\r\n    }\r\n\r\n    function sendRequest(uint _projectId, uint _freelancerRating) public {\r\n        require(_projectId > 0 && _projectId <= projectsContract.projectCount(), \"Invalid project ID\");\r\n        (,, , , Projects.Status status, , ) = projectsContract.getProject(_projectId);\r\n        require(status == Projects.Status.Open, \"Project is not open\");\r\n\r\n        requests[_projectId] = Request({\r\n            projectId: _projectId,\r\n            freelancer: msg.sender,\r\n            freelancerRating: _freelancerRating,\r\n            status: RequestStatus.Pending,\r\n            escrowContract: Escrow(address(0))\r\n        });\r\n\r\n        emit RequestSent(_projectId, msg.sender);\r\n    }\r\n\r\n    function acceptRequest(uint _projectId) public payable {\r\n        require(requests[_projectId].freelancer != address(0), \"No request exists for this project\");\r\n        require(requests[_projectId].status == RequestStatus.Pending, \"Request already processed\");\r\n\r\n        (, , , uint reward, Projects.Status status, address employer, ) = projectsContract.getProject(_projectId);\r\n        require(status == Projects.Status.Open, \"Project must be open\");\r\n        require(msg.sender == employer, \"Only the employer can accept this request\");\r\n        require(msg.value == reward, \"Incorrect reward amount sent\");\r\n\r\n        // Create new escrow contract instance with freelancer and employer details\r\n        Escrow escrow = new Escrow{value: reward}(requests[_projectId].freelancer, employer, reward);\r\n        requests[_projectId].escrowContract = escrow;\r\n\r\n        requests[_projectId].status = RequestStatus.Accepted;\r\n        \r\n        // Mark freelancer as assigned\r\n        assignedFreelancer[_projectId] = requests[_projectId].freelancer;\r\n        \r\n        // NOTE: Removed projectsContract.closeProject() call due to authorization issues\r\n        // The project status should be managed separately or the contract should be redesigned\r\n        \r\n        emit RequestAccepted(_projectId, requests[_projectId].freelancer, address(escrow));\r\n    }\r\n\r\n    function rejectRequest(uint _projectId) public {\r\n        require(requests[_projectId].freelancer != address(0), \"No request exists for this project\");\r\n        require(requests[_projectId].status == RequestStatus.Pending, \"Request already processed\");\r\n\r\n        (, , , , Projects.Status status, address employer, ) = projectsContract.getProject(_projectId);\r\n        require(status == Projects.Status.Open, \"Project must be open\");\r\n        require(msg.sender == employer, \"Only the employer can reject this request\");\r\n\r\n        requests[_projectId].status = RequestStatus.Rejected;\r\n        emit RequestRejected(_projectId, requests[_projectId].freelancer);\r\n    }\r\n\r\n    function proposeQuotation(uint _projectId, uint _proposedAmount, string memory _description) public {\r\n        require(_projectId > 0 && _projectId <= projectsContract.projectCount(), \"Invalid project ID\");\r\n        require(_proposedAmount > 0, \"Amount must be greater than 0\");\r\n        require(bytes(_description).length > 0, \"Description cannot be empty\");\r\n        \r\n        (,,,, Projects.Status status, address employer, ) = projectsContract.getProject(_projectId);\r\n        require(status == Projects.Status.Open, \"Project is not open for quotations\");\r\n        \r\n        // New workflow: Any freelancer can propose, employer can counter-offer\r\n        // Removed restriction on who can propose since system now allows direct proposals\r\n\r\n        Quotation memory newQuotation = Quotation({\r\n            projectId: _projectId,\r\n            proposedBy: msg.sender,\r\n            proposedAmount: _proposedAmount,\r\n            description: _description,\r\n            negotiationNotes: \"\",\r\n            status: QuotationStatus.Proposed,\r\n            timestamp: block.timestamp\r\n        });\r\n\r\n        quotations[_projectId].push(newQuotation);\r\n        emit QuotationProposed(_projectId, msg.sender, _proposedAmount);\r\n    }\r\n\r\n    function counterPropose(uint _projectId, uint _newAmount, string memory _notes) public {\r\n        require(_projectId > 0 && _projectId <= projectsContract.projectCount(), \"Invalid project ID\");\r\n        require(_newAmount > 0, \"Amount must be greater than 0\");\r\n        require(quotations[_projectId].length > 0, \"No quotations exist for this project\");\r\n        \r\n        (,,,uint reward, Projects.Status status, address employer, ) = projectsContract.getProject(_projectId);\r\n        require(status == Projects.Status.Open, \"Project is not open for negotiation\");\r\n        \r\n        Quotation[] storage projQuotations = quotations[_projectId];\r\n        uint lastIdx = projQuotations.length - 1;\r\n        Quotation storage lastQuotation = projQuotations[lastIdx];\r\n        \r\n        // Counter offer must come from the other party\r\n        if (lastQuotation.proposedBy == requests[_projectId].freelancer) {\r\n            require(msg.sender == employer, \"Only employer can counter-offer on freelancer's proposal\");\r\n        } else {\r\n            require(msg.sender == requests[_projectId].freelancer, \"Only freelancer can counter-offer on employer's proposal\");\r\n        }\r\n        \r\n        lastQuotation.status = QuotationStatus.Negotiating;\r\n        lastQuotation.proposedAmount = _newAmount;\r\n        lastQuotation.negotiationNotes = _notes;\r\n        \r\n        emit QuotationCounterProposed(_projectId, msg.sender, _newAmount, _notes);\r\n    }\r\n\r\n    function acceptQuotation(uint _projectId, uint _quotationIndex) public payable {\r\n        require(_projectId > 0 && _projectId <= projectsContract.projectCount(), \"Invalid project ID\");\r\n        require(_quotationIndex < quotations[_projectId].length, \"Invalid quotation index\");\r\n        \r\n        (,,,uint originalReward, Projects.Status status, address employer, ) = projectsContract.getProject(_projectId);\r\n        require(status == Projects.Status.Open, \"Project is not open\");\r\n        require(msg.sender == employer, \"Only employer can accept quotation\");\r\n        \r\n        Quotation storage quotation = quotations[_projectId][_quotationIndex];\r\n        require(quotation.status == QuotationStatus.Proposed || quotation.status == QuotationStatus.Negotiating, \"Quotation cannot be accepted\");\r\n        require(msg.value == quotation.proposedAmount, \"Sent amount must match proposed amount\");\r\n        \r\n        quotation.status = QuotationStatus.Accepted;\r\n        \r\n        // Create escrow with new amount\r\n        Escrow escrow = new Escrow{value: quotation.proposedAmount}(requests[_projectId].freelancer, employer, quotation.proposedAmount);\r\n        requests[_projectId].escrowContract = escrow;\r\n        requests[_projectId].status = RequestStatus.Accepted;\r\n        \r\n        assignedFreelancer[_projectId] = requests[_projectId].freelancer;\r\n        \r\n        // NOTE: Removed projectsContract.closeProject() call due to authorization issues\r\n        // The project status should be managed separately or the contract should be redesigned\r\n        // to allow RequestManager to close projects on behalf of the employer\r\n        \r\n        emit QuotationAccepted(_projectId, quotation.proposedAmount);\r\n    }\r\n\r\n    function rejectQuotation(uint _projectId, uint _quotationIndex) public {\r\n        require(_projectId > 0 && _projectId <= projectsContract.projectCount(), \"Invalid project ID\");\r\n        require(_quotationIndex < quotations[_projectId].length, \"Invalid quotation index\");\r\n        \r\n        (,,,, Projects.Status status, address employer, ) = projectsContract.getProject(_projectId);\r\n        require(status == Projects.Status.Open, \"Project is not open\");\r\n        require(msg.sender == employer, \"Only employer can reject quotation\");\r\n        \r\n        Quotation storage quotation = quotations[_projectId][_quotationIndex];\r\n        quotation.status = QuotationStatus.Rejected;\r\n        \r\n        emit QuotationRejected(_projectId);\r\n    }\r\n\r\n    function getQuotations(uint _projectId) public view returns (Quotation[] memory) {\r\n        return quotations[_projectId];\r\n    }\r\n\r\n    function getLatestQuotation(uint _projectId) public view returns (Quotation memory) {\r\n        require(quotations[_projectId].length > 0, \"No quotations for this project\");\r\n        return quotations[_projectId][quotations[_projectId].length - 1];\r\n    }\r\n\r\n    function isProjectAssigned(uint _projectId) public view returns (bool) {\r\n        return assignedFreelancer[_projectId] != address(0);\r\n    }\r\n\r\n    function getRequest(uint _projectId) public view returns (Request memory) {\r\n        return requests[_projectId];\r\n    }\r\n}\r\n",
  "sourcePath": "C:\\Users\\malik\\OneDrive\\Desktop\\BTECH\\Final_year_project\\Lance-With-quote\\contracts\\RequestManager.sol",
  "compiler": {
    "name": "solc",
    "version": "0.8.34+commit.80d5c536.Emscripten.clang"
  },
  "schemaVersion": "3.4.16",
  "updatedAt": "2026-04-19T17:47:39.601Z",
  "networkType": "ethereum",
  "devdoc": {
    "kind": "dev",
    "methods": {},
    "version": 1
  },
  "userdoc": {
    "kind": "user",
    "methods": {},
    "version": 1
  }
}